:4000000000800020110000009D0100009D01000008B5044B1A6803F53F5302331A6000F0D7F800BFFA46004010B5054C237833B9044B13B10448AFF300800123237010BD6C
:400040009081FF1F000000002840000008B5064B1BB106480649AFF300800648036813B1054B03B1984708BD00000000284000009481FF1F0881FF1F0000000008B500F03C
:4000800065FD002000F06EFBA8B100F07DFB0A4B18800A4B1B88B3F5806F06D2074A02EB430188800133138008BD044B0122A3F8042800221A8008BDF4A1FF1FAC81FF1F82
:4000C0000022134606E0C15C0A2901D1501C704701320133072BF6DD104670472DE9F04385B062B600F07EFD00F07EFC00F0F8FC00F022FB00F02EFB204800F019FD204896
:40010000204900F091FE204B1860204E1F46DFF88490DFF88480B6F80438002BFBD012E006EB440368464146B3F9042003F02AFC3D686846FFF7C4FF02462846694600F0D2
:4001400085FF013400E00024B4F5806FE8D30025A6F80458386800F0A1FD0D4B4C460FCB07C424F8023B1B0C23702846294600F049FC484600F0DEFBCDE700BF7D00000027
:40018000344000004040000004A2FF1FAC81FF1F48400000F8A1FF1F44400000FEE700BF08B5094B1B681844084A821A802A02DC054A106005E003F0FFFA0C2303604FF00E
:4001C000FF33184608BD00BF0C81FF1FA0A2FF1F80B5104F104E002415E031687368B568224604E051F8040B43F8040B0432AA42F8D1F168224602E043F8044B04328A423C
:40020000FAD11036013F002FE7D103F0DBFAFFF765FFFEE7010000008442000010B5124A124B1A6008331A6842F400721A6000230F48104C104908E0032B02D854F8232033
:4002400000E0024641F8232001332F2BF4D90B4B1A780B4B1A70084A0A4B1A6000F0D6F80022094B1A6010BD0004FA050CED00E09D010000000000000080FF1FBC76004091
:400280000481FF1F08ED00E00081FF1FFEE700BFF0B400231F4611E050F82760F2B226F0FF0608E001EB430511F813406D78A5550133013AD2B2002AF4D101371E2FEBD956
:4002C000F0BC704770B4164B1C78E4B2154B1978C9B2154A1078C0B204F00706134D2E70240901352C7041F003041C7040F00304147003250E4C2570802504F2B47425703B
:40030000202504F21F24257010250434257010701970442203F58B531E331A7070BC7047CF010049F8460040F94600406E5800404D51004008B50A46002103F072FA08BD59
:40034000F8B50025284B1D80582202331A702F2202331A80182202331A70062203F27A231A705222A3F580731A70204B1A78D2B21F4B1A704FF4E262A3F27F431A8041F25C
:400380005122023B1A8019241A4F4FF4F0760AE03B7803F0010343EA450505F00305304600F0B2F8013C0CB1032DF1D114B90320FFF76CFF104A4FF480731380072313707F
:4003C00000230E490B7048200231087013700532137002220A4B1A7003F2A1331A7842F003021A70F8BD00BF804000400F010049A1460040254200400440004006400040F4
:400400000140004008B503F003FA08BD70B572B62B4B1A7842F004021A700024294D09E004EB44035B002B4418689988FFF782FF0134E4B2092CF3D94FF090402249FFF7DB
:4004400027FF224B1A7842F002021A7010331A7842F002021A701E4C237843F0400323701C4B1A7842F010021A701B481B490822FFF7C8FF1A481B490822FFF7C3FF1A4875
:400480001A490822FFF7BEFF19481A490822FFF7B9FF194B1A7842F008021A70174E01253570FFF74DFFC1233370154B1D70FFF709FF144821460E22FFF7A4FF70BD00BF48
:4004C000E8460040644000007C00004803500140A0430040C24300400251004004040048225100400C0400484251004014040048625100401C040048224300400048004081
:4005000004000840B04300400230800800F0058000BF013800467FF4FCAF7047EFF3108072B6704780F31088704700BFAFF3008001BE704738B50446084D04E02868FFF79A
:40054000E3FFA4F50044B4F5004FF7D8034B586800FB04F0FFF7D8FF38BD00BF1081FF1F08B5034B1B7A03FB00F0FFF7CDFF08BD1081FF1F70B505460E46074B1C681F2823
:4005800002D90020FFF7D4FF05F01F05103554F8250044F8256070BD08ED00E038B505460C46072902D90020FFF7C2FF1F2D02D90020FFF7BDFF05F01F0000F1604000F5E6
:4005C00064406401E4B2047038BD00BF08B50A2813D00C2802D0082809D104E04FF400624FF480530DE080224FF4807309E00020FFF79EFF0022134603E04FF400724FF4FC
:40060000806300200849088042F2107101FB03F313F5806301D503F2FF73DB1203490B6092B2034B1A8008BD08A2FF1F0CA2FF1F0AA2FF1F10B5FFF771FF04461F4B1A78AB
:4006400042F001021A7010331A7842F001021A70193B1A7842F002021A7010331A7842F002021A7003F5AA5311331A7842F003021A70182203331A70013B1A7842F0400224
:400680001A701A7802F0FC021A70C822053B1A700222A3F597530C3B1A7003F5A85313331A7842F008021A700A20FFF759FF0122034B1A602046FFF735FF10BDAB430040FA
:4006C00080E200E010B504460A280DD00C2802D0082804D101E0C22207E0422205E00020FFF726FFC22200E08222034B1A702046FFF76CFF10BD00BF0259004008B5102044
:4007000000F050F800200721FFF748FF00200749FFF730FF064B1A7842F006021A700C20FFF7D0FF0022034B1A8008BDA10700000159004010A2FF1F08B5054B1B7823B972
:40074000FFF7DCFF0122024B1A70FFF773FF08BDC091FF1F024B1A7842F001021A7070470059004010B5074A137813F0010401D10028F9D024B10120FFF7F2FE014B1B78FD
:40078000204610BD01590040034B1888034B1B88C01A00B2704700BFA05B00400AA2FF1F704700BF034B1A7800F0F80002431A70704700BF8640004010B50B4C237803F053
:4007C0009F032370237803F0F00323702378184340F0100323700120FFF7C2FE237803F0EF03237010BD00BF2051004038B505460E4C237843F020032370237803F0BF0357
:4008000023700020FFF7ACFE237803F0F003237023781D4345F0100525700120FFF7A0FE237803F0EF03237038BD00BF205100402DE9F041364B1A7802F08002D2B21A706E
:40084000344A117801F0F00141F00F0111700132117801F0F00111700132117801F0F00111701A7802F0DF021A701A7842F040021A704FF4CA7500271C46DFF89C80384694
:40088000FFF76EFE237843F0100323700120FFF767FE98F80060F6B2237803F0EF0323703846FFF75DFE06F00806F6B2237843F0100323700120FFF753FE237803F0EF0364
:4008C000237016B90A20FFF74BFE013D0EB1002DD5D10F4B1A7802F0BF021A701A7802F08002D2B21A7002331A7802F0F0021A7001331A7802F0F00242F00F021A70013340
:400900001A7802F0F00242F00F021A70BDE8F08120510040225100402151004010B50446FFF786FF2009FFF761FF04F00F00FFF75DFF10BD38B505460078012404E0FFF76E
:40094000EDFF285D0134E4B20028F8D138BD00BF10B50446FFF76CFF2009FFF72DFF04F00F00FFF729FF10BD08B52820FFF7E2FD0320FFF721FF0520FFF7DCFD0320FFF7CD
:400980001BFF0F20FFF7D6FD0320FFF715FF0120FFF7D0FD0220FFF70FFF0520FFF7CAFD0620FFF7D5FF0E20FFF7D2FF2C20FFF7CFFF0820FFF7CCFF0120FFF7C9FF0C2023
:4009C000FFF7C6FF0320FFF7C3FF0520FFF7B2FD08BD00BF08B50C20FFF7BAFF0122014B1A7008BDC191FF1F08B5054B5B7823B9FFF7BAFF0122024B5A70FFF7EBFF08BD03
:400A0000C191FF1F08B5032819D8DFE800F002070D1381F08000FFF79BFF08BDA1F14000C0B2FFF795FF08BDA1F16C00C0B2FFF78FFF08BDA1F12C00C0B2FFF789FF08BD88
:400A4000024B1A7842F080021A70704774650040014B1870704700BF86650040014B1878704700BF6665004008B50146014800F073F808BD24650040024B186820F07F40E5
:400A8000704700BF4465004008B50146014800F063F808BD0465004008B501E0FFF7ECFFFFF7DCFF10F0080FF8D108BD08B540F6B730FFF7D9FF40F6B730FFF7E5FFFFF747
:400AC0002DFD064B1A7842F010021A70FFF72AFDFFF7E2FF0120FFF7BBFF08BD9665004008B5054B1B7823B9FFF7E0FF0122024B1A70FFF7A5FF08BDC391FF1F014B1B686B
:400B00005864704708ED00E04001C0B2014B1870704700BF01E400E00222014B1A60704700E100E00222014B1A60704780E100E010B50446FFF7F6FF2046FFF7DFFF07200C
:400B4000FFF7E2FFFFF7E8FF10BD00BF0222014B1A60704780E200E0CBB20370C1F307234370C1F307418170704700BF094B10B5D8689A68002308E0114652F8084B1CB93F
:400B800001230B60486810BD01338342F4D3002010BD00BF14A2FF1F084B30B50022DC689B6808E05D6819460833854202D100230B6030BD0132A242F4D330BD14A2FF1F4D
:400BC00001230373704700230373704710B1002282720260704718B1027B0AB1013A02737047000038B501F06DFD20B3124C4200E260000101F05AFD238AA060E068584326
:400C000001F054FDA568E168228A002304E005EBC3046060013380188B42F8D3102001F045FD054C6061282001F040FDA37CA06143F00203A37438BD14A2FF1F38B510224C
:400C40000D460021044601F063FCFFF78FFF08B9013038BDA0604FF0FF33002065602360A07338BD38B5837A044643B1056801F039FB2846FFF7AFFF2046FFF7A7FF00202C
:400C800038BD08B50368827A03B19B6822B11BB1FFF7E8FF002008BD012008BD08B901307047FFF7EEBF000038B5104B9C69217B59B921606160A16004F11000142201F067
:400CC00027FC237B013323730DE0656A45B9282001F0D6FC606218B12946282201F018FC646A002CE3D1204638BD00BF14A2FF1F38B50E4B5C69A17AE56839B920461022C2
:400D000001F006FC0123A372E5600CE045B9102001F0B6FCE06018B12946102201F0F8FBE468002CE7D1204638BD00BF14A2FF1F2DE9F74F06460020884691469B469DF8F6
:400D400030A09DF83470FFF7AFFF054608B9044610E0FFF7CDFF044660B180F80B900560AE604046214652463B46CDF800B001F0EDF830B12046FFF729FF2846FFF72BFF99
:400D800000242046BDE8FE8F2DE9FF410C461F4604A9002341F8043D15469DF8286000F0A5F88046B8B1039B0BB11B789BB1404600F025F900280EDD14F0150F01D00328E8
:400DC00009D1039939B1404622462B4600970196FFF7AEFF00E0002004B0BDE8F08100002DE9F3410646884600240E4D404655F83410E70001F0C2FB10B9002C04DA0DE04A
:400E000001340F2CF1D109E07D19A87929790090EA796B793046FFF7B7FF00E00020BDE8FC8100BFA0400000FFF7DABF10B5437B04460BB1012010BD40682168A268A37B25
:400E400001F007FD10B10120607310BD207310BD10B5437B044663B9037B53B140682168A268A37B01F0F5FC08B1012363730023237310BD036870B5994204460D46164658
:400E800007D0037B0BB1FFF7E3FF00232560A673E37370BDFFF7DCBF10B50446FFF7D8FFA068BDE81040FFF777BE01230373FFF7CFBF10B50446407B08B1012010BDE37B83
:400EC0005BB960682168A268A37B01F05CFC10B10120607310BD0122E27310BD08B5436813B94FF0FF3008BD984708BD2DE9F0470F463A21064601F070FB044610B9344618
:400F0000174D27E00378C6EB000A5BB114F8013F43B162783A2A05D1A3F130085FFA88F8023401E04FF000080D4D2B6828791B689847814601F02FFB504508D14846314668
:400F4000524601F030FB10B92B79434502D0ED6D002DEAD107B13C602846BDE8F08700BF30A2FF1FF8B5174C064694F85B10E56D69B960220127204601F0CAFA84F85B7054
:400F8000E5653046FFF7AAFF00280EDA18E045B9602001F075FBE06518B12946602201F0B7FAE46D002CE0D10AE0074B2660DA6F0132DA670323207184F85B7084F85A3099
:400FC0002046F8BD30A2FF1F14A2FF1FFFF7CABF38B504460D4601F0A4FB08B9013838BD204601F0B1FB204601F04AFD204600F0D7FC08B184F8595094F8590038BD90F880
:40100000593023B990F85A1009B1FFF7E1BF1846704730B51346BAB1B0B10268857A0AB1946804B900247DB172B16CB1C27A12F0100204D14FF6FA730381104630BD1A467D
:40104000BDE8304001F070B9002030BDFFF7E1BF0C2802D0102805D102E001EB510070474800704788007047036840689B685B6AB0FBF3F0704710B5046D836CE4B19942C1
:401080001AD3E318994217D2013B99420CBF4FF0FF31013172B190F836300C2B02D0102B05D102E00905090D03E089B201E021F070411160012010BD002010BD40F6F47326
:4010C000984201D80C2070474FF6F473984294BF102020207047027F8368023902FB01307047431EDBB21F2B13D92F2811D007D826280ED002D8222809D10AE02A3804E039
:401100003A2804D33F2804D95B38022801D90120704700207047034638B30B2A01DD0B2200E0013A00201CE0082809D191F808C0BCF1200F0DD04FF02E0C03F801CB08E005
:4011400038B991F800C0BCF1050F02D1ACF1200C04E011F800C0BCF1200F01D003F801CB01309042E0DB00221A7070472DE9F04788B005AE04460D463046114600229A46F2
:401180009DF84490BDF84C80BDF8507000F01EFD08B1002413E020462946524600F00FFE044660B1129B31460093109A4B46CDF80480029700F0C6FF2846FFF701FD2046DF
:4011C00008B0BDE8F08710B59DF80C400394BDE8104000F0D9BD00002DE9F04F144E87B0109DDDF848809DF84440376800950194CDF8088005937F68934682468946B8470E
:4012000032680C4BDDF814C09A420DD060B9504649465A46634610951194CDF8488007B0BDE8F04FFFF7CFBF07B0BDE8F08F00BF2081FF1F4841000070B5C37A04460B70D5
:4012400010300D4601F0F8F9064604F10E0001F0F3F940EA0640686004F1120001F0ECF90004A86004F1180001F0E6F9064604F1160001F0E1F940EA0640E86004F11C00E4
:4012800001F0C1F9286170BD2DE9F845038A04460E46924687692BB907F118002146626900F064FC38465146224600F0E7FC0546204600F065FCD5B12B78C3B1E52BF1D051
:4012C00095F80B80B8F10F0FECD018F00808E9D170692946B269FFF71EFF28463146FFF7ABFF238A404601332382BDE8F8854FF0FF30BDE8F8850222FFF7BCBD2DE9F047E8
:4013000090F8366005460C46304611469146FFF79FFEB5F81E80AB6A20FA08F89845824602D30020BDE8F0876B8E05F118079844204641463A46FFF7DEFF2046FFF7B9FD4F
:4013400018B14FF0FF30BDE8F087AA8BA168013A0AEA020A1FFA8AFA92450AEB01031AF8015001D0013309E0204608F101013A46FFF7C1FF2046FFF79CFDA36818780C2E82
:4013800045EA002009D0202E0FD15D7840EA05409D7840EA0560BDE8F08719F0010F02D00009BDE8F0870005000DBDE8F08700002DE9F34190F83630144603FB02F7828BFF
:4013C0008846D200511E0F40D71B0546B7FBF3F7002618E00E4B93F88030022B05D12846214601AAFFF747FE28B9284641462246FFF784FF0190019B0134A34205D101363B
:40140000B6B2013F1C46002FE4DC3046BDE8FC8114A2FF1F2DE9F34105460E46144698461F681CE0114B93F88030022B05D12846214601AAFFF71FFE28B928463146224648
:40144000FFF75CFF0190737B0BB100240BE0AA6B019B0132934204D81BB1013F1C46002FE0D1C8F800702046BDE8FC8114A2FF1F73B504680E4623681BB9FFF7F5FD013002
:4014800039E0FFF7F1FD236998423CBF4FF0FF3323612369B3F1FF3F04D12268013323616261E3832169E28B451A954234BF2B4613463BB16069C918C018D21A60612161A4
:4014C000E283ED1A0DB9284615E002AB43F8045D31466269A068FFF79DFF6061019B21690246C91A4D19256123B9A0683146FFF75FFFE08301987CBD13B502AC44F8043D5D
:401500002346FFF787FF019B002B18BF00201CBD2DE9F0410746884615461E460024384641462A460123FFF7E7FF30B1BA6B0134944201D80546F2E7002406B1346028468A
:40154000BDE8F0812DE9F74F04460D461E461746002A00F0B98090F836001146FFF778FDB4F81EA0A36A20FA0AFA9A45814680F0AB80638E04F118089A4428465146424681
:40158000FFF7B9FE2846FFF794FC6B7B002B40F09B80A38BAA68013B09EA03091FFA89F303EB020926B9216C8F4203D2276401E0791C216494F8361010290AD0202911D17D
:4015C000484601F020F831460746484601F026F84EE0484601F030F8B1B20746484601F027F845E0284600920193FFF7E9FA009A019B17F0010F13F802B01BD00BF00F013E
:4016000041EA06119954A28B013A934202D009F1010309E028460AF101014246FFF76BFE2846FFF746FCAB681F7832093F0147EA1B171CE09E54A28B013A934202D009F10E
:40164000010309E028460AF101014246FFF753FE2846FFF72EFCAB681A78310A02F00F0701F00F0122F00F024BEA07270A431A702846FFF7A5FA94F83630202B18D1B4F89A
:401680004620AAB9B4F844102846FFF7F3FB2846FFF70FFCA8684FF0FF3100F5F47000F0BDFF2846FFF78CFA4FF00103A4F84630E36BB3F1FF3F09D00FB10133E3632EB1BB
:4016C000E36B013BE36301E0012000E00020BDE8FE8F6FF07043FFF735BF70B5036D04460E4693B1002506E0AA1820463146531CFFF728FF0135236DA26C013B9D42F3D388
:4017000020463146AA18FFF7E4FF0023A3642365E364636570BD70B506460D461C460AB1FFF710FF304629462246BDE87040FFF7D0BF00002DE9F84504460E4615461F4685
:40174000002B36D01C4B93F88030022B31D190F8368011464046FFF77BFCB4F81CA00AF1FF3A2AEA000A4FEACA0ABAFBF8FAAA44A8460EE0204631464246FFF7BFFD50B987
:40178000A36C0BB9C4F84880E36C08F101080133E364D045EED9E36C5BB167653B685A6922B1204631462B46FFF7CCFE236D01332365BDE8F88500BF14A2FF1F2DE9F84568
:4017C0009846274B054693F880300F46022B1646846B19D1436D984503D0C36C0BB1FFF77CFFB8F1000F0FD06B6D43450CD12B6DEA6C9A4204D9AC6C1C1901332B652CE008
:4018000028463946FFF769FF012E04F1010A01D9564505D92E6C012E01D9564500D902263446284639462246FFF768FD50B101345445F6D902240DE0284639462246FFF776
:401840005DFD30B92846394622464346FFF772FF03E00134B442EFD300242046BDE8F88514A2FF1FF8B507460E461546FFF7A6FF044628B1384631462A462346FFF74BFF1B
:401880002046F8BDB2F1FF3F73B504460D4614D0561A013611D0FFF7FDFA084B00211A8AA06800F035FE022300936068A3682946324600F0A9FF0023E3737CBD14A2FF1F3B
:4018C0002DE9F84F984690F8363004460C2B0D4616465AD04FF0FF3AD1463CE094F836003146FFF7B5FBB4F81CB0678E0BF1FF3B10EA0B0BE38B1DD1D840013F3F180222F9
:4019000028463946FFF7B6FAA38BAA689B0852F80B1079B9013B0BF1040BF8D13BE0494628465246FFF7AEFFB946BB462846FFF74AF9DA462946324601232046FFF7DCFD30
:4019400029460746324620460023FFF7FBFD2FB108F1FF383E46B8F1000FBFD1284649465246FFF78FFF13E02946324601232046FFF7C2FD29460746324620460023FFF7FB
:40198000E1FD2FB108F1FF383E46B8F1000FEBD14046BDE8F88F0AF1010B5F45BFD1C5E72DE9F8450546FFF7E1F8044608B90546D0E0284600F054FF684E338A834208D371
:4019C00038B10021284622460B4600F0DCFE002804DA2046FFF7E0F80025BBE004F5FF7000F02AFE4AF65523984240F0AD8004F10B0000F021FE10F47E4F074600F0A48042
:401A0000338A8342C0F0A080237C022B40F09C8094F80D80B8F1000F00F096800021402205F1180000F074FD04F1130000F004FE064620B904F1200000F0E5FD064604F12C
:401A4000160000F0F9FD824680B904F1280000F0F3FD10F08F0F77D104F1240000F0D3FD824604F12C0000F0CEFDE862022385F83530C5F828A0AE6185F8348004F10E00F0
:401A800000F0DAFD688604F1110000F0D5FD95F835206B8E288602FB0A3A7A0992B2B0FBF2F25244AF832A62092301219940B94201D1EB8302E00133102BF6D108FB07F7BA
:401AC000B61AB6FBF8F6AE636F623046FFF7F6FA202818BFC5F82CA04FF0FF33202885F83600EB6332D104F1300000F0A5FD00230146A5F844002246284600F044FE0028A2
:401B000022DB204600F07FFD804604F5F27000F07AFD074604F5FE7000F075FD104B984514D1104B9F4211D10F4B98420ED104F5F67000F068FD286404F5F47000F063FDFD
:401B4000B04203D8E86301E0002500E001252046FFF722F82846BDE8F88500BF14A2FF1F5252614172724161000055AA00238B60837F202B01D102B942694A600A6070477F
:401B800083680133836070472DE9F0410C46202105461F469DF818604FF0000800F0B8FC10E014F8080036B9E52804D1B8F1000F01D1E03802E000F009FDC0B205F8080024
:401BC00008F10108B845ECDBBDE8F0812DE9F74506460D4608462849002A14BF92464FF0FF3A00F0CBFC804650B930462946022200F05DFEB01C2021092200F089FC37E06E
:401C00004FF0FF34002715F80780B8F1000F01D0574505D1B4F1FF3F08BF3C4664B925E04046FFF75EFA08B3B8F12E0F08BF3C4601370D2FE7D119E0082C17DC3F1B042F97
:401C400014DC30462946082223464FF00008CDF80080FFF799FF0123611C009306F10800691803227B1EFFF78FFF01E04FF001084046BDE8FE8500BF584100002DE9F74F61
:401C8000D2F808B0436A4FEA4B18B8FBF3F8D368054698450E461446D2F8009001D20023D360B5F81EA0E368AAF1050A0BB9D4F804902BFA0AF7B9F1000F17D095F83420FC
:401CC000B8EB0303019206D04A4628463146FFF713FC814640B3494605F11800FFF7FBF9019B591E01EA0707C11906E02B8E43FA0AF39F4218D2E96A79183046C4F80090E7
:401D0000C4F80C800122FFF7B5F83046FFF7D1F850B9013000FA0AFAB3680AF1FF3A0AEA0B0B03EB4B1000E00020BDE8FE8F2DE9FF4107460E4601A811461A460A9D9DF8C1
:401D40002C40FFF743FFC8B9384631462A46FFF795FF8046A0B1037883B101A90B2200F0C7FB38B998F80B3004EA0302A24201D1082B05D12846FFF703FFE5E74FF0000819
:401D8000404604B0BDE8F0812DE9F04587B002AF04460E46154698469DF83CA039460E9A1830FFF7E3FE204631462A4643460097CDF804A0FFF7BBFF07B0BDE8F0852DE9A5
:401DC000F04500F1180785B005460C46384669469246FFF7CBFE284621466A46FFF74EFF06466846E846FFF7CBFE002E37D1BAF1000F02D12B8E002B35D12146009A002388
:401E00002846FFF785FB2146024600232846FFF729FD80462046FFF748F8B8F1000F22D0AA8B0021A06800F073FB38464146FFF752F995F8347000257E1E361808E03146B5
:401E400020460122FFF716F82046FEF7EFFF013E01357B1BB3F1FF3FF1D1A66803E033780BB1E52BB7D1304605B0BDE8F08538B504461A3000F0E0FB054604F1140000F018
:401E8000DBFB45EA004038BD2DE9F0451D4685B007460E462A6010465C21904600F09DFB4FF0000A0446A04508D108F10108C5F8008040465C2100F090FB044694B1C8EB59
:401EC0000403002B0EDD10220192103A0292384631464246CDF800A0FFF77EF970B1FFF7C6FF824628685C2100F077FBA04604460028D8D10C9B0130C3F800A005B0BDE832
:401F0000F085F8B505460C461E461746DAB16FF01A0313700846FEF753FE16B94FF47A7608E007F11C0000F06EFB6B6A5E1E3618B6FBF3F63846FFF79AFF2146024633463E
:401F40002846FFF7BDFC607BF8BD00002DE9F04FD1F8008093B0D8F808700BAD044608930E464FF0FF333946284609920F939DF870A0FEF763FE10AB009338462946224661
:401F800011ABFFF781FFD0B1F27A109B07920FAA00930292002338462946119A0193FFF71BF9044680B1C37A13F0100F07D10D9BDDF82CB0C3EB00094FEA691906E02846B4
:401FC000FEF76AFF0125A3E083468146099B002B3CD0002C33D0524B5D6912E02B687BB1AA7A6AB19A8B4A450AD19A695A4507D19B68BB4204D14FF6F772328100257EE02B
:40200000ED68002DEAD10DF12C0C6146384622460123CDF818C0FFF774FFDDF818C018B14FF0FF3333816AE03E4B1B68DC6824B138466146109A0F9BA0472C4606E0BAF109
:40204000000F03D1089A002A44D065E0089BEBB1CCB1E37A13F0010F0BD0079A12F0150F07D04FF6FA733381BAF1000F01D1012500E000252046FFF7FAFE074604F11C00E4
:4020800000F0C1FA29E0BAF1000F45D0BAF1010F01D000251BE0ECB900F022FD214B20221B68019282B2000C03920490009402949D6838460BA9119A109BA84750B10D9AC2
:4020C000DDF82CB0C2EB00094FEA6919254628462F4602E00125002007464FF0FF33C8F81030C8F818B0A8F81C90079AC8F8040012F0010308BF1846C8F800707060B6F977
:4021000008300BA835EA230528BF0125FEF7C4FE284613B0BDE8F08F01255046DCE700BF14A2FF1F2081FF1F70B505460C461A3089B200F07DFA05F11400210CBDE8704049
:4021400000F076BA2DE9F0470446BDF824700D469146002120229A46BDF82860DDF8208000F0D6F90B222046294600F0A0FB04F10E00394684F80BA000F05AFA04F1100002
:40218000314600F055FA04F11600394600F050FA04F11800314600F04BFA20464946FFF7C3FF04F11C004146BDE8F04700F036BA07B5426803460AB910460AE08168002030
:4021C000009048681968DB6800F0FCFA003818BF01200EBD2DE9F047046805460F46A668FFF746F981468246002841D0D4F80080B8F1000F1BD14246304639462B46FFF7C2
:40220000DDFA0246D8B11C4B6061C4F8108093F880302060022B07D030463946FFF759FA10B10120BDE8F087B9F1010A20D03046394662692B46FFF7C1FA804628B94FF614
:40224000FE732B810130BDE8F0870B4B93F88030022B05D03046394662694346FFF75BFA2369C4F8148001332361BAF1010ADDE70020BDE8F08700BF14A2FF1F2DE9F041A9
:40228000836804460D4608460122A1699E8BFEF7F1FD2846B4F81C80AF68FEF70AFEF8B9013E06EA4816B6B2BE1906F11C00616800F0B4F921683046FFF736FF00F010FC29
:4022C0000446A1B206F1160000F0B2F906F11800210C00F0ADF92846BDE8F041FEF7E5BDBDE8F0817FB50668B0F90830B568C3B9C37A13F0110F14D029466846FEF79EFCCA
:4023000030466946FFF7BAFF064B6C4693F88030022B03D128466946FFF7DFF96846FEF7BBFD7FBD14A2FF1F03682DE9F04F9F68038995B001339BB2012B04460E460592BA
:4023400001D90025CEE0394610AD0CA8FEF776FC39462846FEF772FC039626680023D6F808909A4609F118010791D9F82420059906924FF0FF32099308920A950291049314
:4023800020460CA9FFF726FF38B108A8FFF710FF5546002818BF00258FE03269069901324A43B9F81CB063680BF1FF3BD21A0BEA030B029B0798934228BF134601937169F5
:4023C000FEF789FE99F83430B9F81C206768013BB7FBF2F703EA0707C719B9F81C300199CBEB03058D4228BF0D469D4228D0BBF1000F03D1626873689A420FD00DF1400894
:40240000404639460022FEF735FD4046FEF751FD20B14FF6F9725546228154E01298039958442A460DF1400800F041FA404639460022FEF71FFD4046FEF7F8FC90B141E0C6
:40244000099B089A9A1897420AD008A8FFF7B0FE002837D101230993039B08970B9301E001330993029B03995B1B019A029363684919521BAA44ED186560736803919D4262
:40248000019207D91BB1194B93F880300BB9012104917560019A1AB101374FF0000B9CE7029B002B7FF46CAF08A8FFF781FE04995546002818BF002529B1304610A9FFF7AD
:4024C000DDFE00E05546059A954205D0B4F9083013B94FF6F87323810CA8FEF7DDFC10A8FEF7DAFC284615B0BDE8F08F14A2FF1F10B5002308E0C45C11F803C0013A0133DB
:40250000644501D0012010BD002AF4D1104610BD70B5034602E003F8011C013A1C4622B103F003050133002DF5D193081ED04FF001354D4308E044F8105C44F80C5C44F829
:40254000085C44F8045C043B032BA44604F11004F1DC1C46002603E04CF80650013B0436002BF9D102F003020CEB8404002302E0E154013A0133002AFAD170BD002310F852
:4025800003C0CA5C624501D0012070470133002AF5D110467047002300E00133C25C002AFBD11846704710B500230BE0C45C11F803C0644501D0012010BDC418647801333E
:4025C00014B1013A002AF1DC002010BDA0F16103192B98BF00F0DF007047C9B203E00BB918467047013003788B42F8D1704742780178431C42EA01205A789B7842EA0020A1
:4026000043EA002070478378C27803EB0222437803EB0222037803EB0220704703460A0A03F8011B42700A0C090E5A70997070470170090A417070474278037843EA0220F3
:4026400070470000094A0A4BC11C10B5146821F0030118680919814201D9002010BD11609A685868013220189A6010BD98A2FF1FC491FF1F08B5FFF7E5FF00B9FEE708BD72
:40268000FFF7E0BF30B1044A9368013B93600BB9024A1360704700BFC491FF1F98A2FF1F014B586019607047C491FF1F38B50546FFF7E0FF002104462A46FFF729FF204655
:4026C00038BD000010B5084CA37C0BB1002010BD4FF40073238200F0F5F9A37C012043F00103A37410BD00BF14A2FF1F08B583680BB10020984708BD08B583680BB1012030
:40270000984708BD10B504680079A468A04710BD37B59DF81850046800790095E468A0473EBD08B5036800799B69984708BD036810B55B69044623B10079984708B100206E
:4027400000E00120607110BD10B5437904460BB9FFF7EDFF607910BDF7B504461F460E461546FFF7F1FF2046FFF7C6FF2A463146012320460097FFF7C5FF05462046FFF729
:40278000B5FF2846FEBD10B504690919BDE81040FFF7E2BFF7B5044615461F460E46FFF7D3FF2046FFF7A8FF0023009331462B463A462046FFF7ACFF05462046FFF796FF26
:4027C0002846FEBD30B504699DF80C5009190395BDE83040FFF7DEBFF7B5044615461F460E46FFF7B1FF2046FFF786FF0123009331462B463A462046FFF78AFF05462046C5
:40280000FFF774FF2846FEBD30B504699DF80C5009190395BDE83040FFF7DEBF73B504460E461546FFF790FF2046FFF765FF00232A460093314601332046FFF769FF05461B
:402840002046FFF753FF002D14BF4FF0FF3000207CBD10B504690919BDE81040FFF7DEBF30B5054685B0FFF76FFF2B6828791C694FF47B71002201ABA04708B1002001E0E7
:40288000BDF80C0005B030BD70B506460D46FFF75BFF336830791C694FF47B7100222B46A047002814BF4FF0FF30002070BD11F0030F70B584460B4632D110F0030F2FD111
:4028C00095100446AC4611E053F8106CACF1040C44F8106C53F80C6C44F80C6C53F8086C44F8086C53F8046C44F8046C10341033BCF1030FE8D8AB081B0100EB030CCB18DB
:4029000015F003050AD0284600215C584CF8014004310138F9D1AD00AC445B1902F0030213F0010F19462FD11CF0010F60462BD15410254610E031F8086C043D20F8086C4F
:4029400031F8066C20F8066C31F8046C20F8046C31F8026C20F8026C08300831032DEAD8A108C9005B1814F003048C440AD0204600215D5A2CF8015002310138F9D16400AA
:40298000A4441B1902F00102614610E013F8040C043A01F8040C13F8030C01F8030C13F8020C01F8020C13F8010C01F8010C18460433032A8C4601F10401E7DC32B1002359
:4029C000C15C0CF8031001339342F9D170BD0378E92B01D101207047EB2B01D0002070478078902814BF00200120704708B500F5FF70FFF721FE4AF65523984214BF002076
:402A0000012008BD01EB001000F5E370FFF7FBBDF0B50D4685B01446064658B352B300210B46FFF799FE002824DB2046FFF7DEFF00B32046FFF7CBFF10B10024274616E05B
:402A40002146FFF7DFFF074604F5E570FFF7DBFD01A904463046FFF717FF5CB157B1E219FF23120AB2FBF3F2029B9A4202D81DB12C6001E04FF0FF37384605B0F0BD000079
:402A800073B50446FFF7ECFE0646FEF76FF80C4B05461B8AB3420DD366B1204601A92A46FFF7B6FFB0F1FF3F04D02061019B6361002400E0FF242846FEF76EF860B27CBDEF
:402AC00014A2FF1F08B504484FF48051FFF7E8FD0248FEF77BFA08BDD091FF1FA44100004FF40410704700BF4FF6FF7070470000014B1868704700BFD0A1FF1F0048704725
:402B0000C441000000F016BD37B501220DF10701054600F015FD9DF80740FF2C14BF0A240724284601220DF1070100F009FD9DF80700FF2803D1013CE4B2002CF1D13EBD58
:402B400037B50469857828460DF10701012200F0F7FC9DF807300BB1002003E0013CF2D14FF0FF303EBD37B54FF0FF3305460C468DF8073006E028460DF10701012200F06E
:402B8000F1FC013C002CF6DC3EBD000038B5094C2368032B02DD4FF0FF3509E0DDB2013323601420FFF782FD04EB850460608570284638BDD0A1FF1F08B5034B4FF40071EF
:402BC0001B68984708BD00BF2481FF1F4FEAD20CACEBD103CCF10F0C10B501336044002410F801CB013B4CEA0424F9D101F00703511A02228A40DC40013A04EA020010BD71
:402C00007FB5130E85788DF80530130C01F03F018DF80630130A41F040018DF8073000238DF808208DF804101A4601A911F802C000215B00DBB283EA0C0E1EF0800F18BFF0
:402C400083F009030131082904D04FEA4C0C5FFA8CFCEEE70132052AE7D15B0043F001038DF809308678C4680122304603A900F067FC9DF80C30FF2B04D00CB9FF2009E08F
:402C8000013CF1E7284601A9062200F06BFC2846FFF73AFF04B070BDF7B5847806460F4620460121FFF75FFF204600F0E5FB304609210022FFF7A4FF8DF8070028BBF66867
:402CC0000546012220460DF1060100F039FC9DF80630FE2B06D0FC2B04D00135ADB2B542EFD112E00DF1070520463946102200F027FC29462046012200F022FC29462046C4
:402D0000012200F01DFC002500E0FF25204600F0BDFB20460121FFF726FF2846FEBD00002DE9F04F9B46494B89B003EB800305925C684A02029103924FF00309029AA5781D
:402D4000E678039B2846022E08BF13461E4600F09DFB01212846FFF706FFBBF1010F0CBF4FF0110A4FF0120A284600F085FB204651463246FFF744FF002851D1059F5E46C8
:402D8000A378E268B44604924FF000081E460FE0012230460DF11F01CDF804C000F0D0FB9DF81F20DDF804C0FE2A05D008F10108049B9845ECD333E0284639464FF400722D
:402DC000664600F0BDFB0222284607A900F0B8FB9DF81C30384601939DF81D80FFF7ECFE4FF6FF729042019B0CD048EA0328404508D0BAF1120F13D120460C210022FFF780
:402E0000FFFE0DE0013E02D007F50077B8E7BAF1120F07D120460C213246FFF7F1FE01E04FF0FF36284600F031FB28460121FFF79AFE3EB1B9F1000F02D009F1FF397DE7E4
:402E40004FF0FF36304609B0BDE8F08FD0A1FF1F2DE9F04F99464C4B87B0029203EB80039DF840205D68009103926B78002B40F085804B0201930327009BAC78EE78019A07
:402E80002046022E08BF1A46164600F0FFFA01212046FFF768FEB9F1010F0CBF4FF0180A4FF0190A204600F0E7FA284651463246FFF7A6FE8DF81700002850D12046012129
:402EC000FFF751FE029ECB46B8463046FFF774FE0DF11707BAF1180F0CBFFE23FC2301228DF817308DF81500030A394620468DF8143000F037FB204631464FF4007200F01F
:402F000031FB0222204605A900F02CFB01222046394600F015FB9DF8173003F01F03052B1CD12846FFF70CFEC0B9039A0AB906F50076BBF1010BC8D1BAF1190F474611D1B5
:402F400006A96FF00203204601F8013D012200F009FB2846FFF7F4FD20B100E047464FF0FF3600E00026204600F090FA20460121FFF7F9FD26B10FB1013F7DE74FF0FF367A
:402F8000304607B0BDE8F08FD0A1FF1F2DE9F04F877887B0044638460D4600F06DFA20463A210022FFF72CFE064638B1384600F06DFA38460121FFF7D6FD58E00DF114086C
:402FC00004224146384600F0BBFA4046FFF70FFB8046384600F05AFA01213846FFF7C3FDB8F1000F28F07F02B8BF4FEA987BD2B240F272634FEA1828B8BF0BF0010B1FFAEE
:4030000088F8002A14BF1A460022012111EA080F05D10136F6B24900102E89B2F6D140F27260824233460DD06422724302F5FA6208E011EA080F07D049000133013689B2B3
:40304000DBB2F6B20F2EF4D964214B434FF6FE7103F5FA6302EA01014FF6FC72384603EA020200F049FA10F0FF0F40F099804FF0FF3092E028467E217F22FFF7A7FD82466B
:40308000EB78DFF82C8103F0030203F0780308EBD30358F822101B7C3846594389B200F001FA0646002877D06B7803F00702DB1003F00F0308EB82024344126A93F8108082
:4030C0000292B8F1000F67D0A978284603911C221A21FFF77BFD0190BAF1000F1FD1502153222846FFF772FD4FF0010909FA00F92F2131222846FFF769FD1FFA89F982463A
:403100003E21284649224FEA5929FFF75FFD0AF1020A09FA0AF9013000FB09F910E0BAF1010F01D0012038E0284630214522FFF74DFD4FEA8029BBF1000F01D00223E3700E
:4031400008FB06F2029B0399B2FBF3F2642303FB01225A437343D208DB089A4294BFE260E360FA235E43019BF6089A400C21B24294BF2261266128460D22FFF727FD05466B
:40318000384600F08DF94FF4007128436070A180C4F80890002000E0FF2007B0BDE8F08FE378A778012B3FF465AF4FF0000A67E75C410000F0B5857887B004464FF4C871FD
:4031C000284600F06FF9B0F5C87F00F2CC804CF25033E3600026284600F058F90A212846FFF7C1FC624B93E8030001902846ADF8081000F041F9062201A9284600F0B2F9CE
:403200002846FFF781FC0746284600F03FF901212846FFF7A8FC17F0010F03D10136052ED9D1A0E0284600F027F9082120464FF4D572FFF7E5FC10F0040F52D0284600F020
:4032400025F9A5784FF4FA66284600F015F9002237212046FFF7D4FC28460121FFF783FC292100222046FFF7CBFC0746284600F00DF928460121FFF776FC17B90123E370DA
:403280001EE017F0040F01D1013EDDD14FF4FA66284600F0F1F8012100222046FFF7B0FC0746284600F0F2F828460121FFF75BFC0FB9E77004E0012F55D1013EE8D152E00C
:4032C00001AD20462946FFF7E7FC00284BD120462946FFF75BFEC0B2002844D10123237043E00422A07805A900F02AF9284600F0CDF89DF81730AA2B35D19DF8163003F0DA
:403300000F03012B2FD1A5784FF4FA66284600F0B3F8002237212046FFF772FC28460121FFF721FC29214FF080422046FFF768FC0746284600F0AAF828460121FFF713FCB2
:403340000FB1013EE2D101AE20463146FFF7A4FC48B90125E57020463146FFF717FEC0B208B9257001E04FF0FF3007B0F0BD00BF9C41000010B5084B03EB80035C68237816
:403380003BB9FFF7BFFB20B12046BDE81040FFF711BF4FF0FF3010BDD0A1FF1F38B51D46154BA1F57B7103EB80035C68072918D8DFE801F00A171717040417192046002160
:4033C0001422FFF7A5F80CE0237833B92046FFF7F1FE10B14FF0FF3038BDA3882B81A3686B60002038BD2046FFF74CF9024B00201A68013A1A6038BDD0A1FF1F10B580B999
:40340000104B1B78EBB901240E4B1C7000F03AF97720214600F052F900F026F900F016F910BD084B1B7863B90124064B1C7000F029F97720214600F041F900F015F900F08D
:4034400005F910BDE4A1FF1F08B550B9084600F0B9F800F0ABF810F0010FFAD000F0BEF808BD084600F0AEF800F0A0F810F0010FFAD000F0B3F808BD08B510B900F090F9AC
:4034800008BD002000F08CF908BD00BF08B518B9012000F085F908BD012000F081F908BD0020704738B50C46B1F5C87F03D3B1F57A6F03D804E04FF4C87401E04FF47A6454
:4034C0006500ADB24BF68033B3FBF5F548B900F0D9F8681E80B2012100F0F0F800F0C4F808E000F0CFF8681E80B2012100F0E6F800F0BAF8204638BD032809D840F6E443AF
:4035000099420FD840F6E3439A420DD80020704740F6E443994209D840F6E3439A4207D8002070470020704701207047002070470120704708B5FFF761FF022008BD00BFB7
:403540002DE9F04180460D461446FF276E1C40463946FFF779FF28703546013CF6D1BDE8F08100BF70B5064614464D1C30460978FFF76AFF2946013CF7D170BD08B5FCF7A7
:40358000CDFF094B1A7842F020021A7002331A7842F010021A70013B1A7842F010021A70FCF7C0FF08BD00BF9C640040014B1878704700BF6E640040014B1878704700BF1E
:4035C0006D640040034A137813F0040FFBD0024B187070476E6400404D640040014B1878704700BF5D64004008B50B4A0B4900E00B78137813F0200FFAD1FCF78FFF084BFA
:403600001A7842F001021A701A7802F0FE021A70FCF788FF08BD00BF6D6400405D6400409D64004008B50F22064B1A70FFF7DCFFFFF7BCFFFFF7C0FF0023034A1370013AAC
:40364000137008BD8C6400408E64004008B5054B1B7823B9FFF7E6FF0122024B1A70FFF78DFF08BDE5A1FF1F054B1A7842F001021A7010331A7842F001021A70704700BFB9
:40368000A2430040054B1A7802F0FE021A7010331A7802F0FE021A70704700BFA2430040014B188880B2704780400040024B187800F00700704700BF8240004070B504460B
:4036C0000E46FFF7F3FF0546FFF7EAFF0346844258D02D4A127802F0010195B900B184B93BB92A4B1C8002331A7802F0BF021A7070BD274B1A7842F040021A70023B1C80EB
:4037000070BD29B300222348027001250F30057004300270204A107800F07F0010707A32127812F0080F00D094B91C4A13800722184B1A701A46137813F0010FFBD1124B7E
:403740001A7802F0FE021A700022A3F2A1331A700D4B1B7813F0010F0DD0104B1C800EB1032200E001220B4B1A701A46137813F0010FFBD170BD054B1C8003F222331A78CE
:403780001143197070BD00BFA24300408040004082400040014000400840004002400040044B1A7802F07F02C001C0B202431A70704700BF00510040014B1868704700BFEF
:4037C0008881FF1F70B50E4B0E4D0024ED1AAD101E46AC4204D056F8242090470134F8E700F03EFD084D094B0024ED1AAD101E46AC4204D056F8242090470134F8E770BDB2
:403800006C4200006C420000744200006C42000010B50023934203D0CC5CC4540133F9E710BD02440346934202D003F8011BFAE77047000030B500293CD051F8042C0B1F75
:403840001D49002AB8BF9B180A680C4612B95A600B6030BD93420DD219685818904203D15A581144426819605A60236030BD994203D80A4651680029F9D1146815199D4213
:403880000AD11B682344D0188842136012D10868034413604B680CE002D90C23036030BD18681C188C4203D10C684968204418605960536030BD00BFECA1FF1F70B5CD1CF0
:4038C00025F0030508350C2D38BF0C25002D06463FDB8D423DD3214B1C6818462146A1B10B685B1B0ED40B2B03D90B60CC18CD501FE08C4202D1626802601AE04B6863600F
:403900000C4616E00C464968E9E7154C23681BB9304600F027F820602946304600F022F8431C014615D0C41C24F0030484420AD1256004F10B00231D20F00700C31A0BD0FD
:403940005A42E25070BD3046611A00F00BF80130EED10C233360002070BD00BFECA1FF1FE8A1FF1F38B5064C0023054608462360FCF716FC431C02D1236803B12B6038BDE4
:403980009CA2FF1F0EB400B54FF402719CB0ADF814106FF00041049107914FF6FF711DABADF81610084953F8042B02900690086802A9019300F06EF8029B00221A701CB047
:4039C0005DF804EB03B070478881FF1F034613F8012B002AFBD1181A013870472DE9F0478D688146AB420C4692461F4643D38B8913F4906F3DD0266809690222C1EB0608BA
:403A0000666906EB460696FBF2F608F101023A44964238BF16465B050FD53146FFF74EFF054698B121694246FFF7F2FEA38923F4906343F08003A38113E0324600F0C5FAA8
:403A4000054670B948462169FFF7F4FE0C23C9F80030A3894FF0FF3043F04003A381BDE8F087256166614544C8EB06062560A6603D46AF4200D23D462A462068514600F0FA
:403A800089FAA36800205B1BA36023681D442560BDE8F0872DE9F0439DB003938B8907461C060D4616460CD50B6953B94021FFF705FF2860286110B90C233B60C7E040238A
:403AC0006B610023099320238DF8293030238DF82A3033461C4613F8012B1AB9B4EB06090FD002E0252AF5D1F8E73846294632464B46FFF773FF013000F0A480099B4B44CA
:403B000009932378002B00F09D8000234FF0FF3204930793059206938DF853301A9304F101094D4E4C4630462178052200F024FA09F10109049B28B1861B0120B040034389
:403B40000493EEE7D90644BF20228DF853201A0744BF2B228DF8532022782A2A02D0079B21460EE0039A111D12680391002A01DB079204E0524243F0020307920493013410
:403B80000AE00C4622780131303A092A03D80A2000FB0323F5E7079323782E2B19D163782A2B09D1039B02341A1D1B680392002BB8BF4FF0FF330BE0611C00230C4622782F
:403BC0000131303A092A03D80A2000FB0323F5E70593224E21783046032200F0CDF930B1861B4020B040049B01340343049321781B480622661C8DF8281000F0BDF988B13D
:403C0000184B33B9039B073323F007030833039314E003AB0093384604A92A46124BAFF3008007E003AB0093384604A92A460E4B00F08EF8B0F1FF3F804603D0099B4344EB
:403C4000099346E7AB895B0601D4099801E04FF0FF301DB0BDE8F0832A420000304200003442000000000000DD3900002DE9F84315461F468A680B6906469A42A8BF134673
:403C80002B6091F843200C46DDF820800AB101332B602368990602D52B6802332B60236813F006091DD094F843302268003318BF012392061FD5E118302081F843005A1CB0
:403CC00094F845102244023382F8431013E03046394604F119020123C047013007D009F10109E2682B68D31A9945F0DBDBE74FF0FF30BDE8F8833046394604F14302C04753
:403D00000130F4D023682A6803F00603E168042B08BFC2EB01052369A2680CBF25EAE57500259A42C4BFC3EB0203ED184FF00009A9450ADA3046394604F11A020123C04732
:403D40000130D4D009F10109F2E70020BDE8F8832DE9FF470E7E80466E2E0C4691469A460C9D01F1430000F0A58011D8632E22D009D8002E00F0AF80582E40F0BF8081F803
:403D800045607B4A4FE0642E1ED0692E1CD0B5E0732E00F0A48009D86F2E2BD0702E40F0AD800B6843F020030B6038E0752E21D0782E34D0A2E02B6801F142071A1D1B6815
:403DC0002A6081F842309DE022682B6812F0800F03D01A1D2A601D6805E05106F9D51A1D2A60B3F90050002D39DA2D236D4284F8433034E022682B6812F0800F03D01A1D49
:403E00002A601D6804E05206F9D51A1D2A601D88237E574A6F2B14BF0A2308231BE07823544A84F845302368296813F0800F01F104062E6001D00D6802E05F06FBD50D88AD
:403E4000DE0744BF43F0200323601DB9236823F0200323601023002184F8431001E0444A0A236668002EA66003DB216821F00401216005B96EB104F14201B5FBF3F603FBFC
:403E80001655555D0F4601F801593546002EF4D100E00746082B0AD12368DD0707D5626823699A4203DC302307F8013C013FC01B20612CE009682B6811F0800F626904D0CE
:403EC000191D29601B681A6005E04906F8D5191D29601B681A8000232361074617E02B681A1D2A601F683846FFF770FD63682061984288BF23612369636005E004F142071F
:403F000084F8426001232361002384F84330CDF800A04046214603AA4B46FFF7A7FE013002D14FF0FF301FE0404649463A462369D0470130F5D023689B0705D4E068039BF3
:403F40009842B8BF18460FE00025E268039BD31A9D42F3DA4046494604F119020123D0470130DED00135F0E704B0BDE8F08700BF3B4200004C42000010B5C9B202449042BF
:403F8000034605D01C7801308C42F8D1184610BD002010BD814270B501D300230EE08C18A042FAD28518134613F1FF3305D351426618F65C2944CE54F6E770BD934203D0A8
:403FC000CC5CC4540133F9E770BDF8B5064614460D4621B91146BDE8F840FFF76FBC1AB9FFF728FC2046F8BD00F015F8A0420ED230462146FFF762FC074650B1294622464E
:40400000FFF706FC30462946FFF714FC01E02846F8BD3846F8BD51F8040C002802DA04390B5818440438704700000000310000003000000077616D706C65732E7478740032
:404040007700000025640A00577269746520436F6D706C65746500007761765F73616D706C650000105100401000305100401000505100401000C05100401000F05100404E
:40408000100000000140001000140140000800400140000A004C0140000200500140200018410000080001001A4100000A0001001D410000140100011F41000016010001C3
:4040C0002241000015000101244100001700010127410000180001002A4100001A0001002E4100001A000100324100001C010001354100001E010001394100001E01000176
:404100003D4100001D000101404100001F000101444100001F000101720072620077007762006100616200722B00722B620072622B00772B00772B620077622B00612B000F
:40414000612B620061622B0089120000C71100006D110000000000002E2E00000A00000064000000E803000010270000000A0C0D0F14191E23282D32373C415080969800AD
:4041800040420F00A086010010270000E8030000640000000A000000010000004000000000950000FD2A00008D2B0000212D0000512E00009D33000075330000052B00008D
:4041C000F12A00006D6D6300000000000000000000000000000000000000000000000000000000000000000000000000000000000000000000000000000000000000000067
:40420000000000000000000000000000000000000000000000000000000000000000000000000000000000004300232D302B2000686C4C0065666745464700303132333452
:404240003536373839414243444546003031323334353637383961626364656600000000F8B500BFF8BC08BC9E4670474D0000001D020000F8B500BFF8BC08BC9E467047CA
:4042800029000000984200000881FF1F88000000102100000000000000000000A0A2FF1F0000C05D80BB000030000000006CDC0248410000E92A000000000000C8410000C4
:4042C000E8410000084200000000000000000000000000000000000028420000000000000000000000000000000000000000000000000000000000000000000000000000E1
:404300000000000000000000000000000000000000000000000000002881FF1F000000000000000000000000000000000000000000000000000000000000000000000000B6
:40434000000000000000000000000000000000000000000000000000000000000000000000000000000000000000000000000000000000000000000000000000000000003D
:4043800000000000000000000000000000000000000000000000000000000000000000000000000000000000000000000000000000000000000000000000000000000000FD
:4043C00000000000000000000000000000000000000000000000000000000000000000000000000000000000000000000000000000000000000000000000000000000000BD
:40440000000000000000000000000000000000000000000000000000000000000000000000000000000000000000000000000000000000000000000000000000000000007C
:020000040003F7
:0200000480007A
:4000000003520040015B00400164004001650040010301400107014001090140010B0140560C0140470D01405A0E0140350F0140281401400B1501402016014011170140FA
:40004000011B014003400140054101400242014003430140044401400345014004460140034701400348014003490140014C0140024D014004500140015101400040014004
:40008000310127848C0F860DE280EE04EE04B2020115030A0421050B060207240AEC0C880D040E030F031530180419091A431B161E0124E02A1232E0340F3538361037073C
:4000C00039203B803E045602572C580459045B045F0180378408861088088A348C379034920398379C089E20A201A437A804AA08B002B23CB401B602BA08BE51C024C10381
:40010000C210C405C5CEC6FDC7BBC83FC9FFCAFFCBFFCC22CEF0CF08D004D440D804DA04DB04DF01E2C0E440E501E610E711E8C0E901EB11EC40ED01EE40EF010201036838
:40014000044005100710088009100A400E0610A0120816041708180119011B181D101E222540270837183D823E0440D142044540460249064A024B015080512152446120F2
:400180006240632066026C246D386E406FC2760177018A109050920494089512964097019B109D079E059F41A101A208A320A420A504A782B102B721C0EFC2CBC46ECC6052
:4001C000CED0D00FD208D88EE28000060101040905010606080709070A080BD80C060DA20F0810101340140215041604181019011C0420012101220E2402251029082A0680
:400200002B612C062D01300831E03210340F353F3601382839203E413F105409580459045B045F0180C081C08202832F84C085A4860887408AFF8C7F8D2C8E808F4090903A
:40024000916C924095719660978298C099919A049B4E9D6CA108A29FA310A480A564A708A81FA940AA20AB2CACC0AE01B131B30FB5C0B6FFBB23BE40D804D904DF01001050
:40028000036204480510074009240B810C200E50111212011308150216011718180119101A941B281F402122245425012608271829102A042B822C202D1230203102330803
:4002C00035103608374138543A013C043D023E4059055A805B206001C0FFC27FC4FFCAEFCCF7CEDFD60FD808405449FF4AFF4BFF4F01501852805A045B045D995F016040CE
:40030000624064406540668068806A806C806E80C054C9FFCAFFCBFFCD83CE03CF01D018DA04DD09DF01E040E240E440E540E680E880EA80EC80EE804280468048024C0297
:4003400070029A80A402AF80D081D218EC2012012201300136013E01405445EC4602480749FF4AFF4BFF4D834E034F015018540158045A045B045C095D995F01604062407D
:4003800064406540668068806A806C806E800C0216801E801F8046804C024D044F0156805D045E805F01C210C410D080D210D6D0EC2033203680CC3067088B04A680A720DD
:4003C000D880A680A720A680AB20EE200A045202C202D4019204B202EC041B04B204C608EE044401AB04D0042080A680C840AE80B040EE109C01B001EC0400010E011101DD
:400400001B01000F00C0C00040000000007F7F000000000000000000000003004001010001000000000000000000000000000000000000000000000000000000000000008D
:40044000000000000000000000000000000000000000000000000000000000000000000000000000000000000000000000000000000000000000000000000000000000007C
:40048000000000000000000000000000000000000000000000000000000000000000000000000000000000000000000000000000000000000000000000000000000000003C
:4004C00000000000000000000000000000000000000000000000000000000000000000000000000000000000000000000000000000000000000000000000000000000000FC
:4005000000000000000000000000000000000000000000000000000000000000000000000000000000000000000000000000000000000000000000000000000000000000BB
:0200000490006A
:0400000000004005B7
:0200000490105A
:04000000BC90ACAF55
:0200000490303A
:020000003D754C
:0200000490402A
:4000000000000000000000000000000000000000000000000000000000000000000000000000000000000000000000000000000000000000000000000000000000000000C0
:400040000000000000000000000000000000000000000000000000000000000000000000000000000000000000000000000000000000000000000000000000000000000080
:400080000000000000000000000000000000000000000000000000000000000000000000000000000000000000000000000000000000000000000000000000000000000040
:4000C0000000000000000000000000000000000000000000000000000000000000000000000000000000000000000000000000000000000000000000000000000000000000
:0200000490501A
:0C00000000012E12306900012E2E6DDE72
:00000001FF