:400000000080002011000000C90B0000C90B000080B500AF024A034B1B68136000F0D8FDBC760040FA46004010B5054C237833B9044B13B10448AFF300800123237010BD9A
:400040008881FF1F00000000DC920000084B10B51BB108480849AFF300800848036803B910BD074B002BFBD0BDE81040184700BF00000000DC9200008C81FF1F0881FF1F65
:400080000000000080B500AF01F0CAFA0346002B03D0074B00221A7006E0054B1B78DBB20133DAB2024B1A7001F00EF980BD00BFA481FF1F80B5ADF5C84D86B000AF05F078
:4000C0009BFA07F5884303F11803183BB24A19464FF40053084611461A4609F0EBF8002307F5C84202F114021360002307F5C84202F11402136026E007F5884303F118034A
:40010000183B07F5C84202F114021268D2001344D3E9000107F5105303F11803183B07F5C84202F114021268D2001344C3E9000107F5C84303F114031B68013307F5C8420E
:4001400002F11402136007F5C84303F114031B68B3F5806FD0DB07F58363183B1A464FF40053104600211A4609F0AFF807F11803183B184600F006FC62B60020022101F088
:40018000D9F801F073FA0346002B11D001F062FA0346002B0AD0002001F0AEF87F4803F00BFF00F0EBFF03F043F801E001F038F801F050FA0346002B00F0778103F0D6F843
:4001C00003F048F8764B1B78DBB203F00203002B0CD00E207349002203F014F9704B1B78DBB223F00203DAB26D4B1A706E4B1B78DBB203F00203002B0CD00E206949102235
:4002000003F000F9684B1B78DBB223F00203DAB2654B1A7001F060F80346002B07D1634B1B7843F00103DAB2604B1A7006E05F4B1B7823F00103DAB25C4B1A7000F08EFFDF
:400240000346002B07D1594B1B7843F00203DAB2564B1A7006E0554B1B7823F00203DAB2524B1A70514B1A78514B1B785340DAB2504B1A704F4B1B78002B00F0F2804B4B37
:400280001A784B4B1A70902307F5C84202F104021370484B1B7803F00103002B21D0492307F5C84202F105021370404B1B7803F00103002B06D0642307F5C84202F1060291
:4002C000137005E0002307F5C84202F10602137007F5C84303F1040303201946002203F091F8344B1B7803F00203002B00F0B9802E4B1B7803F00203002B00F09D80902380
:4003000007F5C84202F10402137007F5105202F11802183A07F58363183B1046194600F0FDFB07F5C84303F10803C3E9000107F11803183B184607F5C84303F10803D3E973
:40034000002300F065FB0346DBB207F5C84202F105021370642307F5C84202F106021370012005F0C5F90020002105F055F907F5C84303F10803D3E9000108F04FFF0346FC
:400380009BB2184605F0F6FA002307F5C84202F11402136047E000BFF092000085000000E882FF1FE0920000EB82FF1FA581FF1FA681FF1FA781FF1F07F5884303F11803F1
:4003C000183B07F5C84202F114021268D2001344D3E9000107F5105303F11803183B07F5C84202F114021268D2001344C3E9000107F58363183B07F5C84202F1140212685D
:40040000D20099184FF000024FF00003C1E9002307F5C84303F114031B68013307F5C84202F11402136007F5C84303F114031B68B3F5806FC0DB0BE0802307F5C84202F150
:4004400004021370002307F5C84202F10602137007F5C84303F1040303201946002202F0D1FF124B1B78DBB2012B1ED900F04CFC00F082FC012000F03FFF01F0B1FD04F0BC
:4004800087FA0020402104F045FD04F0C3FB01F03DFE02F0CDFE002000F02EFF00F04EFC00F084FC014B00221A706AE6A481FF1F80B582B000AF03463960FB71144B1B78A1
:4004C000DBB203F00103002B1AD1124B1B7803F00103002B14D03B681B78092B10D13B6801331B78012B03D1002000F005FF07E03B6801331B78022B02D1012000F0FCFE47
:40050000034B1B78DAB2034B1A700837BD4680BDE882FF1FA881FF1F2DE9F04F9DB000AFF861B9617A61002387F857307B693B660023FB6605E0FB6E0133FB663B6E5B0868
:400540003B663B6E012BF6D8FB6E01229A407B699A4201D00023EBE17B69B3F1804F01D30023E5E17B695B08BB66B96E6B461E460B46013B3B650A464FF000039801F860E9
:40058000F86840EA9260F8609301BB600A464FF000034FEA831B4BEA926B4FEA821ACB0007330733DB08DB00ADEB030D6B460733DB08DB00FB64B96E0B46013BBB640A4678
:4005C0004FF000034FEA831949EA92694FEA82180A464FF000039D0145EA92659401CB0007330733DB08DB00ADEB030D6B460733DB08DB007B6400237B6650E0786E08F0B9
:40060000D5FA02460B461046194657A3D3E9002308F042FB02460B4614461D46786908F0C5FA02460B462046294608F05FFC02460B461046194605F083FF02460B46F86C1E
:40064000796EC9000144C1E90023786E08F0AEFA02460B461046194643A3D3E9002308F01BFB02460B4614461D46786908F09EFA02460B462046294608F038FC02460B4617
:400680001046194605F0A4FF02460B46786C796EC9000144C1E900237B6E01337B667B695A087B6E9A42A9D800237B6643E0786EF96E00F045F938643A6C7B6E9A4237D96B
:4006C0007B6EDB00FA691344D3E90023C7E90E237B6EDB00FA69D1183B6CDB00FA691344D3E90023C1E900233B6CDB00FA69D118D7E90E23C1E900237B6EDB00BA691344FA
:40070000D3E90023C7E90E237B6EDB00BA69D1183B6CDB00BA691344D3E90023C1E900233B6CDB00BA69D118D7E90E23C1E900237B6E01337B667A6E7B699A42B7D30223E0
:40074000BB66EAE0BB6E5B087B637A69BB6EB2FBF3F33B6300237B66D2E07B6EFB650023BB65C2E0AFF30080182D4454FB211940FA6D7B6B1344DB00FA691344D3E9000199
:40078000FA6CBB6DDB001344D3E9002308F084FA02460B4614461D46FA6D7B6B1344DB00BA691344D3E900017A6CBB6DDB001344D3E9002308F070FA02460B462046294629
:4007C00008F0B8F802460B46C7E90A23FA6D7B6B1344DB00FA691344D3E900233A6083F000437B607A6CBB6DDB001344D3E90023D7E9000108F050FA02460B4614461D4620
:40080000FA6D7B6B1344DB00BA691344D3E90001FA6CBB6DDB001344D3E9002308F03CFA02460B462046294608F084F802460B46C7E90823FA6D7B6B1344DB00FA69D41811
:40084000FB6DDB00FA691344D3E9002310461946D7E90A2308F06CF802460B46C4E90023FA6D7B6B1344DB00BA69D418FB6DDB00BA691344D3E9002310461946D7E908236B
:4008800008F056F802460B46C4E90023FB6DDB00FA69D418FB6DDB00FA691344D3E9002310461946D7E90A2308F044F802460B46C4E90023FB6DDB00BA69D418FB6DDB0047
:4008C000BA691344D3E9002310461946D7E9082308F030F802460B46C4E90023FB6D0133FB65BA6D3B6B1344BB657A6E7B6B1A44FB6D9A423FF63CAF7A6EBB6E13447B665D
:400900007A6E7B699A42FFF428AFBA6E7B699A4200D107E0BB6E5B00BB66BA6E7B699A427FF610AF012387F8573097F85730B54618467437BD46BDE8F08F00BFAFF3008098
:4009400080B485B000AF786039600023FB600023BB600CE0FB685A007B6803F001031343FB60BB680133BB607B685B087B60BA683B689A42EED3FB6818461437BD465DF8A5
:40098000047B70472DE9904385B000AF78604FF4DC73BB600023FB6030E0FB68DB007A68D418BB68002B00DA1F335B11184608F00DF980468946FB68083B184608F006F943
:4009C00002460B46104619464FF000020F4B08F08DFA02460B464FF000004FF0804105F041FE02460B464046494608F055F902460B46C4E90023FB680133FB60FB687F2B27
:400A0000CBDD1437BD46BDE8908300BF0000284080B58EB000AFF860C7E90023FB68D3E9002310461946D7E9002308F0C5FB0346002B01D000236CE0FB6803F57E73D3E946
:400A4000002310461946D7E9002308F097FB0346002B01D07F235CE000237B6300233B6353E03B6BDB00FA681344D3E90023C7E90A233B6B0133DB00FA681344D3E90023D6
:400A8000C7E90823D7E90001D7E90A2308F08AFB0346002B36D0D7E90001D7E9082308F077FB0346002B2DD0D7E90001D7E90A2307F03EFF02460B46C7E90623D7E9080112
:400AC000D7E9002307F034FF02460B46C7E90423D7E90601D7E9042308F050FB0346002B02D03B6B7B6313E0D7E90601D7E9042308F062FB0346002B00D109E03B6B0133C0
:400B00007B6305E03B6B01333B633B6B7E2BA8DD7B6B18463837BD4680BD00BF80B588B000AF78603960786839684FF48062FFF7F3FC0346FB60FB68002B04D14FF0000294
:400B40004FF0000338E04FF000024FF00003C7E9062300237B6100233B611BE03B69DB007A681344D3E9002310461946D7E9062308F022FB0346002B09D03B69DB007A680E
:400B80001344D3E90023C7E906233B697B613B6901333B613B69B3F5806FDFDB786908F015F802460B46104619464FF00002054B08F072F802460B46104619462037BD466E
:400BC00080BD00BF00402F4080B400AFFEE700BF80B586B000AF214B7B61214B3B611F4B7B611F4B3B612FE03B691B68FB603B695B68BB603B699B683B6000237B600AE0D0
:400C0000BB681A1DBA60FA68111DF96012681A607B6804337B607A683B689A42F0D13B69DB683B6000237B6007E0BB681A1DBA6000221A607B6804337B607A683B689A427F
:400C4000F3D13B6910333B617B695A1E7A61002BCAD108F009FBFFF72DFAFEE701000000A0B7000080B582B000AF174B174A1A60174A174B1B6843F40073136000237B6026
:400C80000FE07B68032B04D8124A7B6852F8233000E0114B11497A6841F822307B6801337B607B682F2BECD90D4B1B78DAB20D4B1A700D4B094A1A6000F088F90B4B00221E
:400CC0001A600837BD4680BD0CED00E00004FA0514ED00E000000000C90B00000080FF1FBC7600400481FF1F08ED00E00081FF1F80B400AFBD465DF8047B704780B400AFEF
:400D0000BD465DF8047B704780B500AF094B1B78DBB203F01003002B03D0074B01221A7002E0054B00221A7004F0FAFEFFF7E0FF80BD00BF9B640040AC81FF1F80B500AFC1
:400D4000FFF7DCFF04F034FF04F0D2FF034B1B78002B01D004F0B0FE80BD00BFAC81FF1F80B400AFBD465DF8047B704780B400AFBD465DF8047B704780B500AF094B1B7843
:400D8000DBB203F01003002B03D0074B01221A7002E0054B00221A7005F04CF8FFF7E0FF80BD00BF99650040B081FF1F80B500AFFFF7DCFF05F086F805F024F9034B1B7813
:400DC000002B01D005F002F880BD00BFB081FF1F80B582B000AF78603960786800213A6808F073FA0837BD4680BD00BF80B584B000AFF860B9607A60F868B9687A6808F032
:400E000059FA1037BD4680BD80B483B000AF0346FB71FEE780B487B000AF7860396000233B6100237B6127E07B699B007A6813441B68BB60BB68FB73BB6823F0FF03BB609E
:400E400014E03B695B003A6813441B781A46BB68134419463B695B003A6813445B780B703B6901333B61FB7B013BFB73FB7B002BE7D17B6901337B617B691A2BD4D91C376A
:400E8000BD465DF8047B704780B582B000AF2F4B5F221A802E4B19221A702E4B06221A702D4B2E4A1278D2B21A702D4B52221A702C4B40F619121A802B4B41F251221A806A
:400EC0000023FB7019237B6013E0FB785B00DAB2264B1B78DBB203F00103DBB21343DBB203F00303FB70782004F096FD7B68013B7B607B68002B02D0FB78032BE5D17B6871
:400F0000002B02D10320FFF77FFF194B4FF480721A80174B07221A70164B00221A70164B48221A70124B00221A70144B00221A70134B02221A70134A124B1B78DBB243F045
:400F40000103DBB213700837BD4680BD804000408240004000430040A14600400F01004900420040224200402042004025420040044000400640004008400040094000404F
:400F800001400040A243004080B483B000AF0B4B1B78FB710A4AFB7903F00703DBB21370084AFB791B09DBB21370074B44221A700C37BD465DF8047B704700BFCF01004966
:400FC0006E5800406F5800407658004080B586B000AF72B64C4B01221A70FFF755FF4B4A4A4B1B78DBB243F00403DBB213700023FB7513E0FA7D13465B0013445B00444A81
:4010000013443B613B691A683B699B889BB210461946FFF7DDFEFB7D0133FB75FB7D082BE8D90023FB751CE0FA7D13469B0013445B00384A1344FB60FB681B68BB60FB6831
:401040005B687B60FB681A7A5B7A1B0213437B807B88B86879681A46FFF7C8FEFB7D0133FB75FB7D002BDFD04FF090402A49FFF7D1FE2A4A294B1B78DBB243F00203DBB2F6
:401080001370274A264B1B78DBB243F00203DBB21370244A234B1B78DBB243F04003DBB21370214A204B1B78DBB243F01003DBB213701E481E490A22FFF798FE1D481E4944
:4010C0000822FFF793FE1D481D490822FFF78EFE1C481D490A22FFF789FE1C481C490A22FFF784FE1B4A1B4B1B78DBB243F00803DBB21370FFF748FF17480A490E22FFF79A
:4011000075FE1837BD4680BD00480040E8460040F0B2000028B300006C0000480350014013500140A0430040C2430040F0510040C805004812510040D405004822510040D9
:40114000DC05004850510040E405004860510040F005004822430040B043004080B400AF054B1B78DBB203F020035B09DBB21846BD465DF8047B7047F151004080B500AF82
:40118000054B1B78002B04D100F008F8024B01221A7000F00BF880BDB481FF1F80B500AF022000F06DF800F053F880BD80B582B000AF194B1B78DBB203F00203002B18D166
:4011C00004F032FC0346FB71134A134B1B78DBB243F00203DBB21370104A104B1B78DBB243F00403DBB21370FB79184604F020FC0FE004F019FC0346FB71084A074B1B7810
:40120000DBB243F00403DBB21370FB79184604F00FFC0837BD4680BD004300408243004080B582B000AF04F0FFFB0346FB71074A064B1B78DBB223F00403DBB21370FB79E6
:40124000184604F0F5FB0837BD4680BD8243004080B582B000AF04F0E7FB0346FB71074A064B1B78DBB243F00803DBB21370FB79184604F0DDFB0837BD4680BD82430040D5
:4012800080B483B000AF0346FB710D4B1B78DBB203F00403002B0DD10A490A4B1B78DBB223F00F03DAB2FB7903F00F03DBB21343DBB20B700C37BD465DF8047B704700BF7B
:4012C000824300408143004080B500AF022003F0D9FE0346184680BD80B400AF054B1B78DBB203F00103DBB21846BD465DF8047B704700BF6151004080B485B000AF03465C
:40130000FB710B4B1B78DBB223F04003FB730849FB799B01DBB203F04003DAB2FB7B1343DBB20B701437BD465DF8047B704700BF5051004080B582B000AF03460A46FB71EF
:401340001346BB71084B1B78002B04D100F00EF8054B01221A70FA79BB791046194600F0C1F80837BD4680BDB581FF1F80B582B000AF04F059FB0346FB714B4A4A4B1B7867
:40138000DBB243F00103DBB21370484A474B1B78DBB243F00103DBB21370454B01221A70444B02221A70444A434B1B78DBB203F07F03DBB21370002003F08EFA3F4A3F4BE5
:4013C0001B78DBB223F00603DBB213703C4A3C4B1B78DBB223F02003DBB21370374A374B1B78DBB243F00103DBB21370012003F073FA282003F070FA324A324B1B78DBB285
:4014000003F07F03DBB213702E4A2E4B1B78DBB223F04003DBB21370284A284B1B78DBB243F00203DBB21370022003F055FA234A224B1B78DBB243F00403DBB21370224B4E
:4014400000221A70214B00221A70FB79184604F0EFFA17201E4903F051FA1720072103F075FA15201B4903F049FA1520072103F06DFA1820184903F041FA1820072103F0BC
:4014800065FA0520154903F039FA0520072103F05DFA0620124903F031FA0620072103F055FA0837BD4680BDA5430040B54300409D600040096000401060004094430040D2
:4014C00012600040F85100408460004085600040A91F00009D1F00002D190000F51E0000491F000080B582B000AF03460A46FB711346BB71234B4FF400021A60214B4FF0AB
:4015000080721A601F4B20221A601E4B40221A601D4B00221A70BB79002B02D0012B04D007E01A4B02221A7007E0184B03221A7003E0164B03221A7000BF154AFB79137094
:40154000144B00221A70144B00221A70134B00221A70134B00221A70124B00221A70124B00221A70114B03221A70114B80221A70012004F051FA0F4B04221A700837BD46F0
:4015800080BD00BF00E100E03082FF1F096000403B82FF1F4482FF1F3182FF1F3E82FF1F3C82FF1F5982FF1F3282FF1F28600040086000401260004080B400AF0F4B00225F
:4015C0001A700F4B00221A700E4B00221A700E4B00221A700D4B00221A700D4B00221A700C4B00221A700C4B03221A700B4B80221A70BD465DF8047B704700BF3082FF1FA1
:401600004482FF1F3182FF1F3E82FF1F3C82FF1F5982FF1F3282FF1F286000400860004080B483B000AF0A4B1B78FB71084AFB7923F00403DBB21370FB7903F004039B108D
:40164000DBB218460C37BD465DF8047B704700BF0960004080B400AF034B1B78DBB21846BD465DF8047B70474482FF1F80B483B000AF0023FB71094B1B78DBB2002B05D00C
:40168000064B1B78FB71054B00221A70FB7918460C37BD465DF8047B704700BF3E82FF1F80B483B000AF0346FB71FA79064913465B0013449B000B445B78DBB218460C371B
:4016C000BD465DF8047B70475C82FF1F80B485B000AF0346FB710023FB81FB79002B20D0FB79082B1DD8FB79013BDBB21B017B737A7B0F4B13441B78DBB29BB203F00F036A
:40170000FB81FB891B0299B27A7B0A4B13441B78DBB29BB20A4613439BB2FB81FB89023BFB81FB8918461437BD465DF8047B70470C6000400D60004090B484B000AF034603
:401740003960FB711346BB80FB79002B69D0FB79082B66D8FB79013BDBB21B017B737A7B324B1344BB60B988FA79314813465B0013449B000344DB889BB2C3F50073994218
:401780000BD9FA792A4913465B0013449B000B44DB889BB2C3F50073BB807A7B254B13441C46BB881B0A9BB2D9B2FA79204813465B0013449B000344DB78DBB20B43DBB273
:4017C00023707A7B1C4B1344BA88D2B21A703B68002B0FD00023FB8108E0FB893A6813441A78BB681A70FB890133FB81FA89BB889A42F2D3FA790E4913465B0013449B0058
:401800000B4400225A707A7B0C4B13441846FA79074913465B0013449B000B445B79DBB203701037BD4690BC704700BF886000405C82FF1F0C6000400D6000400E600040A9
:4018400080B586B000AF03463960FB711346BB80FB79002B30D0FB79082B2DD83B68002B2AD0FB79013BDBB21B017B757A7D164B13443B61FB791846FFF728FF0346FB8111
:40188000BA88FB899A4201D9FB89BB800023FB8209E0FB8A3A6813443A691278D2B21A70FB8A0133FB82FA8ABB889A42F1D3FB79184600F00BF801E00023BB80BB88184669
:4018C0001837BD4680BD00BF8860004080B485B000AF0346FB71FB79002B1ED0FB79082B1BD8FB79013BDBB21B01FB73FA790D4913465B0013449B000B4400225A70FA7B98
:40190000094B13441846FA79064913465B0013449B000B445B79DBB203701437BD465DF8047B70475C82FF1F0E60004080B582B000AF374B1B78BB71BB7903F01003002BD4
:4019400063D00123FB71BB795BB2002B13DABB7903F00F03012B02D00023FB711DE000F061F82C4B1B78DBB2DBB25BB2002B14DA0023FB7111E0BB7903F04003002B02D00E
:4019800000F094F809E0BB7903F02003002B02D000F0B2F801E00023FB71FB79002B34D01B4B1B78BB71BB795BB2002B2DDB1A4B1B78DAB2194B1B78DBB21343BB71184A49
:4019C000BB791370164B1B78DBB2BA799A421CD1104B1B78FB710E4B1B78DBB223F07F03BB71BB79002B0AD1094B0A4A1278D2B21A70074B1B78DBB203F00F03FB71054B72
:401A00001B78DBB2FA799A42E2D10837BD4680BD286000403A82FF1F3D82FF1F5882FF1F2960004080B582B000AF1D4B1B78FB711B4AFB7913701A4B1B78FB71FB795BB207
:401A4000002B03DA174AFB79137025E0022000F017FA154B1B78DBB203F06003202B08D0402B0BD0002B0ED100F0D0FB0346FB710CE004F02DFB0346FB7107E001F0ACFBE9
:401A80000346FB7102E00023FB7100BFFB79002B02D1044B03221A700837BD4680BD00BF286000403A82FF1F0060004080B500AF104B1B78DBB2062B19D801A252F823F0D0
:401AC000EF1A0000EF1A0000DD1A0000EF1A0000E31A0000EF1A0000E91A000000F0FEF806E000F07DF903E000F0A6F900E000BF80BD00BF3082FF1F80B500AF124B1B78E8
:401B0000DBB2062B1DD801A252F823F0431B0000431B0000291B0000431B00002F1B0000431B0000351B000000F0DEF80AE000F0FBF807E0032000F0A3F9044B03221A7075
:401B400000E000BF80BD00BF3082FF1F3A82FF1F80B483B000AF0023FB712B4B1B78DBB29AB22A4B1B889BB213449AB2274B1A8019E0FB7903F1804303F5C0431A46244B97
:401B80005B681B78DBB21370214B5B680133204A5360FB790133FB711D4B1B889BB2013B9AB21B4B1A801A4B1B889BB2002B02D0FB79072BDDD9144B1B78DBB2082B02D019
:401BC000FB79002B0FD0134B1B78DBB283F07F03DB43DAB20F4B1A700F4B0F221A700F4B02221A7005E00C4B02221A700B4B02221A70054AFB791370094AFB7913700C3788
:401C0000BD465DF8047B70473282FF1F4282FF1F4C82FF1F3D82FF1F3A82FF1F3082FF1F5882FF1F80B582B000AF164B1B889BB2002B02D100F030F81EE0134B02221A7070
:401C4000124B00221A7000F03BF9114B1B78DBB21B029AB20F4B1B78DBB29BB213439BB2FB80084B1B889BB2FA889A4202D2054AFB881380FFF76CFF012318460837BD466E
:401C800080BD00BF4C82FF1F3082FF1F3D82FF1F076000400660004080B400AF0A4B02221A700A4B80221A70094B0F221A70094B00221A70084B00221A7001231846BD4648
:401CC0005DF8047B704700BF3082FF1F3D82FF1F3A82FF1F3282FF1F5882FF1F80B500AFFFF736FF80BD00BF80B500AF0A4B1B78DBB29AB2094B1B889BB213449AB2074B60
:401D00001A80074B00221A70012000F0B9F8054B03221A7080BD00BF3282FF1F4282FF1F3082FF1F3A82FF1F80B483B000AF0023BB71254B1B78DBB203F00F03DBB2023B2C
:401D4000FB71FB799AB2214B1B889BB213449AB21E4B1A801BE01E4B5A68BB7903F1804303F5C0431B78DBB21370194B5B680133174A5360BB790133BB71FB79013BFB7167
:401D8000134B1B889BB2013B9AB2114B1A80104B1B889BB2002B02D0FB79002BDBD10D4AFB7913700C4B1B78DBB283F07F03DB43DAB2094B1A70094B0B221A700C37BD4631
:401DC0005DF8047B704700BF296000404282FF1F4C82FF1F5882FF1F3D82FF1F3A82FF1F80B500AF044B00221A70012000F048F8024B03221A7080BD3082FF1F3A82FF1F40
:401E000080B400AF084B06221A70084B06221A70074B80221A70074B00221A7001231846BD465DF8047B70473082FF1F3A82FF1F3D82FF1F5882FF1F80B500AF0C4B1B78DC
:401E4000DBB2002B0AD00B4A094B1B78DBB263F07F03DBB21370064B00221A70064B00221A70012000F00CF8044B03221A7080BD3C82FF1F086000403082FF1F3A82FF1FAA
:401E800080B483B000AF0346FB710B4B9B68002B0CD0094B9B68FA791A70074B9B68074A128892B25A80044B00229A600C37BD465DF8047B704700BF4C82FF1F4282FF1F7C
:401EC00080B400AF094B00221A80094B9B68002B07D0074B9B6800221A70054B9B6800225A80BD465DF8047B704700BF4282FF1F4C82FF1F80B400AF104B1B78104B1B7B69
:401F0000DBB203F00303012B08D00D4BDB7BDBB283F07F03DB43DAB2094BDA73084B01225A73084A074B1B78DBB223F00103DBB21370BD465DF8047B704700BF0E60004073
:401F40005C82FF1F0B60004080B400AF104B1B78104B1B7EDBB203F00303012B08D00D4BDB7EDBB283F07F03DB43DAB2094BDA76084B01225A76084A074B1B78DBB223F0CD
:401F80000203DBB21370BD465DF8047B704700BF1E6000405C82FF1F0B60004080B400AFBD465DF8047B704780B500AFFFF704FB80BD00BF80B400AF024B1B78BD465DF8F9
:401FC000047B70478F45004080B500AF034B1B78DBB2002B01D000F0B3FB80BD4482FF1F80B582B000AF03F01FFD0346FB713C4B1B78DBB2DBB25BB2002B57DA394B01226C
:402000001A70394A384B1B78DBB203F07F03DBB21370002002F060FC344A344B1B78DBB223F00603DBB213702D4A2D4B1B78DBB203F07F03DBB21370002002F04DFC2C4B4E
:402040001B78DBB203F00103DAB2264B5A70284A274B1B78DBB223F00103DBB21370012002F03AFC214A214B1B78DBB223F00103DBB213701F4A1F4B1B78DBB243F02003A7
:40208000DBB213701C4A1C4B1B78DBB223F00103DBB21370194A194B1B78DBB223F00103DBB21370012002F017FC02E00D4B00221A70FB79184603F0BBFC0C20104902F0EF
:4020C0001DFC0C20072102F041FC0E4B4FF480521A600D4B4FF480521A600837BD4680BD08600040B881FF1F10600040944300400960004012600040A5430040B543004075
:40210000B51F000080E200E000E100E080B582B000AF03F089FC0346FB71324B1B78002B58D0314B4FF480521A60304A2F4B1B78DBB243F00103DBB213702D4A2C4B1B783B
:40214000DBB243F00103DBB213702A4A294B1B78DBB243F00103DBB21370274A264B1B78DBB243F00103DBB21370282002F0B4FB2249224B1B78DAB21A4B5B781343DBB2F8
:402180000B70002002F0A8FB1B4A1B4B1B78DBB243F00203DBB21370022002F09DFB164A154B1B78DBB243F00403DBB21370144B03221A70134A134B1B78DBB263F07F0328
:4021C000DBB21370012003F027FC0F4B04221A70FFF7FAFEFB79184603F02AFC0837BD4680BD00BFB881FF1F80E100E0A5430040B54300409D600040944300400960004082
:4022000028600040086000401260004080B586B000AF0023FB7500233B619D4B00221A809C4B1B78DBB2DBB25BB2002B80F20681994B1B78DBB20A2B00F2FE8001A252F811
:4022400023F000BF8D230000392400003924000039240000392400003924000071220000392400000324000039240000192400008A4B1B78DBB2012B0ED100F027FEB8602D
:40228000BB685B68824A5360814B12221A80FFF7C9FC0346FB7578E0804B1B78DBB2022B24D17F4B1B78DBB2184600F0E5FDB860BB68002B69D0BB685B68754A5360744B76
:4022C0005B6803331B78DBB21B029AB2704B5B6802331B78DBB29BB213439BB29AB26C4B1A80FFF79FFC0346FB75A6E06B4B1B78DBB2032B44D10023FB736A4B3B6109E048
:402300003B691B78FB71FB793A6913443B61FB7B0133FB73624B1B78DBB2FA7B9A4204D23B691B78DBB2002BEAD15D4B1B78DBB2EE2B01D15C4B3B61594B1B78DBB2002B55
:402340000BD0574B1B78DAB2584B1B7C9A4204D1574800F0ADF9564B3B613B691B78DBB2002B12D03B691B78DBB29AB2484B1A80474A3B695360FFF755FC0346FB755CE032
:4023800003F0A6FE0346FB7557E056E0414B1B78DBB203F00303002B1FD0022B00D02FE03B4B02221A80434B1B78DBB203F07F02414913465B0013449B000B449B78DAB211
:4023C0003E4B1A703D4B00225A70314B3B4A5A60FFF728FC0346FB7512E02D4B02221A80374B1B78DAB2354B1A70344B00225A70274B324A5A60FFF715FC0346FB7500BF63
:402400001BE0234B01221A80214B2E4A5A60FFF709FC0346FB7510E01D4B01221A80254B1B78DBB21A46284B1344194A5360FFF7F9FB0346FB7500E000BF20E1164B1B7808
:40244000DBB2013B0A2B00F2198101A252F823F0612500007D260000EF2500007D2600007D2400007D2600007D2600007D260000D12400007D26000027250000084B1B789E
:40248000DAB2124B1A70FFF7BBFC0346FB75F6E04C82FF1F0060004001600040036000400260004004B4000018B5000068B300001087FF1F046000405C82FF1FBC81FF1FAB
:4024C0005982FF1F4482FF1F3882FF1F3C82FF1F6D4B1B78BB71BB79002B06D0BB79013BDBB2184600F0C8FCB860BB79002B02D0BB68002B02D1BB79002B13D1634B1B78A2
:40250000DBB2BA799A4208D0604ABB791370604B01221A70012000F0D3F9FFF771FC0346FB75ACE0ABE000F01BFE0346002B16D0584B1B787B71584A7B791370544B0122FE
:402540001A7000F05BFB7B797A7954498A5CD1B2534AD154FFF754FC0346FB758FE08EE0504B1B78DBB203F00303012B22D0012B0DD3022B00D039E0434B1B78DBB2002B33
:4025800004D100F04BFD0346FB752FE02EE03E4B1B78DBB2012B0CD1434B1B78DBB223F00203DAB2404B1A70FFF72AFC0346FB751CE01BE0374B1B78DBB2012B15D8324B1B
:4025C0001B78DBB2DB43DBB2324A1278D2B211461046364A125CD2B21340DAB2334B5A54FFF70EFC0346FB75FFE700BF47E02D4B1B78DBB203F00303012B22D0012B0DD31C
:40260000022B00D039E0204B1B78DBB2002B04D100F094FC0346FB752FE02EE01A4B1B78DBB2012B0CD1204B1B78DBB243F00203DAB21D4B1A70FFF7E3FB0346FB751CE04B
:402640001BE0144B1B78DBB2012B15D80E4B1B78DBB2DB43DBB20F4A1278D2B211461046124A125CD2B21340DAB2104B5A54FFF7C7FB0346FB75FFE700BF00E000BFFB7D2C
:4026800018461837BD4680BD026000404482FF1F3E82FF1F046000403182FF1F3882FF1F4882FF1F006000405982FF1F4082FF1F90B488B000AF78600023BB771F4B07F161
:4026C0000C040FCB84E80F007B68002B32D07B6822221A707B68013303221A700223FB7725E0BB7F03F1924303F580731B787B77BB7F0133BB77FB7F7A6813447A7F120978
:40270000D2B207F120010A4412F8142C1A70FB7F02337A6813447A7F02F00F0207F120010A4412F8142C1A70FB7F0433FB77FB7F212BD6D92037BD4690BC704734B30000DF
:4027400080B483B000AF0123FB710023BB7197E0BB7903F1804303F5C1430C221A70FA794E4913465B0013449B000B445B79DBB2002B18D0FA79494913465B0013449B0030
:402780000B441B79DBB2DBB25BB2002B05DABA79434B13440C221A700AE0BA79404B134408221A7004E0BA793D4B134480221A70BA793C4B13441846FA79384913465B0049
:4027C00013449B000B4408331B889BB21B0A9BB2DBB20370BA79344B13441846FA792F4913465B0013449B000B4408331B889BB2DBB20370BA792D4B13441846FA79274946
:4028000013465B0013449B000B44DB889BB2DBB20370BA79264B13441846FA791F4913465B0013449B000B44DB889BB21B0A9BB2DBB20370BA791F4B13441846FA79174983
:4028400013465B0013449B000B44DB889BB2DBB20370BA79184B13441846FA790F4913465B0013449B000B44DB889BB21B0A9BB2DBB20370FB790133FB71BB791033BB71CF
:40288000BB795BB2002BBFF663AF0C4BFF221A700C37BD465DF8047B704700BF5C82FF1F0E6000400C6000400D600040866000408760004084600040856000400A60004010
:4028C00080B588B000AF0346FB7100237B830023FB7743E0FA7FAF4913465B0013449B000B4400221A70FA7FAA4913465B0013449B000B4400229A70FA7FA64913465B0073
:4029000013449B000B4400225A70FA7FA14913465B0013449B000B440022DA70FA7F9D4913465B0013449B000B4400225A71FA7F984913465B0013449B000B4408330022B9
:402940001A80FA7F934913465B0013449B000B44083300229A70FB7F0133FB77FB7F082BB8D9FB79002B10D000237B770AE07B7F894A0021D1547B7F884A0021D1547B7F11
:4029800001337B777B7F012BF1D9854B1B78DBB2002B00F02D81824B1B78DBB2013BDBB2184600F069FA38613B695B68FB60FB6807331B7803F04003002B08D0794B1B78C6
:4029C000DBB243F00103DAB2764B1A7007E0754B1B78DBB223F00103DAB2724B1A703B6908333B613B691B78FB7701237B77A5E03B695B687B610023BB7797E07A7F7B69E0
:402A00009B7803F07F039A4240F08A807A7F614913465B0013449B000B4408331B889AB27B699B889A420BD27A7F7B699888594913465B0013449B000B44083302461A80C5
:402A40007B691B781A46544B9B5CDAB27B695B789A4265D17B69DB7803F00303FB727B699B78DBB25BB2002B22DA7A7F494913465B0013449B000B4401225A707A7FFB7A64
:402A8000012B01D1072000E00D20424913465B0013449B000B4402465A717B699B79012B28D1FB7A022B25D13F4A7B7F137021E07A7F384913465B0013449B000B44002204
:402AC0005A707A7FFB7A012B01D1052000E00920304913465B0013449B000B4402465A717B699B79012B05D1FB7A022B02D12F4A7B7F13707A7F7B699878264913465B007C
:402B000013449B000B4402461A717A7F7B69D878204913465B0013449B000B4402461A707B6908337B61BB7F0133BB77BA7FFB7F9A42FFF463AF7B7F01337B777B7F082BA8
:402B40007FF656AF3B695B687B6100237B7714E07B699B7803F07F027B6918780D4913465B0013449B000B44083302469A707B6908337B617B7F01337B777A7FFB7F9A426E
:402B8000E6D300F0B5F90246094B1A600123FB7729E000BF5C82FF1F3882FF1F4882FF1F4482FF1F5982FF1FE982FF1FEC82FF1F3482FF1FFA7F104913465B0013449B0050
:402BC0000B447A8BDA80FA7F0B4913465B0013449B000B4408331B889AB27B8B13447B83FB7F0133FB77FB7F082BE3D9FFF7A8FD2037BD4680BD00BF5C82FF1F80B584B001
:402C000000AF914B1B78DBB2002B00F01A818E4B1B78DBB2013BDBB2184600F02DF978607B6808337B607B681B78FB707B685B68BB600023FB73FFE0BB681B781A46834B36
:402C40009B5CDAB2BB681B781946814B5B5CDBB29A4200F0EB80BB681B781A467B4B9B5CDAB2BB685B789A4240F0E080BB681A78784B1B78DBB29A4240F0D880BB689B7882
:402C800003F07F03BB70BB78013BDBB21B017B70BB68DB7803F003033B70BB689B78DBB25BB2002B18DABA786B4913465B0013449B000B4401225A70BA783B78012B01D1BF
:402CC000072000E00D20644913465B0013449B000B4402465A7117E0BA785F4913465B0013449B000B4400225A70BA783B78012B01D1052000E00920574913465B0013447D
:402D00009B000B4402465A717A78544B134401221A70BA78BB6898884F4913465B0013449B000B44083302461A80BA78BB689878494913465B0013449B000B4402461A7123
:402D4000BA78BB68D878444913465B0013449B000B4402461A70BA783F4913465B0013449B000B440022DA707A783D4B13441846BA78394913465B0013449B000B4408332C
:402D80001B889BB21B0A9BB2DBB203707A78354B13441846BA78304913465B0013449B000B4408331B889BB2DBB203707A782E4B13441846BA78284913465B0013449B0056
:402DC0000B44DB889BB2DBB203707A78274B13441846BA78204913465B0013449B000B44DB889BB21B0A9BB2DBB203707A78204B13441846BA78184913465B0013449B00BE
:402E00000B44DB889BB2DBB203707A78194B13441846BA78104913465B0013449B000B44DB889BB21B0A9BB2DBB20370BB680833BB60FB7B0133FB73FA7BFB789A42FFF49E
:402E4000FBAE1037BD4680BD4482FF1F3882FF1F4882FF1F046000405C82FF1F0E6000400C6000400D6000408660004087600040846000408560004080B485B000AF0346E0
:402E8000FB71104B1B78DBB20F4ADB0013445B68FB60FB680833FB60FB681B78FA799A4202D30023FB6005E0FB79DB00FA6813445B68FB60FB6818461437BD465DF8047B03
:402EC000704700BF3B82FF1F10B5000080B400AF054B1B78DBB2054ADB0013445B681846BD465DF8047B70473B82FF1F10B5000080B584B000AF104B1B78DBB2013BDBB23D
:402F00001846FFF7B9FFB860BB68002B0DD0BB685B681B79FB71FB790233DB00BA681344BB60BB685B68FB6001E00023FB60FB6818461037BD4680BD4482FF1F80B582B011
:402F400000AF0023FB71324B1B78DBB203F07F03BB71BB79013BDBB21B017B71BB79002B51D0BB79082B4ED8BA79B97929480B465B000B449B0003449B78DBB243F0010339
:402F8000D8B2244913465B0013449B000B4402469A70BA791F4913465B0013449B000B440022DA70BA79B9791A480B465B000B449B0003445B78DBB243F00203D8B21549B3
:402FC00013465B0013449B000B4402465A70BA79104913465B0013449B000B441B79DBB2DBB25BB2002B05DA7A790B4B13448D221A7004E07A79084B134489221A70FEF700
:40300000FFFE0346FB71FB7918460837BD4680BD046000405C82FF1F0E60004080B582B000AF0023FB714A4B1B78DBB203F07F03BB71BB79013BDBB21B017B71BB79002BE0
:4030400000F08180BB79082B7DD8BA79B97941480B465B000B449B0003449B78DBB223F00103D8B23B4913465B0013449B000B4402469A70BA79374913465B0013449B0073
:403080000B440022DA707A79334B134419467A79314B13441B78DBB203F07F03DBB20B70BA79B9792B480B465B000B449B0003445B78DBB223F00203D8B2264913465B00F1
:4030C00013449B000B4402465A70BA79214913465B0013449B000B441B79DBB2DBB25BB2002B16DABA791B4913465B0013449B000B445B78DBB2012B05D17A79174B13447B
:403100000C221A701BE07A79144B13440D221A7015E0BA790F4913465B0013449B000B445B78DBB2012B05D17A790C4B134408221A7004E07A79094B134409221A70FEF722
:403140005FFE0346FB71FB7918460837BD4680BD046000405C82FF1F0C6000400E60004080B584B000AF0123FB73164B1B78BB73154B1B78DBB2013BDBB21846FFF77CFE0F
:40318000B860BB685B681B79FB71BA7BFB799A4202D2BB7B012B02D90023FB730CE0BB7BBA7B0A498A5CD1B2094AD154BB7B094A1278D1B2054AD154FB7B18461037BD4637
:4031C00080BD00BF046000404482FF1F3882FF1F4882FF1F0260004080B582B000AF0023FB710F4B1B78DBB2DBB25BB2002B12DA0C4B1B78DBB2012B00D00CE00A4B0B4A10
:403200005A600A4B1B789AB2074B1A80FEF70AFD0346FB7100BFFB7918460837BD4680BD00600040016000404C82FF1F2CB5000080B500AF054B00221A70054B1B78DBB295
:403240001846FEF743FB00F03FFB80BDEA82FF1FEC82FF1F80B582B000AF0023BB712E4B1B78DBB21846FEF71BFA0346012B4FD1294B1B78DBB21846FEF728FA03467B7107
:40328000254B1B78DAB27B799BB2104623491A46FEF7D6FA03467B717B79032B38D90023FB7131E0FB791D4AD35C002B00D12FE0FB791A4AD35C03F0F003002B06D1FB79D7
:4032C000164A1344184600F0CFFC0CE0FB79134AD35C03F0F003102B05D1FB790F4A1344184600F0BFFDFB790C4AD35C23F00F03D9B2FB790133094A134408461946FDF751
:40330000D7F8FB790433FB71FA797B799A42C9D30837BD4680BD00BFEC82FF1FC882FF1F80B500AF0E4B1B78DBB2002B17D00D4B1B78DBB21846FEF7B3F90346012B0ED15C
:40334000084B1B78DAB2064B1B78DBB29BB2104605491A46FEF7F0F9014B00221A7080BDEA82FF1FE982FF1FF082FF1F80B582B000AF0023FB710023BB711D4B1B78DBB2E7
:403380001C2B0FD800F01CFC0346FB71FB79002B08D0184B9B78FA79104617491A46002300F0D2F8124B1B78DBB21C2B0FD800F005FD0346BB71BB79002B08D00F4B9B7819
:4033C000BA7910460E491A46102300F0BDF8084B1B78DBB21C2B05D8FB79002BCDD1BB79002BCAD1FFF79CFF0837BD4680BD00BFEA82FF1FC081FF1FC481FF1FCC81FF1F61
:40340000D081FF1F80B584B000AF03463960FB711346BB710023FB7302F0BEFB02F046FD464B1B78DBB21846454B1B78DBB21946444A0B465B000B449B00134408331B884A
:403440009BB2043B984201D9FFF76AFF3B4B1B78DBB218463A4B1B78DBB21946394A0B465B000B449B00134408331B889BB2043B984258D8FB79032B02D9FB79EF2B07D9D6
:40348000F979FA79BB790846396800F05DF84CE00023BB73BB7B3A681A44BB79F0201146032200F051F8FB79033BFB71BB7B0333BB73224B1B78DBB21846214B1B78DBB2E4
:4034C0001946204A0B465B000B449B00134408331B889BB2043B984218D9FFF721FF174B1B78DBB21846164B1B78DBB21946154A0B465B000B449B00134408331B889BB294
:40350000043B984202D90123FB7302E0FB79032BC0D8FB7B002B08D1FA79BB79F720396800F012F801E00123FB7302F029FB02F0B1FCFB7B18461037BD4680BDEA82FF1F09
:40354000E982FF1F5C82FF1F80B485B000AF396011461A460346FB710B46BB7113467B713B681B78FB733B685B78BB73FB79F72B3BD9924B1B78DBB21A467B7943F00F035F
:40358000D9B28F4B99548D4B1B78DBB20133DAB28A4B1A70894B1B78DBB21946884AFB795354864B1B78DBB20133DAB2834B1A70824B1B78DBB21A46814B002199547F4B68
:4035C0001B78DBB20133DAB27C4B1A707B4B1B78DBB21A467A4B00219954784B1B78DBB20133DAB2754B1A7064E1FB79032B03D9FB79F02B40F09980FB79F02B11D16F4BCE
:403600001B78DBB21A467B7943F00403D9B26C4B99546A4B1B78DBB20133DAB2674B1A7057E0FB7BEF2B13D8644B1B78DBB21946FB7B1B09DAB27B791343DAB2604B5A54A7
:403640005E4B1B78DBB20133DAB25C4B1A7040E0FB7BF62B11D1594B1B78DBB21A467B7943F00503D9B2564B9954544B1B78DBB20133DAB2514B1A702BE0FB7BF12B02D077
:40368000FB7BF32B11D14D4B1B78DBB21A467B7943F00203D9B24A4B9954484B1B78DBB20133DAB2454B1A7013E0FB7BF22B10D1424B1B78DBB21A467B7943F00303D9B28A
:4036C0003F4B99543D4B1B78DBB20133DAB23B4B1A703A4B1B78DBB21946394AFB7B5354364B1B78DBB20133DAB2344B1A70334B1B78DBB21946324ABB7B53542F4B1B786A
:40370000DBB20133DAB22D4B1A702C4B1B78DBB21A463B6899782A4B9954284B1B78DBB20133DAB2254B1A70C4E0FB79F72B40F0C180BB79012B45D0022B7FD0002B00D049
:40374000B8E01E4B1B78DBB21A467B7943F00503D9B21B4B9954194B1B78DBB20133DAB2164B1A70154B1B78DBB21A46144BF7219954124B1B78DBB20133DAB20F4B1A7027
:403780000E4B1B78DBB21A460D4B002199540B4B1B78DBB20133DAB2084B1A70074B1B78DBB21A46064B00219954044B1B78DBB20133DAB2014B1A707CE000BFEA82FF1FDC
:4037C000F082FF1F3E4B1B78DBB21A467B7943F00603D9B23B4B9954394B1B78DBB20133DAB2374B1A70364B1B78DBB21946354AFB7B5354324B1B78DBB20133DAB2304B1E
:403800001A702F4B1B78DBB21A462E4BF72199542B4B1B78DBB20133DAB2294B1A70284B1B78DBB21A46274B00219954244B1B78DBB20133DAB2224B1A703BE0204B1B7860
:40384000DBB21A467B7943F00703D9B21D4B99541B4B1B78DBB20133DAB2194B1A70184B1B78DBB21946174AFB7B5354144B1B78DBB20133DAB2124B1A70114B1B78DBB214
:403880001946104ABB7B53540D4B1B78DBB20133DAB20B4B1A700A4B1B78DBB21A46094BF7219954064B1B78DBB20133DAB2044B1A7000BF1437BD465DF8047B704700BFCB
:4038C000EA82FF1FF082FF1F80B500AF1C4B00221A701B4B00225A70194B00229A70184B0022DA70174B00221A70174B00221A7002F0A2F80220042101F028F801200221C2
:4039000001F024F8114B00221A70104B00225A700E4B00229A700D4B0022DA700C4B00221A700C4B00221A7002F010FA0420042101F00CF80320022101F008F880BD00BF6F
:40394000C081FF1FC881FF1FE882FF1FCC81FF1FD481FF1FEB82FF1F80B485B000AF03463960FB710023FB73FB795BB2002B80F2A680FB7903F0F003F02B72D1FB7903F036
:403980000803002B02D0FB79FB7312E1FB79F03B072B64D801A252F823F000BFBD390000253A0000F13900000B3A00005F3A00005F3A00003F3A0000D73900003B68F0222A
:4039C0001A713B68F022DA703B6801225A703B6803221A7044E03B680022DA703B685A783B689A703B6800225A70F723FB7337E03B68F2221A713B680022DA703B680122C1
:403A00005A703B6803221A702AE03B68F3221A713B680022DA703B6801225A703B6802221A701DE03B68F1221A713B680022DA703B6801225A703B6802221A7010E03B686C
:403A4000F6221A713B680022DA703B6801229A703B6800225A703B689B78FB7300E000BFA7E03B68FA791A713B68FA79DA703B6801225A70FB7903F0F003B02B0FD0B02B6B
:403A800006D8902B0BD0A02B09D0802B07D00EE0D02B08D0E02B02D0C02B04D007E03B6803221A700AE03B6802221A7006E03B680022DA703B6800225A7000BF79E03B685C
:403AC000DB78F02B1CD13B685B781A463B681344FA791A713B685B780133DAB23B685A703B685A783B681B789A4262D33B685A783B689A703B6800225A70F023FB7358E0D4
:403B00003B685B78002B1DD03B685B781A463B681344FA791A713B685B780133DAB23B685A703B685A783B681B789A4241D33B685A783B689A703B6800225A703B689B7884
:403B4000FB7336E03B68DB78002B32D03B68DA783B681A713B68FA795A713B6802225A703B68DB7803F0F003B02B0FD0B02B06D8902B0BD0A02B09D0802B07D015E0D02B0E
:403B800008D0E02B02D0C02B04D00EE03B6803221A700EE03B685A783B689A703B6800225A703B689B78FB7303E03B6800225A7000BFFB7B18461437BD465DF8047B7047B0
:403BC00080B582B000AF0023FB71224B1B787B71214B1B78DAB2214B1B78DBB29A4202D17B79002B31D01C4B1B78BB711EE0BB791B4AD35C3B71BB790133BB71BB79FF2BC4
:403C000001D10023BB717B79002B05D0114B00221A70114ABB7913703B7918461149FFF79BFE0346FB710B4B1B787B710B4B1B78DBB2BA799A4202D17B79002B02D0FB7913
:403C4000002BD4D0044ABB791370FB7918460837BD4680BD2382FF1F2182FF1F2282FF1F1084FF1FC081FF1F80B584B000AF7860012002F00FFA7B681B7803F00F03BB7313
:403C8000BB7B002B00F08D80BB7B012B00F08980BB7B474AD35C7B730123FB73BB7B042B1BD17B6801331B78F02B0DD17B6802331B787E2B08D13F4B1B78DBB243F00103D3
:403CC000DAB23C4B1A7044E03A4B1B78DBB223F00103DAB2374B1A703BE0BB7B052B08D1344B1B78DBB223F00103DAB2314B1A702FE0BB7B062B08D12E4B1B78DBB223F012
:403D00000103DAB22B4B1A7023E0BB7B072B20D1284B1B78DBB203F00103002B19D0254B1B78DBB223F00103DAB2224B1A707B6801331B78062B0CD17B6802331B78012B40
:403D400007D11C4B1B78DBB243F00203DAB2194B1A70BB7B072B13D9BB7B0E2B10D87B6801331A78144B1B78DBB29A4203D1FB7B0133FB7303E07B685A780F4B1A7002E039
:403D80000D4B00221A70FB7B7A6813441B78184601F05EFFFB7B0133FB73FA7B7B7B9A42F1D9002002F076F91037BD4680BD00BF48B30000E882FF1FC881FF1F80B582B0D0
:403DC00000AF0023FB71224B1B787B71214B1B78DAB2214B1B78DBB29A4202D17B79002B31D01C4B1B78BB711EE0BB791B4AD35C3B71BB790133BB71BB79FF2B01D1002334
:403E0000BB717B79002B05D0114B00221A70114ABB7913703B7918461149FFF79DFD0346FB710B4B1B787B710B4B1B78DBB2BA799A4202D17B79002B02D0FB79002BD4D036
:403E4000044ABB791370FB7918460837BD4680BD2B82FF1F2982FF1F2A82FF1F1085FF1FCC81FF1F80B584B000AF7860012002F0F7F87B681B7803F00F03BB73BB7B002B74
:403E800000F08D80BB7B012B00F08980BB7B474AD35C7B730123FB73BB7B042B1BD17B6801331B78F02B0DD17B6802331B787E2B08D13F4B1B78DBB243F00103DAB23C4B1F
:403EC0001A7044E03A4B1B78DBB223F00103DAB2374B1A703BE0BB7B052B08D1344B1B78DBB223F00103DAB2314B1A702FE0BB7B062B08D12E4B1B78DBB223F00103DAB293
:403F00002B4B1A7023E0BB7B072B20D1284B1B78DBB203F00103002B19D0254B1B78DBB223F00103DAB2224B1A707B6801331B78062B0CD17B6802331B78012B07D11C4B8F
:403F40001B78DBB243F00203DAB2194B1A70BB7B072B13D9BB7B0E2B10D87B6801331A78144B1B78DBB29A4203D1FB7B0133FB7303E07B685A780F4B1A7002E00D4B0022FC
:403F80001A70FB7B7A6813441B78184601F0EAFFFB7B0133FB73FA7B7B7B9A42F1D9002002F05EF81037BD4680BD00BF48B30000EB82FF1FD481FF1F80B582B000AF78603F
:403FC00000F03CF8786800F009F8072000F018F800F028F80837BD4680BD00BF80B485B000AF7860054B1B68FB60FB6840337A681A601437BD465DF8047B704708ED00E059
:4040000080B483B000AF0346FB71054AFB795B01DBB213700C37BD465DF8047B704700BF00E400E080B400AF034B01221A60BD465DF8047B704700BF00E100E080B400AF73
:40404000034B01221A60BD465DF8047B704700BF80E100E080B584B000AF0346FB710023FB60234A224B1B78DBB243F00103DBB21370FB79002B36D01E4B1B78DBB203F01A
:404080000403FB721C4B1B78BB721C4B1B787B72182001F023F81023FB6010E0184B1B78DBB203F00103002B09D0154B1B78DBB203F00103002B02D00023FB6008E0012043
:4040C00000F0E0FF034603F00103DBB2002BE5D0FB7A002B01D100F049FB074ABB7A1370064A7B7A1370FB6818461037BD4680BD2042004000430040804300408243004058
:404100002542004080B400AF054A054B1B78DBB223F00103DBB21370BD465DF8047B70472042004080B584B000AF0346FB711D4A1C4B1B78DBB243F01003DBB213701A4A6A
:40414000194B1B78DBB243F01003DBB21370FB79002B23D0154B1B78DBB203F00403FB73134B1B78BB73134B1B787B73002000F0B5FF00BF012000F085FF034603F0010395
:40418000DBB2002BF6D0FB7B002B01D100F0EEFA074ABB7B1370074A7B7B13701037BD4680BD00BFA0430040B043004000430040804300408243004080B400AF094A094BB1
:4041C0001B78DBB223F01003DBB21370064A064B1B78DBB223F01003DBB21370BD465DF8047B7047A0430040B043004080B483B000AF0023FB71124B1B78DBB203F007036F
:40420000002B06D10F4B1B78DBB203F00103002B0DD10B4B1B78DBB203F00703012B08D1094B1B78DBB203F00103002B01D00123FB71FB7918460C37BD465DF8047B7047F0
:4042400093430040A5430040B543004080B584B000AF0346FB71FFF7C9FF0346FB73FB7B012B07D1314A314B1B78DBB223F00203DBB21370FB79082B50D801A252F823F0FE
:40428000A5420000B1420000BD420000C9420000D5420000E1420000ED4200001D430000F9420000224B234A1278D2B21A7039E01F4B214A1278D2B21A7033E01C4B1F4A3B
:4042C0001278D2B21A702DE0194B1D4A1278D2B21A7027E0164B1B4A1278D2B21A7021E0134B194A1278D2B21A701BE0104B174A1278D2B21A7015E00D4B154A1278D2B2EE
:404300001A70FB7B012B08D1084A084B1B78DBB243F00203DBB2137004E003E0002000F0ADFA00BF1037BD4680BD00BF09600040A146004008010049090100490A0100491F
:404340000B010049890100490C0100490D0100490F01004980B584B000AF0346FB71674B1B78DBB203F00703FB73FB79082B01D0FB7900E00323BB73FB7B062B25D801A29E
:4043800052F823F0A1430000A7430000AD430000B3430000B9430000BF430000C54300000223FB7315E00123FB7312E00323FB730FE00023FB730CE00423FB7309E0052334
:4043C000FB7306E00623FB7303E0002000F056FA00BFBA7BFB7B9A4203D3FB791846FFF735FFFB79082B72D801A252F823F000BF154400002D4400004544000057440000D9
:404400006F440000874400009F440000CF440000B7440000394A394B1B78DBB223F04703DBB243F00303DBB2137054E0334A334B1B78DBB223F04703DBB243F00103DBB2B6
:40444000137048E02D4A2D4B1B78DBB223F04703DBB213703FE0294A284B1B78DBB223F04703DBB243F00203DBB2137033E0234A224B1B78DBB223F04703DBB243F004038D
:40448000DBB2137027E01D4A1C4B1B78DBB223F04703DBB243F00503DBB213701BE0174A164B1B78DBB223F04703DBB243F00603DBB213700FE0114A104B1B78DBB223F0D7
:4044C0004703DBB243F04203DBB2137003E0002000F0D4F900BFFB79082B02D100F056F801E000F063F8BA7BFB7B9A4203D2FB791846FFF7ABFE1037BD4680BD0042004024
:4045000080B582B000AF0346FB71FB79012B17D0022B02D0002B26D02EE04FF040224FF040231B78DBB223F04003DBB21370164A154B1B78DBB243F02003DBB213701FE0ED
:404540004FF040224FF040231B78DBB243F04003DBB213700C4A0C4B1B78DBB243F02003DBB213700CE0084A074B1B78DBB223F02003DBB2137003E0002000F07FF900BFFF
:404580000837BD4680BD00BF0042004080B400AF054A054B1B78DBB243F01003DBB21370BD465DF8047B70470042004080B400AF054A054B1B78DBB223F01003DBB213705B
:4045C000BD465DF8047B70470042004080B483B000AF0346FB710949084B1B78DBB223F00303DAB2FB7903F00303DBB21343DBB20B700C37BD465DF8047B704705400040C8
:4046000080B483B000AF0346FB71044AFB7913700C37BD465DF8047B704700BF0440004080B483B000AF0346FB80154A144B1B78DBB223F00F03DBB21370124B00221A7060
:40464000114A114B1B78DBB263F07F03DBB213700E4BFA88D2B21A700D4AFB881B0A9BB2DBB213700B4A0B4B1B78DBB243F00103DBB213700C37BD465DF8047B704700BF97
:4046800014400040104000400840004002400040034000400140004080B584B000AF0346FB8001F0C1F90346FB73244B1B78DBB29BB21B02BB81224B1B78DBB29AB2BB8938
:4046C0001343BB81FB88002B02D0BB89002B29D11C4B1B78FB72FB7A062B02D80720FFF78FFFFB88002B0CD1174A174B1B78DBB243F04003DBB21370FB881846FFF790FF53
:404700000BE0FB881846FFF78BFF0F4A0E4B1B78DBB223F04003DBB21370FB7A1846FFF76FFF03E0FB881846FFF77AFFFB7B184601F07EF91037BD4680BD00BF0740004082
:4047400006400040044000400840004080B400AF054A054B1B78DBB243F00403DBB21370BD465DF8047B70470043004080B400AF054A054B1B78DBB223F00403DBB21370DE
:40478000BD465DF8047B70470043004080B586B000AF0346FB7100237B61FB793B742B4A2A4B1B78DBB243F00103DBB21370FB79002B46D0264B1B78FB74264B1B78BB744B
:4047C000254B1B787B74182000F088FC10237B6126E01E4B1B780423FB730EE000BF012000F050FC034603F00103DBB2002BF6D0FB7BDBB2013BDBB2FB73FB7BDBB2002B45
:40480000ECD1124B1B78DBB2DBB25BB2002B02DB00237B6108E03B7CDBB2013BDBB23B743B7CDBB2002BD4D1FB7C03F00403002B01D1FFF79BFF074ABB7C1370064A7B7C95
:4048400013707B6918461837BD4680BD1042004000430040804300408243004080B400AF054A054B1B78DBB223F00103DBB21370BD465DF8047B70471042004080B483B077
:4048800000AF0346FB7101BE0C37BD465DF8047B704700BF80B582B000AF786008E00C4B1B68184601F0B8F87B68A3F500437B607B68B3F5004FF2D8064B1B687A6802FBA6
:4048C00003F3184601F0A8F80837BD4680BD00BF1881FF1F1081FF1F80B582B000AF0346FB80FB88044A127802FB03F3184601F093F80837BD4680BD1481FF1F80B584B092
:4049000000AF03463960FB710F4B1B68FB60FB791F2B02D90020FFF7B1FFFB7903F01F0310339B00FA6813441B68BB60FB7903F01F0310339B00FA6813443A681A60BB68C6
:4049400018461037BD4680BD08ED00E080B582B000AF03460A46FB711346BB71BB79072B02D90020FFF78AFFFB791F2B02D90020FFF784FFFB7903F01F0303F1604303F5B3
:404980006443BA795201D2B21A700837BD4680BD80B500AF914B1B78DBB203F00F03DAB28F4B1A708F4B1B78DAB28D4B5A708B4A8A4B1B78DBB223F00F03DBB21370894BFA
:4049C0001B78884B00221A70874B1B78DBB223F03F03DAB2824B5A71372001F0BFFB834B1B78DBB203F00703DAB27D4BDA707F4B1B78DBB203F04003DAB2794B1A717B4BEE
:404A00001B78DBB203F01003002B03D0744B01225A7202E0724B00225A72754B1B78DBB203F00303DAB26E4B9A706D4B9B78012B1CD14FF040231B78DBB203F00303012B24
:404A400008D0012B02D3022B08D00BE00020FFF7BDFD0BE00220FFF7B9FD07E00320FFF7B5FD03E00020FFF709FF00BF614B1B78DBB203F00103002B05D0594B01229A73DB
:404A8000FFF740FB02E0564B00229A730220FFF761FC594B1B78DBB203F01003DBB2002B03D04F4B01229A7108E04D4B00229A710020FFF737FB0620FFF70EFF4B4B1B783A
:404AC000DBB203F02003002B10D04FF040231B78DBB203F04003002B01D1022200E001223F4BDA710020FFF70BFD02E03C4B0022DA714FF040231B78DBB203F03003DAB2AF
:404B0000374B1A72364B1B7A002B09D04FF040224FF040231B78DBB223F03003DBB21370324B1B78DBB203F01003002B01D0FFF73DFD324B1B78DAB2294B9A72284B9B7A21
:404B4000002B02D00020FFF75BFD254B9B78002B02D00020FFF73AFD294B1B78DBB29BB21B029AB21E4B9A81264B1B78D9B21C4B9A898BB213439AB2194B9A81184B9B8931
:404B8000002B02D00020FFF787FD184B1B78DBB203F007031C4AD35C184601F0DFFA1B4B1B78DBB203F00103002B05D00C4B0122DA73FFF753FE02E0094B0022DA73144B92
:404BC0001B78DBB203F00403002B03D0044B01221A7402E0024B00221A7480BDA14300400882FF1FA243004000480040004200400540004020420040A043004004400040B8
:404C0000074000400640004058B30000104200400B40004080B586B000AF10233B617D4A3B1D106818609188927999809A717A4B1B7C012B17D1794B1B78DBB203F00703AE
:404C4000774AD35C1A4613469B0013441A01D31A184600F0E1FE734A724B1B78DBB243F00403DBB213706C4BDB7B012B26D10020FFF78CFD6C4B1B780523FB821BE0674B15
:404C80001B78DBB203F00703654AD35C1A46C82303FB02F3184600F0BFFE634B1B78DBB2DBB25BB2002B03DB00233B6100BF05E0FB8A013BFB82FB8A002BE0D1372001F0F5
:404CC0004DFA554B9B78022B03D0534B9B78032B10D1564B1B78DAB24F4B9B7A9A4204D04D4B9B7A1846FFF78BFC4B4B9B781846FFF76CFC484B1B7903F04003002B0CD08A
:404D0000454BDB7807F11802134413F8143C032B03D10820FFF71EFB20E03F4BDB7807F11802134413F8143C1846FFF713FB3A4B1B7903F04003002B08D0384A374B1B78A7
:404D4000DBB243F04003DBB2137007E0334A334B1B78DBB223F04003DBB213702E4B9B79012B0AD1324B1B78DBB203F01003DBB2002B02D10020FFF7D5F9274BDB791846EE
:404D8000FFF7BEFB244B5B7A012B01D1FFF7FEFB214B1B7A1A464FF040231B78DBB203F030039A4210D04FF040234FF040221278D2B2D2B222F03002D1B2174A127AD2B201
:404DC0000A43D2B2D2B21A70134B9B7B012B39D110233B610020FFF73DF95020FFF77CFD144B1B78AB23FB8229E00120FFF774FD104B1B78DBB203F00103002B1CD00D4B81
:404E00001B78DBB203F00103002B15D000233B6100BF17E060B300000882FF1F0042004058B300000B4000401042004004400040A043004025420040FB8A013BFB82FB8A60
:404E4000002BD2D12B4B9B78002B03D0294B9B78012B10D1284B1B78DAB2264B9B7A9A4204D0244B9B7A1846FFF7CAFB214B9B781846FFF7ABFB1F4B9B79002B09D11F4B7E
:404E80001B78DBB203F01003DBB2002B01D0FFF793F91B4B1B78DBB29BB21B02FB81194B1B78DBB29AB2FB891343FB81114B9B89FA899A4204D00F4B9B891846FFF7ECFBC3
:404EC000114B114A1278D2B2D2B202F03F02D1B2084A5279D2B20A43D2B2D2B21A700B4B044A12781A700A4B024A52781A701837BD4680BD0882FF1F04400040A0430040A8
:404F0000074000400640004000480040A1430040A243004080B584B000AF03460A46FB711346BB8000F080FD0346FB734E4B1B78DBB203F00803002B0BD14C4A4B4B1B7841
:404F4000DBB203F01F03DBB21370FB79002B08D004E0FB7B184600F06BFD81E00020FFF78DFC00F003F9424B1B78DAB2414B1A713F4ABB881B099BB2DBB213703E4B1B78E0
:404F8000DAB23C4B5A713C4ABB88DBB203F00F03DBB21370394B1B78DAB2364B9A71374ABB881B0B9BB2DBB203F00103DBB21370334B1B78DBB203F00703002B04D12D4B9B
:404FC000012283F82D2014E02A4B002283F82D202B4B1B78DBB203F00703DAB2254B83F82C20274A264B1B78DBB223F00703DBB213701D4A1C4B1B78DBB223F00703DBB256
:4050000043F00303DBB21370174B1B7800BF00BF30BF184B93F82D30012B0FD0184B184A1278D2B2D2B222F00702D1B2114A92F82C20D2B20A43D2B2D2B21A7000F0D6F927
:405040000B4B0C4A12791A700B4B0A4A52791A700A4B084A92791A70FB7B184600F0E8FC1037BD4680BD00BF934300408346004098430040D881FF1F994300409A4300405C
:405080000042004080B584B000AF0346FB7100F0CBFC0346FB730F4B1B78DAB20E4B1B781343DAB20C4B1A700B4B1B78BB73FB79DB43DAB2084B1B781340DAB2064B1A7036
:4050C000FB7B184600F0B4FCBB7B18461037BD4680BD00BF904300401A82FF1F80B582B000AF0346FB711F4A1E4B1B78DBB223F00203DBB21370FFF729FB1A4B1B78DBB211
:4051000003F00103002B19D0174B1B78DBB2FA799A4224D0134A134B1B78DBB223F00103DBB21370104AFB7913700E4A0D4B1B78DBB243F00103DBB2137010E00A4B1B785D
:40514000DBB2FA799A4202D0074AFB791370054A044B1B78DBB243F00103DBB213700837BD4680BD824300408043004080B400AF804B1B78DAB2804B5A72804B1B78DAB25F
:405180007D4B9A727E4B1B78DAB27B4BDA727D4B1B78DAB2784B1A737B4B1B78DAB2764B5A737A4B1B78DAB2734B9A73784B1B78DAB2714BDA73774B1B78DAB26E4B1A74B5
:4051C000754B1B78DAB26C4B5A74744B1B78DAB2694B9A74724B1B78DAB2674BDA74714B1B78DAB2644B1A756F4B1B78DAB2624B5A756E4B1B78DAB25F4B9A756C4B1B7886
:40520000DAB25D4BDA756B4B1B78DAB25A4B1A76694B1B78DAB2584B5A76684B1B78DAB2554B9A76664B1B78DAB2534BDA76654B1B78DAB2504B1A77634B1B78DAB24E4BFA
:405240005A77624B1B78DAB24B4B9A77604B1B78DAB2494BDA775F4B1B78DAB2464B83F820205D4B1B78DAB2434B83F821205B4B1B78DAB2404B83F82220594B1B78DAB245
:405280003D4B83F82320574B1B78DAB23A4B83F82420384B00221A70384B00221A70384B00221A70374B00221A70374B00221A70364B00221A70364B00221A70354B0022BE
:4052C0001A70354B00221A70344B00221A70344B00221A70334B00221A70334B00221A70324B00221A70324B00221A70314B00221A70314B00221A70304B00221A70304B0A
:4053000000221A702F4B00221A702F4B00221A702E4B00221A702E4B00221A702D4B00221A702D4B00221A702C4B00221A702C4B00221A702B4B00221A702B4B1B78DBB2E5
:4053400003F00803002B0CD00B4B012283F82E20254A254B1B78DBB223F00803DBB2137003E0054B002283F82E20BD465DF8047B704700BF005A0040D881FF1F025A0040A1
:40538000035A0040045A0040065A0040085A00400A5A0040105A0040125A0040135A0040145A0040165A0040185A00401A5A0040205A0040225A0040235A0040245A004014
:4053C000265A0040285A00402A5A0040305A0040325A0040335A0040345A0040365A0040385A00403A5A00402243004080B400AF424B434A527A1A70424B414A927A1A701A
:40540000414B3F4AD27A1A70404B3D4A127B1A703F4B3B4A527B1A703E4B394A927B1A703D4B374AD27B1A703C4B354A127C1A703B4B334A527C1A703A4B314A927C1A705E
:40544000394B2F4AD27C1A70384B2D4A127D1A70374B2B4A527D1A70364B294A927D1A70354B274AD27D1A70344B254A127E1A70334B234A527E1A70324B214A927E1A70CE
:40548000314B1F4AD27E1A70304B1D4A127F1A702F4B1B4A527F1A702E4B194A927F1A702D4B174AD27F1A702C4B154A92F820201A702B4B124A92F821201A70294B104AAC
:4054C00092F822201A70284B0D4A92F823201A70264B0B4A92F824201A70094B93F82E30012B07D1224A224B1B78DBB243F00803DBB21370BD465DF8047B7047005A004067
:40550000D881FF1F025A0040035A0040045A0040065A0040085A00400A5A0040105A0040125A0040135A0040145A0040165A0040185A00401A5A0040205A0040225A0040FA
:40554000235A0040245A0040265A0040285A00402A5A0040305A0040325A0040335A0040345A0040365A0040385A00403A5A00402243004080B500AF2820FFF78BF9032055
:4055800000F0C8F90520FFF785F9032000F0C2F90F20FFF77FF9032000F0BCF90120FFF779F9022000F0B6F90520FFF773F9062000F09EF80E2000F09BF82C2000F098F874
:4055C000082000F095F8012000F092F80C2000F08FF8032000F08CF80520FFF75BF980BD80B500AF0C2000F083F8024B01221A7080BD00BF1C82FF1F80B500AF054B1B7891
:40560000002B04D1FFF7B6FF024B01221A70FFF7E7FF80BD1D82FF1F80B582B000AF03460A46FB711346BB71FB79032B26D801A252F823F0455600005356000061560000B4
:405640006F560000BB79803BDBB2184600F050F815E0BB79403BDBB2184600F049F80EE0BB796C3BDBB2184600F042F807E0BB792C3BDBB2184600F03BF800E000BF083747
:40568000BD4680BD80B584B000AF78600123FB737B681B78BB730BE0BB7B184600F00EF8FB7B7A6813441B78BB73FB7B0133FB73BB7B002BF0D11037BD4680BD80B584B075
:4056C00000AF0346FB7100F02DF8FB791B09FB73FB7B184600F0E2F8FB7903F00F03FB73FB7B184600F0DAF81037BD4680BD00BF80B584B000AF0346FB7100F013F8FB798E
:405700001B09FB73FB7B184600F004F9FB7903F00F03FB73FB7B184600F0FCF81037BD4680BD00BF80B582B000AF4FF4CA737B60554A554B1B78DBB223F07F03DBB21370BC
:40574000524B1B78DBB223F00F03FB704F4AFB7843F00F03DBB213704D4B1B78DBB223F00F03FB704A4AFB7813704A4B1B78DBB223F00F03FB70474AFB781370424A424BC4
:405780001B78DBB223F02003DBB213703E4A3E4B1B78DBB243F04003DBB213700020FFF79BF8394A384B1B78DBB243F01003DBB213700120FFF790F8374B1B78FB70324A0C
:4057C000314B1B78DBB223F01003DBB213700020FFF782F8FB7803F00803FB702A4A2A4B1B78DBB243F01003DBB213700120FFF773F8254A244B1B78DBB223F01003DBB2D9
:405800001370FB78002B02D10A20FFF765F87B68013B7B60FB78002B02D07B68002BBDD1194A194B1B78DBB223F04003DBB21370154A154B1B78DBB223F07F03DBB2137020
:40584000124A124B1B78DBB223F00F03DBB213700F4B1B78DBB223F00F03FB700C4AFB7843F00F03DBB213700A4B1B78DBB223F00F03FB70074AFB7843F00F03DBB21370D4
:405880000837BD4680BD00BF205100402251004023510040245100402151004080B582B000AF0346FB711A4A194B1B78DBB243F02003DBB21370164A154B1B78DBB223F01F
:4058C0004003DBB213700020FFF706F8104A104B1B78DBB223F00F03DBB213700C490C4B1B78DAB2FB791343DBB243F01003DBB20B700120FEF7F0FF054A054B1B78DBB203
:4059000023F01003DBB213700837BD4680BD00BF2051004080B582B000AF0346FB71144A134B1B78DBB223F06003DBB21370104A0F4B1B78DBB223F00F03DBB213700C49B7
:405940000B4B1B78DAB2FB791343DBB243F01003DBB20B700120FEF7BFFF054A044B1B78DBB223F01003DBB213700837BD4680BD2051004080B586B000AF78600A23FB7586
:40598000FB7D07F118021344002203F8102CFB7D013BFB751CE079681E4BA3FB0123DA0813469B0013445B00CA1AD3B23033BB75FB7D07F118021344BA7D03F8102C7B68CB
:4059C000144AA2FB0323DB087B60FB7D013BFB757B68092BDFD879680E4BA3FB0123DA0813469B0013445B00CA1AD3B23033BB75FB7D07F118021344BA7D03F8102CFB7D8F
:405A000007F1080213441846FFF73CFE1837BD4680BD00BFCDCCCCCC0230800803D000BF01380046FCD17047EFF3108072B6704780F31088704700BF80B500AF054B1B7818
:405A4000002B04D100F008F8024B01221A7000F033F880BD1E82FF1F80B500AF01200F49FEF74CFF01200721FEF770FF0C4B71221A700C4B20221A7002200B49FEF73EFF9D
:405A800002200721FEF762FF084B07221A70084B48221A70074B02221A7080BDED610000886500408B6400409D6200002B6400403B6400408A64004080B582B000AFFFF72B
:405AC000B3FF0346FB71124A114B1B78DBB243F02003DBB213700F4A0E4B1B78DBB243F01003DBB213700C4B02221A600B4A0B4B1B78DBB243F01003DBB21370064B04224C
:405B00001A60FB791846FFF793FF0837BD4680BD986500409B64004000E100E09A64004080B582B000AFFFF77FFF0346FB71114A104B1B78DBB223F02003DBB213700E4AE4
:405B40000D4B1B78DBB223F01003DBB2137000F023F80A4A094B1B78DBB223F01003DBB2137000F069F8FB791846FFF761FF0837BD4680BD986500409B6400409A640040BC
:405B800080B400AF034B02221A60BD465DF8047B704700BF00E100E080B400AF034B02221A60BD465DF8047B704700BF80E100E080B582B000AFFFF737FF0346FB71134A57
:405BC000124B1B78DBB243F00103DBB213700F4A0E4B1B78DBB223F00103DBB21370FB791846FFF725FFFFF7D7FF094B00221A70084B00221A70084B00221A70074B0022BE
:405C00001A70FFF7BDFF0837BD4680BD986500402182FF1F2282FF1F2382FF1F2482FF1F80B400AF034B04221A60BD465DF8047B704700BF00E100E080B400AF034B04222C
:405C40001A60BD465DF8047B704700BF80E100E080B485B000AF0346FB71204B1B78FB731F4B1B78BB73FA7BBB7B9A4208D2FA7BBB7B013B9A420CBF01230023DBB207E00E
:405C8000FA7BBB7BD31AFE2B0CBF01230023DBB2002BE2D1BA7BFB7B9A420AD1114B1B78DBB203F00403002B03D10F4AFB7913700EE0FB7BFF2B01D10023FB73FB7B0B49C4
:405CC000FA79CA54FB7B0133FB73044AFB7B13701437BD465DF8047B704700BF2082FF1F1F82FF1F6A6400404A6400401083FF1F80B582B000AFFFF797FE0346FB71104A40
:405D00000F4B1B78DBB243F00103DBB213700C4A0B4B1B78DBB223F00103DBB21370FB791846FFF785FEFFF787FF064B00221A70054B00221A70FFF773FF0837BD4680BD08
:405D40009A6400401F82FF1F2082FF1F80B500AF054B1B78002B04D100F008F8024B01221A7000F033F880BD2682FF1F80B500AF03200F49FEF7C2FD03200721FEF7E6FD61
:405D80000C4B71221A700C4B20221A7004200B49FEF7B4FD04200721FEF7D8FD084B07221A70084B48221A70074B02221A7080BD0D6300008A65004089650040BD630000A1
:405DC00029650040396500408964004080B582B000AFFFF729FE0346FB71124A114B1B78DBB243F02003DBB213700F4A0E4B1B78DBB243F01003DBB213700C4B08221A6081
:405E00000B4A0B4B1B78DBB243F01003DBB21370064B10221A60FB791846FFF709FE0837BD4680BD9A6500409965004000E100E09964004080B582B000AFFFF7F5FD034634
:405E4000FB71114A104B1B78DBB223F02003DBB213700E4A0D4B1B78DBB223F01003DBB2137000F023F80A4A094B1B78DBB223F01003DBB2137000F069F8FB791846FFF772
:405E8000D7FD0837BD4680BD9A650040996500409964004080B400AF034B08221A60BD465DF8047B704700BF00E100E080B400AF034B08221A60BD465DF8047B704700BFD0
:405EC00080E100E080B582B000AFFFF7ADFD0346FB71134A124B1B78DBB243F00103DBB213700F4A0E4B1B78DBB223F00103DBB21370FB791846FFF79BFDFFF7D7FF094B5C
:405F000000221A70084B00221A70084B00221A70074B00221A70FFF7BDFF0837BD4680BD9A6500402982FF1F2A82FF1F2B82FF1F2C82FF1F80B400AF034B10221A60BD463F
:405F40005DF8047B704700BF00E100E080B400AF034B10221A60BD465DF8047B704700BF80E100E080B485B000AF0346FB71204B1B78FB731F4B1B78BB73FA7BBB7B9A42C0
:405F800008D2FA7BBB7B013B9A420CBF01230023DBB207E0FA7BBB7BD31AFE2B0CBF01230023DBB2002BE2D1BA7BFB7B9A420AD1114B1B78DBB203F00403002B03D10F4A50
:405FC000FB7913700EE0FB7BFF2B01D10023FB73FB7B0B49FA79CA54FB7B0133FB73044AFB7B13701437BD465DF8047B704700BF2882FF1F2782FF1F6964004049640040DE
:406000001086FF1F80B582B000AFFFF70DFD0346FB71104A0F4B1B78DBB243F00103DBB213700C4A0B4B1B78DBB223F00103DBB21370FB791846FFF7FBFCFFF787FF064B47
:4060400000221A70054B00221A70FFF773FF0837BD4680BD996400402782FF1F2882FF1F80B485B000AF0346FB71094B1B78DBB203F07F03FB730649FB79DB01DAB2FB7B00
:406080001343DBB20B701437BD465DF8047B70471051004080B485B000AF0346FB710B4B1B78DBB223F02003FB730849FB795B01DBB203F02003DAB2FB7B1343DBB20B70FD
:4060C0001437BD465DF8047B704700BF1051004080B582B000AF0023FB710023BB711B4B1B78DBB203F00303012B02D0022B04D012E0174B1B78BB710EE0154B1B78DBB274
:4061000003F07F02134913465B0013449B000B4408339B78BB7100BF0F4B1A68BB7913441B78022B09D0032B09D0012B00D007E000F0B8F90346FB7102E000BF00E000BFE1
:40614000FB7918460837BD4680BD00BF00600040046000405C82FF1F3482FF1F80B584B000AF0346FB71FFF75FFC0346FB73FB79102B0DD81C4B1C4A1278D2B2D2B202F041
:406180003F02D2B242F04002D2B2D2B21A7024E0FB79212B0DD8144B134A1278D2B2D2B202F03F02D2B262F07F02D2B2D2B21A7013E0FB79322B08D80B4A0B4B1B78DBB292
:4061C00063F03F03DBB2137007E0074A064B1B78DBB203F03F03DBB21370FB7B1846FFF727FC1037BD4680BD0048004080B582B000AF0023BB71012000F036F9204B1B786D
:40620000FB7132E01F4B1B78DBB21A461E4B1B78D9B21E4B99540123BB71BB79002B21D01B4B1B78DBB2002B02D01A4B01221A70144B1B78DBB20133DAB2124B1A70114B62
:406240001B78DBB2FF2B02D10E4B00221A700D4B1B78DAB2104B1B78DBB29A4202D10C4B01221A70064B1B78FB71FB7903F02003002BC7D1002000F0F7F80837BD4680BD3C
:406280006B6400402282FF1F486500401084FF1F2382FF1F2482FF1F2182FF1F80B400AF17E0154B1B78DBB2FF2B02D1124B00221A70124B104A1278D2B21146104A525CA2
:4062C000D2B21A700C4B1B78DBB20133DAB20A4B1A70094B1B78DAB20A4B1B789A4206D0094B1B78DBB203F00403002BD9D0BD465DF8047B704700BF1F82FF1F4A64004031
:406300001083FF1F2082FF1F6A64004080B582B000AF0023BB71012000F088F8204B1B78FB7132E01F4B1B78DBB21A461E4B1B78D9B21E4B99540123BB71BB79002B21D005
:406340001B4B1B78DBB2002B02D01A4B01221A70144B1B78DBB20133DAB2124B1A70114B1B78DBB2FF2B02D10E4B00221A700D4B1B78DAB2104B1B78DBB29A4202D10C4BEC
:4063800001221A70064B1B78FB71FB7903F02003002BC7D1002000F049F80837BD4680BD696500402A82FF1F4A6500401085FF1F2B82FF1F2C82FF1F2982FF1F80B400AF06
:4063C00017E0154B1B78DBB2FF2B02D1124B00221A70124B104A1278D2B21146104A525CD2B21A700C4B1B78DBB20133DAB20A4B1A70094B1B78DAB20A4B1B789A4206D0CB
:40640000094B1B78DBB203F00403002BD9D0BD465DF8047B704700BF2782FF1F496400401086FF1F2882FF1F6964004080B485B000AF0346FB710B4B1B78DBB223F04003F7
:40644000FB730849FB799B01DBB203F04003DAB2FB7B1343DBB20B701437BD465DF8047B704700BF1051004080B485B000AF0346FB710B4B1B78DBB223F01003FB730849C9
:40648000FB791B01DBB203F01003DAB2FB7B1343DBB20B701437BD465DF8047B704700BF1051004080B483B000AF0023FB71224B1B78BB71BB795BB2002B19DABB7903F0C9
:4064C0000303022B07D11D4B1B78DBB2812B00D000E000BF29E0BB7903F00303012B24D1164B1B78DBB2812B00D000E000BF1CE0BB795BB2002B18DBBB7903F00303022B46
:4065000007D10E4B1B78DBB2012B00D000E000BF0BE0BB7903F00303012B06D1074B1B78DBB2012B00D000E000BFFB7918460C37BD465DF8047B7047006000400160004063
:4065400030B5214A21F00043934287B01BDD1F4A934205DD02460B4602F0EAF907B030BD02AA00F049FF00F0030001281AD002280FD008B3DDE9020101230093DDE9042326
:4065800001F03EFFEAE70022002301F011FA07B030BDDDE90201DDE9042301F009FA01F10041DBE70090DDE90423DDE9020101F027FF01F10041D1E7DDE90201DDE904235A
:4065C00001F0F6F9CAE700BFFB21E93FFFFFEF7F30B5224A21F00043934287B01BDD204A934205DD02460B4602F0A2F907B030BD02AA00F001FF00F0030001281ED0022837
:4066000011D010B3DDE90201DDE9042301F0D0F901F10041EAE7002300930022002301F0EFFE07B030BD01230093DDE90201DDE9042301F0E5FE01F10041D7E7DDE90201CA
:40664000DDE9042301F0B4F9D0E70124DDE90201DDE90423009401F0D3FEC7E7FB21E93FFFFFEF7F2DE9F04F8BB01F4680468946164600F071F9DFF8D8A204469AF90030AB
:406680000D46013304D03046394602F009F820B9204629460BB0BDE8F08F4046494601F0FFFF834660BB304639460022002302F05BFD0028ECD09AF900309E4C01229E4903
:4066C00000208DE814005A1CCDF820B0CDE90289CDE90467CDE906010DD0022B0BD0684602F00AF8002800F09380089B1BB102F0B5FD089B0360DDE906010BB0BDE8F08F50
:40670000404649460022002302F02EFDF8B1304639460022002302F027FD834600284ED084489AF900300121002200240025CDE90289CDE90467CDE906450190009108929F
:40674000002BCCD07C4B0022CDE90623D3E72046294601F011FF834600285ED0204629460022002302F000FD002891D04046494601F002FF00288BD03046394601F0FCFEDF
:40678000002885D09AF900306A480421002200240025022BCDE90289CDE90467CDE9064501900091089200F08880684601F0A4FF002800F08280089B002B9CD097E7304689
:4067C000394601F0D9FE00283FF462AF304639460022002302F0D2FC00283FF459AF55499AF800300122CDF820B0CDE90289CDE9046701910092002B3CD050490020022BCE
:40680000CDE9060130D102F029FD21230360D2E702F024FD2123036067E74046494601F0ABFE00289AD03046394601F0A5FE002894D02046294601F033FF00BB3D4A9AF8F8
:40684000004001230890CDE90289CDE90467019200937CB10020002102460B4602F046FB022CCDE90601CED0684601F045FF0028A1D1C8E700220023CDE90623F4E72D4930
:406880009AF900300322CDF820B0CDE90289CDE9046701910092ABB9294D4FF060444046494600220023CDE9064502F067FC50BB9AF90030022B7FF478AF02F0CFFC2223D1
:4068C000036078E71F4D00244046494600220023CDE9064502F052FC0028E9D000221A4B3046394602F0D8F904460D4601F00CFF22462B4602F038FC0028D9D10F4B0022A5
:40690000CDE90623D4E700220F4B3046394602F0C3F904460D4601F0F7FE22462B4602F023FC0028C4D1094B4FF06042CDE90623BEE700BF54B500000000F03F0000F0FFD5
:40694000FFFFEF470000F07F0000E03FFFFFEFC71C81FF1F000000002DE9F04F144623F00047024657EA04000E468FB01D469C46214634D06E4B26F0004A9A459346B14645
:4069800026DC24D09F4223DC694B9F4200F08F80B9F1000FC0F28F804FF0000879BB644B9F4200F0A580634B9F4267D0BCF1804F00F0E283604B9C4521D1B9F1000F1EDB0C
:4069C000104631460FB0BDE8F04F00F029BF62B10AF1404000F5801050EA0B0007D10346544918460FB0BDE8F08F5745CCDD53480FB0BDE8F04F01F081BE4FF000081046A8
:406A00003146CDF808C0009201F0B2FD009ADDF808C0BBF1000F20D04FEAD97909F1FF3958EA09037AD0464B9F4240F38F8003F104739F4240F31084424B9A4540F392836E
:406A4000BCF1000F40F3928337A1D1E900010B46024602F021F90346C3E7BAF1000F04D0344B29F0404E9E45D6D1BCF1000FC0F2B683B9F1000F08DB0346B2E7BCF1000FC8
:406A8000C0F2528413463146ABE70AF1404A0AF5801A58EA0A0340F05E8402460B4601F047FF0B46024602F021FA034699E700293FF46EAF8CE7244B9F422CDCA3F154738F
:406AC0009F427FF769AF40F213403B15834240F34B84C3F58663033321FA03F000FA03F38B427FF459AF00F00100C0F1020855E70AF1404303F5801353EA0B0300F0398386
:406B0000104B9A4540F36483BCF1000FC0F22E832346294665E74FF002083FE7104631463346BCE7AFF300809C7500883CE4377E0000F07F0000F03F0000E03F88B50000DC
:406B40000000E041FFFFEF3FFFFF3F43BAF5801F4FF0000205DACA4B02F09EF88A466FF034024FEA2A53C74ECAF3130AA3F2FF334AF07F571344B2450C9347F4401740F3AA
:406B8000D083C14B9A4540F307840026B4460C9BA7F5801701330C933946BC4B4FEACC0C6344D3E900AB52465B46CDF834C0CDE9060101F0BDFE52465B46CDE90801DDE94E
:406BC000060101F0B7FE02460B460020B04902F08DF902460B46DDE90801CDE90A2302F05BF802460B46CDE90223CDE904237B1043F0005303F50023991900200023064670
:406C00000F460293DDE902231046194632463B46CDE9000102F040F802460B46DDE9080101F086FE5246CDE908015B463046394601F07EFE02460B46DDE9060101F078FEEC
:406C400002460B46DDE9000102F026F802460B46DDE9080101F06CFEDDE90A2302F01CF8DDE90423CDE906011046194602F014F802460B4606460F4602F00EF86EA3D3E98C
:406C8000002382468B463046394602F005F86CA3D3E9002301F04EFE32463B4601F0FCFF69A3D3E9002301F045FE32463B4601F0F3FF67A3D3E9002301F03CFE32463B461C
:406CC00001F0EAFF64A3D3E9002301F033FE32463B4601F0E1FF62A3D3E9002301F02AFE02460B465046594601F0D6FFDDE9042306460F46DDE9000101F01CFEDDE9062308
:406D000001F0CAFF32463B4601F014FEDDE9006782468B4632463B463046394601F0BCFF00225C4BCDE9080101F004FE52465B4601F000FE02980F460646DDE90001324620
:406D40003B4601F0A9FF32463B46CDE90001DDE9060101F0A1FF0022CDE906014D4B3046394601F0E5FDDDE9082301F0E1FD02460B465046594601F0DBFDDDE9042301F077
:406D80008BFF02460B46DDE9060101F0D3FD82468B46DDE9000152465B4601F0CBFD32A3D3E9002302980F46064601F075FF30A3D3E90023CDE904013046394601F06CFFBE
:406DC000DDE90023CDE906013046394601F0B0FD02460B465046594601F0AAFD26A3D3E9002301F059FF02460B46DDE9060101F0A1FDDDF834C0284BCDF818C06344D3E9D2
:406E0000002301F097FDCDE900010C9801F0DEFE06460F46DDE90401204BDDF818C09C44DDE90023DCE900AB01F084FD52465B4636E000BFAFF30080EF4E454A287ECA3FA8
:406E400065DBC9934A86CD3F01411DA96074D13F4D268F515555D53FFFAB6FDBB66DDB3F033333333333E33F000000E009C7EE3FF5015B14E02F3EBEFD033ADC09C7EE3FE8
:406E8000000040438E98030079B60B0078B500000000F03F0000084068B5000058B50000CDE906AB01F046FD32463B4601F042FD029832463B4682468B4601F039FDDDE941
:406EC000062301F035FDDDE9042301F031FD02460B46DDE9000101F02BFDCDE9020108F1FF3858EA09030CBFD54BD64B0022CDE904230023CDE900450093DDE9006720463B
:406F000032463B46294601F013FD52465B4601F0C3FEDDE90223804689462046294601F0BBFE02460B464046494601F003FD04460D465246304639465B46CDE9024501F0A6
:406F4000ABFE06460F4620463B462946324601F0F1FCBD4B824699428946884640F3138101F13F4303F5E003034340F0E581A0A3D3E90023DDE9020101F0DCFC324604466B
:406F80000D463B465046494601F0D2FC02460B462046294602F010F9002840F0CD814C462015A0F2FE304FF4801101414144C1F30A50A64CA0F2FF35C1F3130BC0F58260B9
:406FC00003302C414BF4801B21EA040300224BFA00FB3946304601F0ABFC06460F46DDE902018BEAE87B0BEBD87B32463B464FEA0B5A01F09FFC80A3D3E9002300242046DC
:407000000D4601F049FE3246804689463B462046294601F08DFC02460B46DDE9020101F087FC77A3D3E9002301F036FE76A3D3E9002306460F462046294601F02DFE024622
:407040000B463046394601F075FC06460F4632463B464046494601F06DFC42464B4604460D4601F065FC02460B463046394601F05FFC2246804689462B462046294601F049
:407080000BFE63A3D3E9002306460F4601F004FE61A3D3E9002301F04BFC32463B4601F0FBFD5FA3D3E9002301F044FC32463B4601F0F2FD5CA3D3E9002301F039FC3246EA
:4070C0003B4601F0E9FD5AA3D3E9002301F032FC32463B4601F0E0FD02460B462046294601F026FC06460F4632463B462046294601F0D2FD0022CDE900014FF08043304675
:40710000394601F015FC02460B46DDE9000101F0EDFE424606460F464B462046294601F0BBFD42464B4601F005FC02460B463046394601F0FDFB22462B4601F0F9FB0246D2
:407140000B4600203F4901F0F3FB8A44BAF5801F0246C0F227815346DDE9040101F09CFD03463EE4BCF1000FFFF66EAC0023194637E40B46334934E433461046314601F09C
:407180008BFD03462DE4324B21F000449C4240F3FA80304B0B4403430CD132463B4601F0C7FB02460B46DDE9020101F0F1FF00283FF4F6AE20A3D3E90023DDE9040101F057
:4071C0006BFD1DA3D3E9002301F066FD034608E4BCF1000FCADA234605F1004101E402460B460020174901F081FE42E4AFF30080FE822B654715973C00000000432EE63F74
:40720000EF39FAFE422EE63F396CA80C615C20BED0A4BE726937663EF16BD2C541BDBB3E2CDE25AF6A56113F93BDBE166CC1663F3E5555555555C53F59F3F8C21F6EA501CB
