:400000000080002011000000391A0000391A0000034A08B51268034B1A6001F00FFD00BFFA460040BC76004010B5054C237833B9044B13B10448AFF300800123237010BDCD
:400040008882FF1F0000000034A30000084B10B51BB108480849AFF300800848036803B910BD074B002BFBD0BDE81040184700BF0000000034A300008C82FF1F0881FF1F91
:400080000000000008B502F0D9F840B9074A13780133DBB21370BDE8084001F095BF034B00221A70BDE8084001F08EBFA482FF1F2DE9F04F634B85B01B7805F071FB0020C0
:4000C00005F078FB05F074FB002005F07FFB834609F09EFA8146012005F078FB009009F097FA8046022005F071FB019009F090FA0746032005F06AFB029009F089FA064660
:40010000042005F063FB039009F082FA4E4C0546B4F802A0AAF10A0009F07AFA0146484609F068FC002840F086800AF10A0009F06FFA0146484609F07BFC00287BD1B4F89F
:400140000690A9F10A0009F063FA0146404609F051FC002867D109F10A0009F059FA0146404609F065FC00285DD1B4F8088008F1FF3009F04DFA0146384609F03BFC0028F6
:4001800049D108F1010009F043FA0146384609F04FFC00283FD12D4FB7F8008008F1FF3009F036FA0146304609F024FC58BB08F1010009F02DFA0146304609F039FC10BBFF
:4001C0007E88701E09F024FA0146284609F012FC88B9701C09F01CFA0146284609F028FC48B9A37A184A1BB1137943F01003137105B0BDE8F08F2379BDF80C2043F020039C
:400200007A802371EDE72379BDF8082043F008033A802371D4E72379BDF8042043F0040322812371B7E72379BDF8002043F00203E280237199E72379A4F802B043F00103D8
:4002400023717CE762640040A482FF1F0C81FF1F10B51C4B00201B7805F0A8F938B11A4CE37AE218127B1AB183F00103E37210BD05F0B0F9154A23691080A28A9842C8BFE0
:400280002061FF2A104B08D8D97A114C02EB012101329A8224F8110010BD0E4A18695188DA7A814203EB020482F001024FF00001CCBF00200120DA7220769982196199768D
:4002C00010BD00BF66650040A482FF1FAC8BFF1FC88FFF1F0C81FF1F2DE9F04F87B062B6C54804F04BFDC54804F060FD04F0D0FD05F026F805F0AAF905F0A6FA05F040F934
:4003000005F04CF905F038FA05F04AFA05F0B8FB01F0B6F8BA4800F09BFA0221002001F045FF012004F082FF0020014604F0A0FFB44804F06DFF0021012004F099FFB24829
:4003400004F066FF4FF47A7004F068F8AF4C0320002104F08DFFAE4804F05AFFA346DFF8ECA2AC4FAC4EAD4D06E001F073FFB0B92378A64A012B5DD801F072FF0028F4D078
:4003800001F068FF002870D0A54803F06FFC01F00DFE03F00DFA01F05DFF0028E8D003F0A3FB03F029FC9AF80030DFF8A0829A0700F1A3803B78DFF85C829B0700F19180EA
:4003C0002379A3B17268DFF85082002A40F00481D80700F1F880990700F1EC805A0700F1C480180700F1A180D90600F19280E37A83F00103E218127E184684F83830BABBA8
:400400008023B26818464FF000082B706A7085F8028005F051FB687805F04EFBA87805F04BFB424603207D4903F01CF92378774A012BA1D9029201F06DFB01F08FFB02F057
:4004400047FA04F0BBF90020402104F0DBFB04F0B9FA02F0AFFA03F0ABF901F06FFB01F091FB029A0023137086E701F071FD7CE79BF81A80B8F1000F7FF47AAF7368DFF8F3
:400480009891002B40F0B080664B221803EB402001231373A37600F0FDFF94F83830E16B23444FF00009604A83F80C90B368012980461060029300F0478140465B4909F005
:4004C00099FA30B140465A4909F0B2FA002840F0C38094F8383023441B7E002B7FF448AF8EE70E205349102203F0BCF898F8003003F0FD0388F8003062E70E204D490022EC
:4005000003F0B0F898F8003003F0FD0388F8003050E703F00F034848237101F05BFA00287FF465AF8BF80A0061E703F0070305210220237104F09CFE404804F069FE002128
:400540006623FF22009330880B4600F0E7FF05211FFA80F8022004F08BFE4046642828BF642004F0FDFE23793EE7652203F00B0E009220890021FF22322384F804E000F027
:40058000CDFF80B2642863D82D4B18801021022004F06EFE2B4804F03BFE1021022004F067FE274B188804F0DBFE274804F030FE237916E703F00D03E088237100F0BCFFB4
:4005C000237920770AE703F00E036088237101F073F92379E076FEE601F092F900229BF80430C8F80420F3E601F08AF99BF83800C9F8048048E700BF51020000B10000008C
:40060000C08BFF1F48A300005CA30000A482FF1F6CA300008394FF1F0C81FF1FA88BFF1F85000000C88FFF1FC08FFF1F00007A440000F04138A30000C482FF1F84A3000027
:40064000C48FFF1F68A4000080A300008094FF1F544A6423138099E7404608F0B9FB514B80461888894608F0CFFF4F4909F0D8F8B2680090494640464C4B00F035F90028AA
:400680007AD1B3680299994232D04A1C30D05A1C14D0802210464FF000092A706B7085F8029005F009FA687805F006FAA87805F003FA4A4603203E4902F0D4FF90239DF8B2
:4006C0000810184664222B706970AA7005F0F4F9687805F0F1F9A87805F0EEF903203449002202F0BFFFA37A002B4ED0029BB360304B216C186809F073F9DFF8B890002817
:400700007FF4E7AE0146039004F0B2FD2A4804F07FFD039B1846194604F0AAFDD9F8000009F090F980B204F01BFE244804F070FD9DF808101D48D9F8002000F055FFD9F8E5
:400740000030CBF84030C4E6014603929BF81C309BF81B20154800F0F1FADDF80CC0C1B2DCF80020114800F03FFFDDF80CC0CBF83C90DCF80080A0E60E4B0C481968E27E84
:40078000237F00F0DBFA02907BE705A9029800F0D5F901460A4801F013F901238BF80A30A4E700BFC48FFF1F0000C842C08BFF1FA88BFF1FC08FFF1F84A3000088A3000023
:4007C000C482FF1F024A034B127883F8442070478094FF1FA482FF1F002A31DB2DE9F84F5FEA520A29D0834610460D4608F0CEFA06460F46ABF1040B043D0024204608F0F3
:40080000D5FA11A3D3E9002308F036FB32463B4608F05CFC8046894605F0CAFC08F0EEFD49464BF8040F404605F05AFD08F0E6FD0134544545F8040FE0D10120BDE8F88F03
:4008400000207047AFF30080182D4454FB21194070B56FF00705441900F57E76284608F0A5FA00220A4B08F031FC02460B4600204FF0804105F0FEFD0022064B08F0FCFAAC
:40088000E4E90201B44205F10105E7D170BD00BF0000284000002A4008B500220E4B08F015FC05F067FD00220C4B08F0E5FA08A3D3E9002308F00AFC0022094B08F02AF9FD
:4008C00005F0BEFC08F072FD08BD00BFAFF30080EF39FAFE422EE63F00807B400000284000405140AFF30080002A2DE9F84F06460F461D4654DD7E2AA8BF7E22541CE40032
:40090000A4F1080BA4F1100A0A9808F061FAAB442A1905EB0A0E8046DBE90045DEE900AB8946D2E900012B46224608F0F1F802460B464046494608F09FFA02460B4620466D
:40094000294608F0E7F808F059FD08F041FA32463B4608F003FD00BB52465B462046294608F0D6F802460B464046494608F084FA02460B462046294608F0CAF808F03EFDB1
:4009800008F026FA02460B463046394608F0E6FC003018BF0120BDE8F88F0120BDE8F88F4FF0000A4FF0080B1024ADE7554A10B482FB0041C317C3EB610303EB4303B0EBD7
:4009C000830F00F08680411E82FB0134CB17C3EB640303EB4303B1EB830F76D0811E82FB0134CB17C3EB640303EB4303B1EB830F75D0C11E82FB0134CB17C3EB640303EB5A
:400A00004303B1EB830F68D0011F82FB0134CB17C3EB640303EB4303B1EB830F63D0411F82FB0134CB17C3EB640303EB4303B1EB830F5CD0811F82FB0134CB17C3EB6403CC
:400A400003EB4303B1EB830F4FD0C11F82FB0134CB17C3EB640303EB4303B1EB830F48D0A0F1080182FB0134CB17C3EB640303EB4303B1EB830F3ED0A0F1090182FB0132F4
:400A8000CB17C3EB620202EB4202B1EB820F34D01C49A0F10A0281FB0234D317C3EB640303EB4303B2EB830F29D00B3881FB0031C317C3EB610303EB43021349134BB0EB6D
:400AC000820F0CBF1846084600E011485DF8044B704710485DF8044B70470F48F6E70F485DF8044B70470E48F0E70E48EEE70E48ECE70E48EAE70E48E8E70E48E6E70E487B
:400B0000E4E700BFABAAAA2A6CA40000B8A3000090A300008CA3000098A3000094A300009CA30000A4A30000A0A30000A8A30000ACA30000B0A30000B4A30000F8B50346C0
:400B4000704CC61784FB0302C6EB620202EB4200B3EB800F0D4600F08180581E84FB0017C117C1EB670101EB4101B0EB810F00F08780981E84FB0017C117C1EB670101EB37
:400B80004101B0EB810F6FD0D81E84FB0017C117C1EB670101EB4101B0EB810F76D0181F84FB0017C117C1EB670101EB4101B0EB810F71D0581F84FB0017C117C1EB670126
:400BC00001EB4101B0EB810F6CD0981F84FB0017C117C1EB670101EB4101B0EB810F49D0D81F84FB0017C117C1EB670101EB4101B0EB810F66D0A3F1080084FB0017C117A3
:400C0000C1EB670101EB4101B0EB810F60D0A3F1090184FB0124CA17C2EB640404EB4404B1EB840F374A59D0A3F10A0082FB0014C117C1EB640101EB4101B0EB810F57D037
:400C4000A3F10B0082FB0014C117C1EB640101EB4101B0EB810F2BD02B48F8BD08462B4908F0FAFF2846F8BD2846294908F0F4FF2846F8BD2846274908F0EEFF2846F8BD35
:400C80002846254908F0E8FF2846F8BD2846234908F0E2FF2846F8BD2846214908F0DCFF2846F8BD28461F4908F0D6FF2846F8BD82FB03322846C6EB62021B4908F0CCFF90
:400CC0002846F8BD2846194908F0C6FF2846F8BD2846174908F0C0FF2846F8BD82FB033228461449C6EB620208F0B6FF2846F8BD82FB03322846C6EB62020F4908F0ACFFE7
:400D00002846F8BDABAAAA2A6CA40000BCA30000CCA30000ECA30000C4A30000D4A30000DCA30000E4A3000014A40000F4A30000FCA3000004A400000CA400002DE9F04F7B
:400D4000804687B008464FEAC20914461E4608F03FF808EB0905D5E90023CDE9000108F0FDFA80BB002E34D1312C2CDCDDE90001DFF808B704F1180A5BF82450554408EB15
:400D8000C503D3E9006732463B4608F0E7FA002840F094805B460BEB8409C346C84699460EE058F8045FDDE9000155440BEBC503D3E9006732463B4608F0D0FA00287BD1DF
:400DC0000134322CEDD14FF0FF35284607B0BDE8F08F012E00F0E980022E00F01A81032E00F08D80042E00F06F81062E00F01E83052EE8D1D5E90067DDE900AB04F10C0912
:400E000008EBC909CDF8148045E07E2CDBDC59E912675046594632463B4608F09FFA002840F0FA8159E90E675046594632463B4608F094FA002840F0758259E90C675046BC
:400E4000594632463B4608F089FAE51D002840F0478259E90A675046594632463B4608F07DFA002840F0C18259E904675046594632463B4608F072FA0C34002840F0948264
:400E8000F9E818675046594632463B4608F066FA002840F067823B4632465046594608F07BFAA31D039304F10A03E51C04F1050804930028A9D186E7D846CB46013C5BF8B0
:400EC00024309A443046DDE90023394607F020FE08EBCA08D8E9002306460F46DDE9000107F016FE02460B463046394608F054FA002818BF5546284607B0BDE8F08F04F105
:400F00000C0608EBC606CDF81480D5E900ABDDE900893AE07E2C3FF756AF56E912AB4046494652465B4608F019FA002840F0858256E90EAB4046494652465B4608F00EFAD6
:400F40000C34002840F0EA8056E90AAB4046494652465B4608F002FA002840F07F8256E904AB4046494652465B4608F0F7F9002840F06A82F6E818AB4046494652465B4689
:400F800008F0ECF9002840F072825B4652464046494608F001FAE31D049304F10A03E51C671D03930028B5D10DE7312C3FF70BAFDDE90001DFF8C4B44FEA84090BEB090346
:400FC0005D6F04F1180A554408EBC503D3E9006732463B4608F0C2F9002871D10BF1740399445B46C346C84699460EE058F8045FDDE9000155440BEBC503D3E90067324640
:401000003B4608F0ABF9002858D10134322CEDD1D9E604F10C0608EBC606CDF81480D5E900ABDDE9008939E07E2C3FF7CCAE56E914AB4046494652465B4608F08FF90028F4
:4010400040F0AB8056E910AB4046494652465B4608F084F90C34002860D156E90AAB4046494652465B4608F079F9002840F0B48056E906AB4046494652465B4608F06EF9EA
:40108000002840F00981F6E818AB4046494652465B4608F063F9002840F0DD805B4652464046494608F078F9E31D049304F10903A51C271D03930028B6D184E6D846CB4624
:4010C0000BEB8404236FFCE6C4EB447BCDF80C90CDF810804FEACB0BD5E90067DDE900890CE07E2C3FF76FAED3E900674046494632463B4608F032F978BB544632463B4654
:401100004046494608F048F91035039A0BEB0503134404F1020A0028E3D154E6DDF8148008EBC70858E90423DDE900894046494607F0EEFC08F062F942464B4604465946E6
:40114000504607F0E5FC08F059F90146204608F051FC002808BF3D4637E6DDF8108008EBCA0858E90423DDE900894046494607F0CFFC08F043F9424605464B4630463946F1
:4011800007F0C6FC08F03AF90146284608F032FC002814BF2546554617E6DDF8148008EBC50858E90423DDE900894046494607F0AFFC08F023F942464B460646594650462D
:4011C00007F0A6FC08F01AF90146304608F012FC002818BF2546F8E5DDF81090DDF8148008EBC90858E90623DDE9000107F090FC08F004F9DDE9002304465946504607F097
:4012000087FC08F0FBF80146204608F0F3FB002814BF3D464D46D8E5DDF81480DDE900AB08EBC50858E906235046594607F070FC08F0E4F852465B4680463946304607F084
:4012400067FC08F0DBF80146404608F0D3FB002818BF2546B9E5DDF8148008EBC40858E90623DDE900673046394607F051FC08F0C5F83B46054632465046594607F048FC44
:4012800008F0BCF80146284608F0B4FB039B002808BF23461D4698E5DDF81480039DDDF8109008EBC50858E90423DDE900673046394607F02DFC08F0A1F83B463246044694
:4012C0005946504607F024FC08F098F80146204608F090FB2B46002818BF4B461D4674E5C246DDF8148008EBC404D4E90A23DDE900894046494607F00BFC08F07FF84B46B5
:40130000424604463946304607F002FC08F076F80146204608F06EFB039B002818BF53461D4652E5C246DDF8148008EBCA0858E90423DDE900894046494607F0E9FB08F0D8
:401340005DF842464B4604463946304607F0E0FB08F054F80146204608F04CFB002808BF554632E5DDF81480DDF810B008EBC40858E90423DDE900894046494607F0C8FBDA
:4013800008F03CF8424605464B463046394607F0BFFB08F033F80146284608F02BFB002814BF5D46254610E5DDF810B0DDF8148008EBCB0858E90623DDE900894046494671
:4013C00007F0A6FB08F01AF842464B4604463946304607F09DFB08F011F80146204608F009FB002808BF5D46EFE4DDF8148008EBC404D4E90C23DDE900894046494607F0EA
:4014000087FB07F0FBFF4B46424604463946304607F07EFB07F0F2FF0146204608F0EAFA039B002808BF2B461D46CEE4DDE9000107B0BDE8F04FFFF72FBADDF8148008EB50
:40144000C50858E90623AEE6DDF81480039DDDF8109008EBC50858E9062326E7DDF81090DDF8148008EBC90858E90423BCE6DDF8148008EBC40858E90423F2E61881FF1F21
:4014800003484FF4807200F58061FFF7A5B900BFF882FF1F2DE9F04707464FF6FF764FF006094FF0FA080024B8F1000F1FFA89F5D8BF4FF0000A17DD0022134610461146D9
:4014C00001334A449BB237F912E037F9112019B241450EFB02000A46F2DB08F099F84FF06E5108F0E9F882462046514608F082FA08B12E46544608F1FF38B8F1370F09F168
:401500000109D1D130B208F083F80146024808F087F9BDE8F08700BF0000FA4510B4019C401AE41A04FB00F0521A90FBF2F05DF8044B1844704700BF10B504460E21002032
:4015400003F096FE1E4803F063FE00200E2103F08FFE04EB44041B4B600083FB0023C4171844C4EBE010C4B2062C08D8DFE804F0090E13181D220400134803F049FE204624
:4015800010BD124803F044FE204610BD104803F03FFE204610BD0F4803F03AFE204610BD0D4803F035FE204610BD0C4803F030FE204610BD0A4803F02BFE204610BD00BF76
:4015C0008CA400008180808050A4000020A4000028A4000030A4000038A4000040A4000048A40000000000002DE9F04F0D46924601F101084FEAC803A3F1080487B0044418
:40160000034400210120DFF894B2D4E90067CDE90067D3E9006753E90423CDE9022303F027FE9B4803F0F4FDDBF8003001201A0C0221ADF814308DF8162003F019FE05A9BA
:40164000681EFFF77BFA03F0E3FD01200E2103F00FFE05A94046FFF771FA03F0D9FD0120082103F005FE05A92846FFF767FA03F0CFFD504607F0ACFB30CC22462B468046B7
:40168000894607F07FFE002861D030463946DDE9006732463B4607F03BFA00227D4B07F0EBFB07F0ABFE804607F092FB76A3D3E9002307F0E1FB02460B463046394607F046
:4016C00029FA07F09BFE0146404607F0EBFE724908F0A6F807F07CFB02460B462046294607F018FA07F08AFE0146064607F0DCFE07F06EFB02460B462046294607F00AFAA8
:4017000007F07CFE31460446504608F073F9002840F084802146504608F06CF930B15046314608F07BF9002840F089800521012003F09EFD594803F06BFD01200B2103F0FB
:4017400097FD574803F064FD07B0BDE8F08F4046494622462B4607F001FE0028F4D0DDE90067DDE902233046394607F0D1F90022484B07F081FB07F041FE804607F028FB2B
:4017800041A3D3E9002307F077FB02460B463046394607F0BDF907F031FE414607F082FE3D4908F03DF807F013FB02460B462046294607F0ADF907F021FE0146064607F03B
:4017C00073FE07F005FB02460B462046294607F09FF907F013FE31460446504608F028F900283BD12146504608F022F928B15046314608F009F900283FD10521012003F076
:4018000037FD284803F004FD0B21012003F030FD224803F0FDFC07B0BDE8F08F0521012003F026FD584603F0F3FC0B21012003F01FFD1D4803F0ECFC07B0BDE8F08F0521F8
:40184000012003F015FD584603F0E2FC01200B2103F00EFD154803F0DBFC75E70120052103F006FD124803F0D3FC01200B2103F0FFFC584603F0CCFC66E70120052103F091
:40188000F7FC0C48EFE700BF9A9999999999B93F58A400000000E03F000040401CA4000078A4000084A4000070A4000074A400007CA4000080A4000000EB80020E4B00EBFD
:4018C000420083FB002310B503440B21C4170020C4EBE31403F0CCFC084803F099FCE4B20B21002003F0C4FC2046FFF75FF803F08FFC204610BD00BF8180808090A40000AC
:4019000070B5012003F092FC002003F05FFF80B2FFF7D2FF012003F059FF244E80B2FFF70BFE0B21022003F0A3FC304603F070FC0B21022003F09CFC1D4803F069FC0220FA
:4019400003F044FF652404FB00F01A4DC31785FB00121044C3EBE01080B2642828BF642003F0FEFC144803F053FC0021022003F07FFC304603F04CFC0021022003F078FC34
:401980000E4803F045FC022003F020FF04FB00F085FB0035C3172844C3EBE01080B2642828BF6420BDE8704003F0DABC88A4000094A400008180808080A300009CA4000012
:4019C0000B78202203704B7843708B78C2708370704700BFF0B5174F0023396887B09942ADF8143020DD00F1190313F8012D83425A70FAD104466D46042904BF2023037091
:401A000054F8040F4E1EA2686168E3683E600FC5206900212860032003F02AFC684603F0F7FB386807B0F0BD042318463B6007B0F0BD00BF0082FF1FFEE700BF154B80B52A
:401A400003F1FF3E03B3144F002657F8085C57F8104C57F80C3C3DB1224652F8040B111B8D4243F8040BF8D157F8040C1A4620B142F8046BD11A8842FAD10EF1FF3EBEF1A0
:401A8000FF3F07F11007E0D108F002F8FEF724FCFEE700BF01000000ACA9000008B5124A124B13491A600B68124A43F4007312480B600023032B94BF50F823100F490133F2
:401AC000302B42F8041FF5D10D4B0E4A18780E490E4B08701A6000F065F802F0DDF80C4B00221A6008BD00BF0004FA050CED00E014ED00E0FC7FFF1F00000000391A000052
:401B0000BC7600400080FF1F0481FF1F08ED00E00081FF1F074B1B7803F0100303F0FF021BB9054B1A7004F041B8034B01221A7004F03CB897640040F88AFF1F08B504F095
:401B400063F804F0B1F8044B1B7803B908BDBDE8084003F0FDBF00BFF88AFF1F074B1B7803F0100303F0FF021BB9054B1A7004F01BB9034B01221A7004F016B995640040C3
:401B8000FC8AFF1F08B504F03DF904F08BF9044B1B7803B908BDBDE8084004F0D5B800BFFC8AFF1F2DE9F84F72B640F6191641F25121AB4CAB4F4FF0610B84F800B0AA4AA3
:401BC000AA484FF03A0BA7F800B0DFF80CC3DFF80CE31827DFF808A3DFF80893DFF808834FF0170B17701923A0F800B0A4F5A0645F2206279E488AF80030A9F8002088F88F
:401C00000030ACF800208EF8003027701D460378984A9948DBB24FF0520C84F8A133974F8EF872C100240680118001E0032C0CD03B78782003F0010343EA440403F048FF91
:401C4000013D04F00304F1D1FEE78D4E8D4A35468D48DFF89892DFF898C2DFF898E2002302278A494FF4807B4FF0070A4FF04808A2F800B082F800A089F800308CF80080AA
:401C800013708EF8003007701C460B78012743F00F030B7080F8FF7792F8E43643F0040382F8E43604EB4403AA8856F813000134002107F01EFF092C05F10605F2D1744D5A
:401CC000002404EB840306EB430353F8380F2A890134596807F002FF032C05F10A05F0D16C4E6D4F002556F8043F13F0FF0E23F0FF0413D005F110530EF1FF3E03F15700D6
:401D00005FFA8EFE7044563340005B001A785978023383421155F9D101357544BE42E2D15E485F4902785F4C42F0020202700A7847F6061342F002020A702278A0F586302F
:401D400042F0400222704138574A0178D2F800C0DFF8A4E1554E41F010010027544D01702C3ACEF800C0376007CA03C5A6F5105650492A80103E07C903C64F493280B83D40
:401D800007C903C54D4F4E4E2A80AEF54B5E03CEAEF1260E386079609EF80020494942F008028EF800200A78A7F62A27DFF84C813D78454998F800604448D2B202F0070EC0
:401DC000EDB2120980F800E0F6B20A70DFF830B145F003023A70DFF82CA1DFF82C9146F0030288F80020DFF824C1ABF80030DFF820E14FF0400B8AF800B0354B89F800B02C
:401E0000344A4FF080094FF0090A4FF0120B8CF800908EF800B04FF0040C80F8B2A24FF0100E4FF021094FF0140A81F8B4920A2082F800C083F800E083F82CA002F012FB62
:401E400094E80F00DFF8CCE010344FF0440C88F800603D708EF800C007C42380BDE8F88F004800408040004082400040844000400F01004920420040224200402542004040
:401E8000A4A400000440004001400040A2430040DCA40000FCFFFF47A80000480350014013500140A0430040900F004800760040C0510040700F00487C0F00482251004069
:401EC000880F0048CF0100496F5800406E5800402C5B0040285B00408C4000408E40004086400040884000408A40004006400040084000400940004008760040F94600404D
:401F00002C510040015900400359004009590040005B00407658004010B50B4C23789B070AD503F0DDFD094A137843F004031370BDE8104003F0D8BD03F0D2FD2378034A9C
:401F400043F002032370EFE7004300408243004008B503F0C5FD044A137803F0FB031370BDE8084003F0C0BD8243004008B503F0B7FD044A137843F008031370BDE808402C
:401F800003F0B2BD82430040064B1B785B0706D4054A137803F0F00343F002031370FFF7E5BF00BF824300408143004010B5054C23781BB9FFF7E8FF01232370BDE81040AF
:401FC000FFF7AABF008BFF1F022002F097BE00BFF8B503F085FD3A4A3A491378054643F0010313700B78384C38480127022602F5E35243F001030B700B322770067013786E
:40200000A4F5E85403F07F03093C1370002002F029FA23782E4A03F0F90323701378384603F0DF03137023783B43237002F01AFA282002F017FA274B30461A7802F07F0279
:402040001A701A7802F0BF021A7023783343237002F008FA23782049204E43F0040300222370284632700A7003F03EFD1C49172002F000FA1720072102F00CFA19491520E0
:4020800002F0F8F91520072102F004FA1649182002F0F0F91820072102F0FCF91349082002F0E8F90820072102F0F4F91049092002F0E0F9BDE8F8400920072102F0EAB9A1
:4020C000A5430040B54300409D6000400960004012600040F85100408560004084600040C1280000BD280000C92700005528000089280000204B214A2DE9F0474FF4000EB6
:402100004FF080774FF480764FF400750024C3F800E01F601E601D60147049B3184B03221A70184ADFF870C0DFF870E0DFF870A0DFF87090DFF87080134F144E144C002351
:40214000802103258AF8000089F80030012088F800308CF800308EF800303B7033702570117003F0B5FC0B4B04221A70BDE8F087034B02221A70D4E700E100E0C893FF1F0D
:402180000960004008600040F193FF1FCA93FF1F2860004012600040D693FF1FD493FF1FD393FF1FDC93FF1FC993FF1F10B5084C82B023783BB98DE80300FFF709FF9DE8CB
:4021C00003000123237002B0BDE81040FFF792BF018BFF1F2DE9F043DFF850C0DFF85090DFF85080DFF850E00B4F0C4E0C4D0D480D4A00230324802189F8003088F80030F3
:402200008CF800308EF800303B7033702B7004701170BDE8F08300BFD493FF1FF193FF1FCA93FF1F2860004008600040C993FF1FC893FF1FDC93FF1FD693FF1F044B187887
:40224000C0B200F0FB021A70C0F38000704700BF09600040014B1878704700BFDC93FF1F044B1A7802F0FF001AB118780022C0B21A707047D693FF1F034B00EB400003EB54
:4022800080035878704700BFF493FF1F0138C0B207280CD80001074AC0B2074B825CC35C02F00F0043EA0020023880B270470020704700BF0C6000400D6000402DE9F04138
:4022C000441EE4B2072C36D846001F4F06EB000E07EB8E0EBEF8063024019BB21B4DC3F50073E4B29A42254427D8331807EB830393F803E0DFF85C80DFF85CC04EEA122E4A
:40230000D3B204F808E004F80C3049B142B1531E9BB20B44013911F8012F99422A70FAD1304407EB800700237B707B79084ADBB2A354BDE8F081BDE8F081BEF80620C2F5CB
:40234000007292B2D1E700BFF493FF1F886000400E6000400C6000400D600040F0B4441EE4B2072C074629D859B32401164BE4B21648E35C255C03F00F0345EA0323023B62
:402380009BB2934228BF1346114E1846264443B15D1EADB20D440139337801F8013FA942FAD10C4B07EB470703EB870700237B707B79094ADBB2A354F0BC70470020F0BC86
:4023C00070470846F8E700BF0C6000400D60004088600040F493FF1F0E600040431EDBB2072B0CD8064A00EB400002EB80000022427042791B010349DBB2D2B25A5470470D
:40240000F493FF1F0E60004008B5194B1A78D2B21A701B78DBB21A0627D4164B9A6842B199680220144A087099681088002248809A60124B1B7803F06003202B10D0402BA5
:4024400004D043B10E4B03221A7008BD00F0DCFF0028F7D008BD00F025FE0028FAD1F1E703F040FD0028F5D1ECE7054A137008BD28600040E493FF1FDA93FF1F006000405A
:40248000D293FF1FF0B42049204C214A20780B8803449BB20B801588ADB23DB31D4B1E4851680978C9B203F8011B5168DDB2013151601188013989B21180118889B299B1FD
:4024C0008342EDD123780825144A154E1378154983F080031370144B0F2702203770087025701D70F0BC70472378EDE72378082BEAD00B490B4A02230B7013700A4B257066
:402500001D70F0BC704700BFDA93FF1FCA93FF1FE493FF1F0060004008600040D593FF1FD293FF1FC893FF1FF093FF1F194AF8B513889BB2EBB11849184C194800230225E2
:40254000257003700B80916819B191680B7091684B801449144B09781B78128843EA012392B20C49934238BF0B80FFF78BFF0120F8BD0A4F0A4D0D480D490E4A4FF0020ECA
:4025800080260F2487F800E02E7004700B7013700120F8BDE493FF1FDA93FF1FC893FF1FD593FF1F0760004006600040D293FF1FCA93FF1FF093FF1F10B40D4B0D491A78EE
:4025C0000B880D4C13449BB200200C4A0B802070936833B1936801241C709368098859809060074B03221A705DF8044B704700BFCA93FF1FDA93FF1FC893FF1FE493FF1FAB
:40260000D293FF1F10B41C4B1C481978028801F00F010239C9B20A4492B2194B02801A8892B2CAB1002009B923E011B300F1804202F5C0425C6812780139D2B222705A6828
:40264000C9B201325A601A880130013A92B21A801A8892B2002AE8D10A4B0B4A197013780A4983F080030B20137008705DF8044B70470021F0E700BF29600040DA93FF1FAA
:40268000E493FF1FF093FF1FD593FF1FD293FF1F0E4B1B78DBB2042B16D0062B04D0022B00D07047FFF788BF094B9A6842B199680320084A087099681088002248809A60A3
:4026C000054B03221A707047FFF79CBFC893FF1FE493FF1FDA93FF1FD293FF1F70B40748074E084C084A0623802500210370337025701170012070BC704700BFC893FF1FF2
:40270000D293FF1FD593FF1FF093FF1F114B1A7832B11A78104842F080020021027019700E4900220E4B0A70996871B1996810B40C4801240C709968008848809A600A4B9B
:4027400003221A705DF8044B7047074B03221A70704700BFD493FF1F08600040C893FF1FE493FF1FDA93FF1FD293FF1F124A1378DBB2042B07D0062B03D0022B16D1FFF707
:4027800081BEFFF7C3BF00210C4B11709A6872B19A6810B40A48012414709A68008850809960084B03221A705DF8044B7047054B03221A70704700BFC893FF1FE493FF1F50
:4027C000DA93FF1FD293FF1F10B51D4B1B78DBB2DC0605D5180604D45A062ED49C060BD410BD03F00F03012BFAD1FFF70DFE15490B78190602D510BDFFF74AFF104A137857
:402800001B06EDD41049114B1B780878104903430B7009789942E3D10A490C460B781078DBB2000605D42378DBB21370137803F00F0308788342F1D110BDFFF797FFDDE749
:4028400028600040D293FF1FF093FF1FD593FF1F29600040094A0A4B12781A7B02F00302012A03D0DA7B82F08002DA73054A01215973137803F0FE03137070470E60004027
:40288000F493FF1F0B600040094A0A4B12781A7E02F00302012A03D0DA7E82F08002DA76054A01215976137803F0FD03137070471E600040F493FF1F0B600040704700BFF1
:4028C000FFF788BC014B1B78704700BF8F4500402DE9F04103F004F92C4C054623781B0615D42B4B00221A70284603F0FDF829490C2001F0BFFD07210C2001F0CBFD264957
:40290000264A4FF480530B601360BDE8F081DFF880800127224A88F800701378214E03F07F031370002001F09DFD3378002003F0F9033370237803F07F03237001F092FDA5
:40294000194A3846137811783B4001F0FE01117088F8013001F086FD3378144A03F0FE0333701378124943F0200313700B78A2F5E25203F0FE031D3A0B701378384603F0E2
:40298000FE03137001F06EFDAEE700BF08600040048BFF1FC528000080E200E000E100E010600040944300400960004012600040A543004070B503F093F8284D06462B784D
:4029C00023B93046BDE8704003F08EB8244B254A4FF4805119601378234943F0010313700B7802F5E75243F001030B70183213781E4C43F0010313702378282043F0010363
:402A0000237001F02FFD1A4A6B78117800200B43137001F027FD237802200343237001F021FD23781349144A43F004030320237008701378012043F08003137003F048F896
:402A40000E4A04210E4B11701B78002BB9D000F021F93046BDE8704003F046B8048BFF1F80E100E0A5430040B54300409443004009600040286000400860004012600040C2
:402A8000DC93FF1F604B61491B78614A0978013B02EBC1025268DBB2117A994240F29B8002EBC303DB681A7ADB68002A00F0AA802DE9F04F013A5749D2B2023203EBC202E4
:402AC00083B00C465448DFF86CE108334FF0010A4FF0000902E00833934279D013F8085C4F5D465DB742F6D0665D13F8077CB742F1D19EF80060B542EDD113F806CC13F86D
:402B0000056C0CF07F077D1E2D011CF0800FEDB206F0030662D1012E4FEA470606EB070C01963E4E08BF4FF0050BB04606EB8C0C18BF4FF0090B8CF801908CF805B0DFF8AD
:402B4000F8C0019EAC448CF800A033F804CC374408EB8706A6F808C013F806BCDFF8DCC086F804B013F805BCAC4408F827B086F80390B6F808802A4FC8F307288CF80080DB
:402B8000B6F808C02F445FFA8CFC87F800C0B6F806C0244F5FFA8CFC2F4487F800C0B6F806C0214FCCF3072C2F4487F800C0B6F806C01E4F5FFA8CFC2F4487F800C0F78817
:402BC0001B4E0833C7F307272E449342377085D103B0BDE8F08F00231B7AFFDE012E4FEA470606EB070C01960C4E0CBF4FF007084FF00D0806EB8C0C8CF801A08CF80580CB
:402C0000B0469CE7704700BFDC93FF1FD393FF1F6CA50000D093FF1FE093FF1FF493FF1F0D60004086600040876000408460004085600040046000400E6000400C6000408B
:402C400030B4054684B0114B04AC0FCB04E90F00CDB12A46222103230D4805F1200429706B7010F8013B04ADDBB203F00F01294405EB131311F8101C13F8103C937002F844
:402C8000041FA242EDD104B030BC7047FCA4000000010049F0B5214A214C224E01210C2580274FF0080E27E0007900064CBF157082F800E00B4404EB830318891032C0F308
:402CC000072002F8120C18890131C0B202F8110CD888C0B282F86800D888C0F3072082F86900D888C0B282F86600DB88C3F3072382F86730B2420CD04B00581882F872509B
:402D000004EB800090F805C0BCF1000FCCD11770D0E7054BFF221A70F0BD00BF0E600040F493FF1F8E6000400A6000400D4B0E491B780E4A0978013B02EBC1025268DBB260
:402D4000117A994209D902EBC303DB683BB15A68127903EBC20358697047002070471846704700BFDC93FF1FD393FF1F6CA5000000212DE9F84F0B466C4F01EB41040131F7
:402D800007EB8402092907F8243093704FF000045370D370537113819372EED128B1644A644B14701C7054705C70634B1A78002A00F0B68061491B78614A0978013B02EBB6
:402DC000C1025268DBB2117A994240F28F8002EBC303D3F80C905B4AD9F8043099F80880DB7908F1FF3E13F0400F13785FFA8EFE14BF43F0010303F0FE030EF1020ED9F81B
:402E00000C10DFF82CC113704FEACE0E01204FF0000BC6B2B8F1000F3CD000EB400507EB850501F1080301EB0E0402E00833A3422ED013F8062C02F07F018142F6D12989E1
:402E400033F804AC89B2514538BFA5F808A013F8081C13F807AC1CF801108A45E6D113F8051C120601F0030143D4012985F801B04ED009226A7113F8022C012A4BD013F87C
:402E8000062C08332A7113F80D2CA3422A70D0D1D9F80C1001300928BBD1B8F1000F10D08E4401F1080212F8063C12F8081C03F07F0303EB4303083207EB830372459972CE
:402EC000F1D1FFF733FF204B01211860002301EB410207EB8202D38012890131134409299BB2F4D1BDE8F84FFFF7D4BE00235B68FFDE012291426A7014D00D226A7113F860
:402F0000022C012ABBD10229B9D1104A1670B6E705226A71B3E7022904BF0D4A1670AEE7BDE8F88F07226A71A9E700BFF493FF1FD093FF1FE093FF1FDC93FF1FD393FF1F37
:402F40006CA50000F193FF1FCC93FF1F8194FF1F8494FF1F124B1A7802F07F02531EDBB2072B1AD80F4902EB420201EB82029178002041F001019170D07051781B0141F088
:402F8000020151701279DBB212F0800F064A14BF8D2189219954FFF7A1BB0020704700BF04600040F493FF1F0E6000401C4B1B7803F07F03591EC9B2072924D810B4194AA9
:402FC00003EB430302EB83039A78174802F0FE02090100249A70C9B2DC700A5C02F07F020A545A7802F0FD025A701A795B7812060BD4012B0D4B0CBF08220922CA545DF890
:40300000044BFFF76BBB00207047012B074B0CBF0C220D22CA545DF8044BFFF75FBB00BF04600040F493FF1F0C6000400E600040154A164B1648127816491B780078013B26
:4030400001EBC0014968DBB2087AD2B298420AD901EBC303DB685B681B79934201D9012A04D90020704700235B68FFDE10B40A490A4C8B5C0A48DBB2A35403780120DBB2B2
:403080008B545DF8044B704704600040DC93FF1FD393FF1F6CA50000D093FF1FE093FF1F0260004038B5A24C0022A24B22801B7813F0800FA04B1B7811D1013B0A2B0CD8F6
:4030C000DFE803F0420B600B570B0B0B750B28009A4B1A78012A40F20481002038BD0A2BFBD801A252F823F079320000DB300000DB300000DB300000DB300000DB300000E6
:403100000D320000DB300000B3320000DB300000F7310000FFF78CFF0028DED0874B88481C78884AE4B20121874B047011701B78002B40F0C680854B854A1B5DDBB213550F
:40314000BDE83840FFF7CABA7A4B1B7803F00303012BBDD0C0F01681022BBED103F1804303F5C0431B78002BB7D1BDE83840FFF71DBF784B784A1B78DBB21370BDE838407F
:40318000FFF7ACBA6B4B1B7803F00303012B9FD0C0F0BF80022BA0D103F1804303F5C0431B78002B99D1BDE83840FFF7D3BE694B1B7803F0FF027BB1684B69491878531EFE
:4031C00001EBC0014968DBB2087A984285D901EBC303DB68002B80D05B4B19788A4206D00121584C08461A702170FFF7C1FDBDE83840FFF773BA0122504B22801B78534A2E
:4032000013446360BDE83840FFF790B9554B1A78012A70D01A78022A00F0C6801B78032B40F0BE804B4D504A2B7863B1137853B1002301E0117831B1107801332978DBB287
:4032400099420244F6D8434B48481D781978EE2D08BF024629B146491B78097C994200F0C3801378002B3FF438AF137823806260BDE83840FFF75AB92E4B1B7813F0030367
:4032800022D0022B7FF429AF2C4A23801378394A03F07F0303EB430302EB83039A78364BD2B200211A7059706360BDE83840FFF73DB9254B012222806360BDE83840FFF7FF
:4032C00035B9FFF7DFFB36E702212C4A21801178294AC9B2117053706260BDE83840FFF725B91C4A264910781B78DBB2CA5C22EA0002CA547BE7194A194B1178122203EBA8
:40330000C1035B685B6863602280BDE83840FFF70DB9104B1B78012B7FF4DFAE174A137843F002031370BDE83840FFF7D7B900BFE493FF1F00600040016000400460004068
:40334000C993FF1FD693FF1FDC93FF1FD093FF1FE093FF1F02600040D493FF1FD393FF1F6CA5000003600040C4A5000058A5000008A70000F493FF1F088BFF1FF193FF1F41
:40338000D893FF1F1B4B1B78012B7FF4A6AE1A4A137803F0FD031370BDE83840FFF79EB9BDE8384002F09EBD124B14491B78144A0978DBB202EBC1025268117A99427FF661
:4033C0008CAE02EBC303DB68002B3FF486AE5B6863606368DA7863689B7843EA02232380BDE83840FFF7A2B80648FFF729FC054A37E700BF02600040F193FF1FD393FF1FCB
:403400006CA50000E498FF1F084B1B781B0601D400207047064B1B78012BF9D1054A064B11785A601980FFF781B800BF006000400160004030A50000E493FF1F38B5094CFD
:40344000237803B938BD084D2878FEF715FF0128F8D1287805492278FEF730FF00232370F0E700BF8294FF1F8194FF1F8894FF1FF0B5F7280C784D781DD8032804D9F02855
:4034800063D0F7285BD0F0BDEF2C3AD9F62C00F0968004F0FD02F12A7048714A00F08680F22C38D11778167843F003030136F6B2C35516702FE06A4A684C16781178002568
:4034C0000131C9B211701778117843F00F030131C9B2117092F800E011785FFA8EFE0131C9B2117092F800C011785FFA8CFC0131C9B2A3551170E05504F80E5004F80C504C
:40350000F0BD574A55481778167843EA14130136F6B2C35516701678137884550133DBB213701478137805550133DBB213701478137889780133DBB201551370F0BD012A3D
:4035400067D00DD3022A45D0F0BD454A43481778167843F004030136F6B2C3551670DAE73F4A3E4C1778117800250131C9B211701678117843F005030131C9B2117092F80F
:4035800000E011785FFA8EFE0131C9B2117092F800C011785FFA8CFC0131C9B2E3551170A05504F80E5004F80C50F0BD1778167843F002030136F6B2C3551670ABE7284A4B
:4035C00026481778167843F005030136F6B2C3551670A0E7224A214992F800E0167843F007030136F6B216701778167801F80E30731CDBB2137016781378CC550133DBB2A3
:403600001370147813788D550133DBB20855137039E7134A43F0060C92F800E011780F4D0131C9B211701778117805F80EC00131C9B211701178137800260133DBB213709F
:4036400092F800E013785FFA8EFE0133DBB2EC551370685405F80E60F0BD00BF8894FF1F8294FF1F2DE9F04F374F384D83B090460446019102F0C2FA02F0BEFB3A782B78F7
:40368000334E03EB430306EB83031B899BB2043B9A424DD83A782B7803EB430306EB83031B899BB2043B9A4231D8231FDBB2EB2B41D8DDF80490DFF890B0DFF890A001E032
:4036C000032C2DD9494603224346F020FFF7D0FE3A782B78033C03EB430306EB83031B89E4B29BB2043B9A4209F10309E8D9FFF7A5FE9BF800209AF80030154903EB43033C
:4037000001EB83031B899BB2043B9A42D8D9012402F06EFA02F06AFB204603B0BDE8F08F224601994346F720FFF7A2FE0024EFE7FFF784FEAEE72046224601994346FFF721
:4037400097FE0024E4E700BF8294FF1F8194FF1FF493FF1F38B5134D134B00242C722C701C706C70AC70EC7002F012FA0520042100F090FE0420022100F08CFE0B4B2C7593
:403780002C731C706C73AC73EC7302F0FFFA0720042100F07FFEBDE838400620022100F079BE00BF0C8BFF1F8094FF1F8394FF1F08B5054A054B002111701878FEF70EFEE6
:4037C000BDE80840FFF7C6BF8294FF1F8494FF1F020630B423D4CB78F02B35D04A7852B18C180B7801322071D0B2834248703BD9002030BC7047002BFAD003F0F00202242B
:40380000B02A0B7148714C7054D058D9D02A2AD0E02A4FD0C02A26D000204870E9E700F0F003F02B25D00122B02B0871C8704A7040D03BD9D02B35D0E02B3BD0C02B31D041
:403840000020C8704870D4E74C780D78621CD2B20C44954220714A70CAD8002418464C708A7030BC70470220002388704B7030BC70470307BDD4A0F1F003072BB8D801A224
:4038800052F823F0173900001339000001390000EF380000F1370000F1370000DF380000D338000002230B700020A2E7902B01D0A02B0BD130BC032300200B707047902AA2
:4038C000F8D0A02AF6D0802AA6D1F3E7802BB7D1F0E74A7800238A70CB704B7089E70023F62201200A71CB704B70887081E7F3240020012202230C71C8704A700B7078E731
:40390000F2240020012203230C71C8704A700B706FE7F124ECE7F0230120032248700B71CB700A70002064E72DE9F8431C4DDFF880801C4E2B7898F800103278DBB29142EB
:4039400028D098F800403278E4B2002094428146154F04F1010E154916D0B8B9385D5FFA8EF4FF2C08BF0024C0B21BB185F8009088F80040FFF72CFF2B783278DBB2944203
:4039800004F1010E0949E8D1002BE6D188F80040BDE8F883002BD4D11846BDE8F88300BF8B8BFF1F8A8BFF1FE495FF1F0C8BFF1F898BFF1F037803F00F03012B31D9244A20
:4039C000042B70B50546D65C1FD0052B15D0062B13D0072B28D0083B062B13D81D4B4278197A8A421ED01A720124285D0134E4B202F02CF9A642F8D270BD174A137803F010
:403A0000FE031370134B0022EDE74378124AF02BF4D183787E2BF1D1137843F001031370F0E770470224E0E70B4B1A78D207E9D51A78417802F0FE0206291A70E2D182786F
:403A4000012ADFD11A7842F002021A70DAE700BF10A500000C8BFF1F8094FF1F2DE9F8431C4DDFF880801C4E2B7898F800103278DBB2914228D098F800403278E4B200208D
:403A800094428146154F04F1010E154916D0B8B9385D5FFA8EF4FF2C08BF0024C0B21BB185F8009088F80040FFF792FE2B783278DBB2944204F1010E0949E8D1002BE6D194
:403AC00088F80040BDE8F883002BD4D11846BDE8F88300BF938BFF1F928BFF1FE496FF1F188BFF1F918BFF1FF8B500263546144C144F23781C2B18D923781C2B0AD923788B
:403B00001C2B03D8002DF4D1002EF2D1BDE8F840FFF794BCFFF7A2FF06460028EFD00A49BA7B1023FFF7A4FCE9E7FFF7FDFE05460028E1D00549BA780023FFF799FCDBE76D
:403B40008294FF1F0C8BFF1F1C8BFF1F108BFF1F037803F00F03012B31D9244A042B70B50546D65C1FD0052B15D0062B13D0072B28D0083B062B13D81D4B4278197D8A42C4
:403B80001ED01A750124285D0134E4B202F05CF9A642F8D270BD174A137803F0FE031370134B0022EDE74378124AF02BF4D183787E2BF1D1137843F001031370F0E7704706
:403BC0000224E0E70B4B1A78D207E9D51A78417802F0FE0206291A70E2D18278012ADFD11A7842F002021A70DAE700BF10A500000C8BFF1F8394FF1FF8B51A4C2078FEF7CA
:403C00003BFB012800D0F8BD2078FEF73FFB2378C2B215491846FEF7A1FBC6B2032EF2D9114D00242F4609E0102814D0611C04342944E4B2FCF7C6FDA642E4D9285D00284D
:403C4000E1D010F0F000EFD13819FFF7B3FE385D00F0F000EAE73819FFF77AFF385D00F0F000E3E78494FF1F6094FF1F70B4064B064E1D6806490123E024064A336028642A
:403C80000C7070BC1360704708ED00E080E100E000E400E000E100E07F200346084910B4084A802408704C70013BDBB202F80839002BF9D1044A13705DF8044B704700BF8C
:403CC0000482FF1FF87B004000780040172817D869B90C4900010B46425C034402F0DF0242541A78002042F001021A707047054900010B46425C034442F020024254F0E702
:403D00000120704710700040172810D810B4094A03011A441179074C41F0040111711A5D002042F001021A555DF8044B70470120704700BF1070004017280BD8064A000156
:403D4000835C01F0070103F0F10343EA4101815400207047012070471070004041F6FF73994208BF4FF400519A4208BF4FF40052172808D8C00000F1804303F5EC439980E7
:403D80000020DA8070470120704700BF172805D8034B00010344597200207047012070471070004070B417289DF80C609DF8105018D8C00001F07F0103F00F0300F180441B
:403DC00041EAC21143EA061304F5EC4405F00F050022C9B2DBB221706370A570E270104670BC7047012070BC704700BF10B501F077FE0B4B5A78182A04D8FF2401F074FE65
:403E0000204610BD1C78013AE10001F1804101F5F04109785A70197001F066FE204610BD0482FF1F10F0800F11D130B411F470450AD1C40004F1804404F5F0442180A2707E
:403E4000E370284630BC7047012030BC70470120704700BF030608D4C00000F1804303F5F04399800020DA8070470120704700BF2F4B1B785A070AD12E4B1B78DB0706D50C
:403E80002D4901230A7802F0FD020A7006E0284B1B7803F00703012B09D0002308283ED8DFE800F037312B251F19133D0B00234B1B7813F00103E3D1F0E7214A2149127830
:403EC000D2B20A70002B2CD170471F4B1D4A1B78DBB2137070471D4B1A4A1B78DBB2137070471B4B174A1B78DBB213707047194B144A1B78DBB213707047174B114A1B7807
:403F0000DBB213707047154B0E4A1B78DBB213707047134B0B4A1B78DBB21370704701BE7047054A137843F002031370704700BF93430040A543004009600040B5430040FB
:403F40000F010049A14600400D0100490C010049890100490B0100490A0100490901004908010049F8B5184A137843F00103137000B9F8BD1549164B0D7892F860711E78FC
:403F800005F004051820EDB2FFB2F6B2114C00F0CBFE012000F0B2FE10F0010010D12378DA07F6D52378DB07F3D525B9074A137803F0FB031370084A054B17701E70F8BDF4
:403FC0001020002DF7D1F1E72042004000430040824300402542004080430040024A137803F0FE0313707047204200401549164A0B7843F010030B70137843F010031370F3
:4040000000B9704770B5114B11F8A04C12F8306C1D7804F004040020E4B2F6B2EDB200F083FE012000F06AFEC307FAD524B9084A137803F0FB031370064A044B16701D7003
:4040400070BD00BFA0430040B04300408243004000430040804300400549064A0B7803F0EF030B70137803F0EF031370704700BFA0430040B043004070B54A4B08281C78B5
:40408000064604F007041AD00546062C00F28880DFE804F02C052E1030042A000524AC4209D9082E78D8DFE806F027367161695159773E0000243046FFF7DAFEF1E7032531
:4040C000062C6DD801A353F824F000BFED400000B7400000F1400000B5400000F54000009D400000E94000000624D8E70224D6E70324D4E70424D2E72A4A137803F0B803C6
:4041000043F003031370274AA542137803F0EF03137016D370BD234A137803F0B80343F001031370EFE71F4A137803F0B80343F0420313701B4AA542137843F010031370EF
:40414000E8D23046BDE87040FFF792BE154A137803F0B80343F005031370D4E7114A137803F0B80343F006031370CCE70D4A137803F0B80343F002031370C4E7094A137889
:4041800003F0B80343F004031370BCE7054A137803F0B8031370B6E701BE082ECAD0B2E701BE7CE700420040012816D00FD302280BD14FF040210B780E4A03F0BF030B70DB
:4041C000137843F020031370704701BE7047094A137803F0DF03137070474FF040210B78044A43F040030B70137843F020031370704700BF00420040024A137843F0100366
:404200001370704700420040024A137803F0EF031370704700420040044A00F00300137803F0FC0318431070704700BF05400040014B1870704700BF04400040F8B50446F1
:4042400001F04EFC3A4A3B4B12781B78D2B2DBB24CB353EA02234FD1374A1378DBB2062B01D807211170354D354E2978354A002701F0F001297037701178334F41F08001D3
:404280005FFA84FE240A117087F800E006F80D4C15F8131C41F0010105F8131C117801F0BF0111701FE0244A1378DBB2062B20D9244A224D1178224E41F0400111702C784C
:4042C000002104F0F0042C70317014781E4F44F080041470397006F80D1C15F8132C42F0010205F8132C144A1370BDE8F84001F0FBBB07211170DBE7104A114D137800267D
:4043000003F0F0030F4913702E700B780E4EE7B243F08003240A0B70133A377005F80D4C137843F001031370BDE8F84001F0DCBB074000400640004004400040144000402E
:40434000104000400840004002400040024A137843F004031370704700430040F0B5264C83B08DF80600237843F00103237008B903B0F0BD214B2249224A18200F781678EA
:404380001D7800F0D1FC9DF80630FFB2F6B2EDB213B3042322788DF807309DF8073073B1012000F0ABFCC207FAD59DF80730013BDBB28DF807309DF80730002BF0D12378C1
:4043C000190617D59DF80630013BDBB28DF806309DF80630002BDCD110207B0704D4084A137803F0FB031370064A044B16701D7003B0F0BD0020F0E7104200408243004045
:404400000043004080430040024A137803F0FE03137070471042004001BE7047B0F5004F70B506461AD904460D4DA4F50044686801F04EFBB4F5004FF7D8A6F50043013B25
:4044400023F4FF4323F07F03A6F50046F61AA86800FB06F0BDE8704001F03ABB004DF6E70C82FF1F024B1B7803FB00F001F030BB0C82FF1F064B1F281A6800D901BE00F053
:404480001F0000F1100352F8230042F82310704708ED00E0072900D901BE1F2800D901BE00F01F0000F16040490100F56440C9B2017070472DE9F04FDFF8A8A15648DFF8BC
:4044C000A891DFF8A881DFF8A8C19AF80010534B99F800B0043098F800209CF8006010F8045C10F8024C007859724D494D4F097883F80AB097F800B0DA724B4ADFF874E1B5
:4045000012781E73494E083F36785D73484D2D789C73484C2478D8734748007819744749097883F811B097F818B09A74444A1278DE741D755C759875D97583F818B05A76BF
:40454000404A414E92F800B00232127883F81AB097F81EB0DA763D4A3D4D127883F81CB09EF800B05A773B4A3B4C127883F81EB096F800B0DA772A7883F820B094F800B0A8
:40458000364883F821203649027883F822B091F800B083F82320002283F824B08AF80020DFF8D4B089F8002088F800208CF8002007F8042C07F8022C3A70BA713A727A7268
:4045C000BA723A73BA733A74BA753A767A76BA763A77BA7787F820208EF8002087F8282032702A70227002700A709BF8002002F0080202F0FF011AB983F82E10BDE8F08FEF
:404600009BF80020012102F0F7028BF8002083F82E10BDE8F08F00BF065A0040248BFF1F105A0040125A0040135A0040145A0040165A0040185A00401A5A0040205A00408D
:40464000235A0040245A0040335A00402A5A0040345A0040325A0040365A0040385A00403A5A0040005A0040025A0040035A0040045A0040305A0040224300402DE9F04FE9
:404680003F4B404D93F809C093F80AE03E48DE7A93F80CB093F80DA093F80E9093F80F803A4A85F800C093F810C0394C80F800E093F811E0374916709E7C374F84F800B033
:4046C00093F813B081F800A093F814A087F8009093F8159085F80A8093F8168080F80EC093F817C082F80FE093F818E0E6735C7E2A4E81F80EB087F80EA085F8189080F86D
:40470000188082F81DC086F800E04C7793F81AE0DE7E1C7F597F93F81EB093F81F9093F820C087F81CE093F8217085F8266093F8225080F8264093F8230082F8271093F8B8
:40474000242093F82E30DFF868A0DFF86880DFF868E0134E134C1449012B8AF800B088F800908EF800C03770257008708AF80A2004D10E4A137843F008031370BDE8F08F81
:40478000248BFF1F005A0040025A0040035A0040045A0040065A0040085A0040225A0040345A0040365A0040385A004022430040305A0040325A0040335A004038B574499B
:4047C000744B0A781D780878002400F0F000087018781C7091F85F346F4C02F00F0203F0C003372084F8302084F8353084F8315001F0A8FB694B19781A781B7802F0400208
:4048000001F0070103F0100384F8342084F8331003F0FF02002B75D0012384F83930604B1B7803F00303012B84F8323000F095805C4B1B7813F0010340F0898084F83E30D3
:404840000220FFF719FC584B1B7803F0100303F0FF02002B72D0012384F836304F4B1B7803F0200303F0FF02002B48D04FF040231B78002013F0400F0CBF0223012384F8B7
:404880003730FFF791FC4FF04022137803F0300384F838301BB1137803F0CF0313703F4B1B78DB0647D4414B1B78DBB284F83A30002B3CD194F83230002B34D13C4A3D4B2A
:4048C00012781B7812021343A38743BB334B3A4A1B7803F00703D05C01F034FB374B1B7813F0010315D184F83F30354B1B7803F0040303F0FF0243B984F8402038BD84F8F4
:404900003720C0E784F8392089E7012384F8403038BD012384F83F30FFF776FDE5E70020FFF78CFCD2E70020FFF776FCC6E70020FFF77EFCBEE7FFF767FCB4E7104684F864
:404940003620FFF753FB0620FFF78CFD86E7012384F83E30FFF742FB72E74FF040231B7803F00303012B0AD005D3022B0BD10320FFF752FC5CE70020FFF74EFC58E7022071
:40498000FFF74AFC54E70020FFF746FD50E700BFA1430040A2430040248BFF1F004200400540004020420040A043004004400040074000400640004020A500001042004067
:4049C0000B4000402DE9F043814E824D334653F8080F95F8402099889B7983B0012A0090ADF804108DF8063000F0A18095F83F30012B00F0B180372001F0A4FA95F83200E7
:404A0000744C831E012B7ED9724B95F8342093F8333012F0400F02AA134413F8080C02D0032800F0D180FFF727FB95F834306A4A13F0400F137814BF43F0400303F0BF03BD
:404A4000137095F83630012B44D095F83700FFF7ABFB95F83930012B66D04FF040210A7895F8383002F030029A4204D00A7802F0CF0213430B7095F83E30012B00F08A80A6
:404A800095F83200534C01282FD995F836301BB9524B1B78DB0644D4514A524B12781B78A88F43EA0223984201D0FFF7C7FB4E4995F835200B7895F8306095F831404B488C
:404AC0004B4D03F03F0313430B702E70047003B0BDE8F083414B1B7803F0100303F0FF00002BB2D1FFF782FAAFE7424A94F83A3012789A4204D01846FFF79AFB94F832000B
:404B0000FFF78AFBC1E73B4A94F83A3012789A4204D01846FFF78CFB94F83200FFF77CFB72E7FFF799FAB7E7FFF766FB95E72A4B1B7803F00703F05C00EB8000C0EB0010CD
:404B400000F0C6FF2C4A137843F00403137095F83F30012B7FF44FAF0020FFF7FFFB274BDFF8749098461B780524C82799F80030013C03F00703F05CA4B207FB00F000F0C4
:404B8000A7FF98F8003013F0800F3FF434AF002CECD130E70020FFF7E5F95020FFF762FC174BAB241E461B780120FFF75BFC3378013C13F0010FA4B203D03378DA073FF5B5
:404BC0005FAF002CF0D15BE70820FFF755FA38E720A50000248BFF1F00420040A0430040074000400640004000480040A2430040A1430040044000400B4000401042004036
:404C000025420040F8B50C46064600F069FF344B1B7803F0080303F0FF01002B53D1314A0546137803F01F031370002E53D1FFF741FC2D4AC4F307102C4B167804F00F011C
:404C400010701878C4F3003419706FF4CC710B44917894701A78264C607150072671A17135D019781A7801F0070102F0F802002084F82C101A7084F82D00194A137803F0E6
:404C8000F80343F003031370137800BF00BF30BF94F82D30164A012B07D0164992F82C200B7803F0F80313430B70FFF7E7FC284694F804E06679A2790B4F0C490E4B87F84A
:404CC00000E00E701A70BDE8F84000F00DBF012384F82D30D1E70846FFF79EFBA7E700BF93430040834600409843004099430040248BFF1F004200409A43004038B505465A
:404D000000F0EEFE064A074B1C7892F842301C4324EA050582F8425000F0E6FE204638BD248BFF1F9043004038B5124C0546237803F0FD032370FFF709FB2378DB070DD5C3
:404D40000D4A1378AB4213D0237803F0FE0323701570237843F00103237038BD064B1A78AA42044A18BF1D70137843F00103137038BD00BF824300408043004070B4074B88
:404D8000074E1D6807494FF48063E024064A3360A8660C7070BC1360704700BF08ED00E080E100E00AE400E000E100E070B4064B064E1D6806490223E024064A3360686403
:404DC0000C7070BC1360704708ED00E080E100E001E400E000E100E02DE9F8431648174BDFF87CE01649174D174E00244FF400424FF0080C4FF002094FF08108262780F806
:404E0000009081F800800F208EF800C0072137702C701A60FFF73EFB0C490F20FFF72AFB0B480C490C4A0D4B102505700C7014701C70BDE8F88300BFD649004080E100E0B6
:404E4000C8490040DC490040DB490040B94E0000A894FF1FB694FF1FBD94FF1FB594FF1FCA49004008B500F03BFE0749074A0B7843F004030B70137843F004031370BDE87A
:404E8000084000F031BE00BFA5430040B543004010B5074C23781BB9FFF79EFF01232370FFF7E0FF034B4FF400421A6010BD00BF688BFF1F00E100E0F8B5854B854D1C7878
:404EC0002B78E4B2590640D5E2072AD52B78453B052B7ED8DFE803F003657D7D033F04F00A03082B04F0DF0400F08B800A2B70D1794A7A49137843F0A00313700B789F0707
:404F000040F189802B78117813F0080F0CBF0A23092373480B4360264FF4004113702E700160A20616D52B786B4913F0080F0B7814BF012002206B4A03430B701378102169
:404F400003F0EF0313702970F8BD2B78DB065CBF10232B70F8BD644A64496548137809780068DBB2C9B2C154137862490133DBB2137012780B789A423FD3584B1B7803F022
:404F8000020303F0FF02002B74D0534A54491378602643F009034FF4004013702E700860BFE7A60719D4544B544A19781278914250D253491A780968D2B28A5C4B4E444937
:404FC000D2B20420327008701A780132D2B21A70A7E70020FFF720FAA3E7404B1B78990725D53D4A3E491378602643F09A034FF4004013702E70086093E7354B10221A706B
:405000008FE72B78334A452B3CD0314900204A230870137085E7334A3A4E13782C4943F010031027042013703770087079E72D49344F0B78264843F01003274A4FF0100E4A
:4050400004260B7087F800E00670137843F09003137066E7214B1B789807DCD51E4A20491378602643F00A034FF4004013702E70086056E71B4916480B7843F010030B70D5
:4050800002704EE71D4B1B7893B11D4BDFF85CC01B680F4F1B781848DBB24FF0040E012646218CF8003087F800E00670117038E70A4B1B789B07AED5074909480B7860278E
:4050C00043F00A034FF400460B701770066028E7D7490040A894FF1FB694FF1FB494FF1F80E100E0D6490040BD94FF1FD8490040B094FF1FAC94FF1FB594FF1FBC94FF1FE3
:40510000B894FF1FD949004059B12DE9F041244C2578102D07D02578602D0AD00220BDE8F081022070471F4D2D782D0731D41E4D08E01E4E1C4D4FF4004737602E7806F0ED
:40514000F7062E701A4EDFF880E01A4F4FF045084FF0000C84F800808EF800C03A7033702A784000144E154CC0B202F0FD02DB072A70316020700FD50A49114B1220042296
:4051800008701A700F4B4FF400421A600020BDE8F0810120BDE8F081024B01221A70F1E7A894FF1FD9490040B694FF1F80E200E0B494FF1FBC94FF1FB894FF1FD849004050
:4051C000D749004000E100E0B594FF1FF0B5030183B0DBB200F0F00043F00D0743F0090540F00D0640F0090401A90422002327208DF806708DF807508DF804608DF8054012
:40520000FFF782FF4FF4FA70FFF72CF903B0F0BD38B50546007838B10124FFF7D7FF285D0134E4B20028F8D138BD00BFF0B5030183B0DBB200F0F00043F00C0743F0080581
:4052400040F00C0640F0080401A90422002327208DF806708DF807508DF804608DF80540FFF752FF4FF4FA60FFF7FCF803B0F0BD032816D8DFE800F0110C0702A1F12C000A
:40528000C0B2FFF7D3BFA1F16C00C0B2FFF7CEBFA1F14000C0B2FFF7C9BF81F08000FFF7C5BF704730B500F0F00083B040F00C0540F0080401A90222002327208DF8045097
:4052C0008DF80540FFF720FF4FF4FA60FFF7CAF803B030BD08B51420FFF7A0F83820FFF7E1FF0520FFF79AF83820FFF7DBFF0520FFF794F83820FFF7D5FF0520FFF78EF8EE
:405300002820FFF7CFFF0520FFF788F82820FFF78DFF0520FFF782F80120FFF787FF0520FFF77CF80620FFF781FF0520FFF776F80C20FFF77BFFBDE808400520FFF76EB84C
:4053400010B5064C63781BB9FFF7C4FF012363700C20FFF76BFF0123237010BD698BFF1F10B5092884B043D92A4C0023A4FB0021C90801EB8102A0EB420288B204A930329E
:405380001944092803F1010301F8082CDBB2214AECD8A2FB0012D20802EB8202A0EB4202303204A9D2B219441C4601F8082C184613B92AE012F8082CE11A0DF1100E7144F8
:4053C00001F8102C7246013B13F0FF031A44F1D19DF80830421C04A90A440C446846002104F8103C02F8101CFFF712FF04B010BD084B0122A3FB0013DB0803EB8303A0EB1B
:4054000043033033DBB20024E5E79DF808300122E1E700BFCDCCCCCCF8B500F061FB214A04461378204943F0020313700B781F4843F002030B70037801F5AA5143F0010301
:405440000370D379103143F00103D3710A7800F5AB50174B0C30182542F003020A7005701A78144E42F040021A701A78A0F5975002F0FC021838C82702251A703770057042
:4054800091F824320A2043F0080381F82432FEF7E9FF094B042220461A60BDE8F84000F023BB00BFAB430040BB430040A24300400D5900400859004080E200E00A2838B5FC
:4054C000044630D00C2826D0082818D00020FEF7A3FFC223174A0A2C137017D00C2C24D0082C0FD00020FEF797FF00231A46124C124813490025258002600B8038BD0D4BFE
:4055000042221A70802340F2E242F0E74FF4007341F28832EBE7074BC2221A704FF4006344F62062E3E78223D4E744F620624FF40063DCE70A590040C094FF1FC494FF1F3C
:40554000C294FF1F08B5102000F090F902200721FEF7A0FF07490220FEF78CFF064A0C20137843F006031370FFF7A8FF034B00221A8008BDED55000009590040C894FF1FF1
:4055800010B5054C23781BB9FFF7DCFF01232370BDE81040FFF740BF6B8BFF1F024A137843F00103137070470859004038B5084A00E050B91378064D13F00104F9D02046BA
:4055C000FEF750FF2B78204638BD0024204638BD09590040034A044B1B881088181A00B2704700BFC294FF1FA25B0040704700BF08B5104841F64B5100F0CEFC41F64B517B
:405600000D4800F0C9FC00F06BFA0C4A137843F01003137000F068FA094A1378190704D508490B6813781B07FBD4074B01221A7008BD00BF246500400465004096650040C8
:4056400066650040446500408665004010B5064C23781BB9FFF7CCFF01232370034A137843F08003137010BD6C8BFF1F7565004010B501214FF4804241F6FF73022000F059
:40568000A3F941F6FF72084C1346207001210A2000F0BCF96070054800F0D6F9BDE81040032000F0D7B900BF708BFF1FE9570000F8B52A4D2A4C2878FEF726FB6878FEF7C7
:4056C00023FB2078FF2845D0264E062302460A21B6B2FEF7A7FB324645F6A0312078FEF7B9FB28782178FEF751FB60781C4FFF282CD0072302460A21FEF794FB1A4A314608
:4057000092B26078FEF7A6FB61786878FEF73EFB01212878FEF7DAFA01216878FEF7D6FA00F0DEF9114A137843F02003137000F0DBF90F4B0F491A78082042F001021A7009
:405740001A7842F002021A700860F8BDFEF74EFB7870CEE7FEF74AFB2070B5E7708BFF1F1C82FF1F748BFF1FCC94FF1F9C6400407464004080E200E010B5074C23691BB9F7
:40578000FFF776FF01232361FFF792FF00F0F6F8024B1B7810BD00BF708BFF1F6D640040024A137843F00403137070477464004000F0FEB8044900E020B90B7803F0FF0255
:4057C000002BF9D0104670476D640040044A054BC0F1040033F810301088181A00B27047D894FF1FCC94FF1F704700BF08B50F480F4900F0D1FB0E490E4800F0CDFB00F0AB
:405800006FF90D4A137843F01003137000F06CF90A4A1378190704D509490B6813781B07FBD4084B01221A7008BD00BF246400403F4B4C00046400409264004062640040E1
:40584000446400408264004010B5064C23781BB9FFF7CCFF01232370034A137843F08003137010BD848BFF1F73640040034A00F0F800137818431070704700BF82400040E7
:40588000F8B500F02DF9044619481A4A03781A4943F001030370137800F5AA5043F0010313700A78154B1B30182542F003020A7005701A78124E42F040021A701A78A0F5B3
:4058C0009750123802F0FC02CE2702251A703770057091F824320A2043F0080381F82432FEF7C0FD2046BDE8F84000F0FDB800BFAB430040BB4300400359004005590040B0
:40590000005900400A2810B504462AD00C2822D0082817D00020FEF77FFDC223134A0A2C137015D00C2C1ED0082C0ED00020FEF773FD00220E4C0F480F49002323800260D5
:405940000B8010BD094B42221A704FF40072F1E74FF40062EEE7054BC2221A704FF40052E8E78223DAE74FF40052E3E702590040DA94FF1FDC94FF1FD894FF1F38B5094C1E
:4059800025785DB9084A0820137843F006031370FFF7B8FF054A012315802370BDE83840FFF76EBF858BFF1F01590040E094FF1F044B1A7802F0FE021A701A7842F0040267
:4059C0001A707047005900402DE9F0418E4690461F4682B00C4C0125002672462B4601460096284601962570FEF7DCF941463A462078FEF7B3F920780221FEF79DF9207819
:405A000002B0BDE8F08100BF1E82FF1FF0B58E4617461E4683B000250A4C72462B4601460095019528462570FEF7BCF9394632462078FEF793F920780221FEF77DF9207823
:405A400003B0F0BD1F82FF1F014B1B68D864704708ED00E04001024BC0B21870704700BF03E400E008B500F03BF8044A137843F010031370BDE8084000F036B89964004021
:405A8000094B1A786AB9F0B40848094E094C0627472501213770257002701970F0BCFFF7E1BFFFF7DFBF00BF868BFF1F896400402A6400403A640040034A13785B07FCD4A4
:405AC000024B1870704700BF69640040496400400230800803D000BF01380046FCD17047EFF3108072B6704780F31088704700BF38B510490420FEF7BDFC04200721FEF7E7
:405B0000C9FC0D4B0D492022712008701A700C490520FEF7AFFC05200721FEF7BBFC094C09490A4B072548200222257008701A7038BD00BFAD5F00008764004086640040AA
:405B40002D6000002F6400403F6400408465004038B5FFF7C5FF0B490B4C0B78102543F020030B702378094A2B432370156091F8FE3020242B4381F8FE301460BDE83840D9
:405B8000FFF7B2BF966400409764004000E100E010B5054C23781BB9FFF7AAFF01232370BDE81040FFF7D4BF888BFF1F38B5FFF797FF0C490C4C0B780C4A03F0DF030B706F
:405BC0002378102503F0EF032370156091F8FE30202403F0EF0381F8FE301460BDE83840FFF782BF966400409764004080E100E0014B10221A60704700E100E0014B1022F5
:405C00001A60704780E100E010B5FFF769FF0B4B0B4C1A7842F001021A701A7802F0FE021A70FFF761FF074B00221021064821605A709A70DA701A71016010BD97650040E6
:405C400080E100E0888BFF1F00E100E030B4124DA9796B79DBB2CA1A8B4203F1FF348CBF0A1BFE3AB2FA82F25209002AF1D18B420AD0FF29094A15BF4B1C0021DBB2012305
:405C80005054AB7130BC7047054B1B785B07F0D4044B187030BC7047888BFF1FE494FF1F646500404B65004010B5FFF719FF0A4B0A4C1A7842F001021A701A7802F0FE02EB
:405CC0001A70FFF711FF064A202300210548236091715171036010BD9B65004080E100E0888BFF1F00E100E038B510490620FEF7C1FB06200721FEF7CDFB0D4B0D49202211
:405D0000712008701A700C490720FEF7B3FB07200146FEF7BFFB094C09490A4B072530200222257008701A7038BD00BF956000008564004081640040156100002965004026
:405D4000396500408A65004038B5FFF7C9FE0C490C4C0B780C4A43F020030B702378402543F010032370156091F80931802443F0100381F809311460BDE83840FFF7B4BE6E
:405D8000916400409564004000E100E010B5054C23781BB9FFF7A8FF01232370BDE81040FFF7D2BF908BFF1F38B5FFF799FE0C490C4C0B780C4A03F0DF030B7023784025D6
:405DC00003F0EF032370156091F80931802403F0EF0381F809311460BDE83840FFF784BE916400409564004080E100E0014B40221A60704700E100E0014B40221A607047C0
:405E000080E100E010B5FFF76BFE0B4B0B4C1A7842F001021A701A7802F0FE021A70FFF763FE074B00224021064821605A709A70DA701A71016010BD9164004080E100E0A9
:405E4000908BFF1F00E100E030B4124DA9796B79DBB2CA1A8B4203F1FF348CBF0A1BFE3AB2FA82F25209002AF1D18B420AD0FF29094A15BF4B1C0021DBB201235054AB717C
:405E800030BC7047054B1B785B07F0D4044B187030BC7047908BFF1FE497FF1F6A6500404A65004010B5FFF71BFE0A4B0A4C1A7842F001021A701A7802F0FE021A70FFF718
:405EC00013FE064A802300210548236091715171036010BD9A65004080E100E0908BFF1F00E100E0134B1B7803F00303012B1CD0022B07D00023104A1268D35C012B12D005
:405F0000002070470D4B0E4A1B7803F07F0303EB430302EB83030833074A9B781268DBB2D35C012BECD100F029B9044B1B78DBB2E1E700BF00600040CC93FF1F04600040E4
:405F4000F493FF1F10B50446FFF7CAFD114A102C137815D9212C0AD9322C94BF43F0C00303F03F031370BDE81040FFF7BDBD03F03F0343F080031370BDE81040FFF7B4BDE2
:405F800003F03F0343F040031370BDE81040FFF7ABBD00BF00480040CAB2C1F30723C1F30741027043708170704700BF18490B789A062CD5174A2DE9F0439046164E17486F
:405FC000174D184CDFF860E001274FF0000C137894F80090DBB25FFA89F906F8039003780BB18EF8007013780133DBB213701378FF2B08BF88F800C092F800902B7899455C
:4060000008BF07700B789B06E1D4BDE8F0837047676400408A8BFF1FE495FF1F8B8BFF1F898BFF1F476500408C8BFF1F144A154813780178994221D0F0B513490B7803F01C
:40604000040303F0FF06C3B91746104D104C02E00B785B0711D41378FF2B08BF3E701378DBB2EB5CDBB22370137890F800E00133DBB2137013789E45EAD1F0BD704700BFB7
:406080008D8BFF1F8E8BFF1F64650040E494FF1F4B65004018490B789A062CD5174A2DE9F0439046164E1748174D184CDFF860E001274FF0000C137894F80090DBB25FFA3D
:4060C00089F906F8039003780BB18EF8007013780133DBB213701378FF2B08BF88F800C092F800902B78994508BF07700B789B06E1D4BDE8F083704765640040928BFF1F10
:40610000E496FF1F938BFF1F918BFF1F41640040948BFF1F144A154813780178994221D0F0B513490B7803F0040303F0FF06C3B91746104D104C02E00B785B0711D4137865
:40614000FF2B08BF3E701378DBB2EB5CDBB22370137890F800E00133DBB2137013789E45EAD1F0BD704700BF958BFF1F968BFF1F6A650040E497FF1F4A6500400A4B1B7882
:40618000DBB203F00303022B0AD0012B01D00020704703F1804303F5C0431B7800207047024B00201B787047006000400160004030B5214A21F00043934287B01BDD1F4A59
:4061C000934205DD02460B4602F0A2FC07B030BD02AA01F001FA00F0030001281AD002280FD008B3DDE9020101230093DDE9042302F0F6F9EAE70022002301F0C9FC07B0E8
:4062000030BDDDE90201DDE9042301F0C1FC01F10041DBE70090DDE90423DDE9020102F0DFF901F10041D1E7DDE90201DDE9042301F0AEFCCAE700BFFB21E93FFFFFEF7FAC
:40624000F8B5C1F30A56A6F2FF35132D0A460B460446864611DC002D2DDB0F461F492941114224D04FF400232B413B4423EA01030022194614462046F8BD332D05DDB5F5C6
:40628000806F1ED011462046F8BDA6F213414FF0FF30C8402042F5D0C6F5866602360121B140091928BF013321EA0002E1E70028D8D11146E7E7013501F0004307D00022A9
:4062C000D7E702460B4602F025FC0446D3E743F07F5343F440130022CBE700BFFFFF0F0030B5224A21F00043934287B01BDD204A934205DD02460B4602F00AFC07B030BD02
:4063000002AA01F069F900F0030001281ED0022811D010B3DDE90201DDE9042301F038FC01F10041EAE7002300930022002302F057F907B030BD01230093DDE90201DDE980
:40634000042302F04DF901F10041D7E7DDE90201DDE9042301F01CFCD0E70124DDE90201DDE90423009402F03BF9C7E7FB21E93FFFFFEF7F2DE9F0438BB006460F4600F04F
:40638000F3F9DFF8E880044698F900300D4601330BD03046394602F073FA30B1304639460022002302F0F8FF20B1204629460BB0BDE8F0832A4B98F800400890CDE9026778
:4063C000CDE9046701939CB9264D4FF060443046394600220023CDE9064502F0B5FF002835D101230093684602F076FAA8B910E0DFF87C904FF000083046394600220023B2
:40640000CDE9068902F0A0FF98B90123022C0093E9D103F037FB21230360134802F05EFACDE90601089BABB9DDE906010BB0BDE8F08302239C42009304D0684602F04CFA71
:406440000028EFD103F01EFB22230360EAE702230093F2E703F016FB089B0360E4E700BF1CA70000FFFFEFC76CA400002082FF1F0000F0FF2DE9F04F8BB01F4680468946CA
:40648000164600F059FBDFF8D8A204469AF900300D46013304D03046394602F0F1F920B9204629460BB0BDE8F08F4046494602F0E7F9834660BB304639460022002302F02E
:4064C00043FF0028ECD09AF900309E4C01229E4900208DE814005A1CCDF820B0CDE90289CDE90467CDE906010DD0022B0BD0684602F0F2F9002800F09380089B1BB103F0EF
:40650000C1FA089B0360DDE906010BB0BDE8F08F404649460022002302F016FFF8B1304639460022002302F00FFF834600284ED084489AF900300121002200240025CDE9C9
:406540000289CDE90467CDE90645019000910892002BCCD07C4B0022CDE90623D3E72046294602F0F9F8834600285ED0204629460022002302F0E8FE002891D04046494602
:4065800002F0EAF800288BD03046394602F0E4F8002885D09AF900306A480421002200240025022BCDE90289CDE90467CDE9064501900091089200F08880684602F08CF9D6
:4065C000002800F08280089B002B9CD097E73046394602F0C1F800283FF462AF304639460022002302F0BAFE00283FF459AF55499AF800300122CDF820B0CDE90289CDE967
:40660000046701910092002B3CD050490020022BCDE9060130D103F035FA21230360D2E703F030FA2123036067E74046494602F093F800289AD03046394602F08DF80028A4
:4066400094D02046294602F01BF900BB3D4A9AF8004001230890CDE90289CDE90467019200937CB10020002102460B4602F02EFD022CCDE90601CED0684602F02DF90028E8
:40668000A1D1C8E700220023CDE90623F4E72D499AF900300322CDF820B0CDE90289CDE9046701910092ABB9294D4FF060444046494600220023CDE9064502F04FFE50BBDF
:4066C0009AF90030022B7FF478AF03F0DBF92223036078E71F4D00244046494600220023CDE9064502F03AFE0028E9D000221A4B3046394602F0C0FB04460D4602F0F4F8A8
:4067000022462B4602F020FE0028D9D10F4B0022CDE90623D4E700220F4B3046394602F0ABFB04460D4602F0DFF822462B4602F00BFE0028C4D1094B4FF06042CDE9062374
:40674000BEE700BF20A700000000F03F0000F0FFFFFFEF470000F07F0000E03FFFFFEFC72082FF1F000000002DE9F04FB1F5801F85B006460F460B465ADA024621F0004408
:40678000224300F0F5800029C0F271810022DE4B02F072FB0B460F46DC4906468B426FF0350249DCC3F3130505F5152404F6647404F4801E8EF07F5181F440111B15A3F2B7
:4067C000FF3341EA05079C1830460022D04B394604EB1E5402F09CF9AB1CC3F31303022B82468B464FF000022FDC002302F0ACFD002800F0C680002C00F04281204602F06A
:40680000D5FAADA3D3E9002306460F4602F034FBABA3D3E9002304460D463046394602F02BFB02460B462046294602F073F909E0B64900228B42B5DD3046394632463B469E
:4068400002F068F905B0BDE8F08F4FF0804302F061F902460B465046594602F037FC06460F462046CDE9006702F0A0FA3246CDE902013B463046394602F0FEFA02460B46D1
:406880008046894602F0F8FA8FA3D3E9002306460F4602F0F1FA8EA3D3E9002302F03AF932463B4602F0E8FA8BA3D3E9002302F031F932463B4602F0DFFA89A3D3E90023D6
:4068C00002F028F942464B4602F0D6FA86A3D3E90023804689463046394602F0CDFA84A3D3E9002302F016F932463B4602F0C4FA81A3D3E9002302F00DF932463B4602F0C9
:40690000BBFA0B4602464946404602F003F9A5F5C223C5F5D725A3F27A4351351D43002D06460F4653DD00227A4B5046594602F0A3FA52465B4602F09FFA80468946002C6B
:4069400060D132463B4602F0E5F8DDE9002302F093FA02460B464046494602F0D9F802460B465046594602F0D3F805B0BDE8F08F002200230020684902F0A8FB05B0BDE8DC
:40698000F08F52465B465046594602F075FA5CA3D3E9002306460F465046594602F06CFA02460B4600205B4902F0B2F802460B463046394602F060FA06460F46002C62D1AA
:4069C0005046594632463B4602F0A2F83AE7002C00F0A48038A3D3E90023DDE902894046494602F049FA32463B4604460D465046594602F08DF8DDE9002302F03DFA064687
:406A00000F464CE02CA3D3E90023DDE9020102F033FA32463B4604460D464046494602F079F8DDE9002302F027FA25A3D3E9002306460F46DDE9020102F01EFA02460B4681
:406A40003046394602F066F802460B464046494602F05EF852465B4602F05AF802460B462046294602F054F805B0BDE8F08F02460B4602F04DF80022002302F027FBE1E6E9
:406A800000200021DEE6204602F090F90AA3D3E900238046894602F0EFF904460D4608A3D3E900234046494602F0E6F902460B4630463946CCE700BF0000E0FE422EE63F75
:406AC000763C7935EF39EA3D44523EDF12F1C23FDE03CB966446C73F599322942449D23F935555555555E53F9FC678D0099AC33FAF788E1DC571CC3F04FA97999999D93FE1
:406B0000555555555555D53F00005043FFFFEF7F0000F03F0000E03F000050C302460B465046594601F0F4FFDDE9002302F0A4F915E700BFAFF300802DE9F04F144623F01A
:406B40000047024657EA04000E468FB01D469C46214634D06E4B26F0004A9A459346B14626DC24D09F4223DC694B9F4200F08F80B9F1000FC0F28F804FF0000879BB644B28
:406B80009F4200F0A580634B9F4267D0BCF1804F00F0E283604B9C4521D1B9F1000F1EDB104631460FB0BDE8F04F00F029BF62B10AF1404000F5801050EA0B0007D1034657
:406BC000544918460FB0BDE8F08F5745CCDD53480FB0BDE8F04F01F081BE4FF0000810463146CDF808C0009201F0B2FD009ADDF808C0BBF1000F20D04FEAD97909F1FF3992
:406C000058EA09037AD0464B9F4240F38F8003F104739F4240F31084424B9A4540F39283BCF1000F40F3928337A1D1E900010B46024602F021F90346C3E7BAF1000F04D084
:406C4000344B29F0404E9E45D6D1BCF1000FC0F2B683B9F1000F08DB0346B2E7BCF1000FC0F2528413463146ABE70AF1404A0AF5801A58EA0A0340F05E8402460B4601F090
:406C800047FF0B46024602F021FA034699E700293FF46EAF8CE7244B9F422CDCA3F154739F427FF769AF40F213403B15834240F34B84C3F58663033321FA03F000FA03F3A0
:406CC0008B427FF459AF00F00100C0F1020855E70AF1404303F5801353EA0B0300F03983104B9A4540F36483BCF1000FC0F22E832346294665E74FF002083FE71046314691
:406D00003346BCE7AFF300809C7500883CE4377E0000F07F0000F03F0000E03F6CA400000000E041FFFFEF3FFFFF3F43BAF5801F4FF0000205DACA4B02F09EF88A466FF0D3
:406D400034024FEA2A53C74ECAF3130AA3F2FF334AF07F571344B2450C9347F4401740F3D083C14B9A4540F307840026B4460C9BA7F5801701330C933946BC4B4FEACC0C4F
:406D80006344D3E900AB52465B46CDF834C0CDE9060101F0BDFE52465B46CDE90801DDE9060101F0B7FE02460B460020B04902F08DF902460B46DDE90801CDE90A2302F098
:406DC0005BF802460B46CDE90223CDE904237B1043F0005303F5002399190020002306460F460293DDE902231046194632463B46CDE9000102F040F802460B46DDE90801B6
:406E000001F086FE5246CDE908015B463046394601F07EFE02460B46DDE9060101F078FE02460B46DDE9000102F026F802460B46DDE9080101F06CFEDDE90A2302F01CF88A
:406E4000DDE90423CDE906011046194602F014F802460B4606460F4602F00EF86EA3D3E9002382468B463046394602F005F86CA3D3E9002301F04EFE32463B4601F0FCFF06
:406E800069A3D3E9002301F045FE32463B4601F0F3FF67A3D3E9002301F03CFE32463B4601F0EAFF64A3D3E9002301F033FE32463B4601F0E1FF62A3D3E9002301F02AFE21
:406EC00002460B465046594601F0D6FFDDE9042306460F46DDE9000101F01CFEDDE9062301F0CAFF32463B4601F014FEDDE9006782468B4632463B463046394601F0BCFF99
:406F000000225C4BCDE9080101F004FE52465B4601F000FE02980F460646DDE9000132463B4601F0A9FF32463B46CDE90001DDE9060101F0A1FF0022CDE906014D4B30461F
:406F4000394601F0E5FDDDE9082301F0E1FD02460B465046594601F0DBFDDDE9042301F08BFF02460B46DDE9060101F0D3FD82468B46DDE9000152465B4601F0CBFD32A3B2
:406F8000D3E9002302980F46064601F075FF30A3D3E90023CDE904013046394601F06CFFDDE90023CDE906013046394601F0B0FD02460B465046594601F0AAFD26A3D3E970
:406FC000002301F059FF02460B46DDE9060101F0A1FDDDF834C0284BCDF818C06344D3E9002301F097FDCDE900010C9801F0DEFE06460F46DDE90401204BDDF818C09C44C0
:40700000DDE90023DCE900AB01F084FD52465B4636E000BFAFF30080EF4E454A287ECA3F65DBC9934A86CD3F01411DA96074D13F4D268F515555D53FFFAB6FDBB66DDB3F34
:40704000033333333333E33F000000E009C7EE3FF5015B14E02F3EBEFD033ADC09C7EE3F000040438E98030079B60B0048A700000000F03F0000084038A7000028A7000092
:40708000CDE906AB01F046FD32463B4601F042FD029832463B4682468B4601F039FDDDE9062301F035FDDDE9042301F031FD02460B46DDE9000101F02BFDCDE9020108F170
:4070C000FF3858EA09030CBFD54BD64B0022CDE904230023CDE900450093DDE90067204632463B46294601F013FD52465B4601F0C3FEDDE90223804689462046294601F022
:40710000BBFE02460B464046494601F003FD04460D465246304639465B46CDE9024501F0ABFE06460F4620463B462946324601F0F1FCBD4B824699428946884640F3138139
:4071400001F13F4303F5E003034340F0E581A0A3D3E90023DDE9020101F0DCFC324604460D463B465046494601F0D2FC02460B462046294602F010F9002840F0CD814C4615
:407180002015A0F2FE304FF4801101414144C1F30A50A64CA0F2FF35C1F3130BC0F5826003302C414BF4801B21EA040300224BFA00FB3946304601F0ABFC06460F46DDE92E
:4071C00002018BEAE87B0BEBD87B32463B464FEA0B5A01F09FFC80A3D3E90023002420460D4601F049FE3246804689463B462046294601F08DFC02460B46DDE9020101F001
:4072000087FC77A3D3E9002301F036FE76A3D3E9002306460F462046294601F02DFE02460B463046394601F075FC06460F4632463B464046494601F06DFC42464B460446C7
