:400000000080002011000000691E0000691E0000034A08B51268034B1A6001F027FF00BFFA460040BC76004010B5054C237833B9044B13B10448AFF300800123237010BD4B
:400040008882FF1F00000000EC850000084B10B51BB108480849AFF300800848036803B910BD074B002BFBD0BDE81040184700BF00000000EC8500008C82FF1F0881FF1F5D
:40008000000000002DE9F04F4B4B83B01B7803F0C5FF002003F0CCFF03F0C8FF002003F0D3FF834607F0E8FB8046012003F0CCFF009007F0E1FB0746022003F0C5FF0190F9
:4000C00007F0DAFB0646032003F0BEFF814607F0D3FB3A4C0546B4F800A0AAF10A0007F0CBFB0146404607F0B9FD00285DD10AF10A0007F0C1FB0146404607F0CDFD0028CC
:4001000053D1B4F80480A8F10A0007F0B5FB0146384607F0A3FD002837D108F10A0007F0ABFB0146384607F0B7FD70BB244FB7F8008008F1FF3007F09FFB0146304607F04B
:400140008DFD50BB08F1010007F096FB0146304607F0A2FD08BB7E88701E07F08DFB0146284607F07BFD38B9701C07F085FB0146284607F091FD28B1A378A7F8029043F095
:400180000803A37003B0BDE8F08FA378BDF8002043F00203A280A370C8E7A378BDF8042043F004033A80A370D5E7A378A4F800B043F00103A370A4E769640040A482FF1FFA
:4001C0000C81FF1F10B51B4B00201B7803F02CFE38B1194CA379E218127A1AB183F00103A37110BD03F034FE144AE3681080228A9842C8BFE060B2F5007F0F4B08D299792F
:400200000F4C02EB412101321A8224F8110010BDD9689A793B2903EB020482F001024FF00001D4BF002001209A7120751982D960997510BD67650040A482FF1F2493FF1FA2
:400240004097FF1F2DE9F04F85B062B6B74803F0D5F9B74803F0EAF903F05AFA03F0B0FC03F032FE03F02EFF03F0C8FD03F0D4FD03F0C0FE03F0D2FE04F040F801F028FBF9
:40028000AC4800F00BFD0221002002F0FBF8012003F00CFC0020014603F02AFCA64803F0F7FB0021012003F023FCA44803F0F0FB4FF47A7003F056F90320002103F018FCE3
:4002C0009F4803F0E5FBDFF884B29E4CDFF8A4829D4E9BF802309D4D53B16268994F6ABBDA0732D49F073ED45D074AD4180770D49BF80630954D83F001030BEB0302127DAB
:4003000018468BF81930002A40F084808023A1681846002233707170B27004F00BF8707804F008F8B07804F005F89BF80230874D002BDDD06268834F002AD1D001F034FD7D
:40034000AB7800227A60DA07CCD503F00E03BBF800008BF8023001F003FD9BF802308BF817009F07C0D503F00D03BBF804008BF8023001F035FB9BF802308BF818005D0791
:40038000B4D503F00B030B2102208BF8023003F0AFFB6F4803F07CFB0B21022003F0A8FB6C4803F075FB6523009320880021FF22322301F007FB80B264285AD8664B188071
:4003C00003F00EFC654803F063FB9BF8023018078ED503F00703002102208BF8023003F087FB5B4803F054FB0021022003F080FB5B4803F04DFB00216523009360880B4668
:40040000FF2201F0DFFA80B2642828BF642003F0E7FB6DE7AF7D002F7FF45BAF6368DFF824915BBB4F4B0BEB000203EB8020012313728BF8163001F055FA9BF819A00027F5
:400440000BEB0A02177248490546C8F80000DFF8FC90A76807F002FC20B12846434907F01BFC88B90BEB0A031B7D002B7FF431AF4CE7394A642318461380A1E701F094FC84
:40048000687EC9F80470CDE7284606F0D5FD324BCDE90201188807F0EBF9354907F0F4FA3A460090234BDDE9020100F045FC88BBA3689F4220D0791C1ED05A1C0DD0802214
:4004C0001046002173703270B17003F033FF707803F030FFB07803F02DFF9023628818463370B270777003F025FF707803F022FFB07803F01FFFA760D8F80000DBF81C10A0
:4005000007F0A2FBDFF86C908246104DA0B395F819A0A7E7174B0748196899F8172099F8183000F033FE0746C2E700BFC5010000850000003893FF1FF0850000048600002C
:40054000148600000C81FF1F2093FF1FA482FF1F28860000348600003C97FF1F3C860000408600004097FF1F00007A44000070420000C8423897FF1F014603F0B9FA0E48A1
:4005800003F086FA5146504603F0B2FAD9F8000007F08CFB80B203F023FB084803F078FAD9F80020F9B2064801F072FAD9F8002095F819A0EA6155E7488600004C86000010
:4005C0003893FF1F70B5064608460C4607F0C4FB054618B13146224607F0CEFB284670BD002A31DB2DE9F84F5FEA520A29D0834610460D4606F0FEFC06460F46ABF1040B1E
:40060000043D0024204606F005FD11A3D3E9002306F066FD32463B4606F08CFE8046894603F0FAFE07F01EF849464BF8040F404603F08AFF07F016F80134544545F8040FFB
:40064000E0D10120BDE8F88F00207047AFF30080182D4454FB2119402DE9F04F91B01A9D9946012D0ED92C4600236408012C03F10103FAD19C40AC420A9406D0002011B0E0
:40068000BDE8F08FFAD10A95002380468C46DDF828A04FF0000EEBB1002426467546013405F001079C4247EA46064FEA5505F6D1B6450FD2D8F8004050F82650C8F800507F
:4006C00040F82640DCF8004051F82650CCF8005041F826400EF1010EF24508F104080CF1040CD8D80A9B012B00F08B800223CDF8189005920F910E900993099B00215A08D9
:400700000B9292000D920A9A089107911146B1FBF3F29B0004920C93079B0B9A9A181046834203921A4658D2089B0D990E980F9C5F1800EB0708C618E51827440023029223
:40074000059AD8F8004052F823C0069A6146204652F823B00093CDF804C007F0E1F8D7F800A081465946504607F0DAF80146484606F0CEFF04F100418146584607F0D0F8C1
:40078000DDF804C004465146604607F0C9F80146204606F0BDFF49460446306806F0B6FF48F8040B2868214606F0B0FF47F8040B3068494606F0ACFF46F8040B21462868A1
:4007C00006F0A6FF049B029A1946009B01320B44039945F8040B9142B1D1079B099A0C991344089A07930A4408920A9A9A4293D80A99099A914204D0530099420993BFF4B0
:400800007CAF012011B0BDE8F08F00BF2DE9F04F97B0209D002D15DB6C0004F1010C002C00F04E814FF01F0E012402E0BEF1010E0CD06400A445F9D8B5F1804F02D2B4F1E0
:40084000804F07D3002017B0BDE8F08F704617B0BDE8F08F4FEA84080F460646042120460B9391460F9207F041FA04210E90204607F03CFA04211090204607F037FA04211C
:400880000C90204607F032FA0D90404607F064FA1190404607F060FA4B461290002B00F0F2800B9B002B00F0EE800E99002900F0EA801098002800F0E6800C9A002A00F024
:4008C000E2800D9A002A00F0DE80119A002A00F0DA80129A002A00F0D680002D00F0BC80321FA3F1040C2095924665463E1F159607960F9E1492043E0896A1F1040B031F1B
:40090000002713940A93089B5AF8044F53F8048F20460893079B414653F8046F55F8049F079306F0FDFF49460990304606F0F8FF099A0146104606F0EBFE04F100414BF89F
:40094000040F484606F0ECFF31460446404606F0E7FF0146204606F0DBFE209A01370A9B974243F8040FCDD115460F9B0C991A680B9B0A601B680D9A012D139C13601AD05A
:400980000D9A0C9B1746A000DDF83C80DDF82CE01E189C461044012358F8041F5EF8042F0133AB4246F8041D40F8042D4CF8041F47F8042FF0D1119B04940093129B0E9841
:4009C00001930F9B109902930B9B0C9A03930D9B00F0A2F8002856D0119B20951A1F129BDDF85090A3F1040C6546DDF854B00F9F0B9E4FF0000A52F8044F39682046089217
:400A0000079206F08DFF55F8048F31680790404606F086FF079B0146184606F079FE04F1004449F8040F56F8041B204606F078FF57F8041B0446404606F072FF01462046B7
:400A400006F066FE209B0AF1010A9A454BF8040F089AD0D1012417E00F9A0B99119B15680E680D9F00930494129B0C9C0193029203910E98109922463B4625603E6000F0A8
:400A80004BF80028E6D10024129807F06DF9119807F06AF90D9807F067F90C9807F064F9109807F061F90E9807F05EF90B9807F05BF90F9807F058F9204617B0BDE8F08FD7
:400AC000B5F1804FBFF4BEAE64464FF00408C3E630B4029C651E254203D0029430BCFFF795BE30BCFFF7B8BD10B4019C1CB15DF8044BFFF7EDBF01205DF8044B704700BFB4
:400B000030B4029C14B930BC0120704705460846294630BCFFF7DCBF2DE9F04F8BB00E46189917468C0021469846FFF74BFD214605463046FFF746FD214606463846FFF794
:400B400041FD214607464046FFF73CFD80465DB156B14FB140B1189B284600933146169A179BFFF7C1FF80B90024404607F0FCF8384607F0F9F8304607F0F6F8284607F0CB
:400B8000F3F820460BB0BDE8F08F189B384600934146169A179BFFF7A7FF0028E4D0189B002B70D00594B2462C463B1F0493A8F1040303934FF00009069507960897CDF8B4
:400BC0002480049BDAF800B053F8047F59460493039B384653F8045F2668039306F0A0FE29468046304606F09BFE0146404606F08FFD39464AF8040B304606F091FE2946E7
:400C00000646584606F08CFE0146304606F07EFD189B09F10109994544F8040BD1D105ACF0CC169ACDF8009028463146179BDDF82480FFF765FF002896D0484606F018FE96
:400C40002B4614992A19A1F104091599A6F1040A0C1F039504962546834614461E4656F8040B594606F010FF49F8040F5AF8040F594606F009FFA64245F8040FEFD1039DE3
:400C8000049E012471E7189B284600933146169A179BFFF735FF0028F3D165E770B56FF00705441900F57E76284606F0B3F900220A4B06F03FFB02460B4600204FF08041E0
:400CC00003F00CFD0022064B06F00AFAE4E90201B44205F10105E7D170BD00BF0000284000002A400000000008B500220E4B06F021FB03F073FC00220C4B06F0F1F908A3A3
:400D0000D3E9002306F016FB0022094B06F036F803F0CAFB06F07EFC08BD00BFAFF30080EF39FAFE422EE63F00807B400000284000405140AFF30080002A2DE9F84F064647
:400D40000F461D4654DD7E2AA8BF7E22541CE400A4F1080BA4F1100A0A9806F06DF9AB442A1905EB0A0E8046DBE90045DEE900AB8946D2E900012B46224605F0FDFF02461A
:400D80000B464046494606F0ABF902460B462046294605F0F3FF06F065FC06F04DF932463B4606F00FFC00BB52465B462046294605F0E2FF02460B464046494606F090F985
:400DC00002460B462046294605F0D6FF06F04AFC06F032F902460B463046394606F0F2FB003018BF0120BDE8F88F0120BDE8F88F4FF0000A4FF0080B1024ADE7554A10B486
:400E000082FB0041C317C3EB610303EB4303B0EB830F00F08680411E82FB0134CB17C3EB640303EB4303B1EB830F76D0811E82FB0134CB17C3EB640303EB4303B1EB830F57
:400E400075D0C11E82FB0134CB17C3EB640303EB4303B1EB830F68D0011F82FB0134CB17C3EB640303EB4303B1EB830F63D0411F82FB0134CB17C3EB640303EB4303B1EBD4
:400E8000830F5CD0811F82FB0134CB17C3EB640303EB4303B1EB830F4FD0C11F82FB0134CB17C3EB640303EB4303B1EB830F48D0A0F1080182FB0134CB17C3EB640303EB76
:400EC0004303B1EB830F3ED0A0F1090182FB0132CB17C3EB620202EB4202B1EB820F34D01C49A0F10A0281FB0234D317C3EB640303EB4303B2EB830F29D00B3881FB0031D0
:400F0000C317C3EB610303EB43021349134BB0EB820F0CBF1846084600E011485DF8044B704710485DF8044B70470F48F6E70F485DF8044B70470E48F0E70E48EEE70E485A
:400F4000ECE70E48EAE70E48E8E70E48E6E70E48E4E700BFABAAAA2A408700007C86000054860000508600005C860000588600006086000068860000648600006C8600003D
:400F8000708600007486000078860000F8B50346704CC61784FB0302C6EB620202EB4200B3EB800F0D4600F08180581E84FB0017C117C1EB670101EB4101B0EB810F00F03A
:400FC0008780981E84FB0017C117C1EB670101EB4101B0EB810F6FD0D81E84FB0017C117C1EB670101EB4101B0EB810F76D0181F84FB0017C117C1EB670101EB4101B0EB81
:40100000810F71D0581F84FB0017C117C1EB670101EB4101B0EB810F6CD0981F84FB0017C117C1EB670101EB4101B0EB810F49D0D81F84FB0017C117C1EB670101EB4101FF
:40104000B0EB810F66D0A3F1080084FB0017C117C1EB670101EB4101B0EB810F60D0A3F1090184FB0124CA17C2EB640404EB4404B1EB840F374A59D0A3F10A0082FB0014F1
:40108000C117C1EB640101EB4101B0EB810F57D0A3F10B0082FB0014C117C1EB640101EB4101B0EB810F2BD02B48F8BD08462B4906F02EFF2846F8BD2846294906F028FF2D
:4010C0002846F8BD2846274906F022FF2846F8BD2846254906F01CFF2846F8BD2846234906F016FF2846F8BD2846214906F010FF2846F8BD28461F4906F00AFF2846F8BDA5
:4011000082FB03322846C6EB62021B4906F000FF2846F8BD2846194906F0FAFE2846F8BD2846174906F0F4FE2846F8BD82FB033228461449C6EB620206F0EAFE2846F8BDB1
:4011400082FB03322846C6EB62020F4906F0E0FE2846F8BDABAAAA2A408700008086000090860000B08600008886000098860000A0860000A8860000D8860000B88600008D
:40118000C0860000C8860000D08600002DE9F04F804687B008464FEAC20914461E4605F04BFF08EB0905D5E90023CDE9000106F009FA80BB002E34D1312C2CDCDDE9000178
:4011C000DFF808B704F1180A5BF82450554408EBC503D3E9006732463B4606F0F3F9002840F094805B460BEB8409C346C84699460EE058F8045FDDE9000155440BEBC503E4
:40120000D3E9006732463B4606F0DCF900287BD10134322CEDD14FF0FF35284607B0BDE8F08F012E00F0E980022E00F01A81032E00F08D80042E00F06F81062E00F01E83FE
:40124000052EE8D1D5E90067DDE900AB04F10C0908EBC909CDF8148045E07E2CDBDC59E912675046594632463B4606F0ABF9002840F0FA8159E90E675046594632463B4603
:4012800006F0A0F9002840F0758259E90C675046594632463B4606F095F9E51D002840F0478259E90A675046594632463B4606F089F9002840F0C18259E9046750465946F0
:4012C00032463B4606F07EF90C34002840F09482F9E818675046594632463B4606F072F9002840F067823B4632465046594606F087F9A31D039304F10A03E51C04F10508AB
:4013000004930028A9D186E7D846CB46013C5BF824309A443046DDE90023394605F02CFD08EBCA08D8E9002306460F46DDE9000105F022FD02460B463046394606F060F918
:40134000002818BF5546284607B0BDE8F08F04F10C0608EBC606CDF81480D5E900ABDDE900893AE07E2C3FF756AF56E912AB4046494652465B4606F025F9002840F08582F7
:4013800056E90EAB4046494652465B4606F01AF90C34002840F0EA8056E90AAB4046494652465B4606F00EF9002840F07F8256E904AB4046494652465B4606F003F90028EE
:4013C00040F06A82F6E818AB4046494652465B4606F0F8F8002840F072825B4652464046494606F00DF9E31D049304F10A03E51C671D03930028B5D10DE7312C3FF70BAFC3
:40140000DDE90001DFF8C4B44FEA84090BEB09035D6F04F1180A554408EBC503D3E9006732463B4606F0CEF8002871D10BF1740399445B46C346C84699460EE058F8045FCD
:40144000DDE9000155440BEBC503D3E9006732463B4606F0B7F8002858D10134322CEDD1D9E604F10C0608EBC606CDF81480D5E900ABDDE9008939E07E2C3FF7CCAE56E9A3
:4014800014AB4046494652465B4606F09BF8002840F0AB8056E910AB4046494652465B4606F090F80C34002860D156E90AAB4046494652465B4606F085F8002840F0B48073
:4014C00056E906AB4046494652465B4606F07AF8002840F00981F6E818AB4046494652465B4606F06FF8002840F0DD805B4652464046494606F084F8E31D049304F109030B
:40150000A51C271D03930028B6D184E6D846CB460BEB8404236FFCE6C4EB447BCDF80C90CDF810804FEACB0BD5E90067DDE900890CE07E2C3FF76FAED3E90067404649460E
:4015400032463B4606F03EF878BB544632463B464046494606F054F81035039A0BEB0503134404F1020A0028E3D154E6DDF8148008EBC70858E90423DDE9008940464946E4
:4015800005F0FAFB06F06EF842464B4604465946504605F0F1FB06F065F80146204606F05DFB002808BF3D4637E6DDF8108008EBCA0858E90423DDE900894046494605F0A4
:4015C000DBFB06F04FF8424605464B463046394605F0D2FB06F046F80146284606F03EFB002814BF2546554617E6DDF8148008EBC50858E90423DDE900894046494605F0BD
:40160000BBFB06F02FF842464B4606465946504605F0B2FB06F026F80146304606F01EFB002818BF2546F8E5DDF81090DDF8148008EBC90858E90623DDE9000105F09CFB15
:4016400006F010F8DDE9002304465946504605F093FB06F007F80146204606F0FFFA002814BF3D464D46D8E5DDF81480DDE900AB08EBC50858E906235046594605F07CFB7D
:4016800005F0F0FF52465B4680463946304605F073FB05F0E7FF0146404606F0DFFA002818BF2546B9E5DDF8148008EBC40858E90623DDE900673046394605F05DFB05F07A
:4016C000D1FF3B46054632465046594605F054FB05F0C8FF0146284606F0C0FA039B002808BF23461D4698E5DDF81480039DDDF8109008EBC50858E90423DDE9006730461D
:40170000394605F039FB05F0ADFF3B46324604465946504605F030FB05F0A4FF0146204606F09CFA2B46002818BF4B461D4674E5C246DDF8148008EBC404D4E90A23DDE95E
:4017400000894046494605F017FB05F08BFF4B46424604463946304605F00EFB05F082FF0146204606F07AFA039B002818BF53461D4652E5C246DDF8148008EBCA0858E91B
:401780000423DDE900894046494605F0F5FA05F069FF42464B4604463946304605F0ECFA05F060FF0146204606F058FA002808BF554632E5DDF81480DDF810B008EBC40883
:4017C00058E90423DDE900894046494605F0D4FA05F048FF424605464B463046394605F0CBFA05F03FFF0146284606F037FA002814BF5D46254610E5DDF810B0DDF8148000
:4018000008EBCB0858E90623DDE900894046494605F0B2FA05F026FF42464B4604463946304605F0A9FA05F01DFF0146204606F015FA002808BF5D46EFE4DDF8148008EBE5
:40184000C404D4E90C23DDE900894046494605F093FA05F007FF4B46424604463946304605F08AFA05F0FEFE0146204606F0F6F9039B002808BF2B461D46CEE4DDE90001A5
:4018800007B0BDE8F04FFFF72FBADDF8148008EBC50858E90623AEE6DDF81480039DDDF8109008EBC50858E9062326E7DDF81090DDF8148008EBC90858E90423BCE6DDF851
:4018C000148008EBC40858E90423F2E61881FF1F03484FF4007200F50061FEF781BE00BFEC82FF1F2DE9F043ADF5805D83B0074600210DF608004FF4006201AC06F047FACC
:401900002646BD1E07F2FE3735F9020F05F0B4FF294906F0B9F8BD4246F8040FF4D1274A4FF40071009102F5006302A80DF608010DF60405FFF7D8F8A9464FF0000854F803
:40194000040F55F8047F014605F0EAFF39460646384605F0E5FF0146304605F0D9FE4C45C5F800802060EAD1144A4FF40074009402A80DF6080102F50063FFF7C1F800271C
:4019800007AE06244FF0000856F8045F3946284606F082F908B12F46A0460134642CF3D1404605F069FF0146054806F06DF80DF5805D03B0BDE8F0830000C842EC82FF1F43
:4019C0000000FA4510B4019C401AE41A04FB00F0521A90FBF2F05DF8044B1844704700BF10B504460E21002002F082F81E4802F04FF800200E2102F07BF804EB44041B4BF7
:401A0000600083FB0023C4171844C4EBE010C4B2062C08D8DFE804F0090E13181D220400134802F035F8204610BD124802F030F8204610BD104802F02BF8204610BD0F48BC
:401A400002F026F8204610BD0D4802F021F8204610BD0C4802F01CF8204610BD0A4802F017F8204610BD00BF2C8600008180808024870000F4860000FC86000004870000D9
:401A80000C870000148700001C870000000000002DE9F04F0D46924601F101084FEAC803A3F1080487B00444034400210120DFF894B2D4E90067CDE90067D3E9006753E971
:401AC0000423CDE9022302F013F89B4801F0E0FFDBF8003001201A0C0221ADF814308DF8162002F005F805A9681EFFF74FFA01F0CFFF01200E2101F0FBFF05A94046FFF79D
:401B000045FA01F0C5FF0120082101F0F1FF05A92846FFF73BFA01F0BBFF504605F08CFA30CC22462B468046894605F05FFD002861D030463946DDE9006732463B4605F05F
:401B40001BF900227D4B05F0CBFA05F08BFD804605F072FA76A3D3E9002305F0C1FA02460B463046394605F009F905F07BFD0146404605F0CBFD724905F086FF05F05CFA65
:401B800002460B462046294605F0F8F805F06AFD0146064605F0BCFD05F04EFA02460B462046294605F0EAF805F05CFD31460446504606F053F8002840F084802146504674
:401BC00006F04CF830B15046314606F05BF8002840F089800521012001F08AFF594801F057FF01200B2101F083FF574801F050FF07B0BDE8F08F4046494622462B4605F00D
:401C0000E1FC0028F4D0DDE90067DDE902233046394605F0B1F80022484B05F061FA05F021FD804605F008FA41A3D3E9002305F057FA02460B463046394605F09DF805F045
:401C400011FD414605F062FD3D4905F01DFF05F0F3F902460B462046294605F08DF805F001FD0146064605F053FD05F0E5F902460B462046294605F07FF805F0F3FC314648
:401C80000446504606F008F800283BD12146504606F002F828B15046314605F0E9FF00283FD10521012001F023FF284801F0F0FE0B21012001F01CFF224801F0E9FE07B037
:401CC000BDE8F08F0521012001F012FF584601F0DFFE0B21012001F00BFF1D4801F0D8FE07B0BDE8F08F0521012001F001FF584601F0CEFE01200B2101F0FAFE154801F0A5
:401D0000C7FE75E70120052101F0F2FE124801F0BFFE01200B2101F0EBFE584601F0B8FE66E70120052101F0E3FE0C48EFE700BF9A9999999999B93F2C8700000000E03F36
:401D400000004040E08600004C870000588700004487000048870000508700005487000000EB80020E4B00EB420083FB002310B503440B21C4170020C4EBE31401F0B8FE6B
:401D8000084801F085FEE4B20B21002001F0B0FE2046FFF733F801F07BFE204610BD00BF818080803086000070B5012001F07EFE002002F049F980B2FFF7D2FF012002F031
:401DC00043F9244E80B2FFF70BFE0B21022001F08FFE304601F05CFE0B21022001F088FE1D4801F055FE022002F02EF9652404FB00F01A4DC31785FB00121044C3EBE01091
:401E000080B2642828BF642001F0EAFE144801F03FFE0021022001F06BFE304601F038FE0021022001F064FE0E4801F031FE022002F00AF904FB00F085FB0035C3172844CF
:401E4000C3EBE01080B2642828BF6420BDE8704001F0C6BE2886000034860000818080803C86000040860000FEE700BF154B80B503F1FF3E03B3144F002657F8085C57F835
:401E8000104C57F80C3C3DB1224652F8040B111B8D4243F8040BF8D157F8040C1A4620B142F8046BD11A8842FAD10EF1FF3EBEF1FF3F07F11007E0D105F028FFFEF7C2F904
:401EC000FEE700BF010000002C8C000008B5124A124B13491A600B68124A43F4007312480B600023032B94BF50F823100F490133302B42F8041FF5D10D4B0E4A18780E493B
:401F00000E4B08701A6000F01DF801F03DFA0C4B00221A6008BD00BF0004FA050CED00E014ED00E0FC7FFF1F00000000691E0000BC7600400080FF1F0481FF1F08ED00E04D
:401F40000081FF1F2DE9F84F72B640F6191641F25121A54CA54F4FF0610B84F800B0A44AA4484FF03A0BA7F800B0DFF800C3DFF800E31827DFF8FCA2DFF8FC92DFF8FC8208
:401F80004FF0170B17701923A0F800B0A4F5A0645F22062798488AF80030A9F8002088F80030ACF800208EF8003027701D460378924A9348DBB24FF0520C84F8A133914F67
:401FC0008EF872C100240680118001E0032C0CD03B78782003F0010343EA440402F0B8F9013D04F00304F1D1FEE7874E874A35468748DFF88C92DFF88CC2DFF88CE2002355
:40200000022784494FF4807B4FF0070A4FF04808A2F800B082F800A089F800308CF8008013708EF8003007701C460B78012743F00F030B7080F8FF7792F8E43643F004032B
:4020400082F8E43604EB4403AA8856F813000134002105F09CFE082C05F10605F2D16E4A6E496F4B03C982E803006E4C0FCB84E80F006D4E6D4F002556F8043F13F0FF0E78
:4020800023F0FF0413D005F110530EF1FF3E03F155005FFA8EFE7044543340005B001A785978023383421155F9D101357544BE42E2D15F495F4A0B785F4C43F002030B702D
:4020C00013785E4843F00203137023785C4A43F0400323700178D2F800E05A4F5A4D41F010010026594B0170343AC7F800E02E6007CA03C3A5F5105555491A80103D07C934
:4021000003C5544B2A8003CB1A4646F60613524E45F8E60C45F8E21C03CAC83D3060716007CA03C54D492A800A784D4842F008020A70A7F53C570278103FDFF850813D78D3
:40214000484898F8006001F5AA51D2B20D3102F0070EEDB2120980F800E0F6B20A70DFF830B145F003023A70DFF828A1DFF8289146F0030288F80020DFF820C1ABF80030BF
:4021800040238AF80030DFF818E189F800304FF080098CF80090344A4FF0420C4FF009098EF800C080F8B2924FF0040E4FF0210C4FF0440981F8B4C20A2082F800E08BF810
:4021C000003A8AF8579201F0F1F994E80F00DFF8D4E0103488F800603D708EF8009007C42380BDE8F88F00BF004800408040004082400040844000400F0100492042004080
:402200002242004025420040708700000440004001400040A2430040005101409C0E0048A40E004800500140FCFFFF47A40000480350014013500140A0430040C243004056
:40224000E80E00480876004000760040C0510040C00E0048CC0E00482251004022430040CF0100496E580040285B00408C4000408E40004086400040884000408A400040B7
:40228000064000400840004009400040F94600402C510040015900400359004009590040005B004076580040F8B502F059F83A4A3A491378054643F0010313700B78384C3C
:4022C00038480127022602F5E35243F001030B700B32277006701378A4F5E85403F07F03093C1370002001F061F923782E4A03F0F90323701378384603F0DF03137023784D
:402300003B43237001F052F9282001F04FF9274B30461A7802F07F021A701A7802F0BF021A7023783343237001F040F923782049204E43F0040300222370284632700A70D0
:4023400002F012F81C49172001F038F91720072101F044F91949152001F030F91520072101F03CF91649182001F028F91820072101F034F91349072001F020F907200146C0
:4023800001F02CF91049082001F018F9BDE8F8400820072101F022B9A5430040B54300409D6000400960004012600040F85100408560004084600040CD290000C9290000D9
:4023C000D52800006129000095290000204B214A2DE9F0474FF4000E4FF0807780264FF480750024C3F800E01F601E601D60147049B3194B03221A70184ADFF874C0DFF800
:4024000074E0DFF874A0DFF87490DFF87480144F144E154C0023802103258AF8000089F80030012088F800308CF800308EF800303B7033702570117001F08AFF0B4B0422DD
:402440001A70BDE8F087044B02221A70D4E700BF00E100E0409FFF1F0960004008600040699FFF1F429FFF1F28600040126000404E9FFF1F4C9FFF1F4B9FFF1F549FFF1F64
:40248000419FFF1F10B5084C82B023783BB98DE80300FFF709FF9DE803000123237002B0BDE81040FFF792BFEC92FF1F2DE9F043DFF850C0DFF85090DFF85080DFF850E070
:4024C0000B4F0C4E0C4D0D480D4A00230324802189F8003088F800308CF800308EF800303B7033702B7004701170BDE8F08300BF4C9FFF1F699FFF1F429FFF1F28600040C2
:4025000008600040419FFF1F409FFF1F549FFF1F4E9FFF1F08B5194B1A78D2B21A701B78DBB21A0627D4164B9A6842B199680220144A087099681088002248809A60124BB7
:402540001B7803F06003202B10D0402B04D043B10E4B03221A7008BD00F0FCFE0028F7D008BD00F045FD0028FAD1F1E701F000FF0028F5D1ECE7054A137008BD286000409C
:402580005C9FFF1F529FFF1F006000404A9FFF1FF0B42049204C214A20780B8803449BB20B801588ADB23DB31D4B1E4851680978C9B203F8011B5168DDB2013151601188D4
:4025C000013989B21180118889B299B18342EDD123780825144A154E1378154983F080031370144B0F2702203770087025701D70F0BC70472378EDE72378082BEAD00B49A3
:402600000B4A02230B7013700A4B25701D70F0BC704700BF529FFF1F429FFF1F5C9FFF1F00600040086000404D9FFF1F4A9FFF1F409FFF1F689FFF1F194AF8B513889BB2EF
:40264000EBB11849184C194800230225257003700B80916819B191680B7091684B801449144B09781B78128843EA012392B20C49934238BF0B80FFF78BFF0120F8BD0A4F66
:402680000A4D0D480D490E4A4FF0020E80260F2487F800E02E7004700B7013700120F8BD5C9FFF1F529FFF1F409FFF1F4D9FFF1F07600040066000404A9FFF1F429FFF1FD1
:4026C000689FFF1F10B40D4B0D491A780B880D4C13449BB200200C4A0B802070936833B1936801241C709368098859809060074B03221A705DF8044B704700BF429FFF1F96
:40270000529FFF1F409FFF1F5C9FFF1F4A9FFF1F10B41C4B1C481978028801F00F010239C9B20A4492B2194B02801A8892B2CAB1002009B923E011B300F1804202F5C042DE
:402740005C6812780139D2B222705A68C9B201325A601A880130013A92B21A801A8892B2002AE8D10A4B0B4A197013780A4983F080030B20137008705DF8044B7047002133
:40278000F0E700BF29600040529FFF1F5C9FFF1F689FFF1F4D9FFF1F4A9FFF1F0E4B1B78DBB2042B16D0062B04D0022B00D07047FFF788BF094B9A6842B199680320084A19
:4027C000087099681088002248809A60054B03221A707047FFF79CBF409FFF1F5C9FFF1F529FFF1F4A9FFF1F70B40748074E084C084A062380250021037033702570117028
:40280000012070BC704700BF409FFF1F4A9FFF1F4D9FFF1F689FFF1F114B1A7832B11A78104842F080020021027019700E4900220E4B0A70996871B1996810B40C4801246A
:402840000C709968008848809A600A4B03221A705DF8044B7047074B03221A70704700BF4C9FFF1F08600040409FFF1F5C9FFF1F529FFF1F4A9FFF1F124A1378DBB2042B3B
:4028800007D0062B03D0022B16D1FFF781BEFFF7C3BF00210C4B11709A6872B19A6810B40A48012414709A68008850809960084B03221A705DF8044B7047054B03221A70EE
:4028C000704700BF409FFF1F5C9FFF1F529FFF1F4A9FFF1F10B51D4B1B78DBB2DC0605D5180604D45A062ED49C060BD410BD03F00F03012BFAD1FFF70DFE15490B7819068A
:4029000002D510BDFFF74AFF104A13781B06EDD41049114B1B780878104903430B7009789942E3D10A490C460B781078DBB2000605D42378DBB21370137803F00F03087824
:402940008342F1D110BDFFF797FFDDE7286000404A9FFF1F689FFF1F4D9FFF1F29600040094A0A4B12781A7B02F00302012A03D0DA7B82F08002DA73054A012159731378D2
:4029800003F0FE03137070470E6000406C9FFF1F0B600040094A0A4B12781A7E02F00302012A03D0DA7E82F08002DA76054A01215976137803F0FD03137070471E60004056
:4029C0006C9FFF1F0B600040704700BFFFF76EBD604B61491B78614A0978013B02EBC1025268DBB2117A994240F29B8002EBC303DB681A7ADB68002A00F0AA802DE9F04F0C
:402A0000013A5749D2B2023203EBC20283B00C465448DFF86CE108334FF0010A4FF0000902E00833934279D013F8085C4F5D465DB742F6D0665D13F8077CB742F1D19EF8E5
:402A40000060B542EDD113F806CC13F8056C0CF07F077D1E2D011CF0800FEDB206F0030662D1012E4FEA470606EB070C01963E4E08BF4FF0050BB04606EB8C0C18BF4FF0AA
:402A8000090B8CF801908CF805B0DFF8F8C0019EAC448CF800A033F804CC374408EB8706A6F808C013F806BCDFF8DCC086F804B013F805BCAC4408F827B086F80390B6F852
:402AC00008802A4FC8F307288CF80080B6F808C02F445FFA8CFC87F800C0B6F806C0244F5FFA8CFC2F4487F800C0B6F806C0214FCCF3072C2F4487F800C0B6F806C01E4FFB
:402B00005FFA8CFC2F4487F800C0F7881B4E0833C7F307272E449342377085D103B0BDE8F08F00231B7AFFDE012E4FEA470606EB070C01960C4E0CBF4FF007084FF00D0830
:402B400006EB8C0C8CF801A08CF80580B0469CE7704700BF549FFF1F4B9FFF1FF0870000489FFF1F589FFF1F6C9FFF1F0D6000408660004087600040846000408560004099
:402B8000046000400E6000400C60004030B4054684B0114B04AC0FCB04E90F00CDB12A46222103230D4805F1200429706B7010F8013B04ADDBB203F00F01294405EB131390
:402BC00011F8101C13F8103C937002F8041FA242EDD104B030BC7047A087000000010049F0B5214A214C224E01210C2580274FF0080E27E0007900064CBF157082F800E013
:402C00000B4404EB830318891032C0F3072002F8120C18890131C0B202F8110CD888C0B282F86800D888C0F3072082F86900D888C0B282F86600DB88C3F3072382F86730C8
:402C4000B2420CD04B00581882F8725004EB800090F805C0BCF1000FCCD11770D0E7054BFF221A70F0BD00BF0E6000406C9FFF1F8E6000400A6000400D4B0E491B780E4A8A
:402C80000978013B02EBC1025268DBB2117A994209D902EBC303DB683BB15A68127903EBC20358697047002070471846704700BF549FFF1F4B9FFF1FF087000000212DE94C
:402CC000F84F0B466C4F01EB4104013107EB8402092907F8243093704FF000045370D370537113819372EED128B1644A644B14701C7054705C70634B1A78002A00F0B68053
:402D000061491B78614A0978013B02EBC1025268DBB2117A994240F28F8002EBC303D3F80C905B4AD9F8043099F80880DB7908F1FF3E13F0400F13785FFA8EFE14BF43F021
:402D4000010303F0FE030EF1020ED9F80C10DFF82CC113704FEACE0E01204FF0000BC6B2B8F1000F3CD000EB400507EB850501F1080301EB0E0402E00833A3422ED013F8AA
:402D8000062C02F07F018142F6D1298933F804AC89B2514538BFA5F808A013F8081C13F807AC1CF801108A45E6D113F8051C120601F0030143D4012985F801B04ED00922C2
:402DC0006A7113F8022C012A4BD013F8062C08332A7113F80D2CA3422A70D0D1D9F80C1001300928BBD1B8F1000F10D08E4401F1080212F8063C12F8081C03F07F0303EBE4
:402E00004303083207EB830372459972F1D1FFF733FF204B01211860002301EB410207EB8202D38012890131134409299BB2F4D1BDE8F84FFFF7D4BE00235B68FFDE01220C
:402E400091426A7014D00D226A7113F8022C012ABBD10229B9D1104A1670B6E705226A71B3E7022904BF0D4A1670AEE7BDE8F88F07226A71A9E700BF6C9FFF1F489FFF1FEC
:402E8000589FFF1F549FFF1F4B9FFF1FF0870000699FFF1F449FFF1FF99FFF1FFC9FFF1F124B1A7802F07F02531EDBB2072B1AD80F4902EB420201EB82029178002041F000
:402EC00001019170D07051781B0141F0020151701279DBB212F0800F064A14BF8D2189219954FFF781BC0020704700BF046000406C9FFF1F0E6000401C4B1B7803F07F03F1
:402F0000591EC9B2072924D810B4194A03EB430302EB83039A78174802F0FE02090100249A70C9B2DC700A5C02F07F020A545A7802F0FD025A701A795B7812060BD4012BF6
:402F40000D4B0CBF08220922CA545DF8044BFFF74BBC00207047012B074B0CBF0C220D22CA545DF8044BFFF73FBC00BF046000406C9FFF1F0C6000400E600040154A164B44
:402F80001648127816491B780078013B01EBC0014968DBB2087AD2B298420AD901EBC303DB685B681B79934201D9012A04D90020704700235B68FFDE10B40A490A4C8B5CE4
:402FC0000A48DBB2A35403780120DBB28B545DF8044B704704600040549FFF1F4B9FFF1FF0870000489FFF1F589FFF1F0260004038B5A24C0022A24B22801B7813F0800FF7
:40300000A04B1B7811D1013B0A2B0CD8DFE803F0420B600B570B0B0B750B28009A4B1A78012A40F20481002038BD0A2BFBD801A252F823F0C531000027300000273000002F
:403040002730000027300000273000005931000027300000FF3100002730000043310000FFF78CFF0028DED0874B88481C78884AE4B20121874B047011701B78002B40F0A3
:40308000C680854B854A1B5DDBB21355BDE83840FFF7AABB7A4B1B7803F00303012BBDD0C0F01681022BBED103F1804303F5C0431B78002BB7D1BDE83840FFF71DBF784B8F
:4030C000784A1B78DBB21370BDE83840FFF78CBB6B4B1B7803F00303012B9FD0C0F0BF80022BA0D103F1804303F5C0431B78002B99D1BDE83840FFF7D3BE694B1B7803F0EF
:40310000FF027BB1684B69491878531E01EBC0014968DBB2087A984285D901EBC303DB68002B80D05B4B19788A4206D00121584C08461A702170FFF7C1FDBDE83840FFF718
:4031400053BB0122504B22801B78534A13446360BDE83840FFF770BA554B1A78012A70D01A78022A00F0C6801B78032B40F0BE804B4D504A2B7863B1137853B1002301E01E
:40318000117831B1107801332978DBB299420244F6D8434B48481D781978EE2D08BF024629B146491B78097C994200F0C3801378002B3FF438AF137823806260BDE83840F1
:4031C000FFF73ABA2E4B1B7813F0030322D0022B7FF429AF2C4A23801378394A03F07F0303EB430302EB83039A78364BD2B200211A7059706360BDE83840FFF71DBA254B7B
:40320000012222806360BDE83840FFF715BAFFF7DFFB36E702212C4A21801178294AC9B2117053706260BDE83840FFF705BA1C4A264910781B78DBB2CA5C22EA0002CA54DF
:403240007BE7194A194B1178122203EBC1035B685B6863602280BDE83840FFF7EDB9104B1B78012B7FF4DFAE174A137843F002031370BDE83840FFF7B7BA00BF5C9FFF1FF5
:40328000006000400160004004600040419FFF1F4E9FFF1F549FFF1F489FFF1F589FFF1F026000404C9FFF1F4B9FFF1FF08700000360004048880000DC8700008C890000E0
:4032C0006C9FFF1FF092FF1F699FFF1F509FFF1F1B4B1B78012B7FF4A6AE1A4A137803F0FD031370BDE83840FFF77EBABDE8384001F03EB8124B14491B78144A0978DBB279
:4033000002EBC1025268117A99427FF68CAE02EBC303DB68002B3FF486AE5B6863606368DA7863689B7843EA02232380BDE83840FFF782B90648FFF729FC054A37E700BF2D
:4033400002600040699FFF1F4B9FFF1FF087000058A0FF1F084B1B781B0601D400207047064B1B78012BF9D1054A064B11785A601980FFF761B900BF0060004001600040D7
:40338000B48700005C9FFF1F7F200346084910B4084A802408704C70013BDBB202F80839002BF9D1044A13705DF8044B704700BF0082FF1FF87B004000780040172817D875
:4033C00069B90C4900010B46425C034402F0DF0242541A78002042F001021A707047054900010B46425C034442F020024254F0E70120704710700040172810D810B4094A72
:4034000003011A441179074C41F0040111711A5D002042F001021A555DF8044B70470120704700BF1070004017280BD8064A0001835C01F0070103F0F10343EA4101815432
:4034400000207047012070471070004041F6FF73994208BF4FF400519A4208BF4FF40052172808D8C00000F1804303F5EC4399800020DA8070470120704700BF172805D80F
:40348000034B00010344597200207047012070471070004070B417289DF80C609DF8105018D8C00001F07F0103F00F0300F1804441EAC21143EA061304F5EC4405F00F0592
:4034C0000022C9B2DBB221706370A570E270104670BC7047012070BC704700BF10B500F03FFF0B4B5A78182A04D8FF2400F03CFF204610BD1C78013AE10001F1804101F5C8
:40350000F04109785A70197000F02EFF204610BD0082FF1F10F0800F11D130B411F470450AD1C40004F1804404F5F0442180A270E370284630BC7047012030BC7047012006
:40354000704700BF030608D4C00000F1804303F5F04399800020DA8070470120704700BF01BE7047B0F5004F70B506461AD904460D4DA4F50044686800F0EAFEB4F5004F81
:40358000F7D8A6F50043013B23F4FF4323F07F03A6F50046F61AA86800FB06F0BDE8704000F0D6BE004DF6E70882FF1F024B1B7803FB00F000F0CCBE0882FF1F064B1F280F
:4035C0001A6800D901BE00F01F0000F1100352F8230042F82310704708ED00E0072900D901BE1F2800D901BE00F01F0000F16040490100F56440C9B20170704770B4074BF5
:40360000074E1D6807494FF40073E024064A336068660C7070BC1360704700BF08ED00E080E100E009E400E000E100E070B4064B064E1D6806490123E024064A336028648C
:403640000C7070BC1360704708ED00E080E100E000E400E000E100E02DE9F8431648174BDFF87CE01649174D174E00244FF400424FF0080C4FF002094FF08108262780F89E
:40368000009081F800800F208EF800C0072137702C701A60FFF7A2FF0C490F20FFF78EFF0B480C490C4A0D4B102505700C7014701C70BDE8F88300BFD649004080E100E07E
:4036C000C8490040DC490040DB4900403937000020A0FF1F2EA0FF1F35A0FF1F2DA0FF1FCA49004008B500F03BFE0749074A0B7843F004030B70137843F004031370BDE899
:40370000084000F031BE00BFA5430040B543004010B5074C23781BB9FFF79EFF01232370FFF7E0FF034B4FF400421A6010BD00BFF492FF1F00E100E0F8B5854B854D1C787C
:403740002B78E4B2590640D5E2072AD52B78453B052B7ED8DFE803F003657D7D033F04F00A03082B04F0DF0400F08B800A2B70D1794A7A49137843F0A00313700B789F079E
:4037800040F189802B78117813F0080F0CBF0A23092373480B4360264FF4004113702E700160A20616D52B786B4913F0080F0B7814BF012002206B4A03430B701378102101
:4037C00003F0EF0313702970F8BD2B78DB065CBF10232B70F8BD644A64496548137809780068DBB2C9B2C154137862490133DBB2137012780B789A423FD3584B1B7803F0BA
:40380000020303F0FF02002B74D0534A54491378602643F009034FF4004013702E700860BFE7A60719D4544B544A19781278914250D253491A780968D2B28A5C4B4E4449CE
:40384000D2B20420327008701A780132D2B21A70A7E70020FFF784FEA3E7404B1B78990725D53D4A3E491378602643F09A034FF4004013702E70086093E7354B10221A709A
:403880008FE72B78334A452B3CD0314900204A230870137085E7334A3A4E13782C4943F010031027042013703770087079E72D49344F0B78264843F01003274A4FF0100EE2
:4038C00004260B7087F800E00670137843F09003137066E7214B1B789807DCD51E4A20491378602643F00A034FF4004013702E70086056E71B4916480B7843F010030B706D
:4039000002704EE71D4B1B7893B11D4BDFF85CC01B680F4F1B781848DBB24FF0040E012646218CF8003087F800E00670117038E70A4B1B789B07AED5074909480B78602725
:4039400043F00A034FF400460B701770066028E7D749004020A0FF1F2EA0FF1F2CA0FF1F80E100E0D649004035A0FF1FD849004028A0FF1F24A0FF1F2DA0FF1F34A0FF1F5A
:4039800030A0FF1FD949004059B12DE9F041244C2578102D07D02578602D0AD00220BDE8F081022070471F4D2D782D0731D41E4D08E01E4E1C4D4FF4004737602E7806F001
:4039C000F7062E701A4EDFF880E01A4F4FF045084FF0000C84F800808EF800C03A7033702A784000144E154CC0B202F0FD02DB072A70316020700FD50A49114B122004222E
:403A000008701A700F4B4FF400421A600020BDE8F0810120BDE8F081024B01221A70F1E720A0FF1FD94900402EA0FF1F80E200E02CA0FF1F34A0FF1F30A0FF1FD849004053
:403A4000D749004000E100E02DA0FF1FF0B5030183B0DBB200F0F00043F00D0743F0090540F00D0640F0090401A90422002327208DF806708DF807508DF804608DF8054025
:403A8000FFF782FF4FF4FA70FFF790FD03B0F0BD38B50546007838B10124FFF7D7FF285D0134E4B20028F8D138BD00BFF0B5030183B0DBB200F0F00043F00C0743F00805B1
:403AC00040F00C0640F0080401A90422002327208DF806708DF807508DF804608DF80540FFF752FF4FF4FA60FFF760FD03B0F0BD032816D8DFE800F0110C0702A1F12C0039
:403B0000C0B2FFF7D3BFA1F16C00C0B2FFF7CEBFA1F14000C0B2FFF7C9BF81F08000FFF7C5BF704730B500F0F00083B040F00C0540F0080401A90222002327208DF804502E
:403B40008DF80540FFF720FF4FF4FA60FFF72EFD03B030BD08B51420FFF704FD3820FFF7E1FF0520FFF7FEFC3820FFF7DBFF0520FFF7F8FC3820FFF7D5FF0520FFF7F2FC7B
:403B80002820FFF7CFFF0520FFF7ECFC2820FFF78DFF0520FFF7E6FC0120FFF787FF0520FFF7E0FC0620FFF781FF0520FFF7DAFC0C20FFF77BFFBDE808400520FFF7D2BCDC
:403BC00010B5064C63781BB9FFF7C4FF012363700C20FFF76BFF0123237010BDF592FF1F10B5092884B043D92A4C0023A4FB0021C90801EB8102A0EB420288B204A93032A3
:403C00001944092803F1010301F8082CDBB2214AECD8A2FB0012D20802EB8202A0EB4202303204A9D2B219441C4601F8082C184613B92AE012F8082CE11A0DF1100E71448F
:403C400001F8102C7246013B13F0FF031A44F1D19DF80830421C04A90A440C446846002104F8103C02F8101CFFF712FF04B010BD084B0122A3FB0013DB0803EB8303A0EBB2
:403C800043033033DBB20024E5E79DF808300122E1E700BFCDCCCCCCF8B500F061FB204A044613781F4943F0020313700B781E4843F002030B70037801F5AA5143F001039C
:403CC0000370D379103143F00103D3710A7800F5AB50164B0C30182542F003020A7005701A78134E42F040021A701A78A0F597500225183802F0FC02C8271A7037700570DC
:403D000091F824320A2043F0080381F82432FFF74DFC084B20461D60BDE8F84000F024BBAB430040BB430040A24300400D5900400859004080E200E00A2838B5044630D0C9
:403D40000C2826D0082818D00020FFF709FCC223174A0A2C137017D00C2C24D0082C0FD00020FFF7FDFB00231A46124C124813490025258002600B8038BD0D4B42221A702A
:403D8000802340F2E242F0E74FF4007341F28832EBE7074BC2221A704FF4006344F62062E3E78223D4E744F620624FF40063DCE70A59004038A0FF1F3CA0FF1F3AA0FF1FC2
:403DC00008B5102000F090F901200721FFF706FC07490120FFF7F2FB064A0C20137843F006031370FFF7A8FF034B00221A8008BD693E00000959004040A0FF1F10B5054C39
:403E000023781BB9FFF7DCFF01232370BDE81040FFF742BFF792FF1F024A137843F00103137070470859004038B5084A00E050B91378064D13F00104F9D02046FFF7B6FB2B
:403E40002B78204638BD0024204638BD09590040034A044B1B881088181A00B2704700BF3AA0FF1FA25B0040704700BF08B5104841F64B5100F0ACFA41F64B510D4800F0B1
:403E8000A7FA00F06DFA0C4A137843F01003137000F06AFA094A1378190704D508490B6813781B07FBD4074B01221A7008BD00BF25640040056400409765004067650040B8
:403EC000456400408765004010B5064C23781BB9FFF7CCFF01232370034A137843F08003137010BDF892FF1F7264004010B501214FF4804241F6FF73022000F0A3F941F699
:403F0000FF72084C134620700121082000F0BCF96070054800F0D6F9BDE81040022000F0D7B900BFFC92FF1F65400000F8B52A4D2A4C2878FFF760FA6878FFF75DFA207812
:403F4000FF2845D0264E062302460821B6B2FFF7E1FA324645F6A0312078FFF7F3FA28782178FFF78BFA60781C4FFF282CD0072302460821FFF7CEFA1A4A314692B2607855
:403F8000FFF7E0FA61786878FFF778FA01212878FFF714FA01216878FFF710FA00F0E0F9114A137843F02003137000F0DDF90F4B0F491A78042042F001021A701A7842F00F
:403FC00002021A700860F8BDFFF788FA7870CEE7FFF784FA2070B5E7FC92FF1F1882FF1F0093FF1F44A0FF1F986500407B65004080E200E010B5074CE3681BB9FFF776FF09
:404000000123E360FFF792FF00F0F6F8024B1B7810BD00BFFC92FF1F6A650040024A137843F00403137070477B65004000F0FEB8044900E020B90B7803F0FF02002BF9D00B
:40404000104670476A650040044A054BC0F1030033F810301088181A00B270474CA0FF1F44A0FF1F704700BF08B50F480F4900F0AFF90E490E4800F0ABF900F071F90D4ABC
:40408000137843F01003137000F06EF90A4A1378190704D509490B6813781B07FBD4084B01221A7008BD00BF286500403F4B4C000865004099640040696400404865004031
:4040C0008964004010B5064C23781BB9FFF7CCFF01232370034A137843F08003137010BD0C93FF1F79650040034A00F0F800137818431070704700BF82400040F8B500F02C
:404100002FF9044619481A4A03781A4943F001030370137800F5AA5043F0010313700A78154B1B30182542F003020A7005701A78124E42F040021A701A78A0F597501238B4
:4041400002F0FC02CE2702251A703770057091F824320A2043F0080381F82432FFF726FA2046BDE8F84000F0FFB800BFAB430040BB43004003590040055900400059004079
:404180000A2810B504462AD00C2822D0082817D00020FFF7E5F9C223134A0A2C137015D00C2C1ED0082C0ED00020FFF7D9F900220E4C0F480F490023238002600B8010BDE8
:4041C000094B42221A704FF40072F1E74FF40062EEE7054BC2221A704FF40052E8E78223DAE74FF40052E3E7025900404EA0FF1F50A0FF1F4CA0FF1F38B5094C25785DB9DB
:40420000084A0820137843F006031370FFF7B8FF054A012315802370BDE83840FFF76EBF0D93FF1F0159004054A0FF1F044B1A7802F0FE021A701A7842F004021A70704760
:40424000005900402DE9F0418E4690461F4682B00C4C0125002672462B4601460096284601962570FFF716F941463A462078FFF7EDF820780221FFF7D7F8207802B0BDE8EB
:40428000F08100BF1A82FF1FF0B58E4617461E4683B000250A4C72462B4601460095019528462570FFF7F6F8394632462078FFF7CDF820780221FFF7B7F8207803B0F0BD08
:4042C0001B82FF1F014B1B689864704708ED00E04001024BC0B21870704700BF02E400E008B500F03DF8044A137843F010031370BDE8084000F038B894650040094B1A7878
:404300006AB9F0B40848094E094C0627472501213770257002701970F0BCFFF7E1BFFFF7DFBF00BF0E93FF1F846500402264004032640040034A13785B07FCD4024B1870D0
:40434000704700BF6465004047650040000000000230800803D000BF01380046FCD17047EFF3108072B6704780F31088704700BF134B1B7803F00303012B1CD0022B07D0AB
:404380000023104A1268D35C012B12D0002070470D4B0E4A1B7803F07F0303EB430302EB83030833074A9B781268DBB2D35C012BECD100F017B8044B1B78DBB2E1E700BF20
:4043C00000600040449FFF1F046000406C9FFF1FCAB2C1F30723C1F30741027043708170704700BF0A4B1B78DBB203F00303022B0AD0012B01D00020704703F1804303F575
:40440000C0431B7800207047024B00201B787047006000400160004030B5214A21F00043934287B01BDD1F4A934205DD02460B4602F0A2FC07B030BD02AA01F001FA00F0FA
:40444000030001281AD002280FD008B3DDE9020101230093DDE9042302F0F6F9EAE70022002301F0C9FC07B030BDDDE90201DDE9042301F0C1FC01F10041DBE70090DDE9F5
:404480000423DDE9020102F0DFF901F10041D1E7DDE90201DDE9042301F0AEFCCAE700BFFB21E93FFFFFEF7FF8B5C1F30A56A6F2FF35132D0A460B460446864611DC002D48
:4044C0002DDB0F461F492941114224D04FF400232B413B4423EA01030022194614462046F8BD332D05DDB5F5806F1ED011462046F8BDA6F213414FF0FF30C8402042F5D02A
:40450000C6F5866602360121B140091928BF013321EA0002E1E70028D8D11146E7E7013501F0004307D00022D7E702460B4602F025FC0446D3E743F07F5343F440130022FF
:40454000CBE700BFFFFF0F0030B5224A21F00043934287B01BDD204A934205DD02460B4602F00AFC07B030BD02AA01F069F900F0030001281ED0022811D010B3DDE902011E
:40458000DDE9042301F038FC01F10041EAE7002300930022002302F057F907B030BD01230093DDE90201DDE9042302F04DF901F10041D7E7DDE90201DDE9042301F01CFCAF
:4045C000D0E70124DDE90201DDE90423009402F03BF9C7E7FB21E93FFFFFEF7F2DE9F0438BB006460F4600F0F3F9DFF8E880044698F900300D4601330BD03046394602F07D
:4046000073FA30B1304639460022002302F0F8FF20B1204629460BB0BDE8F0832A4B98F800400890CDE90267CDE9046701939CB9264D4FF060443046394600220023CDE944
:40464000064502F0B5FF002835D101230093684602F076FAA8B910E0DFF87C904FF000083046394600220023CDE9068902F0A0FF98B90123022C0093E9D103F041FB212366
:404680000360134802F05EFACDE90601089BABB9DDE906010BB0BDE8F08302239C42009304D0684602F04CFA0028EFD103F028FB22230360EAE702230093F2E703F020FB28
:4046C000089B0360E4E700BFA0890000FFFFEFC7408700001C82FF1F0000F0FF2DE9F04F8BB01F4680468946164600F059FBDFF8D8A204469AF900300D46013304D0304682
:40470000394602F0F1F920B9204629460BB0BDE8F08F4046494602F0E7F9834660BB304639460022002302F043FF0028ECD09AF900309E4C01229E4900208DE814005A1C9E
:40474000CDF820B0CDE90289CDE90467CDE906010DD0022B0BD0684602F0F2F9002800F09380089B1BB103F0CBFA089B0360DDE906010BB0BDE8F08F4046494600220023B7
:4047800002F016FFF8B1304639460022002302F00FFF834600284ED084489AF900300121002200240025CDE90289CDE90467CDE90645019000910892002BCCD07C4B002215
:4047C000CDE90623D3E72046294602F0F9F8834600285ED0204629460022002302F0E8FE002891D04046494602F0EAF800288BD03046394602F0E4F8002885D09AF900305F
:404800006A480421002200240025022BCDE90289CDE90467CDE9064501900091089200F08880684602F08CF9002800F08280089B002B9CD097E73046394602F0C1F8002833
:404840003FF462AF304639460022002302F0BAFE00283FF459AF55499AF800300122CDF820B0CDE90289CDE9046701910092002B3CD050490020022BCDE9060130D103F041
:404880003FFA21230360D2E703F03AFA2123036067E74046494602F093F800289AD03046394602F08DF8002894D02046294602F01BF900BB3D4A9AF8004001230890CDE9C6
:4048C0000289CDE90467019200937CB10020002102460B4602F02EFD022CCDE90601CED0684602F02DF90028A1D1C8E700220023CDE90623F4E72D499AF900300322CDF808
:4049000020B0CDE90289CDE9046701910092ABB9294D4FF060444046494600220023CDE9064502F04FFE50BB9AF90030022B7FF478AF03F0E5F92223036078E71F4D0024CD
:404940004046494600220023CDE9064502F03AFE0028E9D000221A4B3046394602F0C0FB04460D4602F0F4F822462B4602F020FE0028D9D10F4B0022CDE90623D4E700223A
:404980000F4B3046394602F0ABFB04460D4602F0DFF822462B4602F00BFE0028C4D1094B4FF06042CDE90623BEE700BFA48900000000F03F0000F0FFFFFFEF470000F07FB3
:4049C0000000E03FFFFFEFC71C82FF1F000000002DE9F04FB1F5801F85B006460F460B465ADA024621F00044224300F0F5800029C0F271810022DE4B02F072FB0B460F46AF
:404A0000DC4906468B426FF0350249DCC3F3130505F5152404F6647404F4801E8EF07F5181F440111B15A3F2FF3341EA05079C1830460022D04B394604EB1E5402F09CF904
:404A4000AB1CC3F31303022B82468B464FF000022FDC002302F0ACFD002800F0C680002C00F04281204602F0D5FAADA3D3E9002306460F4602F034FBABA3D3E90023044607
:404A80000D463046394602F02BFB02460B462046294602F073F909E0B64900228B42B5DD3046394632463B4602F068F905B0BDE8F08F4FF0804302F061F902460B465046CA
:404AC000594602F037FC06460F462046CDE9006702F0A0FA3246CDE902013B463046394602F0FEFA02460B468046894602F0F8FA8FA3D3E9002306460F4602F0F1FA8EA3DF
:404B0000D3E9002302F03AF932463B4602F0E8FA8BA3D3E9002302F031F932463B4602F0DFFA89A3D3E9002302F028F942464B4602F0D6FA86A3D3E90023804689463046AB
:404B4000394602F0CDFA84A3D3E9002302F016F932463B4602F0C4FA81A3D3E9002302F00DF932463B4602F0BBFA0B4602464946404602F003F9A5F5C223C5F5D725A3F24C
:404B80007A4351351D43002D06460F4653DD00227A4B5046594602F0A3FA52465B4602F09FFA80468946002C60D132463B4602F0E5F8DDE9002302F093FA02460B464046A4
:404BC000494602F0D9F802460B465046594602F0D3F805B0BDE8F08F002200230020684902F0A8FB05B0BDE8F08F52465B465046594602F075FA5CA3D3E9002306460F462D
:404C00005046594602F06CFA02460B4600205B4902F0B2F802460B463046394602F060FA06460F46002C62D15046594632463B4602F0A2F83AE7002C00F0A48038A3D3E962
:404C40000023DDE902894046494602F049FA32463B4604460D465046594602F08DF8DDE9002302F03DFA06460F464CE02CA3D3E90023DDE9020102F033FA32463B4604467C
:404C80000D464046494602F079F8DDE9002302F027FA25A3D3E9002306460F46DDE9020102F01EFA02460B463046394602F066F802460B464046494602F05EF852465B4605
:404CC00002F05AF802460B462046294602F054F805B0BDE8F08F02460B4602F04DF80022002302F027FBE1E600200021DEE6204602F090F90AA3D3E900238046894602F002
:404D0000EFF904460D4608A3D3E900234046494602F0E6F902460B4630463946CCE700BF0000E0FE422EE63F763C7935EF39EA3D44523EDF12F1C23FDE03CB966446C73FB3
:404D4000599322942449D23F935555555555E53F9FC678D0099AC33FAF788E1DC571CC3F04FA97999999D93F555555555555D53F00005043FFFFEF7F0000F03F0000E03F77
:404D8000000050C302460B465046594601F0F4FFDDE9002302F0A4F915E700BFAFF300802DE9F04F144623F00047024657EA04000E468FB01D469C46214634D06E4B26F031
:404DC000004A9A459346B14626DC24D09F4223DC694B9F4200F08F80B9F1000FC0F28F804FF0000879BB644B9F4200F0A580634B9F4267D0BCF1804F00F0E283604B9C4593
:404E000021D1B9F1000F1EDB104631460FB0BDE8F04F00F029BF62B10AF1404000F5801050EA0B0007D10346544918460FB0BDE8F08F5745CCDD53480FB0BDE8F04F01F0BB
:404E400081BE4FF0000810463146CDF808C0009201F0B2FD009ADDF808C0BBF1000F20D04FEAD97909F1FF3958EA09037AD0464B9F4240F38F8003F104739F4240F3108422
:404E8000424B9A4540F39283BCF1000F40F3928337A1D1E900010B46024602F021F90346C3E7BAF1000F04D0344B29F0404E9E45D6D1BCF1000FC0F2B683B9F1000F08DB8E
:404EC0000346B2E7BCF1000FC0F2528413463146ABE70AF1404A0AF5801A58EA0A0340F05E8402460B4601F047FF0B46024602F021FA034699E700293FF46EAF8CE7244B11
:404F00009F422CDCA3F154739F427FF769AF40F213403B15834240F34B84C3F58663033321FA03F000FA03F38B427FF459AF00F00100C0F1020855E70AF1404303F5801314
:404F400053EA0B0300F03983104B9A4540F36483BCF1000FC0F22E832346294665E74FF002083FE7104631463346BCE7AFF300809C7500883CE4377E0000F07F0000F03F1D
:404F80000000E03F408700000000E041FFFFEF3FFFFF3F43BAF5801F4FF0000205DACA4B02F09EF88A466FF034024FEA2A53C74ECAF3130AA3F2FF334AF07F571344B24504
:404FC0000C9347F4401740F3D083C14B9A4540F307840026B4460C9BA7F5801701330C933946BC4B4FEACC0C6344D3E900AB52465B46CDF834C0CDE9060101F0BDFE5246EC
:405000005B46CDE90801DDE9060101F0B7FE02460B460020B04902F08DF902460B46DDE90801CDE90A2302F05BF802460B46CDE90223CDE904237B1043F0005303F5002366
:4050400099190020002306460F460293DDE902231046194632463B46CDE9000102F040F802460B46DDE9080101F086FE5246CDE908015B463046394601F07EFE02460B46BB
:40508000DDE9060101F078FE02460B46DDE9000102F026F802460B46DDE9080101F06CFEDDE90A2302F01CF8DDE90423CDE906011046194602F014F802460B4606460F46F9
:4050C00002F00EF86EA3D3E9002382468B463046394602F005F86CA3D3E9002301F04EFE32463B4601F0FCFF69A3D3E9002301F045FE32463B4601F0F3FF67A3D3E9002357
:4051000001F03CFE32463B4601F0EAFF64A3D3E9002301F033FE32463B4601F0E1FF62A3D3E9002301F02AFE02460B465046594601F0D6FFDDE9042306460F46DDE90001B9
:4051400001F01CFEDDE9062301F0CAFF32463B4601F014FEDDE9006782468B4632463B463046394601F0BCFF00225C4BCDE9080101F004FE52465B4601F000FE02980F468D
:405180000646DDE9000132463B4601F0A9FF32463B46CDE90001DDE9060101F0A1FF0022CDE906014D4B3046394601F0E5FDDDE9082301F0E1FD02460B465046594601F07E
:4051C000DBFDDDE9042301F08BFF02460B46DDE9060101F0D3FD82468B46DDE9000152465B4601F0CBFD32A3D3E9002302980F46064601F075FF30A3D3E90023CDE9040135
:405200003046394601F06CFFDDE90023CDE906013046394601F0B0FD02460B465046594601F0AAFD26A3D3E9002301F059FF02460B46DDE9060101F0A1FDDDF834C0284B5C
:40524000CDF818C06344D3E9002301F097FDCDE900010C9801F0DEFE06460F46DDE90401204BDDF818C09C44DDE90023DCE900AB01F084FD52465B4636E000BFAFF30080FF
:40528000EF4E454A287ECA3F65DBC9934A86CD3F01411DA96074D13F4D268F515555D53FFFAB6FDBB66DDB3F033333333333E33F000000E009C7EE3FF5015B14E02F3EBE5C
:4052C000FD033ADC09C7EE3F000040438E98030079B60B00C88900000000F03F00000840B8890000A8890000CDE906AB01F046FD32463B4601F042FD029832463B4682465C
:405300008B4601F039FDDDE9062301F035FDDDE9042301F031FD02460B46DDE9000101F02BFDCDE9020108F1FF3858EA09030CBFD54BD64B0022CDE904230023CDE900457E
:405340000093DDE90067204632463B46294601F013FD52465B4601F0C3FEDDE90223804689462046294601F0BBFE02460B464046494601F003FD04460D46524630463946EB
:405380005B46CDE9024501F0ABFE06460F4620463B462946324601F0F1FCBD4B824699428946884640F3138101F13F4303F5E003034340F0E581A0A3D3E90023DDE9020143
:4053C00001F0DCFC324604460D463B465046494601F0D2FC02460B462046294602F010F9002840F0CD814C462015A0F2FE304FF4801101414144C1F30A50A64CA0F2FF3573
:40540000C1F3130BC0F5826003302C414BF4801B21EA040300224BFA00FB3946304601F0ABFC06460F46DDE902018BEAE87B0BEBD87B32463B464FEA0B5A01F09FFC80A3B7
:40544000D3E90023002420460D4601F049FE3246804689463B462046294601F08DFC02460B46DDE9020101F087FC77A3D3E9002301F036FE76A3D3E9002306460F46204668
:40548000294601F02DFE02460B463046394601F075FC06460F4632463B464046494601F06DFC42464B4604460D4601F065FC02460B463046394601F05FFC22468046894689
:4054C0002B462046294601F00BFE63A3D3E9002306460F4601F004FE61A3D3E9002301F04BFC32463B4601F0FBFD5FA3D3E9002301F044FC32463B4601F0F2FD5CA3D3E950
:40550000002301F039FC32463B4601F0E9FD5AA3D3E9002301F032FC32463B4601F0E0FD02460B462046294601F026FC06460F4632463B462046294601F0D2FD0022CDE908
:4055400000014FF080433046394601F015FC02460B46DDE9000101F0EDFE424606460F464B462046294601F0BBFD42464B4601F005FC02460B463046394601F0FDFB2246D3
:405580002B4601F0F9FB02460B4600203F4901F0F3FB8A44BAF5801F0246C0F227815346DDE9040101F09CFD03463EE4BCF1000FFFF66EAC0023194637E40B46334934E411
:4055C00033461046314601F08BFD03462DE4324B21F000449C4240F3FA80304B0B4403430CD132463B4601F0C7FB02460B46DDE9020101F0F1FF00283FF4F6AE20A3D3E9DB
:405600000023DDE9040101F06BFD1DA3D3E9002301F066FD034608E4BCF1000FCADA234605F1004101E402460B460020174901F081FE42E4AFF30080FE822B654715973C06
:4056400000000000432EE63FEF39FAFE422EE63F396CA80C615C20BED0A4BE726937663EF16BD2C541BDBB3E2CDE25AF6A56113F93BDBE166CC1663F3E5555555555C53F4A
:4056800059F3F8C21F6EA5010000F0BF0000F03FFFFF8F40FFFF0F00FFCB904000346F3F634B9A4582DD634B9A453FF7EDAB0022604B01F061FB54A3D3E9002306460F46A5
:4056C00001F00EFD52A3D3E90023CDE900013046394601F005FD3246CDE902013B463046394601F0FDFC002282468B4630463946514B01F0F5FC02460B4647A1D1E9000140
:4057000001F03AFB32463B4601F0EAFC02460B4600204A4901F030FB02460B465046594601F0DEFC3EA3D3E9002301F0D9FC02460B46DDE9020101F01FFB06460F46DDE918
:40574000000132463B4601F019FBDDE90023002082468B4601F010FB02460B463046394601F00AFBCDE90201DDE50026B44637E4334600202F4901F0DDFD0346FFF755BB27
:4057800029A3D3E90023DDE9040101F0A9FC26A3D3E9002301F0A4FC0346FFF746BBB8F1010F03467FF441AB01F10041FFF73DBB00297FF446ABC3F58263033347FA03F04E
:4057C00000FA03F3BB4217D08846FFF710BB1B4B9C423FF709AEDDE90023924693462EE64FF480264FF0010CFFF7FABB5A4601F03FFA02460B46D3E600F00100C0F10208BF
:40580000FFF7F5BAAFF30080000000604715F73F44DF5DF80BAE543E555555555555D53FFE822B654715F73F9C7500883CE4377EFEFFEF3F0000F03F0000D03F0000E03F42
:405840002DE9F04F924C21F00047A7428FB00E467FDD14468F4A974226DC83A3D3E90023002940F39D8101F087FA8B4B80469F42894600F083807EA3D3E9002301F07CFA20
:4058800002460B464046C4E90023494601F074FA77A3D3E9002301F06FFA0125C4E9020128460FB0BDE8F08F7C4A974240F383807B4A974258DC3D15A5F21645A7EB0551BE
:4058C0008B46824601F0A6FE01F0A4FB8046894642464B4650465946CDE9088901F04CFA0022704B01F0FCFB8B46824601F092FE01F090FB8046894642464B46504659464B
:40590000CDE90A8901F038FA0022664B01F0E8FB00220023CDE90C0101F04AFE002800F06781002340464946002201F041FE002814BF012302235C480221019000912A46EC
:4059400008A8214600F07CFB002EC0F24781054606E0C2E9000100250024C2E90245002528460FB0BDE8F08F02460B4601F004FA0025C4E90201C4E90001F1E73EA3D3E9F3
:40598000002301F0F9F93EA3D3E9002306460F4601F0F2F902460B463046C4E90023394601F0EAF936A3D3E9002301F0E5F90125C4E90201D4E700F0FFFF33A3D3E90023B7
:4059C0008046894601F08CFB0022384B01F0D6F901F020FE054601F01DFB23A3D3E90023CDE9040101F07CFB02460B464046494601F0C2F91EA3D3E9002382468B46DDE9B1
:405A0000040101F06DFB1F2DCDE902015046594650DC274B6A1E53F82230BB424AD0DDE9022301F0A9F902460B4681468846C4E900234A4643465046594601F09DF9DDE9DD
:405A4000022301F099F902460B46002EC4E9022386DA4A4608F1004301F1004184E80C00E160A0606D427BE700004054FB21F93F3163621A61B4D03D0000601A61B4D03D06
:405A80007370032E8A19A33B83C8C96D305FE43FFB21E93F7BD90240FB21F93FFB213941FFFFEF7F00007041588A00000000E03FD8890000DDE9022301F05EF988463F1586
:405AC000C8F30A53FB1A102B8146C4E90001B0DD59A3D3E90023DDE9040101F001FB8046894642464B465046594601F045F9CDE90601DDE906235046594601F03DF9424607
:405B00004B4601F039F94EA3D3E9002380468946DDE9040101F0E4FA42464B4601F02CF9CDE90201DDE90223DDE9060101F024F90B4602468846C1F30A517F1A312F8146CE
:405B4000C4E9002374DD40A3D3E90023DDE9040101F0C6FA80468946DDE9060142464B4601F00AF982468B46DDE9060152465B4601F002F942464B4601F0FEF834A3D3E939
:405B8000002380468946DDE9040101F0A9FA42464B4601F0F1F8CDE90201504659463EE701F0ECF82E4B80469F42894622D02AA3D3E9002301F0E2F802460B464046C4E9CF
:405BC0000023494601F0D8F823A3D3E9002301F0D5F84FF0FF35C4E90201C1E66268E36802F1004203F1004345426260E360B7E60323A0E610A3D3E9002301F0BFF810A3C2
:405C0000D3E9002306460F4601F0B8F802460B463046C4E90023394601F0AEF808A3D3E9002301F0ABF84FF0FF35C4E9020197E6DDE906ABFDE600BF0000601A61B4D03DDB
:405C40007370032E8A19A33B0000002E8A19A33BC14920259A837B393163621A61B4D03DFB21F93FAFF300802DE9F041604E0C46B6460E40764505460B4600F098800029FF
:405C8000024676DD5FEA215E00F08180AEF2FF3EC3F313031EF0010F43F480135ED100273C46D10F01EB43034FEA6E0E520016204FF4001165189D424FEAD2764FEA42022A
:405CC00002DC5B1B6C180F44013806EB43034FEA5101EFD1844620264FF000410AE0A34220D0D50F013E4FEA510105EB43034FEA420220D09C420CEB0105F0DA002D05EB5C
:405D0000010C09DBA0461B1B954288BF03F1FF334446521B0844E4E7BCF1000FF2DB04F10108F0E7954217D8002D05EB010C48DB98460023ECE7134315D140087B1003F1BC
:405D40007F5303F50013FA0703EB0E57394648BF40F00040BDE8F0811C46C2E7D10F01EB430352009BE7411C31D000F001031844E3E721F000460643ECD079BB8E46D30A3C
:405D8000AEF1150E5205002BF9D0DC0222D400215B00D80201F10101FAD5C1F10100C1F1200422FA04F4234386448A406EE702460B4601F095F92A46234600F0DFFFBDE899
:405DC000F081BCF1000FAADAA0460023A0E701373046B3E7202401200021E2E702460B4600F0CAFF02460B4601F0A4FAB2E700BF0000F07F000000002DE9F04F21F00047DD
:405E0000B7F1795F85B00C4692469B4605466BDA01F000FC002800F0E7802A4623462846214601F05DF974A3D3E900238046894601F056F972A3D3E9002300F09FFF4246DC
:405E40004B4601F04DF970A3D3E9002300F094FF42464B4601F044F96DA3D3E9002300F08DFF42464B4601F03BF96BA3D3E9002300F082FF42464B4601F032F968A3D3E99B
:405E8000002300F07BFF42464B4601F029F9CDE90001404649460022634B01F021F9DDE9002306460F464046494601F019F95246804689465B462846214601F011F90246FA
:405EC0000B464046494600F057FF02460B463046394600F051FF02460B460020534900F04BFF05B0BDE8F08F02460B4601F0F8F841A3D3E900238046894601F0F1F840A331
:405F0000D3E9002300F03AFF42464B4601F0E8F83DA3D3E9002300F02FFF42464B4601F0DFF83BA3D3E9002300F028FF42464B4601F0D6F838A3D3E9002300F01DFF4246B7
:405F40004B4601F0CDF836A3D3E9002300F016FF4B46424601F0C4F8354BCDE900019F4297DD344B00229F4238DCA7F5001300202E4916461F4600F0FFFECDE90201404602
:405F800049460022284B01F0ABF832463B4600F0F3FEDDE9002306460F464046494601F09FF85246804689465B462846214601F097F802460B464046494600F0DDFE024644
:405FC0000B463046394600F0D7FE02460B46DDE9020100F0D1FE05B0BDE8F08F164B0026CDE90223154FCAE71049002005B0BDE8F08F00BFAFF30080D43888BEE9FAA8BD58
:40600000C4B1B4BD9EEE213EAD529C804F7E923E9015CB19A001FA3E7751C1166CC1563F4C5555555555A53F0000E03F0000F03F3233D33F0000E93F0000E73F0000D23F17
:406040002DE9F04F9E467E4DD41E85FB0465E417C4EBA504ADF51D7D24EAE4742546A69E0D940C93E343774C03EB430354F8264002EBC303274609940EF1FF34264603949C
:40608000F41904900A910893A5EB060516D42C44013422AEA79F08E057F8250000F0BAFF0135A542E6E9020108D0002DF4DA013500200021A542E6E90201F6D1099B002B3C
:4060C00031DB099A0C9B74A901EBC20BC3EB4373039A24A9DB0001EBC20800930DF5E479039B002BC0F297814446049B0026A3F1080A009B002708EB0305FAE9022374E87A
:40610000020100F0EDFF02460B463046394600F035FEAC4206460F46EFD1E9E90267D94508F10808DCD1099B10A99B4603F18043013B9B001A1D0A440B440F920E934FEA56
:40614000CB039CA91A460693BBF1000F0B4453E9284528DD0DF5E87A0AEB02060FAF0022394B2046294600F0BBFF01F053FA00F051FF0022354B8046894600F0B1FF02467A
:406180000B462046294600F0F7FD01F043FA76E9022347F8040F4946404600F0EFFD564504460D46DBD1DDF82090204629464A4600F05EFD00224FF07F5304460D4600F007
:4061C0008FFF00F005FC0022214B00F089FF02460B462046294600F0CFFD04460D4601F019FA804600F016FF02460B46204629464C4600F0C1FD002C06460F4640F3F18065
:406200000BF1FF3110AB53F82130C9F1180043FA00F202FA00F55D1B10A8C9F1170340F8215090441D41002D3FDDBBF1000F08F1010840F38482002214460FA912E000BFE6
:40624000ABAAAA2A608B00000000703E0000704100002040C3F180700BB108600124013293450DDD51F8043F002CF3D0C3F1FF13013203F57F4393450B604FF00104F1DCE7
:40628000089B002B0EDD012B00F0B380022B09D10BF1FF3210AB53F8223010A9C3F3150341F82230022D00F08380304639460022002301F07DF9002800F0C980099B0BF174
:4062C000FF3A53450DDC10AB0F9803EB8B03002253F8041D834242EA0102F9D1002A40F01482099B10AA013B52F82330002B40F024820E9A012352F8041D01330029FAD034
:406300005B441A460B930BF1010393424DDC0D9A4FF0000803EB02090B9A0C9B09F180495B44CBEB020BA79A09F1FF3902EB890200924FEACB02DB00059224AA02EB030BAC
:406340000793069B74AA02EB030A009B002653F8040F0027009300F05DFE039BEBE80201002B1BDB079B03EB0804069B08EB030524AB1C441D44049BA3F10809F9E90223FE
:4063800074E8020100F0ACFE02460B463046394600F0F4FCAC4206460F46EFD1059B08F108089845EAE90267CFD1DDF82CB0C6E632463B460020BF4900F0DEFC06460F46DC
:4063C000002C3FF472AF089A0020BA4900F050FC02460B463046394600F0CEFC06460F4663E711D10BF1FF3310AA52F82350ED1519E70BF1FF3210AB53F8223010A9C3F36C
:40640000160341F822304DE70022AB4B01F0EEF858B9054649E700260027E9E90267D94508F108087FF45CAE7DE6BBF1000F08F10108C8BF02253FF7FEAE32463B46002014
:406440009C4900F099FC022506460F462DE7089B30465A4239460395CDF8148000F008FC0022964B04460D4601F0C0F8002800F0E1810022924B2046294600F031FE01F016
:40648000C9F8064600F0C6FD00228C4B00F028FE0B4602462946204600F06EFC01F0BAF8089B0BF1010A1833089310AB43F82B0043F82A60089A00207E4900F0D9FBBAF134
:4064C000000F04460D46C0F2CA800AF101034FEAC30874AF10AA009302EB830907EB080659F8040D00F096FD22462B4600F0F8FD002266E90201724B2046294600F0F0FD82
:40650000BE4204460D46EBD1A8F1080806EB08039B460DF59879CDF818A0DDF824A04FF00008CDF81090BAF1000FC0F29580B8F1000FC0F29180DFF88C915D4600260027C7
:40654000002401E0444510DCF9E90223F5E8020100F0C6FD02460B463046394600F00EFC0134A24506460F46ECDA049BABF1080B03EBC803C3E90067009B08F10108984568
:40658000D1D1A69BDDF818A0DDF81090032B3BD8DFE813F0410004000400D70000273E46009B09EBC304384674E90223314600F0E5FB4C4507460E46F5D1039B002B00F0D2
:4065C0008B80D9E900010A9D334606F100463A466E602F6000F0D0FBBAF1000F03460CDD01261C46F9E90223204600F0C7FB0136B2450346F5DA039A0AB101F100411C4611
:406600000D460A9BC3E90245059B03F007000DF51D7DBDE8F08F00231946009A09EBC2091C4679E90223204600F0A8FB0AF1FF3ABAF1FF3F0346F3D1039A0AB101F10041A3
:406640001C460D460A9BC3E90045059B03F007000DF51D7DBDE8F08F0026002785E7A69B032BD1D8DFE803F04E3030020DF59879039A00231E46002A00F0C8800A9FD9F827
:406680000800D9F80440D9F80C203B61059BD9F8001006F1004604F1004402F10042B86003F007007E617C60FA6039600DF51D7DBDE8F08F0000F03F0000E03F0000704179
:4066C0000000703E688B0000039B00273E460DF59879002B7FF475AFD9E9000135463C4633460A9E3A46C6E9004500F045FBBAF1000F03463FF774AF1C460D460A9BC3E9F4
:40670000024581E70023194696E7089A10AB53F82A30183A0395CDF814800892002B7FF4C9AE10AB03EB8A0353F8041D0AF1FF3A183A0029F8D00892BCE60123E0E5002455
:406740009EE5BAF1000F93DD4FEACA0809EB08039B46D3E900677BE9022330463946CDE9002300F00BFB04460D46DDE9000122462B4600F001FB02460B463046394600F06A
:40678000FDFACB4526462F46CBE90201CBE90045E1D1BAF1010F7FF76BAF09EB08039A46D3E900670DF59C7B7AE902231046194632463B46CDE9000100F0E0FA04460D46D5
:4067C000DDE9000122462B4600F0D6FA32463B4600F0D4FADA4526462F46CAE90201CAE90045E1D100231E4608F108044C4450AD184674E90223314600F0C0FAAC420346D1
:406800000E46F5D1039A002A7FF438AFD9E90045D9E90289184631460A9A059BC2E9040103F00700C2E90045C2E902890DF51D7DBDE8F08F2046294600F0ECFE10ABDA4696
:4068400043F82B0036E600BF2DE9F04F21F00046B6F1795F85B00C4690469946054604DA00F0D8FE002800F083802A4623462846214600F035FC2A46234606460F4600F02D
:406880002FFC3FA3D3E9002382468B463046394600F026FC3CA3D3E9002300F06DFA32463B4600F01DFC3AA3D3E9002300F066FA32463B4600F014FC37A3D3E9002300F087
:4068C0005BFA32463B4600F00BFC35A3D3E9002300F054FA0E9BCDE900019BB3404649460022334B00F0FCFBDDE90023CDE902015046594600F0F4FB02460B46DDE90201FC
:4069000000F03AFA32463B4600F0EAFB42464B4600F032FA24A3D3E9002306460F465046594600F0DDFB02460B463046394600F025FA02460B462846214600F01DFA05B025
:40694000BDE8F08FDDE900233046394600F0C8FB15A3D3E9002300F00FFA52465B4600F0BFFB2A46234600F009FA05B0BDE8F08F2846214605B0BDE8F08F00BFAFF30080BB
:406980007CD5CF5A3AD9E53DEB9C2B8AE6E55A3E7DFEB157E31DC73ED561C119A0012A3FA6F810111111813F495555555555C53F0000E03FAFF3008021F00041704700BF47
:4069C00041F0004101F58010C00F7047000000002DE9F047C1F30A58A8F2FF36132E0B4604460D460246894607461DDC002E40DBDFF8F08048FA06F808EA010E5EEA02023E
:406A000017D035A3D3E9002300F0B8F90022002300F0F6FD20B1002D40DB29EA0805002738462946BDE8F087332E06DDB6F5806F2FD020461946BDE8F087A8F213424FF09A
:406A4000FF3A2AFA02FA1AEA000FF2D022A3D3E9002300F093F90022002300F0D1FD0028DED0002D1FDB4D4627EA0A0738462946D8E719A3D3E9002300F080F9002200231E
:406A800000F0BEFD0028CBD0002D1ADB00273D46C6E702460B4600F071F9CCE74FF4801333419944B9E7142E08D0C8F5866808F10308012303FA08F31F19D4D309F10109BA
:406AC000D1E725F00042064B224318BF1D460027A6E700BFAFF300809C7500883CE4377E0000F0BFFFFF0F0010B431F0004408D0114BA1F580129A4208D804205DF8044BCF
:406B0000704718B902205DF8044B704701F1FF41094B01F5E0019942EFD9B4F5801F01D20320EBE7054B9C4201D00020E6E7B0FA80F04009E2E700BFFFFFDF7F0000F07F9E
:406B40000020704700200149704700BF0000F87FF0B5C1F30A5EAEF2FF35132D83B002460B460C464FEAD17607462EDC002D48DB3C49294101EA030010432BD049080B4006
:406B800053EA02070CD04FF48023132D24EA010143FA05F444EA01040CBF4FF0004700273149234601EBC606D6E900453A462046294600F0E3F8CDE90001DDE900012246F7
:406BC0002B4600F0D9F803B0F0BD332D06DDB5F5806F43D01046194603B0F0BDAEF2134E4FF0FF3121FA0EF10142F3D049080142D6D04FF0804320EA010143FA0EF70F4393
:406C0000CEE721F000410143E4D0C3F3130141EA000CCCF1000141EA0C0C13495C0C4FEA1C3C0CF4002C640401EBC6014CEA0403D1E900452046294600F0A0F8CDE9000167
:406C4000DDE9000122462B4600F096F8024621F0004141EAC67310461946BDE700F08EF8BAE700BFFFFF0F00B08B000000000000F8B5C1F30A5604460D460B46174616BBA4
:406C800021F00043034332D00022314B00F028FA304A044697420D460B4637DB40F2FE72C1F30A56363E3E44964215DD24A1D1E9000122462B4600F053F821A3D3E9002388
:406CC00000F00EFAF8BD40F2FF72964224D040F2FE723E449642E9DC002E09DD23F0FF4323F4E00343EA065520462946F8BDF8BD16F1350F15DA4CF250339F42D6DC12A14C
:406D0000D1E9000122462B4600F02AF80EA3D3E9002300F0E5F9F8BD02460B4600F02EF8F8BD23F0FF4323F4E003363643EA0655204629460022084B00F0D2F9F8BD00BF7A
:406D40009C7500883CE4377E59F3F8C21F6EA50100005043B03CFFFF0000903CAFF3008003F0004321F0004243EA0201704700BF81F0004102E000BF83F0004330B54FEAAB
:406D800041044FEA430594EA050F08BF90EA020F1FBF54EA000C55EA020C7FEA645C7FEA655C00F0E2804FEA5454D4EB5555B8BF6D420CDD2C4480EA020281EA030382EAFB
:406DC000000083EA010180EA020281EA0303362D88BF30BD11F0004F4FEA01314FF4801C4CEA113102D0404261EB410113F0004F4FEA03334CEA133302D0524263EB430383
:406E000094EA050F00F0A780A4F10104D5F1200E0DDB02FA0EFC22FA05F2801841F1000103FA0EF2801843FA05F359410EE0A5F120050EF1200E012A03FA0EFC28BF4CF0C0
:406E4000020C43FA05F3C01851EBE37101F0004507D54FF0000EDCF1000C7EEB00006EEB0101B1F5801F1BD3B1F5001F0CD349085FEA30004FEA3C0C04F101044FEA445280
:406E800012F5800F80F09A80BCF1004F08BF5FEA500C50F1000041EB045141EA050130BD5FEA4C0C404141EB010111F4801FA4F10104E9D191F0000F04BF01460020B1FABD
:406EC00081F308BF2033A3F10B03B3F120020CDA0C3208DD02F1140CC2F10C0201FA0CF021FA02F10CE002F11402D8BFC2F1200C01FA02F120FA0CFCDCBF41EA0C0190409C
:406F0000E41AA2BF01EB0451294330BD6FEA04041F3C1CDA0C340EDC04F11404C4F1200220FA04F001FA02F340EA030021FA04F345EA030130BDC4F10C04C4F1200220FA85
:406F400002F001FA04F340EA0300294630BD21FA04F0294630BD94F0000F83F4801306BF81F480110134013D4EE77FEA645C18BF7FEA655C29D094EA050F08BF90EA020F22
:406F800005D054EA000C04BF1946104630BD91EA030F1EBF0021002030BD5FEA545C05D14000494128BF41F0004130BD14F580043CBF01F5801130BD01F0004545F0FE4130
:406FC00041F470014FF0000030BD7FEA645C1ABF194610467FEA655C1CBF0B46024650EA013406BF52EA033591EA030F41F4002130BD00BF90F0000F04BF0021704730B524
:407000004FF4806404F132044FF000054FF0000150E700BF90F0000F04BF0021704730B54FF4806404F1320410F0004548BF40424FF000013EE700BF42004FEAE2014FEA9A
:4070400031014FEA02701FBF12F07F4393F07F4F81F06051704792F0000F14BF93F07F4F704730B54FF4607401F0004521F0004120E700BF50EA010208BF704730B54FF0D2
:4070800000050AE050EA010208BF704730B511F0004502D5404261EB41014FF4806404F132045FEA915C3FF4DCAE4FF003025FEADC0C18BF03325FEADC0C18BF033202EB24
:4070C000DC02C2F1200300FA03FC20FA02F001FA03FE40EA0E0021FA02F11444C1E600BF70B54FF0FF0C4CF4E06C1CEA11541DBF1CEA135594EA0C0F95EA0C0F00F0DEF82E
:407100002C4481EA030621EA4C5123EA4C5350EA013518BF52EA033541F4801143F4801338D0A0FB02CE4FF00005E1FB02E506F00042E0FB03E54FF00006E1FB03569CF051
:40714000000F18BF4EF0010EA4F1FF04B6F5007F64F5407404D25FEA4E0E6D4146EB060642EAC62141EA55514FEAC52040EA5E504FEACE2EB4F1FD0C88BFBCF5E06F1ED8AD
:40718000BEF1004F08BF5FEA500E50F1000041EB045170BD06F0004646EA010140EA020081EA0301B4EB5C04C2BFD4EB0C0541EA045170BD41F480114FF0000E013C00F32B
:4071C000AB8014F1360FDEBF002001F0004170BDC4F10004203C35DA0C341BDC04F11404C4F1200500FA05F320FA04F001FA05F240EA020001F0004221F0004110EBD370DB
:4072000021FA04F642EB06015EEA430E08BF20EAD37070BDC4F10C04C4F1200500FA04F320FA05F001FA04F240EA020001F0004110EBD37041F100015EEA430E08BF20EA62
