:4000000000800020110000002917000029170000034A08B51268034B1A6001F087FB00BFFA460040BC76004010B5054C237833B9044B13B10448AFF300800123237010BD7D
:400040008882FF1F00000000C88E0000084B10B51BB108480849AFF300800848036803B910BD074B002BFBD0BDE81040184700BF00000000C88E00008C82FF1F0881FF1F93
:400080000000000070B5284B00201B7804F010FA002004F019FA86B2012004F015FA85B2022004F011FA84B2032004F00DFA1F4B80B21A88A2F10A018E422FDB0A329642FE
:4000C0002CDC9A88A2F10A018D4218DB0A32954215DCDA88511E8C421ADB0132944217DC13490A88A2F10A04A04202DB0A32904204DD9A78088042F008029A7070BD9A7886
:400100009D8042F002029A70DA88511E8C42E4DA9A78DC8042F004029A70E1E79A781E8042F001029A70CCE765650040A482FF1F0C81FF1F10B51B4B00201B7804F044F8E4
:4001400038B1194C237AE218127B1AB183F00103237210BD04F04CF8144A23691080A28A9842C8BF2061FF2A0F4B08D8197A104C02EB012101329A8224F8110010BD19697D
:400180001A7A6D2903EB020482F001024FF00001D4BF002001201A72207699821961997610BD00BF67640040A482FF1F7C8BFF1F948FFF1F2DE9F04F83B062B6CC4804F0E9
:4001C00065F8CC4804F0C4F804F00EFB04F064FD04F04AF804F0AAF803F0E0FF03F0ECFF04F050F904F062F904F07AFA01F038F9C14800F023FD0221002001F0F3FD01209C
:4002000004F0C0FC0020014604F0DEFCBB4804F0ABFC0021012004F0D7FCB94804F0A4FC0320002104F0D0FCB64804F09DFCDFF8E0B2B54DB54CDFF800A3DFF8F88213E0E4
:400240008023E9681846002223706170A27004F063FA607804F060FAA07804F05DFA9BF81B30AB4E012B5FD89BF80230A84E7BB16A68A54F002A40F0D980DA0700F1C98005
:400280009F0700F1BA805E0700F18B8018076AD49BF808309E4E83F001030BEB0302127E18468BF81D30002ACAD0B77E002FD6D16B68DFF85492002B40F0BE800BEB0002D8
:4002C00001230AEB402013738BF81A3001F0D2F89BF81D3000225B448E491A730746C8F80000DFF82C92EE6808F060FC30B13846894908F079FC002840F0A58000200146A4
:4003000004F062FCD8F8000008F09EFC80B204F0D3FC9BF81D305B441B7E002B90D09BF81B307B4E012B9FD901F06CFA01F08EFA012001F05DFC02F017F803F09BFB402100
:40034000002003F0BBFD03F099FC02F07FF802F0EFFD002001F04CFC01F068FA01F08AFA0023F37680E703F00703002102208BF8023004F029FC694804F0F6FB00210220E8
:4003800004F022FC664804F0EFFB00216423009328880B46FF2201F0DBF880B204F08CFC76E703F00B030B2102208BF8023004F00BFC5A4804F0D8FB0B21022004F004FCC9
:4003C000584804F0D1FB022004F07EF86423FF2200210093322301F0BBF808F0F5F9524908F0FAFA08F030FC80B204F065FC4F4804F0BAFB9BF8023048E703F00D03BBF8BA
:4004000004008BF8023001F0B1F89BF80230287239E703F00E03BBF800008BF8023001F0F9F89BF802308BF81C0029E701F016F90022B3787A6020E7012004F0A3FB707F58
:40044000C9F804703AE7384607F09EFDB9F8063032460093284B00F03FFC00286ED1EB689E423FF44BAF711C3FF448AF5A1C0DD080221046002163702270A17004F04CF9ED
:40048000607804F049F9A07804F046F990232A8818462370A270667004F03EF9607804F03BF9A07804F038F900200146EE6004F08BFBD8F8000008F0C7FB80B204F0FCFB67
:4004C0000021012004F080FB194804F04DFB0021012004F079FB607800F060FC04F044FB0120022104F070FB607804F0E5FB10E73501000085000000908BFF1FD08E000015
:40050000E48E0000F48E00000C81FF1F788BFF1FA482FF1F000016440000A042088F0000208F0000148F00000000C8421C8F0000108F0000908FFF1F948FFF1F054B99F8DF
:400540001C201968044B05481B7A00F0EFFC064685E700BF908FFF1F0C81FF1F908BFF1F70B5064608460C4608F0C4FB054618B13146224608F0CEFB284670BD0000000003
:40058000002A31DB2DE9F84F5FEA520A29D0834610460D4607F0D6FC06460F46ABF1040B043D0024204607F0DDFC11A3D3E9002307F03EFD32463B4607F064FE804689463C
:4005C00004F0D4FE07F0F6FF49464BF8040F404604F064FF07F0EEFF0134544545F8040FE0D10120BDE8F88F00207047AFF30080182D4454FB2119402DE9F04F91B01A9DEF
:400600009946012D0ED92C4600236408012C03F10103FAD19C40AC420A9406D0002011B0BDE8F08FFAD10A95002380468C46DDF828A04FF0000EEBB1002426467546013467
:4006400005F001079C4247EA46064FEA5505F6D1B6450FD2D8F8004050F82650C8F8005040F82640DCF8004051F82650CCF8005041F826400EF1010EF24508F104080CF1A3
:40068000040CD8D80A9B012B00F08B800223CDF8189005920F910E900993099B00215A080B9292000D920A9A089107911146B1FBF3F29B0004920C93079B0B9A9A181046DA
:4006C000834203921A4658D2089B0D990E980F9C5F1800EB0708C618E518274400230292059AD8F8004052F823C0069A6146204652F823B00093CDF804C008F0B9F8D7F8D4
:4007000000A081465946504608F0B2F80146484607F0A6FF04F100418146584608F0A8F8DDF804C004465146604608F0A1F80146204607F095FF49460446306807F08EFFF9
:4007400048F8040B2868214607F088FF47F8040B3068494607F084FF46F8040B2146286807F07EFF049B029A1946009B01320B44039945F8040B9142B1D1079B099A0C9930
:400780001344089A07930A4408920A9A9A4293D80A99099A914204D0530099420993BFF47CAF012011B0BDE8F08F00BF2DE9F04F97B0209D002D15DB6C0004F1010C002C69
:4007C00000F04E814FF01F0E012402E0BEF1010E0CD06400A445F9D8B5F1804F02D2B4F1804F07D3002017B0BDE8F08F704617B0BDE8F08F4FEA84080F46064604212046DB
:400800000B9391460F9208F03FFA04210E90204608F03AFA04211090204608F035FA04210C90204608F030FA0D90404608F062FA1190404608F05EFA4B461290002B00F045
:40084000F2800B9B002B00F0EE800E99002900F0EA801098002800F0E6800C9A002A00F0E2800D9A002A00F0DE80119A002A00F0DA80129A002A00F0D680002D00F0BC80B2
:40088000321FA3F1040C2095924665463E1F159607960F9E1492043E0896A1F1040B031F002713940A93089B5AF8044F53F8048F20460893079B414653F8046F55F8049F07
:4008C000079307F0D5FF49460990304607F0D0FF099A0146104607F0C3FE04F100414BF8040F484607F0C4FF31460446404607F0BFFF0146204607F0B3FE209A01370A9B7B
:40090000974243F8040FCDD115460F9B0C991A680B9B0A601B680D9A012D139C13601AD00D9A0C9B1746A000DDF83C80DDF82CE01E189C461044012358F8041F5EF8042F09
:400940000133AB4246F8041D40F8042D4CF8041F47F8042FF0D1119B04940093129B0E9801930F9B109902930B9B0C9A03930D9B00F0A2F8002856D0119B20951A1F129BA5
:40098000DDF85090A3F1040C6546DDF854B00F9F0B9E4FF0000A52F8044F396820460892079207F065FF55F8048F31680790404607F05EFF079B0146184607F051FE04F11C
:4009C000004449F8040F56F8041B204607F050FF57F8041B0446404607F04AFF0146204607F03EFE209B0AF1010A9A454BF8040F089AD0D1012417E00F9A0B99119B15681D
:400A00000E680D9F00930494129B0C9C0193029203910E98109922463B4625603E6000F04BF80028E6D10024129808F06BF9119808F068F90D9808F065F90C9808F062F9CD
:400A4000109808F05FF90E9808F05CF90B9808F059F90F9808F056F9204617B0BDE8F08FB5F1804FBFF4BEAE64464FF00408C3E630B4029C651E254203D0029430BCFFF776
:400A800095BE30BCFFF7B8BD10B4019C1CB15DF8044BFFF7EDBF01205DF8044B704700BF30B4029C14B930BC0120704705460846294630BCFFF7DCBF2DE9F04F8BB00E4661
:400AC000189917468C0021469846FFF749FD214605463046FFF744FD214606463846FFF73FFD214607464046FFF73AFD80465DB156B14FB140B1189B284600933146169A0B
:400B0000179BFFF7C1FF80B90024404608F0FAF8384608F0F7F8304608F0F4F8284608F0F1F820460BB0BDE8F08F189B384600934146169A179BFFF7A7FF0028E4D0189B55
:400B4000002B70D00594B2462C463B1F0493A8F1040303934FF00009069507960897CDF82480049BDAF800B053F8047F59460493039B384653F8045F2668039307F078FED8
:400B800029468046304607F073FE0146404607F067FD39464AF8040B304607F069FE29460646584607F064FE0146304607F056FD189B09F10109994544F8040BD1D105AC6A
:400BC000F0CC169ACDF8009028463146179BDDF82480FFF765FF002896D0484607F0F0FD2B4614992A19A1F104091599A6F1040A0C1F039504962546834614461E4656F8DA
:400C0000040B594607F0E8FE49F8040F5AF8040F594607F0E1FEA64245F8040FEFD1039D049E012471E7189B284600933146169A179BFFF735FF0028F3D165E770B56FF0D1
:400C40000705441900F57E76284607F08BF900220A4B07F017FB02460B4600204FF0804104F0E6FC0022064B07F0E2F9E4E90201B44205F10105E7D170BD00BF0000284017
:400C800000002A400000000008B500220E4B07F0F9FA04F04DFC00220C4B07F0C9F908A3D3E9002307F0EEFA0022094B07F00EF804F0A4FB07F056FC08BD00BFAFF30080DB
:400CC000EF39FAFE422EE63F00807B400000284000405140AFF30080002A2DE9F84F06460F461D4654DD7E2AA8BF7E22541CE400A4F1080BA4F1100A0A9807F033F9AB44DF
:400D00002A1905EB0A0E8046DBE90045DEE900AB8946D2E900012B46224606F0D5FF02460B464046494607F083F902460B462046294606F0CBFF07F03DFC07F025F93246ED
:400D40003B4607F0E7FB00BB52465B462046294606F0BAFF02460B464046494607F068F902460B462046294606F0AEFF07F022FC07F00AF902460B463046394607F0CAFB31
:400D8000003018BF0120BDE8F88F0120BDE8F88F4FF0000A4FF0080B1024ADE7554A10B482FB0041C317C3EB610303EB4303B0EB830F00F08680411E82FB0134CB17C3EB2A
:400DC000640303EB4303B1EB830F76D0811E82FB0134CB17C3EB640303EB4303B1EB830F75D0C11E82FB0134CB17C3EB640303EB4303B1EB830F68D0011F82FB0134CB171F
:400E0000C3EB640303EB4303B1EB830F63D0411F82FB0134CB17C3EB640303EB4303B1EB830F5CD0811F82FB0134CB17C3EB640303EB4303B1EB830F4FD0C11F82FB013415
:400E4000CB17C3EB640303EB4303B1EB830F48D0A0F1080182FB0134CB17C3EB640303EB4303B1EB830F3ED0A0F1090182FB0132CB17C3EB620202EB4202B1EB820F34D0AD
:400E80001C49A0F10A0281FB0234D317C3EB640303EB4303B2EB830F29D00B3881FB0031C317C3EB610303EB43021349134BB0EB820F0CBF1846084600E011485DF8044BDA
:400EC000704710485DF8044B70470F48F6E70F485DF8044B70470E48F0E70E48EEE70E48ECE70E48EAE70E48E8E70E48E6E70E48E4E700BFABAAAA2A248F0000548F000013
:400F00002C8F0000288F0000348F0000308F0000388F0000408F00003C8F0000448F0000488F00004C8F0000508F00007E2A00F20B822DE9F04F064685B00846D5009846FA
:400F4000144607F021F87719D7E9002382468B4607F0E0FA002834D1B8F1060F00F04C81B8F1000F32D1312C2BD8AC4B04F1180253F824500293154406EBC503D3E90089B6
:400F800000925046594642464B4607F0C3FA002840F08A80029B03EB84070FE0009B57F8045F50461D4406EBC503D3E90089594642464B4607F0AEFA002875D10134322C9C
:400FC000ECD14FF0FF3005B0BDE8F08FB8F1010F00F0E280B8F1020F00F01781B8F1030F00F08680B8F1040F00F08781B8F1050FE7D1D7E9008904F10C0506EBC505029624
:4010000044E07E2CDDDC55E912895046594642464B4607F07FFA002840F0CE8155E90E895046594642464B4607F074FA002840F0BD8155E90C895046594642464B4607F0B5
:4010400069FA002840F0C78155E90A895046594642464B4607F05EFA002840F0B48155E904895046594642464B4607F053FA0C34002840F0C181F5E8188950465946424600
:401080004B4607F047FA002840F0B4814B4642465046594607F05CFAE31C0093671D04F10A060028ADD18CE7029B013C53F82430009A40461A4417465B465246494606F0F9
:4010C00003FE06EBC706D6E90023804689465046594606F0F9FD02460B464046494607F037FA002814BF3846284605B0BDE8F08F04F10C0506EBC505D7E9008903963BE045
:401100007E2C04F10C043FF75CAF55E912895046594642464B4607F0FDF9002840F0898155E90E895046594642464B4607F0F2F9002840F00C8155E90A89504659464246D1
:401140004B4607F0E7F9002840F0818155E904895046594642464B4607F0DCF9002840F06F81F5E818895046594642464B4607F0D1F9002840F072814B464246504659465A
:4011800007F0E6F9E31C029304F10A03671DE61D00930028B4D114E7312C3FF612AF1F4BA70002933B445D6F04F118031D44009306EBC503D3E900895046594642464B466D
:4011C00007F0A8F9002876D1029B74331F440FE0009B57F8045F50461D4406EBC503D3E90089594642464B4607F094F9002862D10134322CECD1E4E659465046FFF744FDF3
:4012000007F0E2FA07F0FAFCDDE604F10C0506EBC505D7E9008903963DE000BF1C81FF1F7E2C04F10C043FF7CCAE55E914895046594642464B4607F06DF9002840F0D38061
:4012400055E910895046594642464B4607F062F900287CD155E90A895046594642464B4607F058F9002840F0CE8055E906895046594642464B4607F04DF9002840F0CA807B
:40128000F5E818895046594642464B4607F042F9002840F0C6804B4642465046594607F057F9A31C029304F10903271DE61D00930028B5D185E6029B009A03EB8404236F76
:4012C00040461A4490465B465246494606F0FCFC06EBC806CDE90001D6E900235046594606F0F2FC02460B46DDE9000107F030F9002814BF4046284665E6D7E90023B84672
:40130000C4EB4477FF00B94600961F4616460DE07E2C04F102043FF754AED3E900675046594632463B4607F0F5F8A8BB3B4632465046594607F00CF908F1100809EB080352
:401340002B440028E4D13CE64FF0FF307047039E06EBC70656E9044522462B465046594606F0B2FC07F026F9524606465B464046494606F0A9FC07F01DF90146304607F035
:4013800015FC20B12046294607F0ECF81BE64046494607F0E7F816E6B946B046009E06EBC404A4F11005D5E90045D5E7029E06EBC70656E90445CFE7029E009B06EBC3066D
:4013C00056E90645C8E7029E06EBC40404F13005D5E90045C0E7029E06EBC40404F12805D5E90045B8E7039E029B06EBC30656E90445B1E7029ED2E73346029E06EBC30626
:4014000056E90645A8E73346039E06EBC30656E90645A1E7039E009B06EBC30656E904459AE7039E06EBC404A4F11805D5E9004592E7039E029B06EBC30656E906458BE732
:40144000039E009B06EBC30656E9064584E73346039E06EBC30656E904457DE7039E9EE703484FF4807200F58061FFF789B800BFD082FF1F2DE9F043ADF60C0D074600216C
:401480000DF581604FF4806201AC07F04EFC2646BD1E07F5FF7735F9020F07F095F9294907F09AFABD4246F8040FF4D1264A4FF48071009102F5806302A80DF581610DF20B
:4014C0000445FFF7E1FAA9464FF0000854F8040F55F8047F014607F0CBF939460646384607F0C6F90146304607F0BAF84C45C5F800802060EAD1144A4FF48074009402A82A
:401500000DF5816102F58063FFF7CAFA002707AE06244FF0000856F8045F3946284607F063FB08B12F46A0460134322CF3D1404607F04AF90146054807F04EFA0DF60C0DD9
:40154000BDE8F0830000C842D082FF1F00007A4510B4019C401AE41A04FB00F0521A90FBF2F05DF8044B1844704700BF10B504460E21002003F028FB1D4803F0F5FA002048
:401580000E2103F021FB1B4B04EB840083FB0023C4171844C4EBE010C4B2062C08D8DFE804F0090E13181D220400134803F0DCFA204610BD114803F0D7FA204610BD1048D6
:4015C00003F0D2FA204610BD0E4803F0CDFA204610BD0D4803F0C8FA204610BD0B4803F0C3FA204610BD0A4803F0BEFA204610BD0C8F000081808080888F0000588F000079
:40160000608F0000688F0000708F0000788F0000808F000000EB80020E4B00EB420083FB002310B503440B21C4170020C4EBE31403F0CAFA084803F097FAE4B20B210020D5
:4016400003F0C2FA2046FFF7A9FB03F08DFA204610BD00BF81808080108F000038B5012003F090FA002002F02FFF80B2FFF7D2FF012002F029FF264D80B2FFF777FF0B2173
:40168000022003F0A1FA284603F06EFA0B21022003F09AFA1F4803F067FA022002F014FF322303FB00F01C4CC31784FB00121044C3EBE010323007F087F8184907F08CF93D
:4016C00007F0C2FA80B203F0F7FA154803F04CFA0021022003F078FA284603F045FA0021022003F071FA0F4803F03EFA032002F0EBFE642303FB00F084FB0034C3172044BC
:40170000C3EBE01080B2BDE8384003F0D5BA00BF088F0000148F0000818080800000C8421C8F0000208F0000FEE700BF154B80B503F1FF3E03B3144F002657F8085C57F831
:40174000104C57F80C3C3DB1224652F8040B111B8D4243F8040BF8D157F8040C1A4620B142F8046BD11A8842FAD10EF1FF3EBEF1FF3F07F11007E0D107F096FAFEF71AFD84
:40178000FEE700BF010000004894000008B5124A124B13491A600B68124A43F4007312480B600023032B94BF50F823100F490133302B42F8041FF5D10D4B0E4A18780E495E
:4017C0000E4B08701A6000F065F801F0C1FB0C4B00221A6008BD00BF0004FA050CED00E014ED00E0FC7FFF1F0000000029170000BC7600400080FF1F0481FF1F08ED00E00F
:401800000081FF1F074B1B7803F0100303F0FF021BB9054B1A7003F01BBB034B01221A7003F016BB94640040D08AFF1F08B503F031FB03F051FB044B1B7803B908BDBDE821
:40184000084003F0D5BA00BFD08AFF1F074B1B7803F0100303F0FF021BB9054B1A7003F0BBBB034B01221A7003F0B6BB9B650040D48AFF1F08B503F0D1FB03F0F1FB044BAC
:401880001B7803B908BDBDE8084003F075BB00BFD48AFF1F2DE9F84F72B640F6191641F25121DFF814A3A94CA94A4FF0610B8AF800B0DFF808E3A74FA7484FF03A0CDFF8E4
:4018C0000093DFF800834FF0180BA4F800C0192382F800B04FF05F0C0624A04A4FF0170AA9F800A088F80030AEF800C03B7004701D4613789A4C9B4ADBB24FF0520C2370CD
:4019000007F29B178EF878C1002420F8DE6C118001E0032C0CD03B78782003F0010343EA440403F025FA013D04F00304F1D1FEE78D4E8E4A35468E48DFF88C92DFF88CC273
:40194000DFF88CE200234FF0070A022789494FF4807B4FF04808A2F800B082F800A089F800308CF8008013708EF8003007701C460B78012743EA0A030B7080F8FF7792F8E4
:40198000E43643F0040382F8E43604EB4403AA8856F813000134002107F0C7F9082C05F10605F2D1744D002404EB840306EB430353F8300F2A890134596807F0ABF9032CE2
:4019C00005F10A05F0D16D4E6D4F002556F8043F13F0FF0E23F0FF0413D005F110530EF1FF3E03F155005FFA8EFE7044543340005B001A785978023383421155F9D101358F
:401A00007544BE42E2D15F495F4A0B785F4C43F002030B701378A1F5863143F0020313702378413943F04003237059480A78D0F800E0584F5848594D42F010020026584B92
:401A40000A70C7F800E00660564E03CB2860696093E8070003C60C333280EE3593E8070003C50C332A8003CB1A4646F2030345F8E60C45F8E21C03CAC83D46F8A60C46F8BC
:401A8000A21C07CA03C548492A800A78474842F008020A70A7F53C570278103FDFF834813D78DFF834E198F800604148D2B202F0070CEDB212098EF800C0F6B2027045F057
:401AC00003023A70DFF814B146F0030288F80020DFF80CA1DFF80C91C02281F8FA2DDFF808C1ABF8003040238AF8003089F800304FF080098CF800902E4A4FF042094FF0F0
:401B0000210C8EF8929201F6FA5180F8B4C24FF0040E4FF044094FF0010C81F80CEA0A2013708BF82C9A8AF85AC201F0F7FD94E80F00DFF8B8E0103488F800603D708EF83C
:401B4000009007C42380BDE8F88F00BF80400040824000408A400040004300400F010049A146004020420040908F00000440004001400040A2430040C08F0000FCFFFF47F2
:401B8000A40000480350014013500140A0430040540F0048087600400076004002510040180F0048C051004022430040CF0100496F5800402C5B0040004800408840004050
:401BC0008440004086400040064000400840004009400040F94600406E5800402C51004001590040035900400959004076580040044A0001137800F0100003F0EF03184302
:401C00001070704700510040F8B503F0B9F83A4A3A491378054643F0010313700B78384C38480127022602F5E35243F001030B700B32277006701378A4F5E85403F07F0320
:401C4000093C1370002001F069FD23782E4A03F0F90323701378384603F0DF03137023783B43237001F05AFD282001F057FD274B30461A7802F07F021A701A7802F0BF02F2
:401C80001A7023783343237001F048FD23782049204E43F0040300222370284632700A7003F072F81C49172001F040FD1720072101F04CFD1949152001F038FD15200721FB
:401CC00001F044FD1649182001F030FD1820072101F03CFD1349082001F028FD0820072101F034FD1049092001F020FDBDE8F8400920072101F02ABDA5430040B543004071
:401D00009D6000400960004012600040F85100408560004084600040592300005523000061220000ED22000021230000204B214A2DE9F0474FF4000E4FF080774FF480768C
:401D40004FF400750024C3F800E01F601E601D60147049B3184B03221A70184ADFF870C0DFF870E0DFF870A0DFF87090DFF87080134F144E144C0023802103258AF8000039
:401D800089F80030012088F800308CF800308EF800303B7033702570117002F0E9FF0B4B04221A70BDE8F087034B02221A70D4E700E100E09493FF1F0960004008600040C9
:401DC000BD93FF1F9693FF1F2860004012600040A293FF1FA093FF1F9F93FF1FA893FF1F9593FF1F10B5084C82B023783BB98DE80300FFF709FF9DE803000123237002B0E0
:401E0000BDE81040FFF792BFD88AFF1F2DE9F043DFF850C0DFF85090DFF85080DFF850E00B4F0C4E0C4D0D480D4A00230324802189F8003088F800308CF800308EF80030E2
:401E40003B7033702B7004701170BDE8F08300BFA093FF1FBD93FF1F9693FF1F28600040086000409593FF1F9493FF1FA893FF1FA293FF1F431EDBB2072B0CD8064A00EBC1
:401E8000400002EB80000022427042791B010349DBB2D2B25A547047C093FF1F0E60004008B5194B1A78D2B21A701B78DBB21A0627D4164B9A6842B199680220144A08709E
:401EC00099681088002248809A60124B1B7803F06003202B10D0402B04D043B10E4B03221A7008BD00F0DCFF0028F7D008BD00F025FE0028FAD1F1E703F0D2F80028F5D1EC
:401F0000ECE7054A137008BD28600040B093FF1FA693FF1F006000409E93FF1FF0B42049204C214A20780B8803449BB20B801588ADB23DB31D4B1E4851680978C9B203F830
:401F4000011B5168DDB2013151601188013989B21180118889B299B18342EDD123780825144A154E1378154983F080031370144B0F2702203770087025701D70F0BC704794
:401F80002378EDE72378082BEAD00B490B4A02230B7013700A4B25701D70F0BC704700BFA693FF1F9693FF1FB093FF1F0060004008600040A193FF1F9E93FF1F9493FF1F98
:401FC000BC93FF1F194AF8B513889BB2EBB11849184C194800230225257003700B80916819B191680B7091684B801449144B09781B78128843EA012392B20C49934238BFC2
:402000000B80FFF78BFF0120F8BD0A4F0A4D0D480D490E4A4FF0020E80260F2487F800E02E7004700B7013700120F8BDB093FF1FA693FF1F9493FF1FA193FF1F07600040A9
:40204000066000409E93FF1F9693FF1FBC93FF1F10B40D4B0D491A780B880D4C13449BB200200C4A0B802070936833B1936801241C709368098859809060074B03221A70B1
:402080005DF8044B704700BF9693FF1FA693FF1F9493FF1FB093FF1F9E93FF1F10B41C4B1C481978028801F00F010239C9B20A4492B2194B02801A8892B2CAB1002009B957
:4020C00023E011B300F1804202F5C0425C6812780139D2B222705A68C9B201325A601A880130013A92B21A801A8892B2002AE8D10A4B0B4A197013780A4983F080030B20BE
:40210000137008705DF8044B70470021F0E700BF29600040A693FF1FB093FF1FBC93FF1FA193FF1F9E93FF1F0E4B1B78DBB2042B16D0062B04D0022B00D07047FFF788BF7F
:40214000094B9A6842B199680320084A087099681088002248809A60054B03221A707047FFF79CBF9493FF1FB093FF1FA693FF1F9E93FF1F70B40748074E084C084A0623C1
:40218000802500210370337025701170012070BC704700BF9493FF1F9E93FF1FA193FF1FBC93FF1F114B1A7832B11A78104842F080020021027019700E4900220E4B0A7040
:4021C000996871B1996810B40C4801240C709968008848809A600A4B03221A705DF8044B7047074B03221A70704700BFA093FF1F086000409493FF1FB093FF1FA693FF1FEB
:402200009E93FF1F124A1378DBB2042B07D0062B03D0022B16D1FFF781BEFFF7C3BF00210C4B11709A6872B19A6810B40A48012414709A68008850809960084B03221A70DC
:402240005DF8044B7047054B03221A70704700BF9493FF1FB093FF1FA693FF1F9E93FF1F10B51D4B1B78DBB2DC0605D5180604D45A062ED49C060BD410BD03F00F03012B62
:40228000FAD1FFF70DFE15490B78190602D510BDFFF74AFF104A13781B06EDD41049114B1B780878104903430B7009789942E3D10A490C460B781078DBB2000605D42378FF
:4022C000DBB21370137803F00F0308788342F1D110BDFFF797FFDDE7286000409E93FF1FBC93FF1FA193FF1F29600040094A0A4B12781A7B02F00302012A03D0DA7B82F0F8
:402300008002DA73054A01215973137803F0FE03137070470E600040C093FF1F0B600040094A0A4B12781A7E02F00302012A03D0DA7E82F08002DA76054A012159761378E8
:4023400003F0FD03137070471E600040C093FF1F0B600040704700BFFFF758BD014B1B78704700BF8F4500402DE9F04102F008FD2C4C054623781B0615D42B4B00221A70A4
:40238000284602F001FD29490C2001F0CFF907210C2001F0DBF92649264A4FF480530B601360BDE8F081DFF880800127224A88F800701378214E03F07F031370002001F008
:4023C000ADF93378002003F0F9033370237803F07F03237001F0A2F9194A3846137811783B4001F0FE01117088F8013001F096F93378144A03F0FE0333701378124943F0E0
:40240000200313700B78A2F5E25203F0FE031D3A0B701378384603F0FE03137001F07EF9AEE700BF08600040DC8AFF1F5D23000080E200E000E100E0106000409443004030
:402440000960004012600040A543004070B502F097FC284D06462B7823B93046BDE8704002F092BC244B254A4FF4805119601378234943F0010313700B7802F5E75243F0E2
:4024800001030B70183213781E4C43F0010313702378282043F00103237001F03FF91A4A6B78117800200B43137001F037F9237802200343237001F031F923781349144AE6
:4024C00043F004030320237008701378012043F08003137002F04CFC0E4A04210E4B11701B78002BB9D000F021F93046BDE8704002F04ABCDC8AFF1F80E100E0A5430040FD
:40250000B54300409443004009600040286000400860004012600040A893FF1F604B61491B78614A0978013B02EBC1025268DBB2117A994240F29B8002EBC303DB681A7AA4
:40254000DB68002A00F0AA802DE9F04F013A5749D2B2023203EBC20283B00C465448DFF86CE108334FF0010A4FF0000902E00833934279D013F8085C4F5D465DB742F6D070
:40258000665D13F8077CB742F1D19EF80060B542EDD113F806CC13F8056C0CF07F077D1E2D011CF0800FEDB206F0030662D1012E4FEA470606EB070C01963E4E08BF4FF072
:4025C000050BB04606EB8C0C18BF4FF0090B8CF801908CF805B0DFF8F8C0019EAC448CF800A033F804CC374408EB8706A6F808C013F806BCDFF8DCC086F804B013F805BCF8
:40260000AC4408F827B086F80390B6F808802A4FC8F307288CF80080B6F808C02F445FFA8CFC87F800C0B6F806C0244F5FFA8CFC2F4487F800C0B6F806C0214FCCF3072CCC
:402640002F4487F800C0B6F806C01E4F5FFA8CFC2F4487F800C0F7881B4E0833C7F307272E449342377085D103B0BDE8F08F00231B7AFFDE012E4FEA470606EB070C019629
:402680000C4E0CBF4FF007084FF00D0806EB8C0C8CF801A08CF80580B0469CE7704700BFA893FF1F9F93FF1F409000009C93FF1FAC93FF1FC093FF1F0D6000408660004046
:4026C000876000408460004085600040046000400E6000400C60004030B4054684B0114B04AC0FCB04E90F00CDB12A46222103230D4805F1200429706B7010F8013B04ADF8
:40270000DBB203F00F01294405EB131311F8101C13F8103C937002F8041FA242EDD104B030BC7047E08F000000010049F0B5214A214C224E01210C2580274FF0080E27E0E5
:40274000007900064CBF157082F800E00B4404EB830318891032C0F3072002F8120C18890131C0B202F8110CD888C0B282F86800D888C0F3072082F86900D888C0B282F8DE
:402780006600DB88C3F3072382F86730B2420CD04B00581882F8725004EB800090F805C0BCF1000FCCD11770D0E7054BFF221A70F0BD00BF0E600040C093FF1F8E60004091
:4027C0000A6000400D4B0E491B780E4A0978013B02EBC1025268DBB2117A994209D902EBC303DB683BB15A68127903EBC20358697047002070471846704700BFA893FF1F3B
:402800009F93FF1F4090000000212DE9F84F0B466C4F01EB4104013107EB8402092907F8243093704FF000045370D370537113819372EED128B1644A644B14701C7054701C
:402840005C70634B1A78002A00F0B68061491B78614A0978013B02EBC1025268DBB2117A994240F28F8002EBC303D3F80C905B4AD9F8043099F80880DB7908F1FF3E13F04F
:40288000400F13785FFA8EFE14BF43F0010303F0FE030EF1020ED9F80C10DFF82CC113704FEACE0E01204FF0000BC6B2B8F1000F3CD000EB400507EB850501F1080301EBC7
:4028C0000E0402E00833A3422ED013F8062C02F07F018142F6D1298933F804AC89B2514538BFA5F808A013F8081C13F807AC1CF801108A45E6D113F8051C120601F0030122
:4029000043D4012985F801B04ED009226A7113F8022C012A4BD013F8062C08332A7113F80D2CA3422A70D0D1D9F80C1001300928BBD1B8F1000F10D08E4401F1080212F8C3
:40294000063C12F8081C03F07F0303EB4303083207EB830372459972F1D1FFF733FF204B01211860002301EB410207EB8202D38012890131134409299BB2F4D1BDE8F84F6C
:40298000FFF7D4BE00235B68FFDE012291426A7014D00D226A7113F8022C012ABBD10229B9D1104A1670B6E705226A71B3E7022904BF0D4A1670AEE7BDE8F88F07226A71C0
:4029C000A9E700BFC093FF1F9C93FF1FAC93FF1FA893FF1F9F93FF1F40900000BD93FF1F9893FF1F4D94FF1F5094FF1F124B1A7802F07F02531EDBB2072B1AD80F4902EB73
:402A0000420201EB82029178002041F001019170D07051781B0141F0020151701279DBB212F0800F064A14BF8D2189219954FFF7A1BB0020704700BF04600040C093FF1F5D
:402A40000E6000401C4B1B7803F07F03591EC9B2072924D810B4194A03EB430302EB83039A78174802F0FE02090100249A70C9B2DC700A5C02F07F020A545A7802F0FD02F1
:402A80005A701A795B7812060BD4012B0D4B0CBF08220922CA545DF8044BFFF76BBB00207047012B074B0CBF0C220D22CA545DF8044BFFF75FBB00BF04600040C093FF1F4A
:402AC0000C6000400E600040154A164B1648127816491B780078013B01EBC0014968DBB2087AD2B298420AD901EBC303DB685B681B79934201D9012A04D900207047002383
:402B00005B68FFDE10B40A490A4C8B5C0A48DBB2A35403780120DBB28B545DF8044B704704600040A893FF1F9F93FF1F409000009C93FF1FAC93FF1F0260004038B5A24C24
:402B40000022A24B22801B7813F0800FA04B1B7811D1013B0A2B0CD8DFE803F0420B600B570B0B0B750B28009A4B1A78012A40F20481002038BD0A2BFBD801A252F823F0C2
:402B8000112D0000732B0000732B0000732B0000732B0000732B0000A52C0000732B00004B2D0000732B00008F2C0000FFF78CFF0028DED0874B88481C78884AE4B201216A
:402BC000874B047011701B78002B40F0C680854B854A1B5DDBB21355BDE83840FFF7CABA7A4B1B7803F00303012BBDD0C0F01681022BBED103F1804303F5C0431B78002BBA
:402C0000B7D1BDE83840FFF71DBF784B784A1B78DBB21370BDE83840FFF7ACBA6B4B1B7803F00303012B9FD0C0F0BF80022BA0D103F1804303F5C0431B78002B99D1BDE893
:402C40003840FFF7D3BE694B1B7803F0FF027BB1684B69491878531E01EBC0014968DBB2087A984285D901EBC303DB68002B80D05B4B19788A4206D00121584C08461A70FC
:402C80002170FFF7C1FDBDE83840FFF773BA0122504B22801B78534A13446360BDE83840FFF790B9554B1A78012A70D01A78022A00F0C6801B78032B40F0BE804B4D504A97
:402CC0002B7863B1137853B1002301E0117831B1107801332978DBB299420244F6D8434B48481D781978EE2D08BF024629B146491B78097C994200F0C3801378002B3FF460
:402D000038AF137823806260BDE83840FFF75AB92E4B1B7813F0030322D0022B7FF429AF2C4A23801378394A03F07F0303EB430302EB83039A78364BD2B200211A70597049
:402D40006360BDE83840FFF73DB9254B012222806360BDE83840FFF735B9FFF7DFFB36E702212C4A21801178294AC9B2117053706260BDE83840FFF725B91C4A264910789C
:402D80001B78DBB2CA5C22EA0002CA547BE7194A194B1178122203EBC1035B685B6863602280BDE83840FFF70DB9104B1B78012B7FF4DFAE174A137843F002031370BDE8DF
:402DC0003840FFF7D7B900BFB093FF1F0060004001600040046000409593FF1FA293FF1FA893FF1F9C93FF1FAC93FF1F02600040A093FF1F9F93FF1F40900000036000407E
:402E0000989000002C900000DC910000C093FF1FE08AFF1FBD93FF1FA493FF1F1B4B1B78012B7FF4A6AE1A4A137803F0FD031370BDE83840FFF79EB9BDE8384002F030B9D2
:402E4000124B14491B78144A0978DBB202EBC1025268117A99427FF68CAE02EBC303DB68002B3FF486AE5B6863606368DA7863689B7843EA02232380BDE83840FFF7A2B8AF
:402E80000648FFF729FC054A37E700BF02600040BD93FF1F9F93FF1F40900000A898FF1F084B1B781B0601D400207047064B1B78012BF9D1054A064B11785A601980FFF7F0
:402EC00081B800BF006000400160004004900000B093FF1F38B5134D134B00242C722C701C706C70AC70EC7001F0A4FF0420014600F02CFC0320022100F028FC0B4B2C7553
:402F00002C731C706C73AC73EC7302F057F80620042100F01BFCBDE838400520022100F015BC00BFE48AFF1F4C94FF1F4F94FF1F08B5054A054B002111701878FEF79AFFEA
:402F4000BDE80840FFF7C6BF4E94FF1F5094FF1F7F200346084910B4084A802408704C70013BDBB202F80839002BF9D1044A13705DF8044B704700BF0482FF1FF87B004085
:402F800000780040172817D869B90C4900010B46425C034402F0DF0242541A78002042F001021A707047054900010B46425C034442F020024254F0E701207047107000400E
:402FC000172810D810B4094A03011A441179074C41F0040111711A5D002042F001021A555DF8044B70470120704700BF1070004017280BD8064A0001835C01F0070103F071
:40300000F10343EA4101815400207047012070471070004041F6FF73994208BF4FF400519A4208BF4FF40052172808D8C00000F1804303F5EC4399800020DA8070470120AD
:40304000704700BF172805D8034B00010344597200207047012070471070004070B417289DF80C609DF8105018D8C00001F07F0103F00F0300F1804441EAC21143EA061376
:4030800004F5EC4405F00F050022C9B2DBB221706370A570E270104670BC7047012070BC704700BF10B501F06BFE0B4B5A78182A04D8FF2401F068FE204610BD1C78013A0C
:4030C000E10001F1804101F5F04109785A70197001F05AFE204610BD0482FF1F10F0800F11D130B411F470450AD1C40004F1804404F5F0442180A270E370284630BC704776
:40310000012030BC70470120704700BF030608D4C00000F1804303F5F04399800020DA8070470120704700BF2F4B1B785A070AD12E4B1B78DB0706D52D4901230A7802F0AF
:40314000FD020A7006E0284B1B7803F00703012B09D0002308283ED8DFE800F037312B251F19133D0B00234B1B7813F00103E3D1F0E7214A21491278D2B20A70002B2CD165
:4031800070471F4B1D4A1B78DBB2137070471D4B1A4A1B78DBB2137070471B4B174A1B78DBB213707047194B144A1B78DBB213707047174B114A1B78DBB213707047154B53
:4031C0000E4A1B78DBB213707047134B0B4A1B78DBB21370704701BE7047054A137843F002031370704700BF93430040A543004009600040B54300400F010049A1460040F0
:403200000D0100490C010049890100490B0100490A0100490901004908010049F8B5184A137843F00103137000B9F8BD1549164B0D7892F860711E7805F004051820EDB2F4
:40324000FFB2F6B2114C00F0CBFE012000F0B2FE10F0010010D12378DA07F6D52378DB07F3D525B9074A137803F0FB031370084A054B17701E70F8BD1020002DF7D1F1E719
:403280002042004000430040824300402542004080430040024A137803F0FE0313707047204200401549164A0B7843F010030B70137843F01003137000B9704770B5114B4C
:4032C00011F8A04C12F8306C1D7804F004040020E4B2F6B2EDB200F083FE012000F06AFEC307FAD524B9084A137803F0FB031370064A044B16701D7070BD00BFA043004033
:40330000B04300408243004000430040804300400549064A0B7803F0EF030B70137803F0EF031370704700BFA0430040B043004070B54A4B08281C78064604F007041AD0DC
:403340000546062C00F28880DFE804F02C052E1030042A000524AC4209D9082E78D8DFE806F027367161695159773E0000243046FFF7DAFEF1E70325062C6DD801A353F84D
:4033800024F000BFA53300006F330000A93300006D330000AD33000055330000A13300000624D8E70224D6E70324D4E70424D2E72A4A137803F0B80343F003031370274A9F
:4033C000A542137803F0EF03137016D370BD234A137803F0B80343F001031370EFE71F4A137803F0B80343F0420313701B4AA542137843F010031370E8D23046BDE87040E5
:40340000FFF792BE154A137803F0B80343F005031370D4E7114A137803F0B80343F006031370CCE70D4A137803F0B80343F002031370C4E7094A137803F0B80343F0040373
:403440001370BCE7054A137803F0B8031370B6E701BE082ECAD0B2E701BE7CE700420040012816D00FD302280BD14FF040210B780E4A03F0BF030B70137843F020031370AC
:40348000704701BE7047094A137803F0DF03137070474FF040210B78044A43F040030B70137843F020031370704700BF00420040024A137843F0100313707047004200405B
:4034C000024A137803F0EF031370704700420040044A00F00300137803F0FC0318431070704700BF05400040014B1870704700BF04400040F8B5044601F042FC3A4A3B4BC2
:4035000012781B78D2B2DBB24CB353EA02234FD1374A1378DBB2062B01D807211170354D354E2978354A002701F0F001297037701178334F41F080015FFA84FE240A1170DB
:4035400087F800E006F80D4C15F8131C41F0010105F8131C117801F0BF0111701FE0244A1378DBB2062B20D9244A224D1178224E41F0400111702C78002104F0F0042C707E
:40358000317014781E4F44F080041470397006F80D1C15F8132C42F0010205F8132C144A1370BDE8F84001F0EFBB07211170DBE7104A114D1378002603F0F0030F491370BA
:4035C0002E700B780E4EE7B243F08003240A0B70133A377005F80D4C137843F001031370BDE8F84001F0D0BB07400040064000400440004014400040104000400840004031
:4036000002400040024A137843F004031370704700430040F0B5264C83B08DF80600237843F00103237008B903B0F0BD214B2249224A18200F7816781D7800F0D1FC9DF868
:403640000630FFB2F6B2EDB213B3042322788DF807309DF8073073B1012000F0ABFCC207FAD59DF80730013BDBB28DF807309DF80730002BF0D12378190617D59DF806301F
:40368000013BDBB28DF806309DF80630002BDCD110207B0704D4084A137803F0FB031370064A044B16701D7003B0F0BD0020F0E710420040824300400043004080430040E2
:4036C000024A137803F0FE03137070471042004001BE7047B0F5004F70B506461AD904460D4DA4F50044686801F042FBB4F5004FF7D8A6F50043013B23F4FF4323F07F0317
:40370000A6F50046F61AA86800FB06F0BDE8704001F02EBB004DF6E70C82FF1F024B1B7803FB00F001F024BB0C82FF1F064B1F281A6800D901BE00F01F0000F1100352F839
:40374000230042F82310704708ED00E0072900D901BE1F2800D901BE00F01F0000F16040490100F56440C9B2017070472DE9F04FDFF8A8A15648DFF8A891DFF8A881DFF866
:40378000A8C19AF80010534B99F800B0043098F800209CF8006010F8045C10F8024C007859724D494D4F097883F80AB097F800B0DA724B4ADFF874E112781E73494E083F19
:4037C00036785D73484D2D789C73484C2478D8734748007819744749097883F811B097F818B09A74444A1278DE741D755C759875D97583F818B05A76404A414E92F800B0B3
:403800000232127883F81AB097F81EB0DA763D4A3D4D127883F81CB09EF800B05A773B4A3B4C127883F81EB096F800B0DA772A7883F820B094F800B0364883F8212036498F
:40384000027883F822B091F800B083F82320002283F824B08AF80020DFF8D4B089F8002088F800208CF8002007F8042C07F8022C3A70BA713A727A72BA723A73BA733A74BA
:40388000BA753A767A76BA763A77BA7787F820208EF8002087F8282032702A70227002700A709BF8002002F0080202F0FF011AB983F82E10BDE8F08F9BF80020012102F029
:4038C000F7028BF8002083F82E10BDE8F08F00BF065A0040FC8AFF1F105A0040125A0040135A0040145A0040165A0040185A00401A5A0040205A0040235A0040245A004050
:40390000335A00402A5A0040345A0040325A0040365A0040385A00403A5A0040005A0040025A0040035A0040045A0040305A0040224300402DE9F04F3F4B404D93F809C046
:4039400093F80AE03E48DE7A93F80CB093F80DA093F80E9093F80F803A4A85F800C093F810C0394C80F800E093F811E0374916709E7C374F84F800B093F813B081F800A084
:4039800093F814A087F8009093F8159085F80A8093F8168080F80EC093F817C082F80FE093F818E0E6735C7E2A4E81F80EB087F80EA085F8189080F8188082F81DC086F8B4
:4039C00000E04C7793F81AE0DE7E1C7F597F93F81EB093F81F9093F820C087F81CE093F8217085F8266093F8225080F8264093F8230082F8271093F8242093F82E30DFF86F
:403A000068A0DFF86880DFF868E0134E134C1449012B8AF800B088F800908EF800C03770257008708AF80A2004D10E4A137843F008031370BDE8F08FFC8AFF1F005A004094
:403A4000025A0040035A0040045A0040065A0040085A0040225A0040345A0040365A0040385A004022430040305A0040325A0040335A004038B57449744B0A781D780878F9
:403A8000002400F0F000087018781C7091F85F346F4C02F00F0203F0C003372084F8302084F8353084F8315001F02AFB694B19781A781B7802F0400201F0070103F010032A
:403AC00084F8342084F8331003F0FF02002B75D0012384F83930604B1B7803F00303012B84F8323000F095805C4B1B7813F0010340F0898084F83E300220FFF719FC584B50
:403B00001B7803F0100303F0FF02002B72D0012384F836304F4B1B7803F0200303F0FF02002B48D04FF040231B78002013F0400F0CBF0223012384F83730FFF791FC4FF0AB
:403B40004022137803F0300384F838301BB1137803F0CF0313703F4B1B78DB0647D4414B1B78DBB284F83A30002B3CD194F83230002B34D13C4A3D4B12781B781202134319
:403B8000A38743BB334B3A4A1B7803F00703D05C01F0B6FA374B1B7813F0010315D184F83F30354B1B7803F0040303F0FF0243B984F8402038BD84F83720C0E784F8392074
:403BC00089E7012384F8403038BD012384F83F30FFF776FDE5E70020FFF78CFCD2E70020FFF776FCC6E70020FFF77EFCBEE7FFF767FCB4E7104684F83620FFF753FB0620C5
:403C0000FFF78CFD86E7012384F83E30FFF742FB72E74FF040231B7803F00303012B0AD005D3022B0BD10320FFF752FC5CE70020FFF74EFC58E70220FFF74AFC54E70020E7
:403C4000FFF746FD50E700BFA1430040A2430040FC8AFF1F004200400540004020420040A0430040044000400740004006400040F48F0000104200400B4000402DE9F043E2
:403C8000814E824D334653F8080F95F8402099889B7983B0012A0090ADF804108DF8063000F0A18095F83F30012B00F0B180372001F026FA95F83200744C831E012B7ED9A2
:403CC000724B95F8342093F8333012F0400F02AA134413F8080C02D0032800F0D180FFF727FB95F834306A4A13F0400F137814BF43F0400303F0BF03137095F83630012B4D
:403D000044D095F83700FFF7ABFB95F83930012B66D04FF040210A7895F8383002F030029A4204D00A7802F0CF0213430B7095F83E30012B00F08A8095F83200534C01280E
:403D40002FD995F836301BB9524B1B78DB0644D4514A524B12781B78A88F43EA0223984201D0FFF7C7FB4E4995F835200B7895F8306095F831404B484B4D03F03F0313433D
:403D80000B702E70047003B0BDE8F083414B1B7803F0100303F0FF00002BB2D1FFF782FAAFE7424A94F83A3012789A4204D01846FFF79AFB94F83200FFF78AFBC1E73B4AD3
:403DC00094F83A3012789A4204D01846FFF78CFB94F83200FFF77CFB72E7FFF799FAB7E7FFF766FB95E72A4B1B7803F00703F05C00EB8000C0EB001000F0BAFF2C4A137819
:403E000043F00403137095F83F30012B7FF44FAF0020FFF7FFFB274BDFF8749098461B780524C82799F80030013C03F00703F05CA4B207FB00F000F09BFF98F8003013F06A
:403E4000800F3FF434AF002CECD130E70020FFF7E5F95020FFF762FC174BAB241E461B780120FFF75BFC3378013C13F0010FA4B203D03378DA073FF55FAF002CF0D15BE72E
:403E80000820FFF755FA38E7F48F0000FC8AFF1F00420040A0430040074000400640004000480040A2430040A1430040044000400B4000401042004025420040F8B50C4685
:403EC000064600F05DFF344B1B7803F0080303F0FF01002B53D1314A0546137803F01F031370002E53D1FFF741FC2D4AC4F307102C4B167804F00F0110701878C4F3003421
:403F000019706FF4CC710B44917894701A78264C607150072671A17135D019781A7801F0070102F0F802002084F82C101A7084F82D00194A137803F0F80343F00303137077
:403F4000137800BF00BF30BF94F82D30164A012B07D0164992F82C200B7803F0F80313430B70FFF7E7FC284694F804E06679A2790B4F0C490E4B87F800E00E701A70BDE8C1
:403F8000F84000F001BF012384F82D30D1E70846FFF79EFBA7E700BF93430040834600409843004099430040FC8AFF1F004200409A43004038B5054600F0E2FE064A074BF7
:403FC0001C7892F842301C4324EA050582F8425000F0DAFE204638BDFC8AFF1F9043004038B5124C0546237803F0FD032370FFF709FB2378DB070DD50D4A1378AB4213D012
:40400000237803F0FE0323701570237843F00103237038BD064B1A78AA42044A18BF1D70137843F00103137038BD00BF8243004080430040F8B500F0A3FE214A044613787F
:40404000204943F0020313700B781F4843F002030B70037801F5AA5143F001030370D379103143F00103D3710A7800F5AB50174B0C30182542F003020A7005701A78144EFA
:4040800042F040021A701A78A0F5975002F0FC021838C82702251A703770057091F824320A2043F0080381F82432FFF737FB094B042220461A60BDE8F84000F065BE00BFB1
:4040C000AB430040BB430040A24300400D5900400859004080E200E00A2838B5044630D00C2826D0082818D00020FFF7F1FAC223174A0A2C137017D00C2C24D0082C0FD0D5
:404100000020FFF7E5FA00231A46124C124813490025258002600B8038BD0D4B42221A70802340F2E242F0E74FF4007341F28832EBE7074BC2221A704FF4006344F620629A
:40414000E3E78223D4E744F620624FF40063DCE70A5900407494FF1F7894FF1F7694FF1F08B5102000F0AAF802200721FFF7EEFA07490220FFF7DAFA064A0C20137843F0B8
:4041800006031370FFF7A8FF034B00221A8008BD09420000095900407C94FF1F10B5054C23781BB9FFF7DCFF01232370BDE81040FFF740BF408BFF1F024A137843F00103FE
:4041C000137070470859004038B5084A00E050B91378064D13F00104F9D02046FFF79EFA2B78204638BD0024204638BD09590040034A044B1B881088181A00B2704700BFC9
:404200007694FF1FA25B0040704700BF08B5104843F6972100F09EFF43F697210D4800F099FF00F0ADFD0C4A137843F01003137000F0AAFD094A1378190704D508490B68CC
:4042400013781B07FBD4074B01221A7008BD00BF25640040056400409764004067640040456400408764004010B5064C23781BB9FFF7CCFF01232370034A137843F08003E7
:40428000137010BD418BFF1F7564004070B4074B074E1D6807494FF48063E024064A3360A8660C7070BC1360704700BF08ED00E080E100E00AE400E000E100E0034A00F07D
:4042C000F800137818431070704700BF8240004008B50F480F4900F03DFF0E490E4800F039FF00F04DFD0D4A137843F01003137000F04AFD0A4A1378190704D509490B68C2
:4043000013781B07FBD4084B01221A7008BD00BF246500403F4B4C00046500409565004065650040446500408565004010B5064C23781BB9FFF7CCFF01232370034A137808
:4043400043F08003137010BD428BFF1F7465004070B4064B064E1D6806490223E024064A336068640C7070BC1360704708ED00E080E100E001E400E000E100E010B5012169
:404380004FF4804241F6FF73022000F04DF941F6FF72084C134620700121082000F066F96070054800F080F9BDE81040072000F081B900BF448BFF1FE5440000F8B52A4DB4
:4043C0002A4C2878FEF7FCFD6878FEF7F9FD2078FF2845D0264E062302460821B6B2FEF77DFE324645F6A0312078FEF78FFE28782178FEF727FE60781C4FFF282CD00723B3
:4044000002460821FEF76AFE1A4A314692B26078FEF77CFE61786878FEF714FE01212878FEF7B0FD01216878FEF7ACFD00F0A8FC114A137843F02003137000F0A5FC0F4B46
:404440000F491A78802042F001021A701A7842F002021A700860F8BDFEF724FE7870CEE7FEF720FE2070B5E7448BFF1F1C82FF1F488BFF1F8094FF1F99650040796400406A
:4044800080E200E010B5074CE3681BB9FFF776FF0123E360FFF792FF00F0A4F8024B1B7810BD00BF448BFF1F6E64004000F0B4B8044900E020B90B7803F0FF02002BF9D066
:4044C000104670476E640040044A054BC0F1030033F810301088181A00B270478E94FF1F8094FF1F704700BFF8B500F049FC044619481A4A03781A4943F0010303701378C1
:4045000000F5AA5043F0010313700A78154B1B30182542F003020A7005701A78124E42F040021A701A78A0F59750123802F0FC02C82702251A703770057091F824320A2045
:4045400043F0080381F82432FFF7E8F82046BDE8F84000F019BC00BFAB430040BB4300400359004005590040005900400A2810B504462AD00C2822D0082817D00020FFF7C4
:40458000A7F8C223134A0A2C137015D00C2C1ED0082C0ED00020FFF79BF800220E4C0F480F490023238002600B8010BD094B42221A704FF40072F1E74FF40062EEE7054B57
:4045C000C2221A704FF40052E8E78223DAE74FF40052E3E7025900409094FF1F8894FF1F8E94FF1F38B5094C25785DB9084A0820137843F006031370FFF7B8FF054A0123F4
:4046000015802370BDE83840FFF76EBF548BFF1F015900408C94FF1F024A137843F0010313707047005900402DE9F0418E4690461F4682B00C4C0125002672462B460146C0
:404640000096284601962570FEF708FD41463A462078FEF7DFFC20780221FEF7C9FC207802B0BDE8F08100BF1E82FF1FF0B58E4617461E4683B000250A4C72462B460146F7
:404680000095019528462570FEF7E8FC394632462078FEF7BFFC20780221FEF7A9FC207803B0F0BD1F82FF1F014B1B68D865704708ED00E04001024BC0B21870704700BF12
:4046C00007E400E008B500F05BFB044A137843F010031370BDE8084000F056BB97650040094B1A786AB9F0B40848094E094C0627472501213770257002701970F0BCFFF7E3
:40470000E1BFFFF7DFBF00BF558BFF1F876500402464004034640040034A13785B07FCD4024B1870704700BF67650040476500402DE9F8431648174BDFF87CE01649174D68
:40474000174E00244FF400424FF0080C4FF002094FF08108262780F8009081F800800F208EF800C0072137702C701A60FEF7EEFF0C490F20FEF7DAFF0B480C490C4A0D4B94
:40478000102505700C7014701C70BDE8F88300BFD649004080E100E0C8490040DC490040DB490040114800009294FF1F9E94FF1FA594FF1F9D94FF1FCA49004008B500F097
:4047C000DFFA0749074A0B7843F004030B70137843F004031370BDE8084000F0D5BA00BFA5430040B543004010B5074C23781BB9FFF79EFF01232370FFF7E0FF034B4FF4FD
:4048000000421A6010BD00BF578BFF1F00E100E0F8B5854B854D1C782B78E4B2590640D5E2072AD52B78453B052B7ED8DFE803F003657D7D033F04F00A03082B04F0DF04E5
:4048400000F08B800A2B70D1794A7A49137843F0A00313700B789F0740F189802B78117813F0080F0CBF0A23092373480B4360264FF4004113702E700160A20616D52B78C5
:404880006B4913F0080F0B7814BF012002206B4A03430B701378102103F0EF0313702970F8BD2B78DB065CBF10232B70F8BD644A64496548137809780068DBB2C9B2C154EE
:4048C000137862490133DBB2137012780B789A423FD3584B1B7803F0020303F0FF02002B74D0534A54491378602643F009034FF4004013702E700860BFE7A60719D4544B3D
:40490000544A19781278914250D253491A780968D2B28A5C4B4E4449D2B20420327008701A780132D2B21A70A7E70020FEF7D0FEA3E7404B1B78990725D53D4A3E491378B9
:40494000602643F09A034FF4004013702E70086093E7354B10221A708FE72B78334A452B3CD0314900204A230870137085E7334A3A4E13782C4943F0100310270420137076
:404980003770087079E72D49344F0B78264843F01003274A4FF0100E04260B7087F800E00670137843F09003137066E7214B1B789807DCD51E4A20491378602643F00A036E
:4049C0004FF4004013702E70086056E71B4916480B7843F010030B7002704EE71D4B1B7893B11D4BDFF85CC01B680F4F1B781848DBB24FF0040E012646218CF8003087F8B4
:404A000000E00670117038E70A4B1B789B07AED5074909480B78602743F00A034FF400460B701770066028E7D74900409294FF1F9E94FF1F9C94FF1F80E100E0D6490040A6
:404A4000A594FF1FD84900409894FF1F9494FF1F9D94FF1FA494FF1FA094FF1FD949004059B12DE9F041244C2578102D07D02578602D0AD00220BDE8F081022070471F4DA2
:404A80002D782D0731D41E4D08E01E4E1C4D4FF4004737602E7806F0F7062E701A4EDFF880E01A4F4FF045084FF0000C84F800808EF800C03A7033702A784000144E154C85
:404AC000C0B202F0FD02DB072A70316020700FD50A49114B1220042208701A700F4B4FF400421A600020BDE8F0810120BDE8F081024B01221A70F1E79294FF1FD94900408B
:404B00009E94FF1F80E200E09C94FF1FA494FF1FA094FF1FD8490040D749004000E100E09D94FF1FF0B5030183B0DBB200F0F00043F00D0743F0090540F00D0640F00904CB
:404B400001A90422002327208DF806708DF807508DF804608DF80540FFF782FF4FF4FA70FEF7DCFD03B0F0BD38B50546007838B10124FFF7D7FF285D0134E4B20028F8D154
:404B800038BD00BFF0B5030183B0DBB200F0F00043F00C0743F0080540F00C0640F0080401A90422002327208DF806708DF807508DF804608DF80540FFF752FF4FF4FA604C
:404BC000FEF7ACFD03B0F0BD032816D8DFE800F0110C0702A1F12C00C0B2FFF7D3BFA1F16C00C0B2FFF7CEBFA1F14000C0B2FFF7C9BF81F08000FFF7C5BF704730B500F05D
:404C0000F00083B040F00C0540F0080401A90222002327208DF804508DF80540FFF720FF4FF4FA60FEF77AFD03B030BD08B51420FEF750FD3820FFF7E1FF0520FEF74AFD79
:404C40003820FFF7DBFF0520FEF744FD3820FFF7D5FF0520FEF73EFD2820FFF7CFFF0520FEF738FD2820FFF78DFF0520FEF732FD0120FFF787FF0520FEF72CFD0620FFF7D0
:404C800081FF0520FEF726FD0C20FFF77BFFBDE808400520FEF71EBD10B5064C63781BB9FFF7C4FF012363700C20FFF76BFF0123237010BD588BFF1F10B5092884B043D9EC
:404CC0002A4C0023A4FB0021C90801EB8102A0EB420288B204A930321944092803F1010301F8082CDBB2214AECD8A2FB0012D20802EB8202A0EB4202303204A9D2B21944DB
:404D00001C4601F8082C184613B92AE012F8082CE11A0DF1100E714401F8102C7246013B13F0FF031A44F1D19DF80830421C04A90A440C446846002104F8103C02F8101CA5
:404D4000FFF712FF04B010BD084B0122A3FB0013DB0803EB8303A0EB43033033DBB20024E5E79DF808300122E1E700BFCDCCCCCC0230800803D000BF01380046FCD1704785
:404D8000EFF3108072B6704780F31088704700BF38B510490320FEF7C9FC03200721FEF7D5FC0D4B0D492022712008701A700C490420FEF7BBFC04200721FEF7C7FC094CEC
:404DC00009490A4B072548200222257008701A7038BD00BF69510000846400408C640040E951000022640040326400408064004038B5FFF7C5FF0C490C4C0B780C4A43F09D
:404E000020030B702378082543F010032370156011F80C3C1024234301F80C3C1460BDE83840FFF7B1BF00BF9C6400409464004000E100E010B5054C23781BB9FFF7A8FF81
:404E400001232370BDE81040FFF7D2BF5A8BFF1F38B5FFF795FF0C490C4C0B780C4A03F0DF030B702378082503F0EF032370156011F80C3C102403F0EF0301F80C3C1460DB
:404E8000BDE83840FFF780BF9C6400409464004080E100E010B5FFF773FF0B4B0B4C1A7842F001021A701A7802F0FE021A70FFF76BFF074B00220821064821605A709A700E
:404EC000DA701A71016010BD9864004080E100E05A8BFF1F00E100E010B5FFF751FF0A4B0A4C1A7842F001021A701A7802F0FE021A70FFF749FF064A1023002105482360A7
:404F000091715171036010BD9064004080E100E05A8BFF1F00E100E038B510490520FEF705FC05200721FEF711FC0D4B0D492022712008701A700C490620FEF7F7FB062089
:404F40000721FEF703FC094C09490A4B072548200222257008701A7038BD00BF515200008B6500408A650040D152000023640040336400408F64004038B5FFF701FF0C49E8
:404F80000C4C0B780C4A43F020030B702378202543F010032370156011F8FB3C402443F0100301F8FB3C1460BDE83840FFF7ECBE9A6500409B65004000E100E010B5054C20
:404FC00023781BB9FFF7A8FF01232370BDE81040FFF7D2BF628BFF1F38B5FFF7D1FE0C490C4C0B780C4A03F0DF030B702378202503F0EF032370156011F8FB3C402403F07B
:40500000EF0301F8FB3C1460BDE83840FFF7BCBE9A6500409B65004080E100E010B5FFF7AFFE0B4B0B4C1A7842F001021A701A7802F0FE021A70FFF7A7FE074B00222021C9
:40504000064821605A709A70DA701A71016010BD9865004080E100E0628BFF1F00E100E010B5FFF78DFE0A4B0A4C1A7842F001021A701A7802F0FE021A70FFF785FE064A27
:40508000402300210548236091715171036010BD9F64004080E100E0628BFF1F00E100E0134B1B7803F00303012B1CD0022B07D00023104A1268D35C012B12D00020704747
:4050C0000D4B0E4A1B7803F07F0303EB430302EB83030833074A9B781268DBB2D35C012BECD100F029B9044B1B78DBB2E1E700BF006000409893FF1F04600040C093FF1FCD
:4051000010B50446FFF73CFE114A102C137815D9212C0AD9322C94BF43F0C00303F03F031370BDE81040FFF72FBE03F03F0343F080031370BDE81040FFF726BE03F03F0347
:4051400043F040031370BDE81040FFF71DBE00BF00480040CAB2C1F30723C1F30741027043708170704700BF18490B789A062CD5174A2DE9F0439046164E1748174D184CB7
:40518000DFF860E001274FF0000C137894F80090DBB25FFA89F906F8039003780BB18EF8007013780133DBB213701378FF2B08BF88F800C092F800902B78994508BF077034
:4051C0000B789B06E1D4BDE8F0837047646400405C8BFF1FA895FF1F5D8BFF1F5B8BFF1F486400405E8BFF1F144A154813780178994221D0F0B513490B7803F0040303F0A6
:40520000FF06C3B91746104D104C02E00B785B0711D41378FF2B08BF3E701378DBB2EB5CDBB22370137890F800E00133DBB2137013789E45EAD1F0BD704700BF5F8BFF1FF7
:40524000608BFF1F60640040A894FF1F4064004018490B789A062CD5174A2DE9F0439046164E1748174D184CDFF860E001274FF0000C137894F80090DBB25FFA89F906F8BC
:40528000039003780BB18EF8007013780133DBB213701378FF2B08BF88F800C092F800902B78994508BF07700B789B06E1D4BDE8F08370476B650040648BFF1FA896FF1FA9
:4052C000658BFF1F638BFF1F48650040668BFF1F144A154813780178994221D0F0B513490B7803F0040303F0FF06C3B91746104D104C02E00B785B0711D41378FF2B08BFDD
:405300003E701378DBB2EB5CDBB22370137890F800E00133DBB2137013789E45EAD1F0BD704700BF678BFF1F688BFF1F6F640040A897FF1F4F6400400A4B1B78DBB203F0D1
:405340000303022B0AD0012B01D00020704703F1804303F5C0431B7800207047024B00201B787047006000400160004030B5214A21F00043934287B01BDD1F4A934205DD70
:4053800002460B4602F0A0FC07B030BD02AA01F0FFF900F0030001281AD002280FD008B3DDE9020101230093DDE9042302F0F4F9EAE70022002301F0C7FC07B030BDDDE943
:4053C0000201DDE9042301F0BFFC01F10041DBE70090DDE90423DDE9020102F0DDF901F10041D1E7DDE90201DDE9042301F0ACFCCAE700BFFB21E93FFFFFEF7FF8B5C1F353
:405400000A56A6F2FF35132D0A460B460446864611DC002D2DDB0F461F492941114224D04FF400232B413B4423EA01030022194614462046F8BD332D05DDB5F5806F1ED098
:4054400011462046F8BDA6F213414FF0FF30C8402042F5D0C6F5866602360121B140091928BF013321EA0002E1E70028D8D11146E7E7013501F0004307D00022D7E70246CE
:405480000B4602F023FC0446D3E743F07F5343F440130022CBE700BFFFFF0F0030B5224A21F00043934287B01BDD204A934205DD02460B4602F008FC07B030BD02AA01F0BD
:4054C00067F900F0030001281ED0022811D010B3DDE90201DDE9042301F036FC01F10041EAE7002300930022002302F055F907B030BD01230093DDE90201DDE9042302F059
:405500004BF901F10041D7E7DDE90201DDE9042301F01AFCD0E70124DDE90201DDE90423009402F039F9C7E7FB21E93FFFFFEF7F2DE9F0438BB006460F4600F0F1F9DFF8FB
:40554000E880044698F900300D4601330BD03046394602F071FA30B1304639460022002302F0F6FF20B1204629460BB0BDE8F0832A4B98F800400890CDE90267CDE904676C
:4055800001939CB9264D4FF060443046394600220023CDE9064502F0B3FF002835D101230093684602F074FAA8B910E0DFF87C904FF000083046394600220023CDE90689E0
:4055C00002F09EFF98B90123022C0093E9D103F065FB21230360134802F05CFACDE90601089BABB9DDE906010BB0BDE8F08302239C42009304D0684602F04AFA0028EFD1F5
:4056000003F04CFB22230360EAE702230093F2E703F044FB089B0360E4E700BFF0910000FFFFEFC7248F00002082FF1F0000F0FF2DE9F04F8BB01F4680468946164600F0F7
:4056400057FBDFF8D8A204469AF900300D46013304D03046394602F0EFF920B9204629460BB0BDE8F08F4046494602F0E5F9834660BB304639460022002302F041FF002866
:40568000ECD09AF900309E4C01229E4900208DE814005A1CCDF820B0CDE90289CDE90467CDE906010DD0022B0BD0684602F0F0F9002800F09380089B1BB103F0EFFA089B1D
:4056C0000360DDE906010BB0BDE8F08F404649460022002302F014FFF8B1304639460022002302F00DFF834600284ED084489AF900300121002200240025CDE90289CDE939
:405700000467CDE90645019000910892002BCCD07C4B0022CDE90623D3E72046294602F0F7F8834600285ED0204629460022002302F0E6FE002891D04046494602F0E8F8C3
:4057400000288BD03046394602F0E2F8002885D09AF900306A480421002200240025022BCDE90289CDE90467CDE9064501900091089200F08880684602F08AF9002800F0E4
:405780008280089B002B9CD097E73046394602F0BFF800283FF462AF304639460022002302F0B8FE00283FF459AF55499AF800300122CDF820B0CDE90289CDE904670191D4
:4057C0000092002B3CD050490020022BCDE9060130D103F063FA21230360D2E703F05EFA2123036067E74046494602F091F800289AD03046394602F08BF8002894D02046CE
:40580000294602F019F900BB3D4A9AF8004001230890CDE90289CDE90467019200937CB10020002102460B4602F02CFD022CCDE90601CED0684602F02BF90028A1D1C8E7E5
:4058400000220023CDE90623F4E72D499AF900300322CDF820B0CDE90289CDE9046701910092ABB9294D4FF060444046494600220023CDE9064502F04DFE50BB9AF900308D
:40588000022B7FF478AF03F009FA2223036078E71F4D00244046494600220023CDE9064502F038FE0028E9D000221A4B3046394602F0BEFB04460D4602F0F2F822462B46B7
:4058C00002F01EFE0028D9D10F4B0022CDE90623D4E700220F4B3046394602F0A9FB04460D4602F0DDF822462B4602F009FE0028C4D1094B4FF06042CDE90623BEE700BF40
:40590000F49100000000F03F0000F0FFFFFFEF470000F07F0000E03FFFFFEFC72082FF1F2DE9F04FB1F5801F85B006460F460B465ADA024621F00044224300F0F580002909
:40594000C0F271810022DE4B02F072FB0B460F46DC4906468B426FF0350249DCC3F3130505F5152404F6647404F4801E8EF07F5181F440111B15A3F2FF3341EA05079C18DB
:4059800030460022D04B394604EB1E5402F09CF9AB1CC3F31303022B82468B464FF000022FDC002302F0ACFD002800F0C680002C00F04281204602F0D5FAADA3D3E90023D7
:4059C00006460F4602F034FBABA3D3E9002304460D463046394602F02BFB02460B462046294602F073F909E0B64900228B42B5DD3046394632463B4602F068F905B0BDE83E
:405A0000F08F4FF0804302F061F902460B465046594602F037FC06460F462046CDE9006702F0A0FA3246CDE902013B463046394602F0FEFA02460B468046894602F0F8FA53
:405A40008FA3D3E9002306460F4602F0F1FA8EA3D3E9002302F03AF932463B4602F0E8FA8BA3D3E9002302F031F932463B4602F0DFFA89A3D3E9002302F028F942464B4671
:405A800002F0D6FA86A3D3E90023804689463046394602F0CDFA84A3D3E9002302F016F932463B4602F0C4FA81A3D3E9002302F00DF932463B4602F0BBFA0B460246494666
:405AC000404602F003F9A5F5C223C5F5D725A3F27A4351351D43002D06460F4653DD00227A4B5046594602F0A3FA52465B4602F09FFA80468946002C60D132463B4602F07B
:405B0000E5F8DDE9002302F093FA02460B464046494602F0D9F802460B465046594602F0D3F805B0BDE8F08F002200230020684902F0A8FB05B0BDE8F08F52465B465046F8
:405B4000594602F075FA5CA3D3E9002306460F465046594602F06CFA02460B4600205B4902F0B2F802460B463046394602F060FA06460F46002C62D15046594632463B4618
:405B800002F0A2F83AE7002C00F0A48038A3D3E90023DDE902894046494602F049FA32463B4604460D465046594602F08DF8DDE9002302F03DFA06460F464CE02CA3D3E9F7
:405BC0000023DDE9020102F033FA32463B4604460D464046494602F079F8DDE9002302F027FA25A3D3E9002306460F46DDE9020102F01EFA02460B463046394602F066F897
:405C000002460B464046494602F05EF852465B4602F05AF802460B462046294602F054F805B0BDE8F08F02460B4602F04DF80022002302F027FBE1E600200021DEE6204611
:405C400002F090F90AA3D3E900238046894602F0EFF904460D4608A3D3E900234046494602F0E6F902460B4630463946CCE700BF0000E0FE422EE63F763C7935EF39EA3D7F
:405C800044523EDF12F1C23FDE03CB966446C73F599322942449D23F935555555555E53F9FC678D0099AC33FAF788E1DC571CC3F04FA97999999D93F555555555555D53FCC
:405CC00000005043FFFFEF7F0000F03F0000E03F000050C302460B465046594601F0F4FFDDE9002302F0A4F915E700BFAFF300802DE9F04F144623F00047024657EA0400A7
:405D00000E468FB01D469C46214634D06E4B26F0004A9A459346B14626DC24D09F4223DC694B9F4200F08F80B9F1000FC0F28F804FF0000879BB644B9F4200F0A580634BA6
:405D40009F4267D0BCF1804F00F0E283604B9C4521D1B9F1000F1EDB104631460FB0BDE8F04F00F029BF62B10AF1404000F5801050EA0B0007D10346544918460FB0BDE8EA
:405D8000F08F5745CCDD53480FB0BDE8F04F01F081BE4FF0000810463146CDF808C0009201F0B2FD009ADDF808C0BBF1000F20D04FEAD97909F1FF3958EA09037AD0464B16
:405DC0009F4240F38F8003F104739F4240F31084424B9A4540F39283BCF1000F40F3928337A1D1E900010B46024602F021F90346C3E7BAF1000F04D0344B29F0404E9E45F3
:405E0000D6D1BCF1000FC0F2B683B9F1000F08DB0346B2E7BCF1000FC0F2528413463146ABE70AF1404A0AF5801A58EA0A0340F05E8402460B4601F047FF0B46024602F016
:405E400021FA034699E700293FF46EAF8CE7244B9F422CDCA3F154739F427FF769AF40F213403B15834240F34B84C3F58663033321FA03F000FA03F38B427FF459AF00F087
:405E80000100C0F1020855E70AF1404303F5801353EA0B0300F03983104B9A4540F36483BCF1000FC0F22E832346294665E74FF002083FE7104631463346BCE7AFF30080D9
:405EC0009C7500883CE4377E0000F07F0000F03F0000E03F248F00000000E041FFFFEF3FFFFF3F43BAF5801F4FF0000205DACA4B02F09EF88A466FF034024FEA2A53C74EBC
:405F0000CAF3130AA3F2FF334AF07F571344B2450C9347F4401740F3D083C14B9A4540F307840026B4460C9BA7F5801701330C933946BC4B4FEACC0C6344D3E900AB5246F8
:405F40005B46CDF834C0CDE9060101F0BDFE52465B46CDE90801DDE9060101F0B7FE02460B460020B04902F08DF902460B46DDE90801CDE90A2302F05BF802460B46CDE9EA
:405F80000223CDE904237B1043F0005303F5002399190020002306460F460293DDE902231046194632463B46CDE9000102F040F802460B46DDE9080101F086FE5246CDE9E3
:405FC00008015B463046394601F07EFE02460B46DDE9060101F078FE02460B46DDE9000102F026F802460B46DDE9080101F06CFEDDE90A2302F01CF8DDE90423CDE90601F2
:406000001046194602F014F802460B4606460F4602F00EF86EA3D3E9002382468B463046394602F005F86CA3D3E9002301F04EFE32463B4601F0FCFF69A3D3E9002301F022
:4060400045FE32463B4601F0F3FF67A3D3E9002301F03CFE32463B4601F0EAFF64A3D3E9002301F033FE32463B4601F0E1FF62A3D3E9002301F02AFE02460B46504659467D
:4060800001F0D6FFDDE9042306460F46DDE9000101F01CFEDDE9062301F0CAFF32463B4601F014FEDDE9006782468B4632463B463046394601F0BCFF00225C4BCDE908012D
:4060C00001F004FE52465B4601F000FE02980F460646DDE9000132463B4601F0A9FF32463B46CDE90001DDE9060101F0A1FF0022CDE906014D4B3046394601F0E5FDDDE9DE
:40610000082301F0E1FD02460B465046594601F0DBFDDDE9042301F08BFF02460B46DDE9060101F0D3FD82468B46DDE9000152465B4601F0CBFD32A3D3E9002302980F464A
:40614000064601F075FF30A3D3E90023CDE904013046394601F06CFFDDE90023CDE906013046394601F0B0FD02460B465046594601F0AAFD26A3D3E9002301F059FF0246D8
:406180000B46DDE9060101F0A1FDDDF834C0284BCDF818C06344D3E9002301F097FDCDE900010C9801F0DEFE06460F46DDE90401204BDDF818C09C44DDE90023DCE900AB69
:4061C00001F084FD52465B4636E000BFAFF30080EF4E454A287ECA3F65DBC9934A86CD3F01411DA96074D13F4D268F515555D53FFFAB6FDBB66DDB3F033333333333E33FB8
:40620000000000E009C7EE3FF5015B14E02F3EBEFD033ADC09C7EE3F000040438E98030079B60B00189200000000F03F0000084008920000F8910000CDE906AB01F046FD39
:4062400032463B4601F042FD029832463B4682468B4601F039FDDDE9062301F035FDDDE9042301F031FD02460B46DDE9000101F02BFDCDE9020108F1FF3858EA09030CBF09
:40628000D54BD64B0022CDE904230023CDE900450093DDE90067204632463B46294601F013FD52465B4601F0C3FEDDE90223804689462046294601F0BBFE02460B464046E8
:4062C000494601F003FD04460D465246304639465B46CDE9024501F0ABFE06460F4620463B462946324601F0F1FCBD4B824699428946884640F3138101F13F4303F5E00311
:40630000034340F0E581A0A3D3E90023DDE9020101F0DCFC324604460D463B465046494601F0D2FC02460B462046294602F010F9002840F0CD814C462015A0F2FE304FF47A
:40634000801101414144C1F30A50A64CA0F2FF35C1F3130BC0F5826003302C414BF4801B21EA040300224BFA00FB3946304601F0ABFC06460F46DDE902018BEAE87B0BEBE3
:40638000D87B32463B464FEA0B5A01F09FFC80A3D3E90023002420460D4601F049FE3246804689463B462046294601F08DFC02460B46DDE9020101F087FC77A3D3E90023A4
:4063C00001F036FE76A3D3E9002306460F462046294601F02DFE02460B463046394601F075FC06460F4632463B464046494601F06DFC42464B4604460D4601F065FC0246A5
:406400000B463046394601F05FFC2246804689462B462046294601F00BFE63A3D3E9002306460F4601F004FE61A3D3E9002301F04BFC32463B4601F0FBFD5FA3D3E9002336
:4064400001F044FC32463B4601F0F2FD5CA3D3E9002301F039FC32463B4601F0E9FD5AA3D3E9002301F032FC32463B4601F0E0FD02460B462046294601F026FC06460F465A
:4064800032463B462046294601F0D2FD0022CDE900014FF080433046394601F015FC02460B46DDE9000101F0EDFE424606460F464B462046294601F0BBFD42464B4601F0FE
:4064C00005FC02460B463046394601F0FDFB22462B4601F0F9FB02460B4600203F4901F0F3FB8A44BAF5801F0246C0F227815346DDE9040101F09CFD03463EE4BCF1000F73
:40650000FFF66EAC0023194637E40B46334934E433461046314601F08BFD03462DE4324B21F000449C4240F3FA80304B0B4403430CD132463B4601F0C7FB02460B46DDE95C
:40654000020101F0F1FF00283FF4F6AE20A3D3E90023DDE9040101F06BFD1DA3D3E9002301F066FD034608E4BCF1000FCADA234605F1004101E402460B460020174901F05B
:4065800081FE42E4AFF30080FE822B654715973C00000000432EE63FEF39FAFE422EE63F396CA80C615C20BED0A4BE726937663EF16BD2C541BDBB3E2CDE25AF6A56113FD6
:4065C00093BDBE166CC1663F3E5555555555C53F59F3F8C21F6EA5010000F0BF0000F03FFFFF8F40FFFF0F00FFCB904000346F3F634B9A4582DD634B9A453FF7EDAB0022E4
:40660000604B01F061FB54A3D3E9002306460F4601F00EFD52A3D3E90023CDE900013046394601F005FD3246CDE902013B463046394601F0FDFC002282468B46304639463B
:40664000514B01F0F5FC02460B4647A1D1E9000101F03AFB32463B4601F0EAFC02460B4600204A4901F030FB02460B465046594601F0DEFC3EA3D3E9002301F0D9FC02469B
:406680000B46DDE9020101F01FFB06460F46DDE9000132463B4601F019FBDDE90023002082468B4601F010FB02460B463046394601F00AFBCDE90201DDE50026B44637E477
:4066C000334600202F4901F0DDFD0346FFF755BB29A3D3E90023DDE9040101F0A9FC26A3D3E9002301F0A4FC0346FFF746BBB8F1010F03467FF441AB01F10041FFF73DBB68
:4067000000297FF446ABC3F58263033347FA03F000FA03F3BB4217D08846FFF710BB1B4B9C423FF709AEDDE90023924693462EE64FF480264FF0010CFFF7FABB5A4601F012
:406740003FFA02460B46D3E600F00100C0F10208FFF7F5BAAFF30080000000604715F73F44DF5DF80BAE543E555555555555D53FFE822B654715F73F9C7500883CE4377E44
:40678000FEFFEF3F0000F03F0000D03F0000E03F2DE9F04F924C21F00047A7428FB00E467FDD14468F4A974226DC83A3D3E90023002940F39D8101F087FA8B4B80469F4272
:4067C000894600F083807EA3D3E9002301F07CFA02460B464046C4E90023494601F074FA77A3D3E9002301F06FFA0125C4E9020128460FB0BDE8F08F7C4A974240F3838044
:406800007B4A974258DC3D15A5F21645A7EB05518B46824601F0A6FE01F0A4FB8046894642464B4650465946CDE9088901F04CFA0022704B01F0FCFB8B46824601F092FE5C
:4068400001F090FB8046894642464B4650465946CDE90A8901F038FA0022664B01F0E8FB00220023CDE90C0101F04AFE002800F06781002340464946002201F041FE0028B3
:4068800014BF012302235C480221019000912A4608A8214600F07CFB002EC0F24781054606E0C2E9000100250024C2E90245002528460FB0BDE8F08F02460B4601F004FA27
:4068C0000025C4E90201C4E90001F1E73EA3D3E9002301F0F9F93EA3D3E9002306460F4601F0F2F902460B463046C4E90023394601F0EAF936A3D3E9002301F0E5F901257E
:40690000C4E90201D4E700F0FFFF33A3D3E900238046894601F08CFB0022384B01F0D6F901F020FE054601F01DFB23A3D3E90023CDE9040101F07CFB02460B4640464946FE
:4069400001F0C2F91EA3D3E9002382468B46DDE9040101F06DFB1F2DCDE902015046594650DC274B6A1E53F82230BB424AD0DDE9022301F0A9F902460B4681468846C4E9A1
:4069800000234A4643465046594601F09DF9DDE9022301F099F902460B46002EC4E9022386DA4A4608F1004301F1004184E80C00E160A0606D427BE700004054FB21F93FC7
:4069C0003163621A61B4D03D0000601A61B4D03D7370032E8A19A33B83C8C96D305FE43FFB21E93F7BD90240FB21F93FFB213941FFFFEF7F00007041A89200000000E03FC7
:406A000028920000DDE9022301F05EF988463F15C8F30A53FB1A102B8146C4E90001B0DD59A3D3E90023DDE9040101F001FB8046894642464B465046594601F045F9CDE982
:406A40000601DDE906235046594601F03DF942464B4601F039F94EA3D3E9002380468946DDE9040101F0E4FA42464B4601F02CF9CDE90201DDE90223DDE9060101F024F9DB
:406A80000B4602468846C1F30A517F1A312F8146C4E9002374DD40A3D3E90023DDE9040101F0C6FA80468946DDE9060142464B4601F00AF982468B46DDE9060152465B4633
:406AC00001F002F942464B4601F0FEF834A3D3E9002380468946DDE9040101F0A9FA42464B4601F0F1F8CDE90201504659463EE701F0ECF82E4B80469F42894622D02AA377
:406B0000D3E9002301F0E2F802460B464046C4E90023494601F0D8F823A3D3E9002301F0D5F84FF0FF35C4E90201C1E66268E36802F1004203F1004345426260E360B7E695
:406B40000323A0E610A3D3E9002301F0BFF810A3D3E9002306460F4601F0B8F802460B463046C4E90023394601F0AEF808A3D3E9002301F0ABF84FF0FF35C4E9020197E6A8
:406B8000DDE906ABFDE600BF0000601A61B4D03D7370032E8A19A33B0000002E8A19A33BC14920259A837B393163621A61B4D03DFB21F93FAFF300802DE9F041604E0C46CD
:406BC000B6460E40764505460B4600F098800029024676DD5FEA215E00F08180AEF2FF3EC3F313031EF0010F43F480135ED100273C46D10F01EB43034FEA6E0E52001620B7
:406C00004FF4001165189D424FEAD2764FEA420202DC5B1B6C180F44013806EB43034FEA5101EFD1844620264FF000410AE0A34220D0D50F013E4FEA510105EB43034FEA54
:406C4000420220D09C420CEB0105F0DA002D05EB010C09DBA0461B1B954288BF03F1FF334446521B0844E4E7BCF1000FF2DB04F10108F0E7954217D8002D05EB010C48DB4E
:406C800098460023ECE7134315D140087B1003F17F5303F50013FA0703EB0E57394648BF40F00040BDE8F0811C46C2E7D10F01EB430352009BE7411C31D000F00103184421
:406CC000E3E721F000460643ECD079BB8E46D30AAEF1150E5205002BF9D0DC0222D400215B00D80201F10101FAD5C1F10100C1F1200422FA04F4234386448A406EE702465B
:406D00000B4601F095F92A46234600F0DFFFBDE8F081BCF1000FAADAA0460023A0E701373046B3E7202401200021E2E702460B4600F0CAFF02460B4601F0A4FAB2E700BF8D
:406D40000000F07F000000002DE9F04F21F00047B7F1795F85B00C4692469B4605466BDA01F000FC002800F0E7802A4623462846214601F05DF974A3D3E9002380468946BB
:406D800001F056F972A3D3E9002300F09FFF42464B4601F04DF970A3D3E9002300F094FF42464B4601F044F96DA3D3E9002300F08DFF42464B4601F03BF96BA3D3E900236F
:406DC00000F082FF42464B4601F032F968A3D3E9002300F07BFF42464B4601F029F9CDE90001404649460022634B01F021F9DDE9002306460F464046494601F019F952468C
:406E0000804689465B462846214601F011F902460B464046494600F057FF02460B463046394600F051FF02460B460020534900F04BFF05B0BDE8F08F02460B4601F0F8F8A8
:406E400041A3D3E900238046894601F0F1F840A3D3E9002300F03AFF42464B4601F0E8F83DA3D3E9002300F02FFF42464B4601F0DFF83BA3D3E9002300F028FF42464B4660
:406E800001F0D6F838A3D3E9002300F01DFF42464B4601F0CDF836A3D3E9002300F016FF4B46424601F0C4F8354BCDE900019F4297DD344B00229F4238DCA7F5001300200A
:406EC0002E4916461F4600F0FFFECDE90201404649460022284B01F0ABF832463B4600F0F3FEDDE9002306460F464046494601F09FF85246804689465B462846214601F0E1
:406F000097F802460B464046494600F0DDFE02460B463046394600F0D7FE02460B46DDE9020100F0D1FE05B0BDE8F08F164B0026CDE90223154FCAE71049002005B0BDE8B2
:406F4000F08F00BFAFF30080D43888BEE9FAA8BDC4B1B4BD9EEE213EAD529C804F7E923E9015CB19A001FA3E7751C1166CC1563F4C5555555555A53F0000E03F0000F03FA4
:406F80003233D33F0000E93F0000E73F0000D23F2DE9F04F9E467E4DD41E85FB0465E417C4EBA504ADF51D7D24EAE4742546A69E0D940C93E343774C03EB430354F8264069
:406FC00002EBC303274609940EF1FF3426460394F41904900A910893A5EB060516D42C44013422AEA79F08E057F8250000F0BAFF0135A542E6E9020108D0002DF4DA01358B
:4070000000200021A542E6E90201F6D1099B002B31DB099A0C9B74A901EBC20BC3EB4373039A24A9DB0001EBC20800930DF5E479039B002BC0F297814446049B0026A3F1CD
:40704000080A009B002708EB0305FAE9022374E8020100F0EDFF02460B463046394600F035FEAC4206460F46EFD1E9E90267D94508F10808DCD1099B10A99B4603F18043FA
:40708000013B9B001A1D0A440B440F920E934FEACB039CA91A460693BBF1000F0B4453E9284528DD0DF5E87A0AEB02060FAF0022394B2046294600F0BBFF01F053FA00F074
:4070C00051FF0022354B8046894600F0B1FF02460B462046294600F0F7FD01F043FA76E9022347F8040F4946404600F0EFFD564504460D46DBD1DDF82090204629464A4654
:4071000000F05EFD00224FF07F5304460D4600F08FFF00F005FC0022214B00F089FF02460B462046294600F0CFFD04460D4601F019FA804600F016FF02460B4620462946BB
:407140004C4600F0C1FD002C06460F4640F3F1800BF1FF3110AB53F82130C9F1180043FA00F202FA00F55D1B10A8C9F1170340F8215090441D41002D3FDDBBF1000F08F10D
:40718000010840F38482002214460FA912E000BFABAAAA2AB09300000000703E0000704100002040C3F180700BB108600124013293450DDD51F8043F002CF3D0C3F1FF135A
:4071C000013203F57F4393450B604FF00104F1DC089B002B0EDD012B00F0B380022B09D10BF1FF3210AB53F8223010A9C3F3150341F82230022D00F083803046394600226F
:40720000002301F07DF9002800F0C980099B0BF1FF3A53450DDC10AB0F9803EB8B03002253F8041D834242EA0102F9D1002A40F01482099B10AA013B52F82330002B40F05D
