:4000000000800020110000004D1900004D190000034A08B51268034B1A6001F099FC00BFFA460040BC76004010B5054C237833B9044B13B10448AFF300800123237010BD1E
:400040008882FF1F00000000FC6E0000084B10B51BB108480849AFF300800848036803B910BD074B002BFBD0BDE81040184700BF00000000FC6E00008C82FF1F0881FF1F6B
:40008000000000002DE9F04F634B85B01B7802F0C3FC002002F0CAFC02F0C6FC002002F0D1FC834606F098F88146012002F0CAFC009006F091F88046022002F0C3FC019031
:4000C00006F08AF80746032002F0BCFC029006F083F80646042002F0B5FC039006F07CF84E4C0546B4F800A0AAF10A0006F074F80146484606F062FA002840F086800AF1A3
:400100000A0006F069F80146484606F075FA00287BD1B4F80490A9F10A0006F05DF80146404606F04BFA002867D109F10A0006F053F80146404606F05FFA00285DD1B4F8B6
:40014000068008F1FF3006F047F80146384606F035FA002849D108F1010006F03DF80146384606F049FA00283FD12D4FB7F8008008F1FF3006F030F80146304606F01EFA59
:4001800058BB08F1010006F027F80146304606F033FA10BB7E88701E06F01EF80146284606F00CFA88B9701C06F016F80146284606F022FA48B9237A184A1BB1937843F07F
:4001C0001003937005B0BDE8F08FA378BDF80C2043F020037A80A370EDE7A378BDF8082043F008033A80A370D4E7A378BDF8042043F00403E280A370B7E7A378BDF80020EE
:4002000043F00203A280A37099E7A378A4F800B043F00103A3707CE768640040A482FF1F0C81FF1F10B51C4B00201B7802F0FAFA38B11A4C637AE218127B1AB183F0010308
:40024000637210BD02F002FB154A23691080A28A9842C8BF2061FF2A104B08D8597A114C02EB012101329A8224F8110010BD0E4A186951885A7A814203EB020482F00102C6
:400280004FF00001CCBF002001205A72207699821961997610BD00BF67640040A482FF1F2C8BFF1F488FFF1F0C81FF1F2DE9F04F85B062B6B34801F09DFEB34801F0B2FE17
:4002C00001F022FF02F078F902F0FCFA02F0F8FB02F092FA02F09EFA02F08AFB02F09CFB02F00AFD01F060F8A84800F045FA012002F0D8F80020014602F0F6F8A44802F04B
:40030000C3F80021012002F0EFF8A24802F0BCF84FF47A7001F022FEDFF8B4B20320002102F0E2F89C4802F0AFF85D469B4CDFF8A4A29B4E9BF8023083B16268002A30D1D1
:40034000D80736D4990742D45A074ED41F077AD4980600F1A980D90600F1CB809BF8093083F001030BEB0302127E18468BF83830002A40F0CA808023A1681846002233708A
:400380007170B27002F0D4FC707802F0D1FCB07802F0CEFC9BF80230002BDFD06268002ACED001F041FAAB787C490022D8074A60C8D503F00E03BBF800008BF8023001F003
:4003C0000FFA9BF802308BF81C009907BCD503F00D03BBF804008BF8023001F041F89BF802308BF81D005A07B0D5652203F00B0700923223FF220021BBF806008BF8027018
:4004000001F020F880B264288CBF6423AAF800004FF010014FF0020088BFAAF8003002F063F8604802F030F81021022002F05CF8BAF8000002F0D0F85B4802F025F89BF87E
:4004400002301F0784D503F00703002102208BF8023002F049F8554802F016F80021022002F042F8524802F00FF80521022002F03BF8504802F008F800216623FF220093AF
:4004800020880B4600F0DEFF052187B2022002F02BF8642F384628BF642002F09DF89BF8023098067FF557AF03F01F03002102208BF8023002F018F83C4801F0E5FF002177
:4004C000022002F011F83C4801F0DEFF0521022002F00AF8374801F0D7FF0521022002F003F8608802F078F89BF80230D9067FF535AF03F00F0331488BF8023001F0F4F97F
:4005000000287FF42BAF287228E7AF7E002F7FF411AF636873BB2A4B0BEB000203EB4020012313738BF81A3000F048FF9BF83830DBF83C2023495B444FF00008012A0746B8
:40054000086083F80C80D4F8089000F0AD8038461D4906F033F828B138461C4906F04CF8002839D19BF838305B441B7E002B7FF4E1AE00E701F058F9084B95F838005F60FE
:40058000C9E700BF2502000085000000408BFF1F006F0000146F0000246F00000C81FF1F288BFF1F3C700000386F00003C6F0000486F0000506F0000546F0000C482FF1F9B
:4005C000488FFF1F408FFF1F00007A440000F041A482FF1F448FFF1F384605F0DDF9CDE90201BAF8000005F0F3FD404905F0FCFEA26800903E4BDDE9020100F009F90028DE
:4006000068D1A368994528D0B9F1FF3F25D05A1C0DD080221046002173703270B17002F087FB707802F084FBB07802F081FB9023184664223370B27086F8019002F078FB7E
:40064000707802F075FBB07802F072FB9BF808300BB901232B72C4F80890264BDBF84010186805F0A1FF234F804600287FF47AAF014601F039FF204801F006FF4146404685
:4006800001F032FF386805F0C1FF80B201F0A4FF1A4801F0F9FE5FFA89F115483A6800F037FF3B682B645DE702912A7F01466B7F0F4800F0D7FADDF808C0C1B2DCF80020BC
:4006C0000B4800F025FFDDF808C0C5F83C80DCF800703CE7074B064819689BF81C209BF81D3000F0BFFA81468BE700BF0000C842408BFF1F408FFF1F506F00005C6F00003B
:40070000002A31DB2DE9F84F5FEA520A29D0834610460D4605F01EF906460F46ABF1040B043D0024204605F025F911A3D3E9002305F086F932463B4605F0ACFA80468946B0
:4007400002F01CFB05F03EFC49464BF8040F404602F0ACFB05F036FC0134544545F8040FE0D10120BDE8F88F00207047AFF30080182D4454FB21194070B56FF007054419C2
:4007800000F57E76284605F0F5F800220A4B05F081FA02460B4600204FF0804102F050FC0022064B05F04CF9E4E90201B44205F10105E7D170BD00BF0000284000002A403D
:4007C00008B500220E4B05F065FA02F0B9FB00220C4B05F035F908A3D3E9002305F05AFA0022094B04F07AFF02F010FB05F0C2FB08BD00BFAFF30080EF39FAFE422EE63F6B
:4008000000807B400000284000405140AFF30080002A2DE9F84F06460F461D4654DD7E2AA8BF7E22541CE400A4F1080BA4F1100A0A9805F0B1F8AB442A1905EB0A0E8046CC
:40084000DBE90045DEE900AB8946D2E900012B46224604F041FF02460B464046494605F0EFF802460B462046294604F037FF05F0A9FB05F091F832463B4605F053FB00BB35
:4008800052465B462046294604F026FF02460B464046494605F0D4F802460B462046294604F01AFF05F08EFB05F076F802460B463046394605F036FB003018BF0120BDE8C5
:4008C000F88F0120BDE8F88F4FF0000A4FF0080B1024ADE7554A10B482FB0041C317C3EB610303EB4303B0EB830F00F08680411E82FB0134CB17C3EB640303EB4303B1EB85
:40090000830F76D0811E82FB0134CB17C3EB640303EB4303B1EB830F75D0C11E82FB0134CB17C3EB640303EB4303B1EB830F68D0011F82FB0134CB17C3EB640303EB4303D1
:40094000B1EB830F63D0411F82FB0134CB17C3EB640303EB4303B1EB830F5CD0811F82FB0134CB17C3EB640303EB4303B1EB830F4FD0C11F82FB0134CB17C3EB640303EB3E
:400980004303B1EB830F48D0A0F1080182FB0134CB17C3EB640303EB4303B1EB830F3ED0A0F1090182FB0132CB17C3EB620202EB4202B1EB820F34D01C49A0F10A0281FBD9
:4009C0000234D317C3EB640303EB4303B2EB830F29D00B3881FB0031C317C3EB610303EB43021349134BB0EB820F0CBF1846084600E011485DF8044B704710485DF8044B6A
:400A000070470F48F6E70F485DF8044B70470E48F0E70E48EEE70E48ECE70E48EAE70E48E8E70E48E6E70E48E4E700BFABAAAA2A407000008C6F0000646F0000606F0000D3
:400A40006C6F0000686F0000706F0000786F0000746F00007C6F0000806F0000846F0000886F0000F8B50346704CC61784FB0302C6EB620202EB4200B3EB800F0D4600F090
:400A80008180581E84FB0017C117C1EB670101EB4101B0EB810F00F08780981E84FB0017C117C1EB670101EB4101B0EB810F6FD0D81E84FB0017C117C1EB670101EB410177
:400AC000B0EB810F76D0181F84FB0017C117C1EB670101EB4101B0EB810F71D0581F84FB0017C117C1EB670101EB4101B0EB810F6CD0981F84FB0017C117C1EB670101EB7F
:400B00004101B0EB810F49D0D81F84FB0017C117C1EB670101EB4101B0EB810F66D0A3F1080084FB0017C117C1EB670101EB4101B0EB810F60D0A3F1090184FB0124CA175D
:400B4000C2EB640404EB4404B1EB840F374A59D0A3F10A0082FB0014C117C1EB640101EB4101B0EB810F57D0A3F10B0082FB0014C117C1EB640101EB4101B0EB810F2BD04B
:400B80002B48F8BD08462B4905F04AFE2846F8BD2846294905F044FE2846F8BD2846274905F03EFE2846F8BD2846254905F038FE2846F8BD2846234905F032FE2846F8BD33
:400BC0002846214905F02CFE2846F8BD28461F4905F026FE2846F8BD82FB03322846C6EB62021B4905F01CFE2846F8BD2846194905F016FE2846F8BD2846174905F010FE31
:400C00002846F8BD82FB033228461449C6EB620205F006FE2846F8BD82FB03322846C6EB62020F4905F0FCFD2846F8BDABAAAA2A40700000906F0000A06F0000C06F00002F
:400C4000986F0000A86F0000B06F0000B86F0000E86F0000C86F0000D06F0000D86F0000E06F00002DE9F04F804687B008464FEAC20914461E4604F08FFE08EB0905D5E90B
:400C80000023CDE9000105F04DF980BB002E34D1312C2CDCDDE90001DFF808B704F1180A5BF82450554408EBC503D3E9006732463B4605F037F9002840F094805B460BEB79
:400CC0008409C346C84699460EE058F8045FDDE9000155440BEBC503D3E9006732463B4605F020F900287BD10134322CEDD14FF0FF35284607B0BDE8F08F012E00F0E9807F
:400D0000022E00F01A81032E00F08D80042E00F06F81062E00F01E83052EE8D1D5E90067DDE900AB04F10C0908EBC909CDF8148045E07E2CDBDC59E912675046594632465B
:400D40003B4605F0EFF8002840F0FA8159E90E675046594632463B4605F0E4F8002840F0758259E90C675046594632463B4605F0D9F8E51D002840F0478259E90A67504629
:400D8000594632463B4605F0CDF8002840F0C18259E904675046594632463B4605F0C2F80C34002840F09482F9E818675046594632463B4605F0B6F8002840F067823B461B
:400DC00032465046594605F0CBF8A31D039304F10A03E51C04F1050804930028A9D186E7D846CB46013C5BF824309A443046DDE90023394604F070FC08EBCA08D8E90023B5
:400E000006460F46DDE9000104F066FC02460B463046394605F0A4F8002818BF5546284607B0BDE8F08F04F10C0608EBC606CDF81480D5E900ABDDE900893AE07E2C3FF721
:400E400056AF56E912AB4046494652465B4605F069F8002840F0858256E90EAB4046494652465B4605F05EF80C34002840F0EA8056E90AAB4046494652465B4605F052F85A
:400E8000002840F07F8256E904AB4046494652465B4605F047F8002840F06A82F6E818AB4046494652465B4605F03CF8002840F072825B4652464046494605F051F8E31D35
:400EC000049304F10A03E51C671D03930028B5D10DE7312C3FF70BAFDDE90001DFF8C4B44FEA84090BEB09035D6F04F1180A554408EBC503D3E9006732463B4605F012F81F
:400F0000002871D10BF1740399445B46C346C84699460EE058F8045FDDE9000155440BEBC503D3E9006732463B4604F0FBFF002858D10134322CEDD1D9E604F10C0608EB3C
:400F4000C606CDF81480D5E900ABDDE9008939E07E2C3FF7CCAE56E914AB4046494652465B4604F0DFFF002840F0AB8056E910AB4046494652465B4604F0D4FF0C34002809
:400F800060D156E90AAB4046494652465B4604F0C9FF002840F0B48056E906AB4046494652465B4604F0BEFF002840F00981F6E818AB4046494652465B4604F0B3FF0028E8
:400FC00040F0DD805B4652464046494604F0C8FFE31D049304F10903A51C271D03930028B6D184E6D846CB460BEB8404236FFCE6C4EB447BCDF80C90CDF810804FEACB0BBB
:40100000D5E90067DDE900890CE07E2C3FF76FAED3E900674046494632463B4604F082FF78BB544632463B464046494604F098FF1035039A0BEB0503134404F1020A0028E7
:40104000E3D154E6DDF8148008EBC70858E90423DDE900894046494604F03EFB04F0B2FF42464B4604465946504604F035FB04F0A9FF0146204605F0A1FA002808BF3D46B2
:4010800037E6DDF8108008EBCA0858E90423DDE900894046494604F01FFB04F093FF424605464B463046394604F016FB04F08AFF0146284605F082FA002814BF2546554687
:4010C00017E6DDF8148008EBC50858E90423DDE900894046494604F0FFFA04F073FF42464B4606465946504604F0F6FA04F06AFF0146304605F062FA002818BF2546F8E57B
:40110000DDF81090DDF8148008EBC90858E90623DDE9000104F0E0FA04F054FFDDE9002304465946504604F0D7FA04F04BFF0146204605F043FA002814BF3D464D46D8E5AF
:40114000DDF81480DDE900AB08EBC50858E906235046594604F0C0FA04F034FF52465B4680463946304604F0B7FA04F02BFF0146404605F023FA002818BF2546B9E5DDF8EE
:40118000148008EBC40858E90623DDE900673046394604F0A1FA04F015FF3B46054632465046594604F098FA04F00CFF0146284605F004FA039B002808BF23461D4698E53D
:4011C000DDF81480039DDDF8109008EBC50858E90423DDE900673046394604F07DFA04F0F1FE3B46324604465946504604F074FA04F0E8FE0146204605F0E0F92B46002811
:4012000018BF4B461D4674E5C246DDF8148008EBC404D4E90A23DDE900894046494604F05BFA04F0CFFE4B46424604463946304604F052FA04F0C6FE0146204605F0BEF95D
:40124000039B002818BF53461D4652E5C246DDF8148008EBCA0858E90423DDE900894046494604F039FA04F0ADFE42464B4604463946304604F030FA04F0A4FE014620461D
:4012800005F09CF9002808BF554632E5DDF81480DDF810B008EBC40858E90423DDE900894046494604F018FA04F08CFE424605464B463046394604F00FFA04F083FE0146E4
:4012C000284605F07BF9002814BF5D46254610E5DDF810B0DDF8148008EBCB0858E90623DDE900894046494604F0F6F904F06AFE42464B4604463946304604F0EDF904F022
:4013000061FE0146204605F059F9002808BF5D46EFE4DDF8148008EBC404D4E90C23DDE900894046494604F0D7F904F04BFE4B46424604463946304604F0CEF904F042FE39
:401340000146204605F03AF9039B002808BF2B461D46CEE4DDE9000107B0BDE8F04FFFF72FBADDF8148008EBC50858E90623AEE6DDF81480039DDDF8109008EBC50858E99E
:40138000062326E7DDF81090DDF8148008EBC90858E90423BCE6DDF8148008EBC40858E90423F2E61881FF1F03484FF4807200F58061FFF7A5B900BFF882FF1F2DE9F047DE
:4013C00007464FF6FF764FF006094FF0FA080024B8F1000F1FFA89F5D8BF4FF0000A17DD002213461046114601334A449BB237F912E037F9112019B241450EFB02000A46AA
:40140000F2DB04F0E9FE4FF06E5104F039FF82462046514605F0D2F808B12E46544608F1FF38B8F1370F09F10109D1D130B204F0D3FE0146024804F0D7FFBDE8F08700BFED
:401440000000FA4510B4019C401AE41A04FB00F0521A90FBF2F05DF8044B1844704700BF10B504460E21002001F03EF81E4801F00BF800200E2101F037F804EB44041B4B4B
:40148000600083FB0023C4171844C4EBE010C4B2062C08D8DFE804F0090E13181D220400134800F0F1FF204610BD124800F0ECFF204610BD104800F0E7FF204610BD0F48FF
:4014C00000F0E2FF204610BD0D4800F0DDFF204610BD0C4800F0D8FF204610BD0A4800F0D3FF204610BD00BF406F00008988888824700000F46F0000FC6F0000047000009A
:401500000C700000147000001C700000000000002DE9F04F0D46924601F101084FEAC803A3F1080487B00444034400210120DFF894B2D4E90067CDE90067D3E9006753E93B
:401540000423CDE9022300F0CFFF9B4800F09CFFDBF8003001201A0C0221ADF814308DF8162000F0C1FF05A9681EFFF77BFA00F08BFF01200E2100F0B7FF05A94046FFF743
:4015800071FA00F081FF0120082100F0ADFF05A92846FFF767FA00F077FF504604F0FCF930CC22462B468046894604F0CFFC002861D030463946DDE9006732463B4604F081
:4015C0008BF800227D4B04F03BFA04F0FBFC804604F0E2F976A3D3E9002304F031FA02460B463046394604F079F804F0EBFC0146404604F03BFD724904F0F6FE04F0CCF99B
:4016000002460B462046294604F068F804F0DAFC0146064604F02CFD04F0BEF902460B462046294604F05AF804F0CCFC31460446504604F0C3FF002840F0848021465046ED
:4016400004F0BCFF30B15046314604F0CBFF002840F089800521012000F046FF594800F013FF01200B2100F03FFF574800F00CFF07B0BDE8F08F4046494622462B4604F0BD
:4016800051FC0028F4D0DDE90067DDE902233046394604F021F80022484B04F0D1F904F091FC804604F078F941A3D3E9002304F0C7F902460B463046394604F00DF804F0C6
:4016C00081FC414604F0D2FC3D4904F08DFE04F063F902460B462046294603F0FDFF04F071FC0146064604F0C3FC04F055F902460B462046294603F0EFFF04F063FC314670
:401700000446504604F078FF00283BD12146504604F072FF28B15046314604F059FF00283FD10521012000F0DFFE284800F0ACFE0B21012000F0D8FE224800F0A5FE07B079
:40174000BDE8F08F0521012000F0CEFE584600F09BFE0B21012000F0C7FE1D4800F094FE07B0BDE8F08F0521012000F0BDFE584600F08AFE01200B2100F0B6FE154800F011
:4017800083FE75E70120052100F0AEFE124800F07BFE01200B2100F0A7FE584600F074FE66E70120052100F09FFE0C48EFE700BF9A9999999999B93F2C7000000000E03F70
:4017C00000004040F06F00004C700000587000004470000048700000507000005470000000EB80020E4B00EB420083FB002310B503440B21C4170020C4EBE31400F074FEC7
:40180000084800F041FEE4B20B21002000F06CFE2046FFF75FF800F037FE204610BD00BF81808080446F000070B5012000F03AFE002001F007F980B2FFF7D2FF012001F0E5
:4018400001F9244E80B2FFF70BFE0B21022000F04BFE304600F018FE0B21022000F044FE1D4800F011FE022001F0ECF8652404FB00F01A4DC31785FB00121044C3EBE010B0
:4018800080B2642828BF642000F0A6FE144800F0FBFD0021022000F027FE304600F0F4FD0021022000F020FE0E4800F0EDFD022001F0C8F804FB00F085FB0035C31728443A
:4018C000C3EBE01080B2642828BF6420BDE8704000F082BE3C6F00005C70000081808080386F0000486F0000F0B5174F0023396887B09942ADF8143020DD00F1190313F8E7
:40190000012D83425A70FAD104466D46042904BF2023037054F8040F4E1EA2686168E3683E600FC5206900212860032000F0DCFD684600F0A9FD386807B0F0BD0423184636
:401940003B6007B0F0BD00BF0082FF1FFEE700BF154B80B503F1FF3E03B3144F002657F8085C57F8104C57F80C3C3DB1224652F8040B111B8D4243F8040BF8D157F8040C4F
:401980001A4620B142F8046BD11A8842FAD10EF1FF3EBEF1FF3F07F11007E0D104F05CFEFEF784FCFEE700BF010000004C73000008B5124A124B13491A600B68124A43F46B
:4019C000007312480B600023032B94BF50F823100F490133302B42F8041FF5D10D4B0E4A18780E490E4B08701A6000F01DF800F0C7F90C4B00221A6008BD00BF0004FA0575
:401A00000CED00E014ED00E0FC7FFF1F000000004D190000BC7600400080FF1F0481FF1F08ED00E00081FF1F2DE9F84F72B640F6191641F25121A54CA54F4FF0610B84F82B
:401A400000B0A44AA4484FF03A0BA7F800B0DFF8ECC2DFF8ECE21827DFF8E8A2DFF8E892DFF8E8824FF0170B17701923A0F800B0A4F5A0645F22062798488AF80030A9F8C3
:401A8000002088F80030ACF800208EF8003027701D460378924A9348DBB24FF0520C84F8A133914F8EF872C100240680118001E0032C0CD03B78782003F0010343EA4404BF
:401AC00001F042F9013D04F00304F1D1FEE7874E874A35468748DFF87892DFF878C2DFF878E20023022784494FF4807B4FF0070A4FF04808A2F800B082F800A089F800307C
:401B00008CF8008013708EF8003007701C460B78012743F00F030B7080F8FF7792F8E43643F0040382F8E43604EB4403AA8856F813000134002104F0C0FD092C05F10605BE
:401B4000F2D16E4D002404EB840306EB430353F8380F2A890134596804F0A4FD032C05F10A05F0D1664E674F002556F8043F13F0FF0E23F0FF0413D005F110530EF1FF3E93
:401B800003F157005FFA8EFE7044563340005B001A785978023383421155F9D101357544BE42E2D1584859490278594C42F0020202700A7846F21F0342F002020A702278BF
:401BC000A0F5863042F0400222704138514A0178D2F800C0DFF884E14F4E41F0100100274E4D01702C3ACEF800C0376007CA03C5A6F510564A492A80103E07C903C6494F56
:401C0000494D328003CDD83E3860796095E8070003C6464932800A78454842F008020A700278A7F61A27DFF838813D78414898F80060D2B2DFF82CB102F0070EEDB21209A3
:401C400080F800E0F6B28BF80020DFF81C9145F0030B87F800B0DFF814C101F5AF5146F0030BDFF80CA188F800B0DFF808E1A9F80030314A402307314FF08009DFF8F8B043
:401C80008CF800900B704FF0040C8AF80030212101234FF0020980F8B2928EF800C00A2011708BF8003000F07DF994E80F00DFF8CCE010344FF0440C88F800603D708EF82A
:401CC00000C007C42380BDE8F88F00BF004800408040004082400040844000400F010049204200402242004025420040647000000440004001400040A24300409C700000ED
:401D0000FCFFFF47A80000480350014013500140A0430040180F004800760040C0510040F80E004812510040040F004822430040CF0100496E5800402B5B00408C400040BF
:401D40008E40004086400040884000408A40004006400040084000400940004008760040F94600406F5800402C510040015900400B590040245B00405B5B004076580040A4
:401D80007F200346084910B4084A802408704C70013BDBB202F80839002BF9D1044A13705DF8044B704700BF0482FF1FF87B004000780040172817D869B90C4900010B4612
:401DC000425C034402F0DF0242541A78002042F001021A707047054900010B46425C034442F020024254F0E70120704710700040172810D810B4094A03011A441179074C12
:401E000041F0040111711A5D002042F001021A555DF8044B70470120704700BF1070004017280BD8064A0001835C01F0070103F0F10343EA410181540020704701207047D8
:401E40001070004041F6FF73994208BF4FF400519A4208BF4FF40052172808D8C00000F1804303F5EC4399800020DA8070470120704700BF172805D8034B00010344597273
:401E800000207047012070471070004070B417289DF80C609DF8105018D8C00001F07F0103F00F0300F1804441EAC21143EA061304F5EC4405F00F050022C9B2DBB221704E
:401EC0006370A570E270104670BC7047012070BC704700BF10B500F03FFF0B4B5A78182A04D8FF2400F03CFF204610BD1C78013AE10001F1804101F5F04109785A70197094
:401F000000F02EFF204610BD0482FF1F10F0800F11D130B411F470450AD1C40004F1804404F5F0442180A270E370284630BC7047012030BC70470120704700BF030608D4C2
:401F4000C00000F1804303F5F04399800020DA8070470120704700BF01BE7047B0F5004F70B506461AD904460D4DA4F50044686800F0EAFEB4F5004FF7D8A6F50043013B09
:401F800023F4FF4323F07F03A6F50046F61AA86800FB06F0BDE8704000F0D6BE004DF6E70C82FF1F024B1B7803FB00F000F0CCBE0C82FF1F064B1F281A6800D901BE00F0FC
:401FC0001F0000F1100352F8230042F82310704708ED00E0072900D901BE1F2800D901BE00F01F0000F16040490100F56440C9B20170704770B4074B074E1D6807494FF4A8
:402000008063E024064A3360A8660C7070BC1360704700BF08ED00E080E100E00AE400E000E100E070B4064B064E1D6806490223E024064A336068640C7070BC136070474B
:4020400008ED00E080E100E001E400E000E100E02DE9F8431648174BDFF87CE01649174D174E00244FF400424FF0080C4FF002094FF08108262780F8009081F800800F20CD
:402080008EF800C0072137702C701A60FFF7A2FF0C490F20FFF78EFF0B480C490C4A0D4B102505700C7014701C70BDE8F88300BFD649004080E100E0C8490040DC49004096
:4020C000DB490040312100004893FF1F5693FF1F5D93FF1F5593FF1FCA49004008B500F03BFE0749074A0B7843F004030B70137843F004031370BDE8084000F031BE00BF31
:40210000A5430040B543004010B5074C23781BB9FFF79EFF01232370FFF7E0FF034B4FF400421A6010BD00BFF88AFF1F00E100E0F8B5854B854D1C782B78E4B2590640D5CF
:40214000E2072AD52B78453B052B7ED8DFE803F003657D7D033F04F00A03082B04F0DF0400F08B800A2B70D1794A7A49137843F0A00313700B789F0740F189802B781178FB
:4021800013F0080F0CBF0A23092373480B4360264FF4004113702E700160A20616D52B786B4913F0080F0B7814BF012002206B4A03430B701378102103F0EF03137029707C
:4021C000F8BD2B78DB065CBF10232B70F8BD644A64496548137809780068DBB2C9B2C154137862490133DBB2137012780B789A423FD3584B1B7803F0020303F0FF02002BAD
:4022000074D0534A54491378602643F009034FF4004013702E700860BFE7A60719D4544B544A19781278914250D253491A780968D2B28A5C4B4E4449D2B204203270087046
:402240001A780132D2B21A70A7E70020FFF784FEA3E7404B1B78990725D53D4A3E491378602643F09A034FF4004013702E70086093E7354B10221A708FE72B78334A452B6C
:402280003CD0314900204A230870137085E7334A3A4E13782C4943F010031027042013703770087079E72D49344F0B78264843F01003274A4FF0100E04260B7087F800E0FA
:4022C0000670137843F09003137066E7214B1B789807DCD51E4A20491378602643F00A034FF4004013702E70086056E71B4916480B7843F010030B7002704EE71D4B1B78E5
:4023000093B11D4BDFF85CC01B680F4F1B781848DBB24FF0040E012646218CF8003087F800E00670117038E70A4B1B789B07AED5074909480B78602743F00A034FF4004614
:402340000B701770066028E7D74900404893FF1F5693FF1F5493FF1F80E100E0D64900405D93FF1FD84900405093FF1F4C93FF1F5593FF1F5C93FF1F5893FF1FD9490040F6
:4023800059B12DE9F041244C2578102D07D02578602D0AD00220BDE8F081022070471F4D2D782D0731D41E4D08E01E4E1C4D4FF4004737602E7806F0F7062E701A4EDFF88D
:4023C00080E01A4F4FF045084FF0000C84F800808EF800C03A7033702A784000144E154CC0B202F0FD02DB072A70316020700FD50A49114B1220042208701A700F4B4FF47F
:4024000000421A600020BDE8F0810120BDE8F081024B01221A70F1E74893FF1FD94900405693FF1F80E200E05493FF1F5C93FF1F5893FF1FD8490040D749004000E100E060
:402440005593FF1FF0B5030183B0DBB200F0F00043F00D0743F0090540F00D0640F0090401A90422002327208DF806708DF807508DF804608DF80540FFF782FF4FF4FA701D
:40248000FFF790FD03B0F0BD38B50546007838B10124FFF7D7FF285D0134E4B20028F8D138BD00BFF0B5030183B0DBB200F0F00043F00C0743F0080540F00C0640F008046D
:4024C00001A90422002327208DF806708DF807508DF804608DF80540FFF752FF4FF4FA60FFF760FD03B0F0BD032816D8DFE800F0110C0702A1F12C00C0B2FFF7D3BFA1F141
:402500006C00C0B2FFF7CEBFA1F14000C0B2FFF7C9BF81F08000FFF7C5BF704730B500F0F00083B040F00C0540F0080401A90222002327208DF804508DF80540FFF720FFF1
:402540004FF4FA60FFF72EFD03B030BD08B51420FFF704FD3820FFF7E1FF0520FFF7FEFC3820FFF7DBFF0520FFF7F8FC3820FFF7D5FF0520FFF7F2FC2820FFF7CFFF05203F
:40258000FFF7ECFC2820FFF78DFF0520FFF7E6FC0120FFF787FF0520FFF7E0FC0620FFF781FF0520FFF7DAFC0C20FFF77BFFBDE808400520FFF7D2BC10B5064C63781BB95D
:4025C000FFF7C4FF012363700C20FFF76BFF0123237010BDF98AFF1F10B5092884B043D92A4C0023A4FB0021C90801EB8102A0EB420288B204A930321944092803F10103FD
:4026000001F8082CDBB2214AECD8A2FB0012D20802EB8202A0EB4202303204A9D2B219441C4601F8082C184613B92AE012F8082CE11A0DF1100E714401F8102C7246013B02
:4026400013F0FF031A44F1D19DF80830421C04A90A440C446846002104F8103C02F8101CFFF712FF04B010BD084B0122A3FB0013DB0803EB8303A0EB43033033DBB2002497
:40268000E5E79DF808300122E1E700BFCDCCCCCCF8B500F061FB214A04461378204943F0010313700B781F4843F001030B70037801F5AA5143F001030370D379083143F0E0
:4026C0000103D3710A7800F5AB50174B0430182542F003020A7005701A78144E42F040021A701A78A0F5975002F0FC021238C82702251A703770057091F824320A2043F0F5
:40270000080381F82432FFF74DFC094B042220461A60BDE8F84000F023BB00BFAB430040BB430040A2430040055900400059004080E200E00A2838B5044630D00C2826D01F
:40274000082818D00020FFF707FCC223174A0A2C137017D00C2C24D0082C0FD00020FFF7FBFB00231A46124C124813490025258002600B8038BD0D4B42221A70802340F299
:40278000E242F0E74FF4007341F28832EBE7074BC2221A704FF4006344F62062E3E78223D4E744F620624FF40063DCE7025900406093FF1F6493FF1F6293FF1F08B5102077
:4027C00000F090F902200721FFF704FC07490220FFF7F0FB064A0C20137843F006031370FFF7A8FF034B00221A8008BD65280000015900406893FF1F10B5054C23781BB9D6
:40280000FFF7DCFF01232370BDE81040FFF740BFFB8AFF1F024A137843F00103137070470059004038B5084A00E050B91378064D13F00104F9D02046FFF7B4FB2B782046B7
:4028400038BD0024204638BD01590040034A044B1B881088181A00B2704700BF6293FF1FA05B0040704700BF08B5104841F64B5100F07AFA41F64B510D4800F075FA00F092
:402880006BFA0C4A137843F01003137000F068FA094A1378190704D508490B6813781B07FBD4074B01221A7008BD00BF25640040056400409764004067640040456400407C
:4028C0008764004010B5064C23781BB9FFF7CCFF01232370034A137843F08003137010BDFC8AFF1F7464004010B501214FF4804241F6FF73022000F0A3F941F6FF72084CD6
:402900001346207001210A2000F0BCF96070054800F0D6F9BDE81040032000F0D7B900BF008BFF1F612A0000F8B52A4D2A4C2878FFF75EFA6878FFF75BFA2078FF2845D0CF
:40294000264E062302460A21B6B2FFF7DFFA324645F6A2312078FFF7F1FA28782178FFF789FA60781C4FFF282CD0072302460A21FFF7CCFA1A4A314692B26078FFF7DEFADB
:4029800061786878FFF776FA01212878FFF712FA01216878FFF70EFA00F0DEF9114A137843F02003137000F0DBF90F4B0F491A78082042F001021A701A7842F002021A706D
:4029C0000860F8BDFFF786FA7870CEE7FFF782FA2070B5E7008BFF1F1C82FF1F048BFF1F6C93FF1F9D6400407865004080E200E010B5074C23691BB9FFF776FF01232361AF
:402A0000FFF792FF00F0F6F8024B1B7810BD00BF008BFF1F6B650040024A137843F00403137070477865004000F0FEB8044900E020B90B7803F0FF02002BF9D01046704780
:402A40006B650040044A054BC0F1040033F810301088181A00B270477893FF1F6C93FF1F704700BF08B50F480F4900F07DF90E490E4800F079F900F06FF90D4A137843F04B
:402A80001003137000F06CF90A4A1378190704D509490B6813781B07FBD4084B01221A7008BD00BF296500403F4B4C000965004098640040686400404965004088640040DA
:402AC00010B5064C23781BB9FFF7CCFF01232370034A137843F08003137010BD148BFF1F79650040034A00F0F800137818431070704700BF82400040F8B500F02DF90446FF
:402B000019481A4A03781A4943F002030370137800F5AB5043F0020313700A78154B0330182542F003020A7005701A78124E42F040021A701A78A0F59750183802F0FC025B
:402B4000CE2702251A703770057091F824320A2043F0080381F82432FFF724FA2046BDE8F84000F0FDB800BFAB430040BB4300400B5900400D590040085900400A2810B574
:402B800004462AD00C2822D0082817D00020FFF7E3F9C223134A0A2C137015D00C2C1ED0082C0ED00020FFF7D7F900220E4C0F480F490023238002600B8010BD094B422241
:402BC0001A704FF40072F1E74FF40062EEE7054BC2221A704FF40052E8E78223DAE74FF40052E3E70A5900407A93FF1F7C93FF1F7893FF1F38B5094C25785DB9084A0820CA
:402C0000137843F006031370FFF7B8FF054A012315802370BDE83840FFF76EBF158BFF1F095900408093FF1F044B1A7802F0FE021A701A7842F004021A7070470859004028
:402C40002DE9F0418E4690461F4682B00C4C0125002672462B4601460096284601962570FFF714F941463A462078FFF7EBF820780221FFF7D5F8207802B0BDE8F08100BF70
:402C80001E82FF1FF0B58E4617461E4683B000250A4C72462B4601460095019528462570FFF7F4F8394632462078FFF7CBF820780221FFF7B5F8207803B0F0BD1F82FF1F91
:402CC000014B1B68D864704708ED00E04001024BC0B21870704700BF03E400E008B500F03BF8044A137843F010031370BDE8084000F036B89B640040094B1A786AB9F0B43F
:402D00000848094E094C0627472501213770257002701970F0BCFFF7E1BFFFF7DFBF00BF168BFF1F8B6400402464004034640040034A13785B07FCD4024B1870704700BF2D
:402D40006B640040486500400230800803D000BF01380046FCD17047EFF3108072B6704780F31088704700BFCAB2C1F30723C1F30741027043708170704700BF30B5214A04
:402D800021F00043934287B01BDD1F4A934205DD02460B4602F0A0FC07B030BD02AA01F0FFF900F0030001281AD002280FD008B3DDE9020101230093DDE9042302F0F4F925
:402DC000EAE70022002301F0C7FC07B030BDDDE90201DDE9042301F0BFFC01F10041DBE70090DDE90423DDE9020102F0DDF901F10041D1E7DDE90201DDE9042301F0ACFCC6
:402E0000CAE700BFFB21E93FFFFFEF7FF8B5C1F30A56A6F2FF35132D0A460B460446864611DC002D2DDB0F461F492941114224D04FF400232B413B4423EA0103002219467B
:402E400014462046F8BD332D05DDB5F5806F1ED011462046F8BDA6F213414FF0FF30C8402042F5D0C6F5866602360121B140091928BF013321EA0002E1E70028D8D11146ED
:402E8000E7E7013501F0004307D00022D7E702460B4602F023FC0446D3E743F07F5343F440130022CBE700BFFFFF0F0030B5224A21F00043934287B01BDD204A934205DD7C
:402EC00002460B4602F008FC07B030BD02AA01F067F900F0030001281ED0022811D010B3DDE90201DDE9042301F036FC01F10041EAE7002300930022002302F055F907B0FB
:402F000030BD01230093DDE90201DDE9042302F04BF901F10041D7E7DDE90201DDE9042301F01AFCD0E70124DDE90201DDE90423009402F039F9C7E7FB21E93FFFFFEF7FAB
:402F40002DE9F0438BB006460F4600F0F1F9DFF8E880044698F900300D4601330BD03046394602F071FA30B1304639460022002302F0F6FF20B1204629460BB0BDE8F083D9
:402F80002A4B98F800400890CDE90267CDE9046701939CB9264D4FF060443046394600220023CDE9064502F0B3FF002835D101230093684602F074FAA8B910E0DFF87C90AF
:402FC0004FF000083046394600220023CDE9068902F09EFF98B90123022C0093E9D103F035FB21230360134802F05CFACDE90601089BABB9DDE906010BB0BDE8F083022396
:403000009C42009304D0684602F04AFA0028EFD103F01CFB22230360EAE702230093F2E703F014FB089B0360E4E700BFBC700000FFFFEFC7407000002082FF1F0000F0FF9A
:403040002DE9F04F8BB01F4680468946164600F057FBDFF8D8A204469AF900300D46013304D03046394602F0EFF920B9204629460BB0BDE8F08F4046494602F0E5F9834665
:4030800060BB304639460022002302F041FF0028ECD09AF900309E4C01229E4900208DE814005A1CCDF820B0CDE90289CDE90467CDE906010DD0022B0BD0684602F0F0F9AD
:4030C000002800F09380089B1BB103F0BFFA089B0360DDE906010BB0BDE8F08F404649460022002302F014FFF8B1304639460022002302F00DFF834600284ED084489AF92A
:4031000000300121002200240025CDE90289CDE90467CDE90645019000910892002BCCD07C4B0022CDE90623D3E72046294602F0F7F8834600285ED020462946002200237B
:4031400002F0E6FE002891D04046494602F0E8F800288BD03046394602F0E2F8002885D09AF900306A480421002200240025022BCDE90289CDE90467CDE906450190009191
:40318000089200F08880684602F08AF9002800F08280089B002B9CD097E73046394602F0BFF800283FF462AF304639460022002302F0B8FE00283FF459AF55499AF80030D9
:4031C0000122CDF820B0CDE90289CDE9046701910092002B3CD050490020022BCDE9060130D103F033FA21230360D2E703F02EFA2123036067E74046494602F091F800286E
:403200009AD03046394602F08BF8002894D02046294602F019F900BB3D4A9AF8004001230890CDE90289CDE90467019200937CB10020002102460B4602F02CFD022CCDE9F7
:403240000601CED0684602F02BF90028A1D1C8E700220023CDE90623F4E72D499AF900300322CDF820B0CDE90289CDE9046701910092ABB9294D4FF0604440464946002230
:403280000023CDE9064502F04DFE50BB9AF90030022B7FF478AF03F0D9F92223036078E71F4D00244046494600220023CDE9064502F038FE0028E9D000221A4B30463946DC
:4032C00002F0BEFB04460D4602F0F2F822462B4602F01EFE0028D9D10F4B0022CDE90623D4E700220F4B3046394602F0A9FB04460D4602F0DDF822462B4602F009FE002876
:40330000C4D1094B4FF06042CDE90623BEE700BFC07000000000F03F0000F0FFFFFFEF470000F07F0000E03FFFFFEFC72082FF1F2DE9F04FB1F5801F85B006460F460B463B
:403340005ADA024621F00044224300F0F5800029C0F271810022DE4B02F072FB0B460F46DC4906468B426FF0350249DCC3F3130505F5152404F6647404F4801E8EF07F51E5
:4033800081F440111B15A3F2FF3341EA05079C1830460022D04B394604EB1E5402F09CF9AB1CC3F31303022B82468B464FF000022FDC002302F0ACFD002800F0C680002C5E
:4033C00000F04281204602F0D5FAADA3D3E9002306460F4602F034FBABA3D3E9002304460D463046394602F02BFB02460B462046294602F073F909E0B64900228B42B5DDF6
:403400003046394632463B4602F068F905B0BDE8F08F4FF0804302F061F902460B465046594602F037FC06460F462046CDE9006702F0A0FA3246CDE902013B4630463946DA
:4034400002F0FEFA02460B468046894602F0F8FA8FA3D3E9002306460F4602F0F1FA8EA3D3E9002302F03AF932463B4602F0E8FA8BA3D3E9002302F031F932463B4602F0AB
:40348000DFFA89A3D3E9002302F028F942464B4602F0D6FA86A3D3E90023804689463046394602F0CDFA84A3D3E9002302F016F932463B4602F0C4FA81A3D3E9002302F04A
:4034C0000DF932463B4602F0BBFA0B4602464946404602F003F9A5F5C223C5F5D725A3F27A4351351D43002D06460F4653DD00227A4B5046594602F0A3FA52465B4602F049
:403500009FFA80468946002C60D132463B4602F0E5F8DDE9002302F093FA02460B464046494602F0D9F802460B465046594602F0D3F805B0BDE8F08F0022002300206849E5
:4035400002F0A8FB05B0BDE8F08F52465B465046594602F075FA5CA3D3E9002306460F465046594602F06CFA02460B4600205B4902F0B2F802460B463046394602F060FA2F
:4035800006460F46002C62D15046594632463B4602F0A2F83AE7002C00F0A48038A3D3E90023DDE902894046494602F049FA32463B4604460D465046594602F08DF8DDE993
:4035C000002302F03DFA06460F464CE02CA3D3E90023DDE9020102F033FA32463B4604460D464046494602F079F8DDE9002302F027FA25A3D3E9002306460F46DDE9020101
:4036000002F01EFA02460B463046394602F066F802460B464046494602F05EF852465B4602F05AF802460B462046294602F054F805B0BDE8F08F02460B4602F04DF80022B8
:40364000002302F027FBE1E600200021DEE6204602F090F90AA3D3E900238046894602F0EFF904460D4608A3D3E900234046494602F0E6F902460B4630463946CCE700BF5E
:403680000000E0FE422EE63F763C7935EF39EA3D44523EDF12F1C23FDE03CB966446C73F599322942449D23F935555555555E53F9FC678D0099AC33FAF788E1DC571CC3F5A
:4036C00004FA97999999D93F555555555555D53F00005043FFFFEF7F0000F03F0000E03F000050C302460B465046594601F0F4FFDDE9002302F0A4F915E700BFAFF30080D9
:403700002DE9F04F144623F00047024657EA04000E468FB01D469C46214634D06E4B26F0004A9A459346B14626DC24D09F4223DC694B9F4200F08F80B9F1000FC0F28F8004
:403740004FF0000879BB644B9F4200F0A580634B9F4267D0BCF1804F00F0E283604B9C4521D1B9F1000F1EDB104631460FB0BDE8F04F00F029BF62B10AF1404000F5801007
:4037800050EA0B0007D10346544918460FB0BDE8F08F5745CCDD53480FB0BDE8F04F01F081BE4FF0000810463146CDF808C0009201F0B2FD009ADDF808C0BBF1000F20D05D
:4037C0004FEAD97909F1FF3958EA09037AD0464B9F4240F38F8003F104739F4240F31084424B9A4540F39283BCF1000F40F3928337A1D1E900010B46024602F021F9034674
:40380000C3E7BAF1000F04D0344B29F0404E9E45D6D1BCF1000FC0F2B683B9F1000F08DB0346B2E7BCF1000FC0F2528413463146ABE70AF1404A0AF5801A58EA0A0340F038
:403840005E8402460B4601F047FF0B46024602F021FA034699E700293FF46EAF8CE7244B9F422CDCA3F154739F427FF769AF40F213403B15834240F34B84C3F586630333A6
:4038800021FA03F000FA03F38B427FF459AF00F00100C0F1020855E70AF1404303F5801353EA0B0300F03983104B9A4540F36483BCF1000FC0F22E832346294665E74FF004
:4038C00002083FE7104631463346BCE7AFF300809C7500883CE4377E0000F07F0000F03F0000E03F407000000000E041FFFFEF3FFFFF3F43BAF5801F4FF0000205DACA4B62
:4039000002F09EF88A466FF034024FEA2A53C74ECAF3130AA3F2FF334AF07F571344B2450C9347F4401740F3D083C14B9A4540F307840026B4460C9BA7F5801701330C93A3
:403940003946BC4B4FEACC0C6344D3E900AB52465B46CDF834C0CDE9060101F0BDFE52465B46CDE90801DDE9060101F0B7FE02460B460020B04902F08DF902460B46DDE953
:403980000801CDE90A2302F05BF802460B46CDE90223CDE904237B1043F0005303F5002399190020002306460F460293DDE902231046194632463B46CDE9000102F040F8B4
:4039C00002460B46DDE9080101F086FE5246CDE908015B463046394601F07EFE02460B46DDE9060101F078FE02460B46DDE9000102F026F802460B46DDE9080101F06CFE90
:403A0000DDE90A2302F01CF8DDE90423CDE906011046194602F014F802460B4606460F4602F00EF86EA3D3E9002382468B463046394602F005F86CA3D3E9002301F04EFE66
:403A400032463B4601F0FCFF69A3D3E9002301F045FE32463B4601F0F3FF67A3D3E9002301F03CFE32463B4601F0EAFF64A3D3E9002301F033FE32463B4601F0E1FF62A3A8
:403A8000D3E9002301F02AFE02460B465046594601F0D6FFDDE9042306460F46DDE9000101F01CFEDDE9062301F0CAFF32463B4601F014FEDDE9006782468B4632463B46B6
:403AC0003046394601F0BCFF00225C4BCDE9080101F004FE52465B4601F000FE02980F460646DDE9000132463B4601F0A9FF32463B46CDE90001DDE9060101F0A1FF0022BE
:403B0000CDE906014D4B3046394601F0E5FDDDE9082301F0E1FD02460B465046594601F0DBFDDDE9042301F08BFF02460B46DDE9060101F0D3FD82468B46DDE9000152468A
:403B40005B4601F0CBFD32A3D3E9002302980F46064601F075FF30A3D3E90023CDE904013046394601F06CFFDDE90023CDE906013046394601F0B0FD02460B4650465946D2
:403B800001F0AAFD26A3D3E9002301F059FF02460B46DDE9060101F0A1FDDDF834C0284BCDF818C06344D3E9002301F097FDCDE900010C9801F0DEFE06460F46DDE904010F
:403BC000204BDDF818C09C44DDE90023DCE900AB01F084FD52465B4636E000BFAFF30080EF4E454A287ECA3F65DBC9934A86CD3F01411DA96074D13F4D268F515555D53FE2
:403C0000FFAB6FDBB66DDB3F033333333333E33F000000E009C7EE3FF5015B14E02F3EBEFD033ADC09C7EE3F000040438E98030079B60B00E87000000000F03F000008401A
:403C4000D8700000C8700000CDE906AB01F046FD32463B4601F042FD029832463B4682468B4601F039FDDDE9062301F035FDDDE9042301F031FD02460B46DDE9000101F03E
:403C80002BFDCDE9020108F1FF3858EA09030CBFD54BD64B0022CDE904230023CDE900450093DDE90067204632463B46294601F013FD52465B4601F0C3FEDDE90223804651
:403CC00089462046294601F0BBFE02460B464046494601F003FD04460D465246304639465B46CDE9024501F0ABFE06460F4620463B462946324601F0F1FCBD4B824699427D
:403D00008946884640F3138101F13F4303F5E003034340F0E581A0A3D3E90023DDE9020101F0DCFC324604460D463B465046494601F0D2FC02460B462046294602F010F95D
:403D4000002840F0CD814C462015A0F2FE304FF4801101414144C1F30A50A64CA0F2FF35C1F3130BC0F5826003302C414BF4801B21EA040300224BFA00FB3946304601F078
:403D8000ABFC06460F46DDE902018BEAE87B0BEBD87B32463B464FEA0B5A01F09FFC80A3D3E90023002420460D4601F049FE3246804689463B462046294601F08DFC024672
:403DC0000B46DDE9020101F087FC77A3D3E9002301F036FE76A3D3E9002306460F462046294601F02DFE02460B463046394601F075FC06460F4632463B464046494601F0FD
:403E00006DFC42464B4604460D4601F065FC02460B463046394601F05FFC2246804689462B462046294601F00BFE63A3D3E9002306460F4601F004FE61A3D3E9002301F0AD
:403E40004BFC32463B4601F0FBFD5FA3D3E9002301F044FC32463B4601F0F2FD5CA3D3E9002301F039FC32463B4601F0E9FD5AA3D3E9002301F032FC32463B4601F0E0FD98
:403E800002460B462046294601F026FC06460F4632463B462046294601F0D2FD0022CDE900014FF080433046394601F015FC02460B46DDE9000101F0EDFE424606460F461B
:403EC0004B462046294601F0BBFD42464B4601F005FC02460B463046394601F0FDFB22462B4601F0F9FB02460B4600203F4901F0F3FB8A44BAF5801F0246C0F227815346FC
:403F0000DDE9040101F09CFD03463EE4BCF1000FFFF66EAC0023194637E40B46334934E433461046314601F08BFD03462DE4324B21F000449C4240F3FA80304B0B440343EE
:403F40000CD132463B4601F0C7FB02460B46DDE9020101F0F1FF00283FF4F6AE20A3D3E90023DDE9040101F06BFD1DA3D3E9002301F066FD034608E4BCF1000FCADA2346BF
:403F800005F1004101E402460B460020174901F081FE42E4AFF30080FE822B654715973C00000000432EE63FEF39FAFE422EE63F396CA80C615C20BED0A4BE726937663EAE
:403FC000F16BD2C541BDBB3E2CDE25AF6A56113F93BDBE166CC1663F3E5555555555C53F59F3F8C21F6EA5010000F0BF0000F03FFFFF8F40FFFF0F00FFCB904000346F3F9B
:40400000634B9A4582DD634B9A453FF7EDAB0022604B01F061FB54A3D3E9002306460F4601F00EFD52A3D3E90023CDE900013046394601F005FD3246CDE902013B46304611
:40404000394601F0FDFC002282468B4630463946514B01F0F5FC02460B4647A1D1E9000101F03AFB32463B4601F0EAFC02460B4600204A4901F030FB02460B465046594641
:4040800001F0DEFC3EA3D3E9002301F0D9FC02460B46DDE9020101F01FFB06460F46DDE9000132463B4601F019FBDDE90023002082468B4601F010FB02460B4630463946B0
:4040C00001F00AFBCDE90201DDE50026B44637E4334600202F4901F0DDFD0346FFF755BB29A3D3E90023DDE9040101F0A9FC26A3D3E9002301F0A4FC0346FFF746BBB8F1BB
:40410000010F03467FF441AB01F10041FFF73DBB00297FF446ABC3F58263033347FA03F000FA03F3BB4217D08846FFF710BB1B4B9C423FF709AEDDE90023924693462EE6D0
:404140004FF480264FF0010CFFF7FABB5A4601F03FFA02460B46D3E600F00100C0F10208FFF7F5BAAFF30080000000604715F73F44DF5DF80BAE543E555555555555D53F09
:40418000FE822B654715F73F9C7500883CE4377EFEFFEF3F0000F03F0000D03F0000E03F2DE9F04F924C21F00047A7428FB00E467FDD14468F4A974226DC83A3D3E90023F1
:4041C000002940F39D8101F087FA8B4B80469F42894600F083807EA3D3E9002301F07CFA02460B464046C4E90023494601F074FA77A3D3E9002301F06FFA0125C4E9020127
:4042000028460FB0BDE8F08F7C4A974240F383807B4A974258DC3D15A5F21645A7EB05518B46824601F0A6FE01F0A4FB8046894642464B4650465946CDE9088901F04CFA3B
:404240000022704B01F0FCFB8B46824601F092FE01F090FB8046894642464B4650465946CDE90A8901F038FA0022664B01F0E8FB00220023CDE90C0101F04AFE002800F094
:404280006781002340464946002201F041FE002814BF012302235C480221019000912A4608A8214600F07CFB002EC0F24781054606E0C2E9000100250024C2E9024500258C
:4042C00028460FB0BDE8F08F02460B4601F004FA0025C4E90201C4E90001F1E73EA3D3E9002301F0F9F93EA3D3E9002306460F4601F0F2F902460B463046C4E9002339464C
:4043000001F0EAF936A3D3E9002301F0E5F90125C4E90201D4E700F0FFFF33A3D3E900238046894601F08CFB0022384B01F0D6F901F020FE054601F01DFB23A3D3E9002374
:40434000CDE9040101F07CFB02460B464046494601F0C2F91EA3D3E9002382468B46DDE9040101F06DFB1F2DCDE902015046594650DC274B6A1E53F82230BB424AD0DDE989
:40438000022301F0A9F902460B4681468846C4E900234A4643465046594601F09DF9DDE9022301F099F902460B46002EC4E9022386DA4A4608F1004301F1004184E80C0094
:4043C000E160A0606D427BE700004054FB21F93F3163621A61B4D03D0000601A61B4D03D7370032E8A19A33B83C8C96D305FE43FFB21E93F7BD90240FB21F93FFB21394129
:40440000FFFFEF7F00007041787100000000E03FF8700000DDE9022301F05EF988463F15C8F30A53FB1A102B8146C4E90001B0DD59A3D3E90023DDE9040101F001FB8046D7
:40444000894642464B465046594601F045F9CDE90601DDE906235046594601F03DF942464B4601F039F94EA3D3E9002380468946DDE9040101F0E4FA42464B4601F02CF97E
:40448000CDE90201DDE90223DDE9060101F024F90B4602468846C1F30A517F1A312F8146C4E9002374DD40A3D3E90023DDE9040101F0C6FA80468946DDE9060142464B466D
:4044C00001F00AF982468B46DDE9060152465B4601F002F942464B4601F0FEF834A3D3E9002380468946DDE9040101F0A9FA42464B4601F0F1F8CDE90201504659463EE78D
:4045000001F0ECF82E4B80469F42894622D02AA3D3E9002301F0E2F802460B464046C4E90023494601F0D8F823A3D3E9002301F0D5F84FF0FF35C4E90201C1E66268E368CD
:4045400002F1004203F1004345426260E360B7E60323A0E610A3D3E9002301F0BFF810A3D3E9002306460F4601F0B8F802460B463046C4E90023394601F0AEF808A3D3E990
:40458000002301F0ABF84FF0FF35C4E9020197E6DDE906ABFDE600BF0000601A61B4D03D7370032E8A19A33B0000002E8A19A33BC14920259A837B393163621A61B4D03D59
:4045C000FB21F93FAFF300802DE9F041604E0C46B6460E40764505460B4600F098800029024676DD5FEA215E00F08180AEF2FF3EC3F313031EF0010F43F480135ED10027F1
:404600003C46D10F01EB43034FEA6E0E520016204FF4001165189D424FEAD2764FEA420202DC5B1B6C180F44013806EB43034FEA5101EFD1844620264FF000410AE0A342B6
:4046400020D0D50F013E4FEA510105EB43034FEA420220D09C420CEB0105F0DA002D05EB010C09DBA0461B1B954288BF03F1FF334446521B0844E4E7BCF1000FF2DB04F15A
:404680000108F0E7954217D8002D05EB010C48DB98460023ECE7134315D140087B1003F17F5303F50013FA0703EB0E57394648BF40F00040BDE8F0811C46C2E7D10F01EB1C
:4046C000430352009BE7411C31D000F001031844E3E721F000460643ECD079BB8E46D30AAEF1150E5205002BF9D0DC0222D400215B00D80201F10101FAD5C1F10100C1F188
:40470000200422FA04F4234386448A406EE702460B4601F095F92A46234600F0DFFFBDE8F081BCF1000FAADAA0460023A0E701373046B3E7202401200021E2E702460B461D
:4047400000F0CAFF02460B4601F0A4FAB2E700BF0000F07F000000002DE9F04F21F00047B7F1795F85B00C4692469B4605466BDA01F000FC002800F0E7802A4623462846E1
:40478000214601F05DF974A3D3E900238046894601F056F972A3D3E9002300F09FFF42464B4601F04DF970A3D3E9002300F094FF42464B4601F044F96DA3D3E9002300F013
:4047C0008DFF42464B4601F03BF96BA3D3E9002300F082FF42464B4601F032F968A3D3E9002300F07BFF42464B4601F029F9CDE90001404649460022634B01F021F9DDE96F
:40480000002306460F464046494601F019F95246804689465B462846214601F011F902460B464046494600F057FF02460B463046394600F051FF02460B460020534900F0F7
:404840004BFF05B0BDE8F08F02460B4601F0F8F841A3D3E900238046894601F0F1F840A3D3E9002300F03AFF42464B4601F0E8F83DA3D3E9002300F02FFF42464B4601F0AD
:40488000DFF83BA3D3E9002300F028FF42464B4601F0D6F838A3D3E9002300F01DFF42464B4601F0CDF836A3D3E9002300F016FF4B46424601F0C4F8354BCDE900019F4245
:4048C00097DD344B00229F4238DCA7F5001300202E4916461F4600F0FFFECDE90201404649460022284B01F0ABF832463B4600F0F3FEDDE9002306460F464046494601F059
:404900009FF85246804689465B462846214601F097F802460B464046494600F0DDFE02460B463046394600F0D7FE02460B46DDE9020100F0D1FE05B0BDE8F08F164B002670
:40494000CDE90223154FCAE71049002005B0BDE8F08F00BFAFF30080D43888BEE9FAA8BDC4B1B4BD9EEE213EAD529C804F7E923E9015CB19A001FA3E7751C1166CC1563F2E
:404980004C5555555555A53F0000E03F0000F03F3233D33F0000E93F0000E73F0000D23F2DE9F04F9E467E4DD41E85FB0465E417C4EBA504ADF51D7D24EAE4742546A69E77
:4049C0000D940C93E343774C03EB430354F8264002EBC303274609940EF1FF3426460394F41904900A910893A5EB060516D42C44013422AEA79F08E057F8250000F0BAFF9A
:404A00000135A542E6E9020108D0002DF4DA013500200021A542E6E90201F6D1099B002B31DB099A0C9B74A901EBC20BC3EB4373039A24A9DB0001EBC20800930DF5E47971
:404A4000039B002BC0F297814446049B0026A3F1080A009B002708EB0305FAE9022374E8020100F0EDFF02460B463046394600F035FEAC4206460F46EFD1E9E90267D94555
:404A800008F10808DCD1099B10A99B4603F18043013B9B001A1D0A440B440F920E934FEACB039CA91A460693BBF1000F0B4453E9284528DD0DF5E87A0AEB02060FAF002220
:404AC000394B2046294600F0BBFF01F053FA00F051FF0022354B8046894600F0B1FF02460B462046294600F0F7FD01F043FA76E9022347F8040F4946404600F0EFFD56457C
:404B000004460D46DBD1DDF82090204629464A4600F05EFD00224FF07F5304460D4600F08FFF00F005FC0022214B00F089FF02460B462046294600F0CFFD04460D4601F0FA
:404B400019FA804600F016FF02460B46204629464C4600F0C1FD002C06460F4640F3F1800BF1FF3110AB53F82130C9F1180043FA00F202FA00F55D1B10A8C9F1170340F887
:404B8000215090441D41002D3FDDBBF1000F08F1010840F38482002214460FA912E000BFABAAAA2A807200000000703E0000704100002040C3F180700BB108600124013234
:404BC00093450DDD51F8043F002CF3D0C3F1FF13013203F57F4393450B604FF00104F1DC089B002B0EDD012B00F0B380022B09D10BF1FF3210AB53F8223010A9C3F3150356
:404C000041F82230022D00F08380304639460022002301F07DF9002800F0C980099B0BF1FF3A53450DDC10AB0F9803EB8B03002253F8041D834242EA0102F9D1002A40F0E7
:404C40001482099B10AA013B52F82330002B40F024820E9A012352F8041D01330029FAD05B441A460B930BF1010393424DDC0D9A4FF0000803EB02090B9A0C9B09F1804977
:404C80005B44CBEB020BA79A09F1FF3902EB890200924FEACB02DB00059224AA02EB030B0793069B74AA02EB030A009B002653F8040F0027009300F05DFE039BEBE80201E9
:404CC000002B1BDB079B03EB0804069B08EB030524AB1C441D44049BA3F10809F9E9022374E8020100F0ACFE02460B463046394600F0F4FCAC4206460F46EFD1059B08F131
:404D000008089845EAE90267CFD1DDF82CB0C6E632463B460020BF4900F0DEFC06460F46002C3FF472AF089A0020BA4900F050FC02460B463046394600F0CEFC06460F4657
:404D400063E711D10BF1FF3310AA52F82350ED1519E70BF1FF3210AB53F8223010A9C3F3160341F822304DE70022AB4B01F0EEF858B9054649E700260027E9E90267D94573
:404D800008F108087FF45CAE7DE6BBF1000F08F10108C8BF02253FF7FEAE32463B4600209C4900F099FC022506460F462DE7089B30465A4239460395CDF8148000F008FC45
:404DC0000022964B04460D4601F0C0F8002800F0E1810022924B2046294600F031FE01F0C9F8064600F0C6FD00228C4B00F028FE0B4602462946204600F06EFC01F0BAF8D2
:404E0000089B0BF1010A1833089310AB43F82B0043F82A60089A00207E4900F0D9FBBAF1000F04460D46C0F2CA800AF101034FEAC30874AF10AA009302EB830907EB080670
:404E400059F8040D00F096FD22462B4600F0F8FD002266E90201724B2046294600F0F0FDBE4204460D46EBD1A8F1080806EB08039B460DF59879CDF818A0DDF824A04FF065
:404E80000008CDF81090BAF1000FC0F29580B8F1000FC0F29180DFF88C915D4600260027002401E0444510DCF9E90223F5E8020100F0C6FD02460B463046394600F00EFC09
:404EC0000134A24506460F46ECDA049BABF1080B03EBC803C3E90067009B08F101089845D1D1A69BDDF818A0DDF81090032B3BD8DFE813F0410004000400D70000273E46E0
:404F0000009B09EBC304384674E90223314600F0E5FB4C4507460E46F5D1039B002B00F08B80D9E900010A9D334606F100463A466E602F6000F0D0FBBAF1000F03460CDD74
:404F400001261C46F9E90223204600F0C7FB0136B2450346F5DA039A0AB101F100411C460D460A9BC3E90245059B03F007000DF51D7DBDE8F08F00231946009A09EBC20936
:404F80001C4679E90223204600F0A8FB0AF1FF3ABAF1FF3F0346F3D1039A0AB101F100411C460D460A9BC3E90045059B03F007000DF51D7DBDE8F08F0026002785E7A69BBB
:404FC000032BD1D8DFE803F04E3030020DF59879039A00231E46002A00F0C8800A9FD9F80800D9F80440D9F80C203B61059BD9F8001006F1004604F1004402F10042B86063
:4050000003F007007E617C60FA6039600DF51D7DBDE8F08F0000F03F0000E03F000070410000703E88720000039B00273E460DF59879002B7FF475AFD9E9000135463C4683
:4050400033460A9E3A46C6E9004500F045FBBAF1000F03463FF774AF1C460D460A9BC3E9024581E70023194696E7089A10AB53F82A30183A0395CDF814800892002B7FF4DE
:40508000C9AE10AB03EB8A0353F8041D0AF1FF3A183A0029F8D00892BCE60123E0E500249EE5BAF1000F93DD4FEACA0809EB08039B46D3E900677BE9022330463946CDE928
:4050C000002300F00BFB04460D46DDE9000122462B4600F001FB02460B463046394600F0FDFACB4526462F46CBE90201CBE90045E1D1BAF1010F7FF76BAF09EB08039A467C
:40510000D3E900670DF59C7B7AE902231046194632463B46CDE9000100F0E0FA04460D46DDE9000122462B4600F0D6FA32463B4600F0D4FADA4526462F46CAE90201CAE95F
:405140000045E1D100231E4608F108044C4450AD184674E90223314600F0C0FAAC4203460E46F5D1039A002A7FF438AFD9E90045D9E90289184631460A9A059BC2E904018F
:4051800003F00700C2E90045C2E902890DF51D7DBDE8F08F2046294600F0ECFE10ABDA4643F82B0036E600BF2DE9F04F21F00046B6F1795F85B00C4690469946054604DAB4
:4051C00000F0D8FE002800F083802A4623462846214600F035FC2A46234606460F4600F02FFC3FA3D3E9002382468B463046394600F026FC3CA3D3E9002300F06DFA32467C
:405200003B4600F01DFC3AA3D3E9002300F066FA32463B4600F014FC37A3D3E9002300F05BFA32463B4600F00BFC35A3D3E9002300F054FA0E9BCDE900019BB34046494639
:405240000022334B00F0FCFBDDE90023CDE902015046594600F0F4FB02460B46DDE9020100F03AFA32463B4600F0EAFB42464B4600F032FA24A3D3E9002306460F4650468B
:40528000594600F0DDFB02460B463046394600F025FA02460B462846214600F01DFA05B0BDE8F08FDDE900233046394600F0C8FB15A3D3E9002300F00FFA52465B4600F052
:4052C000BFFB2A46234600F009FA05B0BDE8F08F2846214605B0BDE8F08F00BFAFF300807CD5CF5A3AD9E53DEB9C2B8AE6E55A3E7DFEB157E31DC73ED561C119A0012A3FD0
:40530000A6F810111111813F495555555555C53F0000E03FAFF3008021F00041704700BF41F0004101F58010C00F7047000000002DE9F047C1F30A58A8F2FF36132E0B468B
:4053400004460D460246894607461DDC002E40DBDFF8F08048FA06F808EA010E5EEA020217D035A3D3E9002300F0B8F90022002300F0F6FD20B1002D40DB29EA080500274F
:4053800038462946BDE8F087332E06DDB6F5806F2FD020461946BDE8F087A8F213424FF0FF3A2AFA02FA1AEA000FF2D022A3D3E9002300F093F90022002300F0D1FD00287F
:4053C000DED0002D1FDB4D4627EA0A0738462946D8E719A3D3E9002300F080F90022002300F0BEFD0028CBD0002D1ADB00273D46C6E702460B4600F071F9CCE74FF48013CB
:4054000033419944B9E7142E08D0C8F5866808F10308012303FA08F31F19D4D309F10109D1E725F00042064B224318BF1D460027A6E700BFAFF300809C7500883CE4377EB1
:405440000000F0BFFFFF0F0010B431F0004408D0114BA1F580129A4208D804205DF8044B704718B902205DF8044B704701F1FF41094B01F5E0019942EFD9B4F5801F01D247
:405480000320EBE7054B9C4201D00020E6E7B0FA80F04009E2E700BFFFFFDF7F0000F07F0020704700200149704700BF0000F87FF0B5C1F30A5EAEF2FF35132D83B00246D7
:4054C0000B460C464FEAD17607462EDC002D48DB3C49294101EA030010432BD049080B4053EA02070CD04FF48023132D24EA010143FA05F444EA01040CBF4FF000470027E2
:405500003149234601EBC606D6E900453A462046294600F0E3F8CDE90001DDE9000122462B4600F0D9F803B0F0BD332D06DDB5F5806F43D01046194603B0F0BDAEF2134E2F
:405540004FF0FF3121FA0EF10142F3D049080142D6D04FF0804320EA010143FA0EF70F43CEE721F000410143E4D0C3F3130141EA000CCCF1000141EA0C0C13495C0C4FEAC2
:405580001C3C0CF4002C640401EBC6014CEA0403D1E900452046294600F0A0F8CDE90001DDE9000122462B4600F096F8024621F0004141EAC67310461946BDE700F08EF811
:4055C000BAE700BFFFFF0F00D072000000000000F8B5C1F30A5604460D460B46174616BB21F00043034332D00022314B00F028FA304A044697420D460B4637DB40F2FE72DE
:40560000C1F30A56363E3E44964215DD24A1D1E9000122462B4600F053F821A3D3E9002300F00EFAF8BD40F2FF72964224D040F2FE723E449642E9DC002E09DD23F0FF4319
:4056400023F4E00343EA065520462946F8BDF8BD16F1350F15DA4CF250339F42D6DC12A1D1E9000122462B4600F02AF80EA3D3E9002300F0E5F9F8BD02460B4600F02EF8C0
:40568000F8BD23F0FF4323F4E003363643EA0655204629460022084B00F0D2F9F8BD00BF9C7500883CE4377E59F3F8C21F6EA50100005043B03CFFFF0000903CAFF3008067
:4056C00003F0004321F0004243EA0201704700BF81F0004102E000BF83F0004330B54FEA41044FEA430594EA050F08BF90EA020F1FBF54EA000C55EA020C7FEA645C7FEAA3
:40570000655C00F0E2804FEA5454D4EB5555B8BF6D420CDD2C4480EA020281EA030382EA000083EA010180EA020281EA0303362D88BF30BD11F0004F4FEA01314FF4801CC3
:405740004CEA113102D0404261EB410113F0004F4FEA03334CEA133302D0524263EB430394EA050F00F0A780A4F10104D5F1200E0DDB02FA0EFC22FA05F2801841F1000195
:4057800003FA0EF2801843FA05F359410EE0A5F120050EF1200E012A03FA0EFC28BF4CF0020C43FA05F3C01851EBE37101F0004507D54FF0000EDCF1000C7EEB00006EEBB5
:4057C0000101B1F5801F1BD3B1F5001F0CD349085FEA30004FEA3C0C04F101044FEA445212F5800F80F09A80BCF1004F08BF5FEA500C50F1000041EB045141EA050130BD54
:405800005FEA4C0C404141EB010111F4801FA4F10104E9D191F0000F04BF01460020B1FA81F308BF2033A3F10B03B3F120020CDA0C3208DD02F1140CC2F10C0201FA0CF0F1
:4058400021FA02F10CE002F11402D8BFC2F1200C01FA02F120FA0CFCDCBF41EA0C019040E41AA2BF01EB0451294330BD6FEA04041F3C1CDA0C340EDC04F11404C4F1200243
:4058800020FA04F001FA02F340EA030021FA04F345EA030130BDC4F10C04C4F1200220FA02F001FA04F340EA0300294630BD21FA04F0294630BD94F0000F83F4801306BF9B
:4058C00081F480110134013D4EE77FEA645C18BF7FEA655C29D094EA050F08BF90EA020F05D054EA000C04BF1946104630BD91EA030F1EBF0021002030BD5FEA545C05D108
:405900004000494128BF41F0004130BD14F580043CBF01F5801130BD01F0004545F0FE4141F470014FF0000030BD7FEA645C1ABF194610467FEA655C1CBF0B46024650EA50
:40594000013406BF52EA033591EA030F41F4002130BD00BF90F0000F04BF0021704730B54FF4806404F132044FF000054FF0000150E700BF90F0000F04BF0021704730B540
:405980004FF4806404F1320410F0004548BF40424FF000013EE700BF42004FEAE2014FEA31014FEA02701FBF12F07F4393F07F4F81F06051704792F0000F14BF93F07F4FAE
:4059C000704730B54FF4607401F0004521F0004120E700BF50EA010208BF704730B54FF000050AE050EA010208BF704730B511F0004502D5404261EB41014FF4806404F1EF
:405A000032045FEA915C3FF4DCAE4FF003025FEADC0C18BF03325FEADC0C18BF033202EBDC02C2F1200300FA03FC20FA02F001FA03FE40EA0E0021FA02F11444C1E600BFD9
:405A400070B54FF0FF0C4CF4E06C1CEA11541DBF1CEA135594EA0C0F95EA0C0F00F0DEF82C4481EA030621EA4C5123EA4C5350EA013518BF52EA033541F4801143F48013FA
:405A800038D0A0FB02CE4FF00005E1FB02E506F00042E0FB03E54FF00006E1FB03569CF0000F18BF4EF0010EA4F1FF04B6F5007F64F5407404D25FEA4E0E6D4146EB060603
:405AC00042EAC62141EA55514FEAC52040EA5E504FEACE2EB4F1FD0C88BFBCF5E06F1ED8BEF1004F08BF5FEA500E50F1000041EB045170BD06F0004646EA010140EA0200B7
:405B000081EA0301B4EB5C04C2BFD4EB0C0541EA045170BD41F480114FF0000E013C00F3AB8014F1360FDEBF002001F0004170BDC4F10004203C35DA0C341BDC04F11404BD
:405B4000C4F1200500FA05F320FA04F001FA05F240EA020001F0004221F0004110EBD37021FA04F642EB06015EEA430E08BF20EAD37070BDC4F10C04C4F1200500FA04F3B7
:405B800020FA05F001FA04F240EA020001F0004110EBD37041F100015EEA430E08BF20EAD37070BDC4F1200500FA05F24EEA020E20FA04F301FA05F243EA020321FA04F0E5
:405BC00001F0004121FA04F220EA020000EBD3705EEA430E08BF20EAD37070BD94F0000F0FD101F00046400041EB010111F4801F08BF013CF7D041EA060195F0000F18BF2A
:405C0000704703F00046520043EB030313F4801F08BF013DF7D043EA0603704794EA0C0F0CEA135518BF95EA0C0F0CD050EA410618BF52EA4306D1D181EA030101F000412B
:405C40004FF0000070BD50EA410606BF1046194652EA430619D094EA0C0F02D150EA013613D195EA0C0F05D152EA03361CBF104619460AD181EA030101F0004141F0FE412D
:405C800041F470014FF0000070BD41F0FE4141F4780170BD70B54FF0FF0C4CF4E06C1CEA11541DBF1CEA135594EA0C0F95EA0C0F00F0A7F8A4EB050481EA030E52EA03358D
:405CC0004FEA013100F088804FEA03334FF0805545EA131343EA12634FEA022245EA111545EA10654FEA00260EF000419D4208BF964244F1FD0404F5407402D25B084FEA02
:405D00003202B61A65EB03055B084FEA32024FF480104FF4002CB6EB020E75EB030E22BFB61A754640EA0C005B084FEA3202B6EB020E75EB030E22BFB61A754640EA5C004D
:405D40005B084FEA3202B6EB020E75EB030E22BFB61A754640EA9C005B084FEA3202B6EB020E75EB030E22BFB61A754640EADC0055EA060E18D04FEA051545EA16754FEA1A
:405D800006164FEAC30343EA52734FEAC2025FEA1C1CC0D111F4801F0BD141EA00014FF000004FF0004CB6E711F4801F04BF01430020B4F1FD0C88BFBCF5E06F3FF6AFAE62
:405DC000B5EB030C04BFB6EB020C5FEA500C50F1000041EB045170BD0EF0004E4EEA113114EB5C04C2BFD4EB0C0541EA045170BD41F480114FF0000E013C90E645EA060EC2
:405E00008DE60CEA135594EA0C0F08BF95EA0C0F3FF43BAF94EA0C0F0AD150EA01347FF434AF95EA0C0F7FF425AF104619462CE795EA0C0F06D152EA03353FF4FDAE10467F
:405E4000194622E750EA410618BF52EA43067FF4C5AE50EA41047FF40DAF52EA43057FF4EBAE12E74FF0FF3C06E000BF4FF0010C02E000BF4FF0010C4DF804CD4FEA410CCC
:405E80007FEA6C5C4FEA430C18BF7FEA6C5C1BD001B050EA410C0CBF52EA430C91EA030F02BF90EA020F0020704710F1000F91EA030F58BF994208BF90422CBFD8176FEA9D
:405EC000E37040F0010070474FEA410C7FEA6C5C02D150EA013C07D14FEA430C7FEA6C5CD6D152EA033CD3D05DF8040B704700BF8446104662468C461946634600E000BFF5
:405F000001B5FFF7B7FF002848BF10F1000F01BD4DF808EDFFF7F4FF0CBF012000205DF808FB00BF4DF808EDFFF7EAFF34BF012000205DF808FB00BF4DF808EDFFF7E0FF49
:405F400094BF012000205DF808FB00BF4DF808EDFFF7CEFF94BF012000205DF808FB00BF4DF808EDFFF7C4FF34BF012000205DF808FB00BF4FEA410212F5001215D211D52E
:405F80006FF47873B3EB625212D94FEAC12343F0004343EA505311F0004F23FA02F018BF404270474FF00000704750EA013005D111F0004008BF6FF0004070474FF00000B0
:405FC000704700BF4FEA4102B2F1E04324BFB3F5001CDCF1FE5C0DD901F0004C4FEAC0024CEA5070B2F1004F40EB830008BF20F00100704711F0804F21D113F13872BCBFED
:4060000001F00040704741F480114FEA5252C2F11802C2F1200C10FA0CF320FA02F018BF40F001004FEAC1234FEAD32303FA0CFC40EA0C0023FA02F34FEA4303CCE77FEAD8
:40604000625307D150EA01331EBF4FF0FE4040F44000704701F0004040F0FE4040F40000704700BF80F0004002E000BF81F0004142001FBF5FEA410392EA030F7FEA226C22
:406080007FEA236C6AD04FEA1262D2EB1363C1BFD218414048404140B8BF5B42192B88BF704710F0004F40F4000020F07F4018BF404211F0004F41F4000121F07F4118BFAB
:4060C000494292EA030F3FD0A2F1010241FA03FC10EB0C00C3F1200301FA03F100F0004302D5494260EB4000B0F5000F13D3B0F1807F06D340084FEA310102F10102FE2AD7
:4061000051D2B1F1004F40EBC25008BF20F0010040EA03007047490040EB000010F4000FA2F10102EDD1B0FA80FCACF1080CB2EB0C0200FA0CF0AABF00EBC25052421843AA
:40614000BCBFD0401843704792F0000F81F4000106BF80F400000132013BB5E74FEA41037FEA226C18BF7FEA236C21D092EA030F04D092F0000F08BF0846704790EA010FBA
:406180001CBF0020704712F07F4F04D1400028BF40F00040704712F100723CBF00F50000704700F0004343F0FE4040F4000070477FEA226216BF08467FEA23630146420205
:4061C00006BF5FEA412390EA010F40F4800070474FF0000304E000BF10F0004348BF40425FEA000C08BF704743F0964301464FF000001CE050EA010208BF70474FF0000329
:406200000AE000BF50EA010208BF704711F0004302D5404261EB41015FEA010C02BF84460146002043F0B64308BFA3F18053A3F50003BCFA8CF2083AA3EBC25310DB01FA93
:4062400002FC634400FA02FCC2F12002BCF1004F20FA02F243EB020008BF20F00100704702F1200201FA02FCC2F1200250EA4C0021FA02F243EB020008BF20EADC70704767
:406280004FF0FF0C1CEAD0521EBF1CEAD15392EA0C0F93EA0C0F6FD01A4480EA010C400218BF5FEA41211ED04FF0006343EA501043EA5111A0FB01310CF00040B1F5000FF4
:4062C0003EBF490041EAD3715B0040EA010062F17F02FD2A1DD8B3F1004F40EBC25008BF20F00100704790F0000F0CF0004C08BF49024CEA502040EA51207F3AC2BFD2F18D
:40630000FF0340EAC250704740F400004FF00003013A5DDC12F1190FDCBF00F000407047C2F10002410021FA02F1C2F1200200FA02FC5FEA310040F1000053EA4C0308BF02
:4063400020EADC70704792F0000F00F0004C02BF400010F4000F013AF9D040EA0C0093F0000F01F0004C02BF490011F4000F013BF9D041EA0C018FE70CEAD15392EA0C0FA4
:4063800018BF93EA0C0F0AD030F0004C18BF31F0004CD8D180EA010000F00040704790F0000F17BF90F0004F084691F0000F91F0004F14D092EA0C0F01D142020FD193EA19
:4063C0000C0F03D14B0218BF084608D180EA010000F0004040F0FE4040F40000704740F0FE4040F4400070474FF0FF0C1CEAD0521EBF1CEAD15392EA0C0F93EA0C0F69D0F5
:40640000A2EB030280EA010C49024FEA402037D04FF0805343EA111143EA10130CF000408B4238BF5B0042F17D024FF4000C8B4224BF5B1A40EA0C00B3EB510F24BFA3EB91
:40644000510340EA5C00B3EB910F24BFA3EB910340EA9C00B3EBD10F24BFA3EBD10340EADC001B0118BF5FEA1C1CE0D1FD2A3FF650AF8B4240EBC25008BF20F00100704757
:406480000CF0004C4CEA50207F32C2BFD2F1FF0340EAC250704740F400004FF00003013A37E792F0000F00F0004C02BF400010F4000F013AF9D040EA0C0093F0000F01F097
:4064C000004C02BF490011F4000F013BF9D041EA0C0195E70CEAD15392EA0C0F08D142027FF47DAF93EA0C0F7FF470AF084676E793EA0C0F04D14B023FF44CAF08466EE7AC
:4065000030F0004C18BF31F0004CCAD130F000427FF45CAF31F000437FF43CAF5FE700BF4FF0FF3C06E000BF4FF0010C02E000BF4FF0010C4DF804CD4FEA40024FEA410303
:406540007FEA226C18BF7FEA236C11D001B052EA530C18BF90EA010F58BFB2EB030088BFC81738BF6FEAE17018BF40F0010070477FEA226C02D15FEA402C05D17FEA236C3D
:40658000E4D15FEA412CE1D05DF8040B704700BF844608466146FFE70FB5FFF7C9FF002848BF10F1000F0FBD4DF808EDFFF7F4FF0CBF012000205DF808FB00BF4DF808ED33
:4065C000FFF7EAFF34BF012000205DF808FB00BF4DF808EDFFF7E0FF94BF012000205DF808FB00BF4DF808EDFFF7D2FF94BF012000205DF808FB00BF4DF808EDFFF7C8FF14
:4066000034BF012000205DF808FB00BF42000ED2B2F1FE4F0BD34FF09E03B3EB126209D44FEA002343F0004323FA02F070474FF00000704712F1610F01D1420202D14FF027
:40664000FF3070474FF00000704700BF014B1868704700BF8482FF1F0E4B70B51E460E4C0025E41AA410A54204D056F8253098470135F8E700F050FE084B094C1E46E41A6C
:40668000A4100025A54204D056F8253098470135F8E770BD2473000024730000247300002C73000010B5431E0A44914204D011F8014B03F8014FF8E710BD03460244934253
:4066C00002D003F8011BFAE77047000030B500293CD051F8042C0B1F1D49002AB8BF9B180A680C4612B95A600B6030BD93420DD219685818904201BF5A5852181A6042688A
:4067000023605A6030BD994203D80A4651680029F9D1146815199D420AD11B682344D0188842136012D10868034413604B680CE002D90C23036030BD1C681819884201BFC5
:4067400008684968001918605960536030BD00BF1C8BFF1F70B5CC1C24F0030408340C2C38BF0C24002C064603DA0C233360002070BD8C42F9D3204A136810461946A1B1DD
:406780000A68121B0ED40B2A03D90A608B188C501FE08B420BBF5A684A6802605A6018BF0B4616E00B464968E9E7144D2B681BB9304600F025F828603046214600F020F890
:4067C000421C0346D1D0C51C25F0030585420AD11C6003F10B001A1D20F00700821A0AD05142995070BD3046E91A00F009F80130BBD02B46ECE770BD1C8BFF1F188BFF1FAC
:4068000038B5064C002305460846236000F068FB431C02D1236803B12B6038BD8493FF1F0EB400B54FF402719CB0ADF814106FF00041049107914FF6FF711DABADF816100A
:40684000084953F8042B02900690086802A9019300F064F8029B00221A701CB05DF804EB03B070478482FF1F2DE9F0478E688246B3420C469046994640D38A8912F4906F11
:406880003AD02568096902236F1A656905EB450595FBF3F57B1C4B449D4238BF1D4653050FD52946FFF756FF064698B121693A46FFF7F8FEA38923F4906343F08003A381B1
:4068C00013E02A4600F0DBFA064670B950462169FFF7FCFE0C23CAF80030A3894FF0FF3043F04003A381BDE8F08726613E4426604E466561ED1BA560B14500D24E463246B0
:406900002068414600F0A0FAA36800209B1BA36023681E442660BDE8F08700002DE9F0439DB003938B8906461C060D4690460CD50B6953B94021FFF70DFF2860286110B9D6
:406940000C233360CCE040236B610023099320238DF8293030238DF82A3043461C4613F8012B1AB9B4EB08090FD002E0252AF5D1F8E73046294642464B46FFF775FF013075
:4069800000F0A980099B4B4409932378002B00F0A28000234FF0FF3204930793059206938DF853301A9304F101084446DFF8489121784846052200F039FA08F10108049B24
:4069C00030B1C9EB00000122824013430493ECE7D80644BF20228DF85320190744BF2B228DF8532022782A2A02D0079923460EE0039A0134111D12680391002ABBBF5242DD
:406A000043F0020307920792B8BF04930AE01C4622780133303A092A03D80A2000FB0121F5E7079123782E2B1AD163782A2B0AD1039B02341A1D1B680392002BB8BF4FF0A3
:406A4000FF3305930CE0611C00220C4623780131303B092B03D80A2000FB0232F5E70592DFF8988021784046032200F0DFF938B1049AC8EB000040238340134304930134DF
:406A800021781A48062204F101088DF8281000F0CDF988B1164B33B9039B073323F007030833039313E003AB0093304604A92A46104BAFF3008007E003AB0093304604A967
:406AC0002A460C4B00F092F8421C074603D0099B3B44099341E7AB895B0601D4099801E04FF0FF301DB0BDE8F08300BFEC7200000000000069680000E2720000E872000015
:406B00002DE9F84391461F468A680B6906469342B8BF1346C9F8003091F843200C46DDF8208012B10133C9F800302368990642BFD9F800300233C9F80030256815F00605F6
:406B40001CD094F843302268003318BF012392061FD5E118302081F843005A1C94F845102244023382F8431013E03046394604F119020123C047013007D00135E368D9F8A5
:406B800000209B1A9D42F0DBDBE74FF0FF30BDE8F8833046394604F14302C0470130F4D02268D9F80050E36802F00602042A08BF5D1B2269A3680CBF25EAE57500259342BA
:406BC000C4BF9B1AED184FF00009A9450ADA3046394604F11A020123C0470130D5D009F10109F2E70020BDE8F88300002DE9FF410C461746227E98466E2A06460A9B01F11C
:406C0000430100F0B08012D8632A23D00AD8002A00F0BD80582A40F0CC8084F84520DFF804E257E0642A1ED0692A1CD0C1E0732A00F0B18009D86F2A2ED0702A40F0B980A5
:406C4000226842F0200222603FE0752A24D0782A3BD0AEE01A6804F14205111D1960136884F84230A9E020681A6810F0800F02D0101D186008E010F0400F02F104001860BA
:406C800002D0B2F9003000E01368002B3EDA2D225B4284F8432039E020681A6810F0800F02D0101D186007E010F0400F02F10400186001D0138800E01368227EDFF864E16D
:406CC0006F2A0CBF08220A221CE07822DFF858E184F845202268186812F0800F00F104051D6003D1550601D5038800E00368D00744BF42F0200222601BB9226822F0200224
:406D000022601022002084F8430002E0DFF814E10A226568002DA8BF2068A560A4BF20F00400206003B965B10D46B3FBF2F002FB10331EF8033005F8013D03460028F4D152
:406D400000E00D46082A0BD12368DA0708D5236962689A42DEBF302305F8013C05F1FF35491B21612EE025681A6815F0800F606903D0151D1D60136808E015F0400F02F177
:406D800004051D60136801D0188000E01860002323610D4616E01A68111D1960156800212846626800F042F808B1401B6060636804E004F1420584F8422001232361002390
:406DC00084F84330CDF800803046214603AA3B46FFF796FE013002D14FF0FF301FE0304639462A462369C0470130F5D023689B0705D4E068039B9842B8BF18460FE00025BC
:406E0000E368039A9B1A9D42F3DA3046394604F119020123C0470130DED00135F0E704B0BDE8F081F37200000473000010B5C9B202449042034605D01C7801308C42F8D175
:406E4000184610BD002010BD814210B501EB020301D3421E0BE09842FBD28118D21AD34204D013F8014D01F8014DF8E710BD994204D011F8014B02F8014FF8E710BDF8B55A
:406E8000074615460E4621B91146BDE8F840FFF761BC1AB9FFF71AFC2846F8BD00F015F8A8420ED238462946FFF754FC044650B131462A46FFF7F6FB38463146FFF706FCB3
:406EC00001E03046F8BD2046F8BD51F8040C0028BEBF091851F8043CC018043870470000044A05491368002B08BF0B461844106018467047208BFF1F8893FF1F00000000BB
:406F00002020202D48554D4D494E47424952442D202000002020202020202076302E39202000000048756D207768656E2072656164792E2E2E000000250000002020202094
:406F4000202020202020000056656C6F3A00000020202000476174653A000000487A0000430000004323000044000000442300004500000046000000462300004700000015
:406F800047230000410000004123000042000000432D2564000000004323256400000000442D2564000000004423256400000000452D256400000000462D256400000000B7
:406FC0004623256400000000472D2564000000004723256400000000412D2564000000004123256400000000422D256400000000202020004D616A6F720000004E61744D0A
:40700000696E0000506E744D616A0000506E744D696E000057686F6C65000000426C7565730000004368726F6D610000202020202020202020202020202020202020202005
:40704000000000003E202000203E200020203E0020203C00203C20003C202000486973743A000000C849004019000051004010003051004040000000014080000001014041
:40708000000F00140140000800400140000A004C01400002105001401000000000510140540E00480800800001405C0E0048800000500140DC0E0048100000006C6F67004D
:4070C000706F77000000000000000000000000000000004003B8E23F000000000000000006D0CF43EBFD4C3E000000000000F03F000000000000F83FFB21F93FFB210940A5
:407100007CD91240FB2119407A6A1F407CD92240BBFD2540FB2129403A462C407A6A2F405C4731407CD932409C6B3440BBFD3540DB8F3740FB2139401BB43A403A463C401A
:407140005AD83D407A6A3F404C7E40405C4741406C1042407CD942408CA243409C6B4440AC344540BBFD4540CBC64640DB8F4740EB584840FB21494083F9A200444E6E0046
:40718000FC291500D1572700DD34F50062DBC0003C999500419043006351FE00BBDEAB00B761C5003A6E2400D24D42004906E00009EA2E001C92D100EB1DFE0029B11C00FA
:4071C000E83EA700F535820044BB2E009CE98400B4267000417E5F00D6913900538339009CF439008B5F840028F9BD00F81F3B00DEFF97000F980500112FEF000A5A8B0024
:407200006D1F6D00CF7E360009CB2700464FB7009E663F002DEA5F00BA277500E5EBC7003D7BF100F739070092528A00FB6BEA001FB15F00085D8D00300356007BFC4600E0
