:400000000080002011000000511A0000511A000080B500AF024A034B1B68136001F01CFDBC760040FA46004010B5054C237833B9044B13B10448AFF300800123237010BD27
:400040008082FF1F0000000060B20000084B10B51BB108480849AFF300800848036803B910BD074B002BFBD0BDE81040184700BF0000000060B200008482FF1F0881FF1F2B
:400080000000000080B500AF02F068FA0346002B03D0074B00221A7006E0054B1B78DBB20133DAB2024B1A7002F0BAF880BD00BFC4A2FF1F80B582B000AF62B6AC4807F099
:4000C0006DF807F007F806F063FE06F035FF07F09FF907F0B3F906F04BFC01F0BDFBA54800F0C6FA62B60020022102F0BFF802F05BFA0346002B11D002F04AFA0346002B25
:400100000AD0002002F094F89B4804F0F3FE01F0E1FF04F02BF801E002F02EF802F038FA0346002B00F0FE8004F0BEF804F030F8924B1B78DBB203F00203002B0CD00E20A8
:400140008F49002204F0FCF88C4B1B78DBB223F00203DAB2894B1A708A4B1B78DBB203F00203002B0CD00E208549102204F0E8F8844B1B78DBB223F00203DAB2814B1A70C5
:40018000814B1B7883F00103DAB2804B1A707F4B1B781A467E4B9B5C002B00F0B3807D4B1B7883F00103DBB2002B00F0AB80774B1B781A46784B01219954764B01221A7023
:4001C000724B1B785B03754A1344184601F054FB02460B467249C1E900236C4B1B781A466D4B002199546E4BD3E90023104619460AF030FF01466B4B1A786B4B1B785D4819
:4002000000F072FB7860694B1B687A689A422AD07B68B3F1FF3F26D0644B1B68B3F1FF3F0FD0634B80221A70604B1B68DAB2604B5A705F4B00229A7003205D49002204F02E
:400240007FF85B4B90221A707B68DAB2584B5A70574B64229A7003205549002204F070F8524A7B681360012006F0FEFB0020002106F08EFB4A4BD3E90023104619460AF0F3
:40028000C9FE03469BB2184606F030FD0120002106F07EFB464B5B78184600F02FFA0346184606F0ABFB0120022106F071FB404B5B78184606F01AFD01F04EFB03461A463F
:4002C000394B1A7001F09EFB03461A46354B1A70384B00221A600FE0364B1B68364ADB00D1184FF000024FF00003C1E90023314B1B6801332F4A13602E4B1B68B3F5806F5B
:40030000EADB0FE02A4B80221A70284B1B68DAB2274B5A70264B00229A7003202449002204F00EF8254B1B78DBB2012B1ED901F031FC01F067FC012001F07AFF02F0EEFDD4
:4003400005F0E2FC0020402105F0A0FF05F01EFE02F07AFE03F00AFF002001F069FF01F033FC01F069FC154B00221A70BFE600BF2904000078E3FF1F850000003828002014
:4003800068B200003B280020A682FF1FA782FF1FB082FF1FB782FF1FB482FF1F80E7FF1F78E7FF1FC3A2FF1FC2A2FF1F0C81FF1F60E3FF1FB882FF1FC082FF1FC4A2FF1FC9
:4003C00080B582B000AF03463960FB71144B1B78DBB203F00103002B1AD1124B1B7803F00103002B14D03B681B78092B10D13B6801331B78012B03D1002001F019FF07E052
:400400003B6801331B78022B02D1012001F010FF034B1B78DAB2034B1A700837BD4680BD38280020A382FF1FB0B500AF06F004FF002006F091FD0346002B00F094804A4BEC
:400440001B781A46494B9B5C83F00103DBB2002B00F0828006F0A0FD03461A46444B1A80434B1B881BB218460AF0ACFA414BD3E900230AF09DFD0346002B0AD03C4B1B8805
:400480001BB218460AF09EFA02460B463949C1E90023394B1B8840F2FE3293421BD8324B1B781D46344B1B881C46314B1B881BB218460AF087FA02460B463048A902214469
:4004C000C9000144C1E900232B4B1B8801339AB2294B1A8047E0244B1B781D46264B1B881C46234B1B881BB218460AF06BFA02460B462248A9022144C9000144C1E90023EF
:40050000194B1B781C461B4BD3E9002301210D46104619464FF00002194B0AF03FFD0346002B01D100231D46EAB2164B1A55124B00221A800F494FF000024FF00003C1E942
:400540000023094B1B7883F00103DAB2064B1A700D4B00221A7006E0034B1B7883F00103DAB2014B1A70B0BDA682FF1FB482FF1F64E3FF1FA882FF1FA482FF1F80E7FF1F72
:4005800000406540B082FF1FB782FF1F000000002DE9904387B000AFF860B9607A607B68B3F1804F01D3002359E000237B6150E07B69DB00FA68D41878690AF003FA0246B3
:4005C0000B461046194628A3D3E900230AF060FA02460B469046994678680AF0E3F902460B46404649460AF07DFB02460B461046194607F0A1FE02460B46C4E900237B69A2
:40060000DB00BA68D41878690AF0DCF902460B461046194614A3D3E900230AF039FA02460B469046994678680AF0BCF902460B46404649460AF056FB02460B4610461946EC
:4006400007F0C2FE02460B46C4E900237B6901337B617A697B685B089A42A9D3012318461C37BD46BDE89083182D4454FB2119402DE9904385B000AF78604FF4DC73BB60B1
:400680000023FB6030E0FB68DB007A68D418BB68002B00DA1F335B1118460AF093F980468946FB68083B18460AF08CF902460B46104619464FF000020F4B0AF013FB024685
:4006C0000B464FF000004FF0804107F0C7FE02460B46404649460AF0DBF902460B46C4E90023FB680133FB60FB687F2BCBDD1437BD46BDE8908300BF0000284080B483B08E
:4007000000AF786079686A4B83FB01235A10CB17D21A13465B0013449B00CA1A002A01D1644BBFE07B68591E614B83FB01235A10CB17D21A13465B0013449B00CA1A002A5A
:4007400001D15D4BAEE07B68991E594B83FB01235A10CB17D21A13465B0013449B00CA1A002A01D1554B9DE07B68D91E504B83FB01235A10CB17D21A13465B0013449B00C1
:40078000CA1A002A01D14E4B8CE07B68191F484B83FB01235A10CB17D21A13465B0013449B00CA1A002A01D1464B7BE07B68591F3F4B83FB01235A10CB17D21A13465B00E7
:4007C00013449B00CA1A002A01D13F4B6AE07B68991F374B83FB01235A10CB17D21A13465B0013449B00CA1A002A01D1374B59E07B68D91F2E4B83FB01235A10CB17D21AED
:4008000013465B0013449B00CA1A002A01D1304B48E07B68A3F10801254B83FB01235A10CB17D21A13465B0013449B00CA1A002A01D1284B36E07B68A3F109011C4B83FB50
:4008400001235A10CB17D21A13465B0013449B00CA1A002A01D1204B24E07B68A3F10A01134B83FB01235A10CB17D21A13465B0013449B00CA1A002A01D1184B12E07B68AF
:40088000A3F10B010A4B83FB01235A10CB17D21A13465B0013449B00CA1A002A01D1104B00E0104B18460C37BD465DF8047B7047ABAAAA2A78B200007CB2000080B200006B
:4008C00084B2000088B200008CB2000090B2000094B2000098B200009CB20000A0B20000A4B20000A8B20000B0B58AB000AFF860B96011461A460B46FB711346BB71FB79FC
:400900007E2B03D94FF0FF3300F0A2BFFB797B62B8680AF069F87B6ADB00FA681344D3E900230AF027FB0346002B03D04FF0FF3300F08EBFBB79002B56D150E0FB7903F11D
:400940001802BB497B6A51F8233013443B62B8680AF04AF83B6ADB00FA681344D3E900230AF008FB0346002B36D0FB7903F118027B6A013BAE4951F823301344FB613B6A6B
:40098000DB00FA681344D3E90045B8680AF02CF802460B462046294609F0C6FE02460B4614461D46B8680AF01FF8FB69DB00FA681344D3E9002309F0B7FE02460B4620462E
:4009C00029460AF0F5FA0346002B02D0FB6900F03FBF3B6A00F03CBF7B6A01337B627B6A312BABDD00F032BFBB79012B56D150E0FB7903F118028F497B6A51F823301344EE
:400A00003B62B86809F0F0FF3B6ADB00FA681344D3E900230AF0AEFA0346002B36D0FB7903F118027B6A013B824951F823301344FB613B6ADB00FA681344D3E90045B868C6
:400A400009F0D2FF02460B462046294609F06CFE02460B4614461D46B86809F0C5FFFB69DB00FA681344D3E9002309F05DFE02460B46204629460AF09BFA0346002B02D03A
:400A8000FB6900F0E5BE3B6A00F0E2BE7B6A01337B627B6A312BABDD00F0D8BEBB79022B40F00682EFE17B6A02337B62B86809F09BFF7B6ADB00FA681344D3E900230AF0E0
:400AC00059FA0346002B50D0B86809F08DFF7B6A03F10053023BDB00FA681344D3E9002309F022FE02460B46104619460AF0B2FA0346BB617B6ADB00FA681344D3E90045A2
:400B0000B86809F071FF02460B462046294609F00BFE02460B46104619460AF09BFA03467B61B86979690AF033FB0346002B0FD07B6A03F10053023BDB00FA681344D3E983
:400B40000023104619460AF03DFA034600F080BE7B6ADB00FA681344D3E90023104619460AF030FA034600F073BE7B6A02337B62B86809F039FF7B6ADB00FA681344D3E9DD
:400B800000230AF0F7F90346002B55D0B86809F02BFF7B6A03F10053023BDB00FA681344D3E9002309F0C0FD02460B46104619460AF050FA0346BB617B6ADB00FA6813444A
:400BC000D3E90045B86809F00FFF02460B462046294609F0A9FD02460B46104619460AF039FA03467B61B86979690AF0D1FA0346002B0FD07B6A03F10053023BDB00FA685F
:400C00001344D3E90023104619460AF0DBF9034600F01EBE7B6ADB00FA681344D3E90023104619460AF0CEF9034600F011BE00BF1081FF1F8481FF1F7B6A03337B62B86867
:400C400009F0D2FE7B6ADB00FA681344D3E900230AF090F90346002B50D0B86809F0C4FE7B6A03F10053033BDB00FA681344D3E9002309F059FD02460B46104619460AF0ED
:400C8000E9F90346BB617B6ADB00FA681344D3E90045B86809F0A8FE02460B462046294609F042FD02460B46104619460AF0D2F903467B61B86979690AF06AFA0346002B01
:400CC0000FD07B6A03F10053033BDB00FA681344D3E90023104619460AF074F9034600F0B7BD7B6ADB00FA681344D3E90023104619460AF067F9034600F0AABD7B6A02334E
:400D00007B62B86809F070FE7B6ADB00FA681344D3E900230AF02EF90346002B50D0B86809F062FE7B6A03F10053023BDB00FA681344D3E9002309F0F7FC02460B46104612
:400D400019460AF087F90346BB617B6ADB00FA681344D3E90045B86809F046FE02460B462046294609F0E0FC02460B46104619460AF070F903467B61B86979690AF008FA46
:400D80000346002B0FD07B6A03F10053023BDB00FA681344D3E90023104619460AF012F9034600F055BD7B6ADB00FA681344D3E90023104619460AF005F9034600F048BDBC
:400DC0007B6A03337B62B86809F00EFE7B6ADB00FA681344D3E900230AF0CCF80346002B00D150E0B86809F0FFFD7B6A03F10053033BDB00FA681344D3E9002309F094FCD0
:400E000002460B46104619460AF024F90346BB617B6ADB00FA681344D3E90045B86809F0E3FD02460B462046294609F07DFC02460B46104619460AF00DF903467B61B86901
:400E400079690AF0A5F90346002B0FD07B6A03F10053033BDB00FA681344D3E90023104619460AF0AFF8034600F0F2BC7B6ADB00FA681344D3E90023104619460AF0A2F8EA
:400E8000034600F0E5BCB86809F0AEFD7B6ADB00FA681344D3E900230AF08AF80346002B00F0D4847B6A7E2B7FF7FDAD00F0CEBCBB79032B40F0FA81E4E17B6A03337B6212
:400EC000B86809F091FD7B6ADB00FA681344D3E900230AF04FF80346002B50D0B86809F083FD7B6A03F10053033BDB00FA681344D3E9002309F018FC02460B46104619464D
:400F00000AF0A8F80346BB617B6ADB00FA681344D3E90045B86809F067FD02460B462046294609F001FC02460B46104619460AF091F803467B61B86979690AF029F90346F9
:400F4000002B0FD07B6A03F10053033BDB00FA681344D3E90023104619460AF033F8034600F076BC7B6ADB00FA681344D3E90023104619460AF026F8034600F069BC7B6ADD
:400F800002337B62B86809F02FFD7B6ADB00FA681344D3E9002309F0EDFF0346002B50D0B86809F021FD7B6A03F10053023BDB00FA681344D3E9002309F0B6FB02460B46B3
:400FC000104619460AF046F80346BB617B6ADB00FA681344D3E90045B86809F005FD02460B462046294609F09FFB02460B46104619460AF02FF803467B61B86979690AF078
:40100000C7F80346002B0FD07B6A03F10053023BDB00FA681344D3E900231046194609F0D1FF034600F014BC7B6ADB00FA681344D3E900231046194609F0C4FF034600F039
:4010400007BC7B6A02337B62B86809F0CDFC7B6ADB00FA681344D3E9002309F08BFF0346002B4ED0B86809F0BFFC7B6A03F10053023BDB00FA681344D3E9002309F054FB6F
:4010800002460B461046194609F0E4FF0346BB617B6ADB00FA681344D3E90045B86809F0A3FC02460B462046294609F03DFB02460B461046194609F0CDFF03467B61B86977
:4010C00079690AF065F80346002B0ED07B6A03F10053023BDB00FA681344D3E900231046194609F06FFF0346B2E37B6ADB00FA681344D3E900231046194609F063FF0346DE
:40110000A6E37B6A03337B62B86809F06DFC7B6ADB00FA681344D3E9002309F02BFF0346002B4ED0B86809F05FFC7B6A03F10053033BDB00FA681344D3E9002309F0F4FA67
:4011400002460B461046194609F084FF0346BB617B6ADB00FA681344D3E90045B86809F043FC02460B462046294609F0DDFA02460B461046194609F06DFF03467B61B86937
:4011800079690AF005F80346002B0ED07B6A03F10053033BDB00FA681344D3E900231046194609F00FFF034652E37B6ADB00FA681344D3E900231046194609F003FF03469C
:4011C00046E37B6A02337B62B86809F00DFC7B6ADB00FA681344D3E9002309F0CBFE0346002B00D14EE0B86809F0FEFB7B6A03F10053023BDB00FA681344D3E9002309F039
:4012000093FA02460B461046194609F023FF0346BB617B6ADB00FA681344D3E90045B86809F0E2FB02460B462046294609F07CFA02460B461046194609F00CFF03467B618F
:40124000B869796909F0A4FF0346002B0ED07B6A03F10053023BDB00FA681344D3E900231046194609F0AEFE0346F1E27B6ADB00FA681344D3E900231046194609F0A2FE85
:401280000346E5E2B86809F0AFFB7B6ADB00FA681344D3E9002309F08BFE0346002B00F0D5827B6A7E2B7FF708AECFE2BB79042B74D160E07B6A02337B62B86809F094FBD4
:4012C0007B6ADB00FA681344D3E9002309F052FE0346002B00D14EE0B86809F085FB7B6A03F10053023BDB00FA681344D3E9002309F01AFA02460B461046194609F0AAFE69
:401300000346BB617B6ADB00FA681344D3E90045B86809F069FB02460B462046294609F003FA02460B461046194609F093FE03467B61B869796909F02BFF0346002B0ED078
:401340007B6A03F10053023BDB00FA681344D3E900231046194609F035FE034678E27B6ADB00FA681344D3E900231046194609F029FE03466CE2B86809F036FB7B6ADB003F
:40138000FA681344D3E9002309F012FE0346002B00F05C827B6A7E2B8CDD57E2BB79052B40F0548240E27B6A03337B62B86809F01BFB7B6ADB00FA681344D3E9002309F016
:4013C000D9FD0346002B4ED0B86809F00DFB7B6A03F10053033BDB00FA681344D3E9002309F0A2F902460B461046194609F032FE0346BB617B6ADB00FA681344D3E900459D
:40140000B86809F0F1FA02460B462046294609F08BF902460B461046194609F01BFE03467B61B869796909F0B3FE0346002B0ED07B6A03F10053033BDB00FA681344D3E97F
:4014400000231046194609F0BDFD034600E27B6ADB00FA681344D3E900231046194609F0B1FD0346F4E17B6A02337B62B86809F0BBFA7B6ADB00FA681344D3E9002309F0CE
:4014800079FD0346002B4ED0B86809F0ADFA7B6A03F10053023BDB00FA681344D3E9002309F042F902460B461046194609F0D2FD0346BB617B6ADB00FA681344D3E900455F
:4014C000B86809F091FA02460B462046294609F02BF902460B461046194609F0BBFD03467B61B869796909F053FE0346002B0ED07B6A03F10053023BDB00FA681344D3E941
:4015000000231046194609F05DFD0346A0E17B6ADB00FA681344D3E900231046194609F051FD034694E17B6A01337B62B86809F05BFA7B6ADB00FA681344D3E9002309F0EF
:4015400019FD0346002B4ED0B86809F04DFA7B6A03F10053013BDB00FA681344D3E9002309F0E2F802460B461046194609F072FD0346BB617B6ADB00FA681344D3E9004520
:40158000B86809F031FA02460B462046294609F0CBF802460B461046194609F05BFD03467B61B869796909F0F3FD0346002B0ED07B6A03F10053013BDB00FA681344D3E903
:4015C00000231046194609F0FDFC034640E17B6ADB00FA681344D3E900231046194609F0F1FC034634E17B6A01337B62B86809F0FBF97B6ADB00FA681344D3E9002309F012
:40160000B9FC0346002B4ED0B86809F0EDF97B6A03F10053013BDB00FA681344D3E9002309F082F802460B461046194609F012FD0346BB617B6ADB00FA681344D3E90045E1
:40164000B86809F0D1F902460B462046294609F06BF802460B461046194609F0FBFC03467B61B869796909F093FD0346002B0ED07B6A03F10053013BDB00FA681344D3E9C4
:4016800000231046194609F09DFC0346E0E07B6ADB00FA681344D3E900231046194609F091FC0346D4E07B6A03337B62B86809F09BF97B6ADB00FA681344D3E9002309F031
:4016C00059FC0346002B4ED0B86809F08DF97B6A03F10053033BDB00FA681344D3E9002309F022F802460B461046194609F0B2FC0346BB617B6ADB00FA681344D3E90045A0
:40170000B86809F071F902460B462046294609F00BF802460B461046194609F09BFC03467B61B869796909F033FD0346002B0ED07B6A03F10053033BDB00FA681344D3E981
:4017400000231046194609F03DFC034680E07B6ADB00FA681344D3E900231046194609F031FC034674E07B6A02337B62B86809F03BF97B6ADB00FA681344D3E9002309F051
:40178000F9FB0346002B00D14EE0B86809F02CF97B6A03F10053023BDB00FA681344D3E9002308F0C1FF02460B461046194609F051FC0346BB617B6ADB00FA681344D3E9C2
:4017C0000045B86809F010F902460B462046294608F0AAFF02460B461046194609F03AFC03467B61B869796909F0D2FC0346002B0ED07B6A03F10053023BDB00FA681344B8
:40180000D3E900231046194609F0DCFB03461FE07B6ADB00FA681344D3E900231046194609F0D0FB034613E0B86809F0DDF87B6ADB00FA681344D3E9002309F0B9FB0346B3
:40184000002B03D07B6A7E2B7FF7ADAD4FF0FF3318462837BD46B0BD80B500AF034804494FF48062FEF794FE80BD00BFC8A2FF1FC8C2FF1F0000000080B584B000AF78602A
:401880000023FB600023BB6021E0BB68DB007A681344D3E90001BB680133DB007A681344D3E9002309F0F4F802460B46104619464FF000024FF0000309F05CFB0346002BB3
:4018C00002D0FB680133FB60BB680133BB60BB6840F2FE329342D8DDF86809F073F802460B46104619464FF000024FF0804309F0F9F902460B461046194607A3D3E900238C
:4019000009F0F0F902460B46104619461037BD4680BD00BFAFF30080FCA9F1D24D62D03F80B485B000AFF860B9607A603B60FA68BB68D31AB9693A688A1A02FB03F279683E
:40194000BB68CB1A92FBF3F23B68134418461437BD465DF8047B704780B584B002AF0020062105F015F8002005F06EFD002005F083FD03461A460523009310460021FF2248
:401980000023FFF7CDFF0346FB71FB79052B27D801A252F823F000BFB1190000B9190000C1190000C9190000D1190000D91900000E4805F023F813E00D4805F01FF80FE04E
:4019C0000C4805F01BF80BE00B4805F017F807E00A4805F013F803E0094805F00FF800BFFB7918460837BD4680BD00BFACB20000B0B20000B8B20000C0B20000C8B20000FB
:401A0000D0B2000080B584B002AF0120062104F0BFFF002005F018FD012005F02DFD03461A460B23009310460021FF220023FFF777FF0346FB71FB791846FEF75FFE0346F3
:401A4000184604F0DBFFFB7918460837BD4680BD80B400AFFEE700BF80B586B000AF214B7B61214B3B611F4B7B611F4B3B612FE03B691B68FB603B695B68BB603B699B68F2
:401A80003B6000237B600AE0BB681A1DBA60FA68111DF96012681A607B6804337B607A683B689A42F0D13B69DB683B6000237B6007E0BB681A1DBA6000221A607B680433AA
:401AC0007B607A683B689A42F3D13B6910333B617B695A1E7A61002BCAD109F087FBFEF7E9FAFEE70100000088B7000080B582B000AF184B184A1A60184A184B1B6843F41A
:401B00000073136000237B600FE07B68032B04D8134A7B6852F8233000E0124B12497A6841F822307B6801337B607B682F2BECD90E4B1B78DAB20E4B1A700E4B0A4A1A608D
:401B400000F0E8F903F024FA0B4B00221A600837BD4680BD0CED00E00004FA0514ED00E000000000511A00000080FF1FBC7600400481FF1F08ED00E00081FF1F80B400AFE0
:401B8000BD465DF8047B704780B400AFBD465DF8047B704780B500AF094B1B78DBB203F01003002B03D0074B01221A7002E0054B00221A7005F094FEFFF7E0FF80BD00BF95
:401BC00097650040C8E2FF1F80B500AFFFF7DCFF05F0CEFE05F06CFF034B1B78002B01D005F04AFE80BD00BFC8E2FF1F80B400AFBD465DF8047B704780B400AFBD465DF881
:401C0000047B704780B500AF094B1B78DBB203F01003002B03D0074B01221A7002E0054B00221A7005F0E6FFFFF7E0FF80BD00BF94640040CCE2FF1F80B500AFFFF7DCFFD1
:401C400006F020F806F0BEF8034B1B78002B01D005F09CFF80BD00BFCCE2FF1F80B582B000AF78603960786800213A6809F0EFFA0837BD4680BD00BF80B584B000AFF860BB
:401C8000B9607A60F868B9687A6809F0D5FA1037BD4680BD80B483B000AF0346FB71FEE780B487B000AF7860396000233B6100237B6127E07B699B007A6813441B68BB6029
:401CC000BB68FB73BB6823F0FF03BB6014E03B695B003A6813441B781A46BB68134419463B695B003A6813445B780B703B6901333B61FB7B013BFB73FB7B002BE7D17B6931
:401D000001337B617B69272BD4D91C37BD465DF8047B704780B582B000AF354B3A221A80344B18221A70344B17221A80334B19221A70334B5F221A80324B19221A70324B13
:401D400006221A70314B324A1278D2B21A70314B52221A70304B40F619121A802F4B41F251221A800023FB7019237B6013E0FB785B00DAB22A4B1B78DBB203F00103DBB26C
:401D80001343DBB203F00303FB70782005F024FD7B68013B7B607B68002B02D0FB78032BE5D17B68002B02D10320FFF773FF1D4B4FF480721A801B4B07221A701A4B0022BA
:401DC0001A701A4B48221A70164B00221A70184B00221A70174B02221A70174A164B1B78DBB243F00703DBB213700837BD4680BD804000408240004084400040864000401A
:401E0000884000408A40004000430040A14600400F010049004200402242004020420040254200400440004006400040084000400940004001400040A243004080B582B0F6
:401E400000AF254B1B78FB71244B1B78BB71244B1B787B71234AFB7903F00703DBB21370214AFB791B09DBB213701C4ABB7943F00303DBB213701A4A7B7943F00303DBB226
:401E800013701A4B0F221A70194B40221A70194B40221A70184B80221A70184BC0221A70174B20221A70174B20221A70164B10221A70164B30221A700A2003F0C9FE084A95
:401EC0007B791370054ABB791370114B44221A700837BD4680BD00BFCF010049F8460040F94600406E5800406F5800404D510040015900400359004009590040205B004047
:401F0000235B0040285B00402C5B0040585B00407658004080B586B000AF72B6534B01221A70FFF7F7FE524A514B1B78DBB243F00403DBB213700023FB7513E0FA7D1346E8
:401F40005B0013445B004B4A13443B613B691A683B699B889BB210461946FFF77FFEFB7D0133FB75FB7D082BE8D90023FB751CE0FA7D13469B0013445B003F4A1344FB60FB
:401F8000FB681B68BB60FB685B687B60FB681A7A5B7A1B0213437B807B88B86879681A46FFF76AFEFB7D0133FB75FB7D002BDFD04FF090403149FFF773FE31480421FFF731
:401FC0004DFE304830490422FFF756FE2F4A2F4B1B78DBB243F00203DBB213702C4A2C4B1B78DBB243F00203DBB21370294A294B1B78DBB243F04003DBB21370264A264B17
:402000001B78DBB243F01003DBB21370234824490A22FFF731FE234823490822FFF72CFE224823490822FFF727FE224822490822FFF722FE214822490A22FFF71DFE214836
:4020400021490A22FFF718FE204A204B1B78DBB243F00803DBB21370FFF7F0FE1C480D490E22FFF709FE1837BD4680BD00480040E8460040D8B2000010B30000A0000048F6
:402080000076004008760040340C00480350014013500140A0430040C2430040F0510040F80B004812510040040C0048225100400C0C004842510040140C0048505100408E
:4020C0001C0C004860510040280C004822430040B043004080B500AF054B1B78002B04D100F008F8024B01221A7000F00BF880BDD0E2FF1F80B500AF022000F06DF800F02F
:4021000053F880BD80B582B000AF194B1B78DBB203F00203002B18D105F066FB0346FB71134A134B1B78DBB243F00203DBB21370104A104B1B78DBB243F00403DBB2137024
:40214000FB79184605F054FB0FE005F04DFB0346FB71084A074B1B78DBB243F00403DBB21370FB79184605F043FB0837BD4680BD004300408243004080B582B000AF05F043
:4021800033FB0346FB71074A064B1B78DBB223F00403DBB21370FB79184605F029FB0837BD4680BD8243004080B582B000AF05F01BFB0346FB71074A064B1B78DBB243F016
:4021C0000803DBB21370FB79184605F011FB0837BD4680BD8243004080B483B000AF0346FB710D4B1B78DBB203F00403002B0DD10A490A4B1B78DBB223F00F03DAB2FB793A
:4022000003F00F03DBB21343DBB20B700C37BD465DF8047B704700BF824300408143004080B500AF022004F0E9F80346184680BD80B485B000AF0346FB710B4B1B78DBB213
:4022400023F04003FB730849FB799B01DBB203F04003DAB2FB7B1343DBB20B701437BD465DF8047B704700BF5051004080B582B000AF03460A46FB711346BB71084B1B7817
:40228000002B04D100F00EF8054B01221A70FA79BB791046194600F0C1F80837BD4680BDD1E2FF1F80B582B000AF05F09DFA0346FB714B4A4A4B1B78DBB243F00103DBB271
:4022C0001370484A474B1B78DBB243F00103DBB21370454B01221A70444B02221A70444A434B1B78DBB203F07F03DBB21370002003F0AEFC3F4A3F4B1B78DBB223F0060389
:40230000DBB213703C4A3C4B1B78DBB223F02003DBB21370374A374B1B78DBB243F00103DBB21370012003F093FC282003F090FC324A324B1B78DBB203F07F03DBB21370A8
:402340002E4A2E4B1B78DBB223F04003DBB21370284A284B1B78DBB243F00203DBB21370022003F075FC234A224B1B78DBB243F00403DBB21370224B00221A70214B002228
:402380001A70FB79184605F033FA17201E4903F071FC1720072103F095FC15201B4903F069FC1520072103F08DFC1820184903F061FC1820072103F085FC0820154903F0BE
:4023C00059FC0820072103F07DFC0920124903F051FC0920072103F075FC0837BD4680BDA5430040B54300409D60004009600040106000409443004012600040F85100408C
:402400008460004085600040E52E0000D92E000069280000312E0000852E000080B582B000AF03460A46FB711346BB71244B4FF400021A60224B4FF080721A60204B4FF402
:4024400080721A601E4B4FF400721A601D4B00221A70BB79002B02D0012B04D007E01A4B02221A7007E0184B03221A7003E0164B03221A7000BF154AFB791370144B002297
:402480001A70144B00221A70134B00221A70134B00221A70124B00221A70124B00221A70114B03221A70114B80221A70012005F093F90F4B04221A700837BD4680BD00BFE4
:4024C00000E100E080270020096000408B27002094270020812700208E2700208C270020A92700208227002028600040086000401260004080B400AF0F4B00221A700F4B70
:4025000000221A700E4B00221A700E4B00221A700D4B00221A700D4B00221A700C4B00221A700C4B03221A700B4B80221A70BD465DF8047B704700BF802700209427002063
:40254000812700208E2700208C270020A927002082270020286000400860004080B483B000AF0A4B1B78FB71084AFB7923F00403DBB21370FB7903F004039B10DBB2184664
:402580000C37BD465DF8047B704700BF0960004080B400AF034B1B78DBB21846BD465DF8047B70479427002080B483B000AF0023FB71094B1B78DBB2002B05D0064B1B78CD
:4025C000FB71054B00221A70FB7918460C37BD465DF8047B704700BF8E27002080B483B000AF0346FB71FA79064913465B0013449B000B445B78DBB218460C37BD465DF861
:40260000047B7047AC27002080B485B000AF0346FB710023FB81FB79002B20D0FB79082B1DD8FB79013BDBB21B017B737A7B0F4B13441B78DBB29BB203F00F03FB81FB897B
:402640001B0299B27A7B0A4B13441B78DBB29BB20A4613439BB2FB81FB89023BFB81FB8918461437BD465DF8047B70470C6000400D60004090B484B000AF03463960FB71AF
:402680001346BB80FB79002B69D0FB79082B66D8FB79013BDBB21B017B737A7B324B1344BB60B988FA79314813465B0013449B000344DB889BB2C3F5007399420BD9FA7977
:4026C0002A4913465B0013449B000B44DB889BB2C3F50073BB807A7B254B13441C46BB881B0A9BB2D9B2FA79204813465B0013449B000344DB78DBB20B43DBB223707A7BF3
:402700001C4B1344BA88D2B21A703B68002B0FD00023FB8108E0FB893A6813441A78BB681A70FB890133FB81FA89BB889A42F2D3FA790E4913465B0013449B000B4400221F
:402740005A707A7B0C4B13441846FA79074913465B0013449B000B445B79DBB203701037BD4690BC704700BF88600040AC2700200C6000400D6000400E60004080B586B069
:4027800000AF03463960FB711346BB80FB79002B30D0FB79082B2DD83B68002B2AD0FB79013BDBB21B017B757A7D164B13443B61FB791846FFF728FF0346FB81BA88FB8967
:4027C0009A4201D9FB89BB800023FB8209E0FB8A3A6813443A691278D2B21A70FB8A0133FB82FA8ABB889A42F1D3FB79184600F00BF801E00023BB80BB8818461837BD468E
:4028000080BD00BF8860004080B485B000AF0346FB71FB79002B1ED0FB79082B1BD8FB79013BDBB21B01FB73FA790D4913465B0013449B000B4400225A70FA7B094B1344EF
:402840001846FA79064913465B0013449B000B445B79DBB203701437BD465DF8047B7047AC2700200E60004080B582B000AF374B1B78BB71BB7903F01003002B63D00123E2
:40288000FB71BB795BB2002B13DABB7903F00F03012B02D00023FB711DE000F061F82C4B1B78DBB2DBB25BB2002B14DA0023FB7111E0BB7903F04003002B02D000F094F89A
:4028C00009E0BB7903F02003002B02D000F0B2F801E00023FB71FB79002B34D01B4B1B78BB71BB795BB2002B2DDB1A4B1B78DAB2194B1B78DBB21343BB71184ABB791370BF
:40290000164B1B78DBB2BA799A421CD1104B1B78FB710E4B1B78DBB223F07F03BB71BB79002B0AD1094B0A4A1278D2B21A70074B1B78DBB203F00F03FB71054B1B78DBB2B9
:40294000FA799A42E2D10837BD4680BD286000408A2700208D270020A82700202960004080B582B000AF1D4B1B78FB711B4AFB7913701A4B1B78FB71FB795BB2002B03DAEB
:40298000174AFB79137025E0022000F017FA154B1B78DBB203F06003202B08D0402B0BD0002B0ED100F0D0FB0346FB710CE005F06FFA0346FB7107E001F0ACFB0346FB71AB
:4029C00002E00023FB7100BFFB79002B02D1044B03221A700837BD4680BD00BF286000408A2700200060004080B500AF104B1B78DBB2062B19D801A252F823F02B2A0000EA
:402A00002B2A0000192A00002B2A00001F2A00002B2A0000252A000000F0FEF806E000F07DF903E000F0A6F900E000BF80BD00BF8027002080B500AF124B1B78DBB2062B24
:402A40001DD801A252F823F07F2A00007F2A0000652A00007F2A00006B2A00007F2A0000712A000000F0DEF80AE000F0FBF807E0032000F0A3F9044B03221A7000E000BF38
:402A800080BD00BF802700208A27002080B483B000AF0023FB712B4B1B78DBB29AB22A4B1B889BB213449AB2274B1A8019E0FB7903F1804303F5C0431A46244B5B681B78A3
:402AC000DBB21370214B5B680133204A5360FB790133FB711D4B1B889BB2013B9AB21B4B1A801A4B1B889BB2002B02D0FB79072BDDD9144B1B78DBB2082B02D0FB79002B81
:402B00000FD0134B1B78DBB283F07F03DB43DAB20F4B1A700F4B0F221A700F4B02221A7005E00C4B02221A700B4B02221A70054AFB791370094AFB7913700C37BD465DF87F
:402B4000047B704782270020922700209C2700208D2700208A27002080270020A827002080B582B000AF164B1B889BB2002B02D100F030F81EE0134B02221A70124B002239
:402B80001A7000F03BF9114B1B78DBB21B029AB20F4B1B78DBB29BB213439BB2FB80084B1B889BB2FA889A4202D2054AFB881380FFF76CFF012318460837BD4680BD00BFA2
:402BC0009C270020802700208D270020076000400660004080B400AF0A4B02221A700A4B80221A70094B0F221A70094B00221A70084B00221A7001231846BD465DF8047B3C
:402C0000704700BF802700208D2700208A27002082270020A827002080B500AFFFF736FF80BD00BF80B500AF0A4B1B78DBB29AB2094B1B889BB213449AB2074B1A80074B25
:402C400000221A70012000F0B9F8054B03221A7080BD00BF8227002092270020802700208A27002080B483B000AF0023BB71254B1B78DBB203F00F03DBB2023BFB71FB790D
:402C80009AB2214B1B889BB213449AB21E4B1A801BE01E4B5A68BB7903F1804303F5C0431B78DBB21370194B5B680133174A5360BB790133BB71FB79013BFB71134B1B88F7
:402CC0009BB2013B9AB2114B1A80104B1B889BB2002B02D0FB79002BDBD10D4AFB7913700C4B1B78DBB283F07F03DB43DAB2094B1A70094B0B221A700C37BD465DF8047B0F
:402D0000704700BF29600040922700209C270020A82700208D2700208A27002080B500AF044B00221A70012000F048F8024B03221A7080BD802700208A27002080B400AF20
:402D4000084B06221A70084B06221A70074B80221A70074B00221A7001231846BD465DF8047B7047802700208A2700208D270020A827002080B500AF0C4B1B78DBB2002BDC
:402D80000AD00B4A094B1B78DBB263F07F03DBB21370064B00221A70064B00221A70012000F00CF8044B03221A7080BD8C27002008600040802700208A27002080B483B0C7
:402DC00000AF0346FB710B4B9B68002B0CD0094B9B68FA791A70074B9B68074A128892B25A80044B00229A600C37BD465DF8047B704700BF9C2700209227002080B400AFC3
:402E0000094B00221A80094B9B68002B07D0074B9B6800221A70054B9B6800225A80BD465DF8047B704700BF922700209C27002080B400AF104B1B78104B1B7BDBB203F08E
:402E40000303012B08D00D4BDB7BDBB283F07F03DB43DAB2094BDA73084B01225A73084A074B1B78DBB223F00103DBB21370BD465DF8047B704700BF0E600040AC270020B1
:402E80000B60004080B400AF104B1B78104B1B7EDBB203F00303012B08D00D4BDB7EDBB283F07F03DB43DAB2094BDA76084B01225A76084A074B1B78DBB223F00203DBB2E8
:402EC0001370BD465DF8047B704700BF1E600040AC2700200B60004080B400AFBD465DF8047B704780B500AFFFF704FB80BD00BF80B400AF024B1B78BD465DF8047B70470F
:402F00008F45004080B500AF034B1B78DBB2002B01D000F0B3FB80BD9427002080B582B000AF04F061FC0346FB713C4B1B78DBB2DBB25BB2002B57DA394B01221A70394A0C
:402F4000384B1B78DBB203F07F03DBB21370002002F07EFE344A344B1B78DBB223F00603DBB213702D4A2D4B1B78DBB203F07F03DBB21370002002F06BFE2C4B1B78DBB2AC
:402F800003F00103DAB2264B5A70284A274B1B78DBB223F00103DBB21370012002F058FE214A214B1B78DBB223F00103DBB213701F4A1F4B1B78DBB243F02003DBB2137048
:402FC0001C4A1C4B1B78DBB223F00103DBB21370194A194B1B78DBB223F00103DBB21370012002F035FE02E00D4B00221A70FB79184604F0FDFB0C20104902F03BFE0C20E9
:40300000072102F05FFE0E4B4FF480521A600D4B4FF480521A600837BD4680BD08600040D4E2FF1F10600040944300400960004012600040A5430040B5430040F12E0000AE
:4030400080E200E000E100E080B582B000AF04F0CBFB0346FB71324B1B78002B58D0314B4FF480521A60304A2F4B1B78DBB243F00103DBB213702D4A2C4B1B78DBB243F0BE
:403080000103DBB213702A4A294B1B78DBB243F00103DBB21370274A264B1B78DBB243F00103DBB21370282002F0D2FD2249224B1B78DAB21A4B5B781343DBB20B700020AE
:4030C00002F0C6FD1B4A1B4B1B78DBB243F00203DBB21370022002F0BBFD164A154B1B78DBB243F00403DBB21370144B03221A70134A134B1B78DBB263F07F03DBB2137024
:40310000012004F069FB0F4B04221A70FFF7FAFEFB79184604F06CFB0837BD4680BD00BFD4E2FF1F80E100E0A5430040B54300409D60004094430040096000402860004079
:40314000086000401260004080B586B000AF0023FB7500233B619D4B00221A809C4B1B78DBB2DBB25BB2002B80F20681994B1B78DBB20A2B00F2FE8001A252F823F000BFB8
:40318000C93200007533000075330000753300007533000075330000AD310000753300003F33000075330000553300008A4B1B78DBB2012B0ED100F027FEB860BB685B6891
:4031C000824A5360814B12221A80FFF7C9FC0346FB7578E0804B1B78DBB2022B24D17F4B1B78DBB2184600F0E5FDB860BB68002B69D0BB685B68754A5360744B5B68033314
:403200001B78DBB21B029AB2704B5B6802331B78DBB29BB213439BB29AB26C4B1A80FFF79FFC0346FB75A6E06B4B1B78DBB2032B44D10023FB736A4B3B6109E03B691B78BA
:40324000FB71FB793A6913443B61FB7B0133FB73624B1B78DBB2FA7B9A4204D23B691B78DBB2002BEAD15D4B1B78DBB2EE2B01D15C4B3B61594B1B78DBB2002B0BD0574BC0
:403280001B78DAB2584B1B7C9A4204D1574800F0ADF9564B3B613B691B78DBB2002B12D03B691B78DBB29AB2484B1A80474A3B695360FFF755FC0346FB755CE004F0E8FD87
:4032C0000346FB7557E056E0414B1B78DBB203F00303002B1FD0022B00D02FE03B4B02221A80434B1B78DBB203F07F02414913465B0013449B000B449B78DAB23E4B1A7046
:403300003D4B00225A70314B3B4A5A60FFF728FC0346FB7512E02D4B02221A80374B1B78DAB2354B1A70344B00225A70274B324A5A60FFF715FC0346FB7500BF1BE0234BBD
:4033400001221A80214B2E4A5A60FFF709FC0346FB7510E01D4B01221A80254B1B78DBB21A46284B1344194A5360FFF7F9FB0346FB7500E000BF20E1164B1B78DBB2013B59
:403380000A2B00F2198101A252F823F09D340000B93500002B350000B9350000B9330000B9350000B9350000B93500000D340000B935000063340000084B1B78DAB2124BF4
:4033C0001A70FFF7BBFC0346FB75F6E09C27002000600040016000400360004002600040ECB3000000B5000050B300007C2C002004600040AC270020D8E2FF1FA927002020
:4034000094270020882700208C2700206D4B1B78BB71BB79002B06D0BB79013BDBB2184600F0C8FCB860BB79002B02D0BB68002B02D1BB79002B13D1634B1B78DBB2BA79A6
:403440009A4208D0604ABB791370604B01221A70012000F0D3F9FFF771FC0346FB75ACE0ABE000F01BFE0346002B16D0584B1B787B71584A7B791370544B01221A7000F0F5
:403480005BFB7B797A7954498A5CD1B2534AD154FFF754FC0346FB758FE08EE0504B1B78DBB203F00303012B22D0012B0DD3022B00D039E0434B1B78DBB2002B04D100F099
:4034C0004BFD0346FB752FE02EE03E4B1B78DBB2012B0CD1434B1B78DBB223F00203DAB2404B1A70FFF72AFC0346FB751CE01BE0374B1B78DBB2012B15D8324B1B78DBB271
:40350000DB43DBB2324A1278D2B211461046364A125CD2B21340DAB2334B5A54FFF70EFC0346FB75FFE700BF47E02D4B1B78DBB203F00303012B22D0012B0DD3022B00D0EF
:4035400039E0204B1B78DBB2002B04D100F094FC0346FB752FE02EE01A4B1B78DBB2012B0CD1204B1B78DBB243F00203DAB21D4B1A70FFF7E3FB0346FB751CE01BE0144B9F
:403580001B78DBB2012B15D80E4B1B78DBB2DB43DBB20F4A1278D2B211461046124A125CD2B21340DAB2104B5A54FFF7C7FB0346FB75FFE700BF00E000BFFB7D184618378A
:4035C000BD4680BD02600040942700208E2700200460004081270020882700209827002000600040A92700209027002090B488B000AF78600023BB771F4B07F10C040FCB14
:4036000084E80F007B68002B32D07B6822221A707B68013303221A700223FB7725E0BB7F03F1924303F580731B787B77BB7F0133BB77FB7F7A6813447A7F1209D2B207F196
:4036400020010A4412F8142C1A70FB7F02337A6813447A7F02F00F0207F120010A4412F8142C1A70FB7F0433FB77FB7F212BD6D92037BD4690BC70471CB3000080B483B0BD
:4036800000AF0123FB710023BB7197E0BB7903F1804303F5C1430C221A70FA794E4913465B0013449B000B445B79DBB2002B18D0FA79494913465B0013449B000B441B7965
:4036C000DBB2DBB25BB2002B05DABA79434B13440C221A700AE0BA79404B134408221A7004E0BA793D4B134480221A70BA793C4B13441846FA79384913465B0013449B00EB
:403700000B4408331B889BB21B0A9BB2DBB20370BA79344B13441846FA792F4913465B0013449B000B4408331B889BB2DBB20370BA792D4B13441846FA79274913465B0034
:4037400013449B000B44DB889BB2DBB20370BA79264B13441846FA791F4913465B0013449B000B44DB889BB21B0A9BB2DBB20370BA791F4B13441846FA79174913465B0034
:4037800013449B000B44DB889BB2DBB20370BA79184B13441846FA790F4913465B0013449B000B44DB889BB21B0A9BB2DBB20370FB790133FB71BB791033BB71BB795BB2F3
:4037C000002BBFF663AF0C4BFF221A700C37BD465DF8047B704700BFAC2700200E6000400C6000400D600040866000408760004084600040856000400A60004080B588B09E
:4038000000AF0346FB7100237B830023FB7743E0FA7FAF4913465B0013449B000B4400221A70FA7FAA4913465B0013449B000B4400229A70FA7FA64913465B0013449B009E
:403840000B4400225A70FA7FA14913465B0013449B000B440022DA70FA7F9D4913465B0013449B000B4400225A71FA7F984913465B0013449B000B44083300221A80FA7F49
:40388000934913465B0013449B000B44083300229A70FB7F0133FB77FB7F082BB8D9FB79002B10D000237B770AE07B7F894A0021D1547B7F884A0021D1547B7F01337B77AF
:4038C0007B7F012BF1D9854B1B78DBB2002B00F02D81824B1B78DBB2013BDBB2184600F069FA38613B695B68FB60FB6807331B7803F04003002B08D0794B1B78DBB243F0DD
:403900000103DAB2764B1A7007E0754B1B78DBB223F00103DAB2724B1A703B6908333B613B691B78FB7701237B77A5E03B695B687B610023BB7797E07A7F7B699B7803F04A
:403940007F039A4240F08A807A7F614913465B0013449B000B4408331B889AB27B699B889A420BD27A7F7B699888594913465B0013449B000B44083302461A807B691B7805
:403980001A46544B9B5CDAB27B695B789A4265D17B69DB7803F00303FB727B699B78DBB25BB2002B22DA7A7F494913465B0013449B000B4401225A707A7FFB7A012B01D18E
:4039C000072000E00D20424913465B0013449B000B4402465A717B699B79012B28D1FB7A022B25D13F4A7B7F137021E07A7F384913465B0013449B000B4400225A707A7FF0
:403A0000FB7A012B01D1052000E00920304913465B0013449B000B4402465A717B699B79012B05D1FB7A022B02D12F4A7B7F13707A7F7B699878264913465B0013449B00FD
:403A40000B4402461A717A7F7B69D878204913465B0013449B000B4402461A707B6908337B61BB7F0133BB77BA7FFB7F9A42FFF463AF7B7F01337B777B7F082B7FF656AFD1
:403A80003B695B687B6100237B7714E07B699B7803F07F027B6918780D4913465B0013449B000B44083302469A707B6908337B617B7F01337B777A7FFB7F9A42E6D300F0F0
:403AC000B5F90246094B1A600123FB7729E000BFAC270020882700209827002094270020A9270020392800203C28002084270020FA7F104913465B0013449B000B447A8B9C
:403B0000DA80FA7F0B4913465B0013449B000B4408331B889AB27B8B13447B83FB7F0133FB77FB7F082BE3D9FFF7A8FD2037BD4680BD00BFAC27002080B584B000AF914B83
:403B40001B78DBB2002B00F01A818E4B1B78DBB2013BDBB2184600F02DF978607B6808337B607B681B78FB707B685B68BB600023FB73FFE0BB681B781A46834B9B5CDAB2EF
:403B8000BB681B781946814B5B5CDBB29A4200F0EB80BB681B781A467B4B9B5CDAB2BB685B789A4240F0E080BB681A78784B1B78DBB29A4240F0D880BB689B7803F07F0341
:403BC000BB70BB78013BDBB21B017B70BB68DB7803F003033B70BB689B78DBB25BB2002B18DABA786B4913465B0013449B000B4401225A70BA783B78012B01D1072000E0DE
:403C00000D20644913465B0013449B000B4402465A7117E0BA785F4913465B0013449B000B4400225A70BA783B78012B01D1052000E00920574913465B0013449B000B444A
:403C400002465A717A78544B134401221A70BA78BB6898884F4913465B0013449B000B44083302461A80BA78BB689878494913465B0013449B000B4402461A71BA78BB6869
:403C8000D878444913465B0013449B000B4402461A70BA783F4913465B0013449B000B440022DA707A783D4B13441846BA78394913465B0013449B000B4408331B889BB242
:403CC0001B0A9BB2DBB203707A78354B13441846BA78304913465B0013449B000B4408331B889BB2DBB203707A782E4B13441846BA78284913465B0013449B000B44DB8845
:403D00009BB2DBB203707A78274B13441846BA78204913465B0013449B000B44DB889BB21B0A9BB2DBB203707A78204B13441846BA78184913465B0013449B000B44DB886E
:403D40009BB2DBB203707A78194B13441846BA78104913465B0013449B000B44DB889BB21B0A9BB2DBB20370BB680833BB60FB7B0133FB73FA7BFB789A42FFF4FBAE103711
:403D8000BD4680BD94270020882700209827002004600040AC2700200E6000400C6000400D6000408660004087600040846000408560004080B485B000AF0346FB71104BDE
:403DC0001B78DBB20F4ADB0013445B68FB60FB680833FB60FB681B78FA799A4202D30023FB6005E0FB79DB00FA6813445B68FB60FB6818461437BD465DF8047B704700BF05
:403E00008B270020F8B4000080B400AF054B1B78DBB2054ADB0013445B681846BD465DF8047B70478B270020F8B4000080B584B000AF104B1B78DBB2013BDBB21846FFF753
:403E4000B9FFB860BB68002B0DD0BB685B681B79FB71FB790233DB00BA681344BB60BB685B68FB6001E00023FB60FB6818461037BD4680BD9427002080B582B000AF00234D
:403E8000FB71324B1B78DBB203F07F03BB71BB79013BDBB21B017B71BB79002B51D0BB79082B4ED8BA79B97929480B465B000B449B0003449B78DBB243F00103D8B22449C5
:403EC00013465B0013449B000B4402469A70BA791F4913465B0013449B000B440022DA70BA79B9791A480B465B000B449B0003445B78DBB243F00203D8B2154913465B00A7
:403F000013449B000B4402465A70BA79104913465B0013449B000B441B79DBB2DBB25BB2002B05DA7A790B4B13448D221A7004E07A79084B134489221A70FEF7FFFE03461E
:403F4000FB71FB7918460837BD4680BD04600040AC2700200E60004080B582B000AF0023FB714A4B1B78DBB203F07F03BB71BB79013BDBB21B017B71BB79002B00F08180EF
:403F8000BB79082B7DD8BA79B97941480B465B000B449B0003449B78DBB223F00103D8B23B4913465B0013449B000B4402469A70BA79374913465B0013449B000B440022A4
:403FC000DA707A79334B134419467A79314B13441B78DBB203F07F03DBB20B70BA79B9792B480B465B000B449B0003445B78DBB223F00203D8B2264913465B0013449B0021
:404000000B4402465A70BA79214913465B0013449B000B441B79DBB2DBB25BB2002B16DABA791B4913465B0013449B000B445B78DBB2012B05D17A79174B13440C221A7065
:404040001BE07A79144B13440D221A7015E0BA790F4913465B0013449B000B445B78DBB2012B05D17A790C4B134408221A7004E07A79094B134409221A70FEF75FFE0346E5
:40408000FB71FB7918460837BD4680BD04600040AC2700200C6000400E60004080B584B000AF0123FB73164B1B78BB73154B1B78DBB2013BDBB21846FFF77CFEB860BB6834
:4040C0005B681B79FB71BA7BFB799A4202D2BB7B012B02D90023FB730CE0BB7BBA7B0A498A5CD1B2094AD154BB7B094A1278D1B2054AD154FB7B18461037BD4680BD00BF27
:40410000046000409427002088270020982700200260004080B582B000AF0023FB710F4B1B78DBB2DBB25BB2002B12DA0C4B1B78DBB2012B00D00CE00A4B0B4A5A600A4BC8
:404140001B789AB2074B1A80FEF70AFD0346FB7100BFFB7918460837BD4680BD00600040016000409C27002014B5000080B500AF054B00221A70054B1B78DBB21846FEF723
:4041800043FB00F03FFB80BD3A2800203C28002080B582B000AF0023BB712E4B1B78DBB21846FEF71BFA0346012B4FD1294B1B78DBB21846FEF728FA03467B71254B1B7818
:4041C000DAB27B799BB2104623491A46FEF7D6FA03467B717B79032B38D90023FB7131E0FB791D4AD35C002B00D12FE0FB791A4AD35C03F0F003002B06D1FB79164A1344D4
:40420000184600F0CFFC0CE0FB79134AD35C03F0F003102B05D1FB790F4A1344184600F0BFFDFB790C4AD35C23F00F03D9B2FB790133094A134408461946FCF7C1F8FB798C
:404240000433FB71FA797B799A42C9D30837BD4680BD00BF3C2800201828002080B500AF0E4B1B78DBB2002B17D00D4B1B78DBB21846FEF7B3F90346012B0ED1084B1B787A
:40428000DAB2064B1B78DBB29BB2104605491A46FEF7F0F9014B00221A7080BD3A280020392800204028002080B582B000AF0023FB710023BB711D4B1B78DBB21C2B0FD868
:4042C00000F01CFC0346FB71FB79002B08D0184B9B78FA79104617491A46002300F0D2F8124B1B78DBB21C2B0FD800F005FD0346BB71BB79002B08D00F4B9B78BA7910466F
:404300000E491A46102300F0BDF8084B1B78DBB21C2B05D8FB79002BCDD1BB79002BCAD1FFF79CFF0837BD4680BD00BF3A280020DCE2FF1FE0E2FF1FE8E2FF1FECE2FF1F3F
:4043400080B584B000AF03463960FB711346BB710023FB7303F000FB03F088FC464B1B78DBB21846454B1B78DBB21946444A0B465B000B449B00134408331B889BB2043B59
:40438000984201D9FFF76AFF3B4B1B78DBB218463A4B1B78DBB21946394A0B465B000B449B00134408331B889BB2043B984258D8FB79032B02D9FB79EF2B07D9F979FA792E
:4043C000BB790846396800F05DF84CE00023BB73BB7B3A681A44BB79F0201146032200F051F8FB79033BFB71BB7B0333BB73224B1B78DBB21846214B1B78DBB21946204AB1
:404400000B465B000B449B00134408331B889BB2043B984218D9FFF721FF174B1B78DBB21846164B1B78DBB21946154A0B465B000B449B00134408331B889BB2043B9842F4
:4044400002D90123FB7302E0FB79032BC0D8FB7B002B08D1FA79BB79F720396800F012F801E00123FB7303F06BFA03F0F3FBFB7B18461037BD4680BD3A28002039280020D6
:40448000AC27002080B485B000AF396011461A460346FB710B46BB7113467B713B681B78FB733B685B78BB73FB79F72B3BD9924B1B78DBB21A467B7943F00F03D9B28F4B3D
:4044C00099548D4B1B78DBB20133DAB28A4B1A70894B1B78DBB21946884AFB795354864B1B78DBB20133DAB2834B1A70824B1B78DBB21A46814B002199547F4B1B78DBB25E
:404500000133DAB27C4B1A707B4B1B78DBB21A467A4B00219954784B1B78DBB20133DAB2754B1A7064E1FB79032B03D9FB79F02B40F09980FB79F02B11D16F4B1B78DBB27E
:404540001A467B7943F00403D9B26C4B99546A4B1B78DBB20133DAB2674B1A7057E0FB7BEF2B13D8644B1B78DBB21946FB7B1B09DAB27B791343DAB2604B5A545E4B1B783C
:40458000DBB20133DAB25C4B1A7040E0FB7BF62B11D1594B1B78DBB21A467B7943F00503D9B2564B9954544B1B78DBB20133DAB2514B1A702BE0FB7BF12B02D0FB7BF32BD0
:4045C00011D14D4B1B78DBB21A467B7943F00203D9B24A4B9954484B1B78DBB20133DAB2454B1A7013E0FB7BF22B10D1424B1B78DBB21A467B7943F00303D9B23F4B995458
:404600003D4B1B78DBB20133DAB23B4B1A703A4B1B78DBB21946394AFB7B5354364B1B78DBB20133DAB2344B1A70334B1B78DBB21946324ABB7B53542F4B1B78DBB20133D0
:40464000DAB22D4B1A702C4B1B78DBB21A463B6899782A4B9954284B1B78DBB20133DAB2254B1A70C4E0FB79F72B40F0C180BB79012B45D0022B7FD0002B00D0B8E01E4BBA
:404680001B78DBB21A467B7943F00503D9B21B4B9954194B1B78DBB20133DAB2164B1A70154B1B78DBB21A46144BF7219954124B1B78DBB20133DAB20F4B1A700E4B1B78ED
:4046C000DBB21A460D4B002199540B4B1B78DBB20133DAB2084B1A70074B1B78DBB21A46064B00219954044B1B78DBB20133DAB2014B1A707CE000BF3A28002040280020F9
:404700003E4B1B78DBB21A467B7943F00603D9B23B4B9954394B1B78DBB20133DAB2374B1A70364B1B78DBB21946354AFB7B5354324B1B78DBB20133DAB2304B1A702F4B5A
:404740001B78DBB21A462E4BF72199542B4B1B78DBB20133DAB2294B1A70284B1B78DBB21A46274B00219954244B1B78DBB20133DAB2224B1A703BE0204B1B78DBB21A4628
:404780007B7943F00703D9B21D4B99541B4B1B78DBB20133DAB2194B1A70184B1B78DBB21946174AFB7B5354144B1B78DBB20133DAB2124B1A70114B1B78DBB21946104AF9
:4047C000BB7B53540D4B1B78DBB20133DAB20B4B1A700A4B1B78DBB21A46094BF7219954064B1B78DBB20133DAB2044B1A7000BF1437BD465DF8047B704700BF3A280020B3
:404800004028002080B500AF1C4B00221A701B4B00225A70194B00229A70184B0022DA70174B00221A70174B00221A7002F0E4FF0420042101F046FA0320022101F042FA6A
:40484000114B00221A70104B00225A700E4B00229A700D4B0022DA700C4B00221A700C4B00221A7003F052F90620042101F02AFA0520022101F026FA80BD00BFDCE2FF1FCB
:40488000E4E2FF1F38280020E8E2FF1FF0E2FF1F3B28002080B485B000AF03463960FB710023FB73FB795BB2002B80F2A680FB7903F0F003F02B72D1FB7903F00803002BA9
:4048C00002D0FB79FB7312E1FB79F03B072B64D801A252F823F000BFF9480000614900002D490000474900009B4900009B4900007B490000134900003B68F0221A713B6889
:40490000F022DA703B6801225A703B6803221A7044E03B680022DA703B685A783B689A703B6800225A70F723FB7337E03B68F2221A713B680022DA703B6801225A703B6832
:4049400003221A702AE03B68F3221A713B680022DA703B6801225A703B6802221A701DE03B68F1221A713B680022DA703B6801225A703B6802221A7010E03B68F6221A71E7
:404980003B680022DA703B6801229A703B6800225A703B689B78FB7300E000BFA7E03B68FA791A713B68FA79DA703B6801225A70FB7903F0F003B02B0FD0B02B06D8902B26
:4049C0000BD0A02B09D0802B07D00EE0D02B08D0E02B02D0C02B04D007E03B6803221A700AE03B6802221A7006E03B680022DA703B6800225A7000BF79E03B68DB78F02B38
:404A00001CD13B685B781A463B681344FA791A713B685B780133DAB23B685A703B685A783B681B789A4262D33B685A783B689A703B6800225A70F023FB7358E03B685B787C
:404A4000002B1DD03B685B781A463B681344FA791A713B685B780133DAB23B685A703B685A783B681B789A4241D33B685A783B689A703B6800225A703B689B78FB7336E027
:404A80003B68DB78002B32D03B68DA783B681A713B68FA795A713B6802225A703B68DB7803F0F003B02B0FD0B02B06D8902B0BD0A02B09D0802B07D015E0D02B08D0E02B60
:404AC00002D0C02B04D00EE03B6803221A700EE03B685A783B689A703B6800225A703B689B78FB7303E03B6800225A7000BFFB7B18461437BD465DF8047B704780B582B0DD
:404B000000AF0023FB71224B1B787B71214B1B78DAB2214B1B78DBB29A4202D17B79002B31D01C4B1B78BB711EE0BB791B4AD35C3B71BB790133BB71BB79FF2B01D10023E6
:404B4000BB717B79002B05D0114B00221A70114ABB7913703B7918461149FFF79BFE0346FB710B4B1B787B710B4B1B78DBB2BA799A4202D17B79002B02D0FB79002BD4D0EA
:404B8000044ABB791370FB7918460837BD4680BD4EE3FF1F4CE3FF1F4DE3FF1F7C290020DCE2FF1F80B584B000AF7860012003F051F97B681B7803F00F03BB73BB7B002BBC
:404BC00000F08D80BB7B012B00F08980BB7B474AD35C7B730123FB73BB7B042B1BD17B6801331B78F02B0DD17B6802331B787E2B08D13F4B1B78DBB243F00103DAB23C4BD2
:404C00001A7044E03A4B1B78DBB223F00103DAB2374B1A703BE0BB7B052B08D1344B1B78DBB223F00103DAB2314B1A702FE0BB7B062B08D12E4B1B78DBB223F00103DAB245
:404C40002B4B1A7023E0BB7B072B20D1284B1B78DBB203F00103002B19D0254B1B78DBB223F00103DAB2224B1A707B6801331B78062B0CD17B6802331B78012B07D11C4B42
:404C80001B78DBB243F00203DAB2194B1A70BB7B072B13D9BB7B0E2B10D87B6801331A78144B1B78DBB29A4203D1FB7B0133FB7303E07B685A780F4B1A7002E00D4B0022AF
:404CC0001A70FB7B7A6813441B78184602F0A0FEFB7B0133FB73FA7B7B7B9A42F1D9002003F0B8F81037BD4680BD00BF30B3000038280020E4E2FF1F80B582B000AF002348
:404D0000FB71224B1B787B71214B1B78DAB2214B1B78DBB29A4202D17B79002B31D01C4B1B78BB711EE0BB791B4AD35C3B71BB790133BB71BB79FF2B01D10023BB717B7996
:404D4000002B05D0114B00221A70114ABB7913703B7918461149FFF79DFD0346FB710B4B1B787B710B4B1B78DBB2BA799A4202D17B79002B02D0FB79002BD4D0044ABB7985
:404D80001370FB7918460837BD4680BD56E3FF1F54E3FF1F55E3FF1F7C2A0020E8E2FF1F80B584B000AF7860012003F039F87B681B7803F00F03BB73BB7B002B00F08D8033
:404DC000BB7B012B00F08980BB7B474AD35C7B730123FB73BB7B042B1BD17B6801331B78F02B0DD17B6802331B787E2B08D13F4B1B78DBB243F00103DAB23C4B1A7044E01F
:404E00003A4B1B78DBB223F00103DAB2374B1A703BE0BB7B052B08D1344B1B78DBB223F00103DAB2314B1A702FE0BB7B062B08D12E4B1B78DBB223F00103DAB22B4B1A70F1
:404E400023E0BB7B072B20D1284B1B78DBB203F00103002B19D0254B1B78DBB223F00103DAB2224B1A707B6801331B78062B0CD17B6802331B78012B07D11C4B1B78DBB220
:404E800043F00203DAB2194B1A70BB7B072B13D9BB7B0E2B10D87B6801331A78144B1B78DBB29A4203D1FB7B0133FB7303E07B685A780F4B1A7002E00D4B00221A70FB7BCD
:404EC0007A6813441B78184602F02CFFFB7B0133FB73FA7B7B7B9A42F1D9002002F0A0FF1037BD4680BD00BF30B300003B280020F0E2FF1F80B582B000AF786000F03CF8E3
:404F0000786800F009F8072000F018F800F028F80837BD4680BD00BF80B485B000AF7860054B1B68FB60FB6840337A681A601437BD465DF8047B704708ED00E080B483B0C6
:404F400000AF0346FB71054AFB795B01DBB213700C37BD465DF8047B704700BF00E400E080B400AF034B01221A60BD465DF8047B704700BF00E100E080B400AF034B01221A
:404F80001A60BD465DF8047B704700BF80E100E080B483B000AF134B7F221A70124B80221A707F23FB710CE0FB79DB0003F1804303F5F043FA79013AD2B21A70FB79013B2A
:404FC000FB71FB79002BEFD1FB79DB0003F1804303F5F04300221A700C37BD465DF8047B704700BFF981FF1FF881FF1F80B485B000AF03460A46FB711346BB710123FB6029
:40500000FB79172B2FD8BB79002B0ED0FB791A01184B1344FA791101164A0A441278D2B242F02002D2B21A700DE0FB791A01114B1344FA7911010F4A0A441278D2B222F00F
:405040002002D2B21A70FB791A010A4B1344FA791101084A0A441278D2B242F00102D2B21A700023FB60FB6818461437BD465DF8047B70471070004080B485B000AF034616
:40508000FB710123FB60FB79172B1DD8FB791A01114B1344FA7911010F4A0A441279D2B242F00402D2B21A71FB791A010A4B1344FA791101084A0A441278D2B242F00102F3
:4050C000D2B21A700023FB60FB6818461437BD465DF8047B704700BF1070004080B485B000AF03460A46FB711346BB710123FB60FB79172B18D8FB791A010F4B13441B7871
:40510000DBB223F00E03FB72FB791A010A4B1344BA7902F00702D2B25200D1B2FA7A0A43D2B21A700023FB60FB6818461437BD465DF8047B704700BF1070004080B485B0C0
:4051400000AF0346FB710B46BB8013467B800123FB60BB8841F6FF72934202D14FF40053BB807B8841F6FF72934202D14FF400537B80FB79172B17D8FB79DB0003F1804379
:4051800003F5EC430433BB60BB68BA881A80FB79DB0003F1804303F5EC430633BB60BB687A881A800023FB60FB6818461437BD465DF8047B704700BF80B485B000AF0346FF
:4051C0000A46FB711346BB710123FB60FB79172B07D8FB791A01064B1344BA795A720023FB60FB6818461437BD465DF8047B70471070004090B484B000AF04460846114636
:405200001A462346FB710346BB710B467B7113463B710123FB60FB79172B34D8FB79DB0003F1804303F5EC43BA7902F07F02D1B27A79D201D2B20A43D2B21A70FB79DB00F7
:4052400003F1804303F5EC433A7E1201D1B23A7902F00F02D2B20A43D2B25A70FB79DB0003F1804303F5EC433A7F02F00F02D2B29A70FB79DB0003F1804303F5EC43002267
:40528000DA700023FB60FB6818461037BD4690BC704700BF80B582B000AFFF23FB7102F0A3FA0346BB71104B1B78182B12D90F4B1B78FB710C4B1B78013BDAB20A4B1A70AB
:4052C000FB79DB0003F1804303F5F0431B78DAB2064B1A70BB79184602F08AFAFB7918460837BD4680BD00BFF881FF1FF981FF1F90B484B000AF0446084611461A4623465D
:40530000FB710346BB800B46BB711346FB700123FB60FB795BB2002B23DBBB8823F47F6323F00F039BB2002B1BD1FB79DB0003F1804303F5F043BB60BB68BA881A80FB798F
:40534000DB0003F1804303F5F043BA799A70FB79DB0003F1804303F5F043FA78DA700023FB60FB6818461037BD4690BC704700BF80B485B000AF0346FB710B46BB80134649
:405380007B800123FB60FB795BB2002B17DBFB79DB0003F1804303F5F0430433BB60BB68BA881A80FB79DB0003F1804303F5F0430633BB60BB687A881A800023FB60FB682E
:4053C00018461437BD465DF8047B704780B584B000AF0346FB710023FB60234A224B1B78DBB243F00103DBB21370FB79002B36D01E4B1B78DBB203F00403FB721C4B1B785B
:40540000BB721C4B1B787B72182001F023F81023FB6010E0184B1B78DBB203F00103002B09D0154B1B78DBB203F00103002B02D00023FB6008E0012000F0E0FF034603F012
:405440000103DBB2002BE5D0FB7A002B01D100F049FB074ABB7A1370064A7B7A1370FB6818461037BD4680BD204200400043004080430040824300402542004080B400AF45
:40548000054A054B1B78DBB223F00103DBB21370BD465DF8047B70472042004080B584B000AF0346FB711D4A1C4B1B78DBB243F01003DBB213701A4A194B1B78DBB243F0AA
:4054C0001003DBB21370FB79002B23D0154B1B78DBB203F00403FB73134B1B78BB73134B1B787B73002000F0B5FF00BF012000F085FF034603F00103DBB2002BF6D0FB7BC5
:40550000002B01D100F0EEFA074ABB7B1370074A7B7B13701037BD4680BD00BFA0430040B043004000430040804300408243004080B400AF094A094B1B78DBB223F01003CB
:40554000DBB21370064A064B1B78DBB223F01003DBB21370BD465DF8047B7047A0430040B043004080B483B000AF0023FB71124B1B78DBB203F00703002B06D10F4B1B7832
:40558000DBB203F00103002B0DD10B4B1B78DBB203F00703012B08D1094B1B78DBB203F00103002B01D00123FB71FB7918460C37BD465DF8047B704793430040A54300400E
:4055C000B543004080B584B000AF0346FB71FFF7C9FF0346FB73FB7B012B07D1314A314B1B78DBB223F00203DBB21370FB79082B50D801A252F823F01D56000029560000B7
:4056000035560000415600004D56000059560000655600009556000071560000224B234A1278D2B21A7039E01F4B214A1278D2B21A7033E01C4B1F4A1278D2B21A702DE009
:40564000194B1D4A1278D2B21A7027E0164B1B4A1278D2B21A7021E0134B194A1278D2B21A701BE0104B174A1278D2B21A7015E00D4B154A1278D2B21A70FB7B012B08D1FA
:40568000084A084B1B78DBB243F00203DBB2137004E003E0002000F0ADFA00BF1037BD4680BD00BF09600040A146004008010049090100490A0100490B0100498901004969
:4056C0000C0100490D0100490F01004980B584B000AF0346FB71674B1B78DBB203F00703FB73FB79082B01D0FB7900E00323BB73FB7B062B25D801A252F823F01957000066
:405700001F570000255700002B57000031570000375700003D5700000223FB7315E00123FB7312E00323FB730FE00023FB730CE00423FB7309E00523FB7306E00623FB73AE
:4057400003E0002000F056FA00BFBA7BFB7B9A4203D3FB791846FFF735FFFB79082B72D801A252F823F000BF8D570000A5570000BD570000CF570000E7570000FF57000070
:4057800017580000475800002F580000394A394B1B78DBB223F04703DBB243F00303DBB2137054E0334A334B1B78DBB223F04703DBB243F00103DBB2137048E02D4A2D4B63
:4057C0001B78DBB223F04703DBB213703FE0294A284B1B78DBB223F04703DBB243F00203DBB2137033E0234A224B1B78DBB223F04703DBB243F00403DBB2137027E01D4A16
:405800001C4B1B78DBB223F04703DBB243F00503DBB213701BE0174A164B1B78DBB223F04703DBB243F00603DBB213700FE0114A104B1B78DBB223F04703DBB243F0420372
:40584000DBB2137003E0002000F0D4F900BFFB79082B02D100F056F801E000F063F8BA7BFB7B9A4203D2FB791846FFF7ABFE1037BD4680BD0042004080B582B000AF034680
:40588000FB71FB79012B17D0022B02D0002B26D02EE04FF040224FF040231B78DBB223F04003DBB21370164A154B1B78DBB243F02003DBB213701FE04FF040224FF0402376
:4058C0001B78DBB243F04003DBB213700C4A0C4B1B78DBB243F02003DBB213700CE0084A074B1B78DBB223F02003DBB2137003E0002000F07FF900BF0837BD4680BD00BF71
:405900000042004080B400AF054A054B1B78DBB243F01003DBB21370BD465DF8047B70470042004080B400AF054A054B1B78DBB223F01003DBB21370BD465DF8047B704777
:405940000042004080B483B000AF0346FB710949084B1B78DBB223F00303DAB2FB7903F00303DBB21343DBB20B700C37BD465DF8047B70470540004080B483B000AF034663
:40598000FB71044AFB7913700C37BD465DF8047B704700BF0440004080B483B000AF0346FB80154A144B1B78DBB223F00F03DBB21370124B00221A70114A114B1B78DBB255
:4059C00063F07F03DBB213700E4BFA88D2B21A700D4AFB881B0A9BB2DBB213700B4A0B4B1B78DBB243F00103DBB213700C37BD465DF8047B704700BF1440004010400040B7
:405A00000840004002400040034000400140004080B584B000AF0346FB8001F0E5FE0346FB73244B1B78DBB29BB21B02BB81224B1B78DBB29AB2BB891343BB81FB88002B5F
:405A400002D0BB89002B29D11C4B1B78FB72FB7A062B02D80720FFF78FFFFB88002B0CD1174A174B1B78DBB243F04003DBB21370FB881846FFF790FF0BE0FB881846FFF73D
:405A80008BFF0F4A0E4B1B78DBB223F04003DBB21370FB7A1846FFF76FFF03E0FB881846FFF77AFFFB7B184601F0A2FE1037BD4680BD00BF0740004006400040044000407E
:405AC0000840004080B400AF054A054B1B78DBB243F00403DBB21370BD465DF8047B70470043004080B400AF054A054B1B78DBB223F00403DBB21370BD465DF8047B7047C7
:405B00000043004080B586B000AF0346FB7100237B61FB793B742B4A2A4B1B78DBB243F00103DBB21370FB79002B46D0264B1B78FB74264B1B78BB74254B1B787B7418201B
:405B400000F088FC10237B6126E01E4B1B780423FB730EE000BF012000F050FC034603F00103DBB2002BF6D0FB7BDBB2013BDBB2FB73FB7BDBB2002BECD1124B1B78DBB2A1
:405B8000DBB25BB2002B02DB00237B6108E03B7CDBB2013BDBB23B743B7CDBB2002BD4D1FB7C03F00403002B01D1FFF79BFF074ABB7C1370064A7B7C13707B691846183728
:405BC000BD4680BD1042004000430040804300408243004080B400AF054A054B1B78DBB223F00103DBB21370BD465DF8047B70471042004080B483B000AF0346FB7101BED5
:405C00000C37BD465DF8047B704700BF80B582B000AF786008E00C4B1B68184601F0DCFD7B68A3F500437B607B68B3F5004FF2D8064B1B687A6802FB03F3184601F0CCFDFE
:405C40000837BD4680BD00BF0C82FF1F0482FF1F80B582B000AF0346FB80FB88044A127802FB03F3184601F0B7FD0837BD4680BD0882FF1F80B584B000AF03463960FB71DE
:405C80000F4B1B68FB60FB791F2B02D90020FFF7B1FFFB7903F01F0310339B00FA6813441B68BB60FB7903F01F0310339B00FA6813443A681A60BB6818461037BD4680BD4B
:405CC00008ED00E080B582B000AF03460A46FB711346BB71BB79072B02D90020FFF78AFFFB791F2B02D90020FFF784FFFB7903F01F0303F1604303F56443BA795201D2B254
:405D00001A700837BD4680BD80B500AF914B1B78DBB203F00F03DAB28F4B1A708F4B1B78DAB28D4B5A708B4A8A4B1B78DBB223F00F03DBB21370894B1B78884B00221A7005
:405D4000874B1B78DBB223F03F03DAB2824B5A71372002F0E3F8834B1B78DBB203F00703DAB27D4BDA707F4B1B78DBB203F04003DAB2794B1A717B4B1B78DBB203F0100324
:405D8000002B03D0744B01225A7202E0724B00225A72754B1B78DBB203F00303DAB26E4B9A706D4B9B78012B1CD14FF040231B78DBB203F00303012B08D0012B02D3022BB1
:405DC00008D00BE00020FFF7BDFD0BE00220FFF7B9FD07E00320FFF7B5FD03E00020FFF709FF00BF614B1B78DBB203F00103002B05D0594B01229A73FFF740FB02E0564B9A
:405E000000229A730220FFF761FC594B1B78DBB203F01003DBB2002B03D04F4B01229A7108E04D4B00229A710020FFF737FB0620FFF70EFF4B4B1B78DBB203F02003002B8C
:405E400010D04FF040231B78DBB203F04003002B01D1022200E001223F4BDA710020FFF70BFD02E03C4B0022DA714FF040231B78DBB203F03003DAB2374B1A72364B1B7AC5
:405E8000002B09D04FF040224FF040231B78DBB223F03003DBB21370324B1B78DBB203F01003002B01D0FFF73DFD324B1B78DAB2294B9A72284B9B7A002B02D00020FFF79F
:405EC0005BFD254B9B78002B02D00020FFF73AFD294B1B78DBB29BB21B029AB21E4B9A81264B1B78D9B21C4B9A898BB213439AB2194B9A81184B9B89002B02D00020FFF79E
:405F000087FD184B1B78DBB203F007031C4AD35C184602F003F81B4B1B78DBB203F00103002B05D00C4B0122DA73FFF753FE02E0094B0022DA73144B1B78DBB203F00403D4
:405F4000002B03D0044B01221A7402E0024B00221A7480BDA143004024E3FF1FA243004000480040004200400540004020420040A0430040044000400740004006400040B4
:405F800040B30000104200400B40004080B586B000AF10233B617D4A3B1D106818609188927999809A717A4B1B7C012B17D1794B1B78DBB203F00703774AD35C1A46134697
:405FC0009B0013441A01D31A184601F005FC734A724B1B78DBB243F00403DBB213706C4BDB7B012B26D10020FFF78CFD6C4B1B780523FB821BE0674B1B78DBB203F00703EB
:40600000654AD35C1A46C82303FB02F3184601F0E3FB634B1B78DBB2DBB25BB2002B03DB00233B6100BF05E0FB8A013BFB82FB8A002BE0D1372001F071FF554B9B78022B0C
:4060400003D0534B9B78032B10D1564B1B78DAB24F4B9B7A9A4204D04D4B9B7A1846FFF78BFC4B4B9B781846FFF76CFC484B1B7903F04003002B0CD0454BDB7807F1180228
:40608000134413F8143C032B03D10820FFF71EFB20E03F4BDB7807F11802134413F8143C1846FFF713FB3A4B1B7903F04003002B08D0384A374B1B78DBB243F04003DBB279
:4060C000137007E0334A334B1B78DBB223F04003DBB213702E4B9B79012B0AD1324B1B78DBB203F01003DBB2002B02D10020FFF7D5F9274BDB791846FFF7BEFB244B5B7AF8
:40610000012B01D1FFF7FEFB214B1B7A1A464FF040231B78DBB203F030039A4210D04FF040234FF040221278D2B2D2B222F03002D1B2174A127AD2B20A43D2B2D2B21A7081
:40614000134B9B7B012B39D110233B610020FFF73DF95020FFF77CFD144B1B78AB23FB8229E00120FFF774FD104B1B78DBB203F00103002B1CD00D4B1B78DBB203F00103B5
:40618000002B15D000233B6100BF17E048B3000024E3FF1F0042004040B300000B4000401042004004400040A043004025420040FB8A013BFB82FB8A002BD2D12B4B9B7840
:4061C000002B03D0294B9B78012B10D1284B1B78DAB2264B9B7A9A4204D0244B9B7A1846FFF7CAFB214B9B781846FFF7ABFB1F4B9B79002B09D11F4B1B78DBB203F010031C
:40620000DBB2002B01D0FFF793F91B4B1B78DBB29BB21B02FB81194B1B78DBB29AB2FB891343FB81114B9B89FA899A4204D00F4B9B891846FFF7ECFB114B114A1278D2B290
:40624000D2B202F03F02D1B2084A5279D2B20A43D2B2D2B21A700B4B044A12781A700A4B024A52781A701837BD4680BD24E3FF1F04400040A043004007400040064000404F
:4062800000480040A1430040A243004080B584B000AF03460A46FB711346BB8001F0A4FA0346FB734E4B1B78DBB203F00803002B0BD14C4A4B4B1B78DBB203F01F03DBB26A
:4062C0001370FB79002B08D004E0FB7B184601F08FFA81E00020FFF78DFC00F003F9424B1B78DAB2414B1A713F4ABB881B099BB2DBB213703E4B1B78DAB23C4B5A713C4AF6
:40630000BB88DBB203F00F03DBB21370394B1B78DAB2364B9A71374ABB881B0B9BB2DBB203F00103DBB21370334B1B78DBB203F00703002B04D12D4B012283F82D2014E08C
:406340002A4B002283F82D202B4B1B78DBB203F00703DAB2254B83F82C20274A264B1B78DBB223F00703DBB213701D4A1C4B1B78DBB223F00703DBB243F00303DBB2137058
:40638000174B1B7800BF00BF30BF184B93F82D30012B0FD0184B184A1278D2B2D2B222F00702D1B2114A92F82C20D2B20A43D2B2D2B21A7000F0D6F90B4B0C4A12791A701C
:4063C0000B4B0A4A52791A700A4B084A92791A70FB7B184601F00CFA1037BD4680BD00BF934300408346004098430040F4E2FF1F994300409A4300400042004080B584B0FF
:4064000000AF0346FB7101F0EFF90346FB730F4B1B78DAB20E4B1B781343DAB20C4B1A700B4B1B78BB73FB79DB43DAB2084B1B781340DAB2064B1A70FB7B184601F0D8F9D5
:40644000BB7B18461037BD4680BD00BF9043004036E3FF1F80B582B000AF0346FB711F4A1E4B1B78DBB223F00203DBB21370FFF729FB1A4B1B78DBB203F00103002B19D069
:40648000174B1B78DBB2FA799A4224D0134A134B1B78DBB223F00103DBB21370104AFB7913700E4A0D4B1B78DBB243F00103DBB2137010E00A4B1B78DBB2FA799A4202D027
:4064C000074AFB791370054A044B1B78DBB243F00103DBB213700837BD4680BD824300408043004080B400AF804B1B78DAB2804B5A72804B1B78DAB27D4B9A727E4B1B784A
:40650000DAB27B4BDA727D4B1B78DAB2784B1A737B4B1B78DAB2764B5A737A4B1B78DAB2734B9A73784B1B78DAB2714BDA73774B1B78DAB26E4B1A74754B1B78DAB26C4BBB
:406540005A74744B1B78DAB2694B9A74724B1B78DAB2674BDA74714B1B78DAB2644B1A756F4B1B78DAB2624B5A756E4B1B78DAB25F4B9A756C4B1B78DAB25D4BDA756B4B4F
:406580001B78DAB25A4B1A76694B1B78DAB2584B5A76684B1B78DAB2554B9A76664B1B78DAB2534BDA76654B1B78DAB2504B1A77634B1B78DAB24E4B5A77624B1B78DAB203
:4065C0004B4B9A77604B1B78DAB2494BDA775F4B1B78DAB2464B83F820205D4B1B78DAB2434B83F821205B4B1B78DAB2404B83F82220594B1B78DAB23D4B83F82320574B67
:406600001B78DAB23A4B83F82420384B00221A70384B00221A70384B00221A70374B00221A70374B00221A70364B00221A70364B00221A70354B00221A70354B00221A705C
:40664000344B00221A70344B00221A70334B00221A70334B00221A70324B00221A70324B00221A70314B00221A70314B00221A70304B00221A70304B00221A702F4B0022E4
:406680001A702F4B00221A702E4B00221A702E4B00221A702D4B00221A702D4B00221A702C4B00221A702C4B00221A702B4B00221A702B4B1B78DBB203F00803002B0CD095
:4066C0000B4B012283F82E20254A254B1B78DBB223F00803DBB2137003E0054B002283F82E20BD465DF8047B704700BF005A0040F4E2FF1F025A0040035A0040045A00405B
:40670000065A0040085A00400A5A0040105A0040125A0040135A0040145A0040165A0040185A00401A5A0040205A0040225A0040235A0040245A0040265A0040285A004039
:406740002A5A0040305A0040325A0040335A0040345A0040365A0040385A00403A5A00402243004080B400AF424B434A527A1A70424B414A927A1A70414B3F4AD27A1A701D
:40678000404B3D4A127B1A703F4B3B4A527B1A703E4B394A927B1A703D4B374AD27B1A703C4B354A127C1A703B4B334A527C1A703A4B314A927C1A70394B2F4AD27C1A70E1
:4067C000384B2D4A127D1A70374B2B4A527D1A70364B294A927D1A70354B274AD27D1A70344B254A127E1A70334B234A527E1A70324B214A927E1A70314B1F4AD27E1A7051
:40680000304B1D4A127F1A702F4B1B4A527F1A702E4B194A927F1A702D4B174AD27F1A702C4B154A92F820201A702B4B124A92F821201A70294B104A92F822201A70284B0E
:406840000D4A92F823201A70264B0B4A92F824201A70094B93F82E30012B07D1224A224B1B78DBB243F00803DBB21370BD465DF8047B7047005A0040F4E2FF1F025A00400C
:40688000035A0040045A0040065A0040085A00400A5A0040105A0040125A0040135A0040145A0040165A0040185A00401A5A0040205A0040225A0040235A0040245A0040FF
:4068C000265A0040285A00402A5A0040305A0040325A0040335A0040345A0040365A0040385A00403A5A00402243004080B500AF2820FFF78BF9032000F0C8F90520FFF771
:4069000085F9032000F0C2F90F20FFF77FF9032000F0BCF90120FFF779F9022000F0B6F90520FFF773F9062000F09EF80E2000F09BF82C2000F098F8082000F095F80120E6
:4069400000F092F80C2000F08FF8032000F08CF80520FFF75BF980BD80B500AF0C2000F083F8024B01221A7080BD00BF38E3FF1F80B500AF054B1B78002B04D1FFF7B6FF9B
:40698000024B01221A70FFF7E7FF80BD39E3FF1F80B582B000AF03460A46FB711346BB71FB79032B26D801A252F823F0BD690000CB690000D9690000E7690000BB79803B6F
:4069C000DBB2184600F050F815E0BB79403BDBB2184600F049F80EE0BB796C3BDBB2184600F042F807E0BB792C3BDBB2184600F03BF800E000BF0837BD4680BD80B584B0BF
:406A000000AF78600123FB737B681B78BB730BE0BB7B184600F00EF8FB7B7A6813441B78BB73FB7B0133FB73BB7B002BF0D11037BD4680BD80B584B000AF0346FB7100F036
:406A40002DF8FB791B09FB73FB7B184600F0E2F8FB7903F00F03FB73FB7B184600F0DAF81037BD4680BD00BF80B584B000AF0346FB7100F013F8FB791B09FB73FB7B1846E8
:406A800000F004F9FB7903F00F03FB73FB7B184600F0FCF81037BD4680BD00BF80B582B000AF4FF4CA737B60554A554B1B78DBB223F07F03DBB21370524B1B78DBB223F0BF
:406AC0000F03FB704F4AFB7843F00F03DBB213704D4B1B78DBB223F00F03FB704A4AFB7813704A4B1B78DBB223F00F03FB70474AFB781370424A424B1B78DBB223F02003AB
:406B0000DBB213703E4A3E4B1B78DBB243F04003DBB213700020FFF79BF8394A384B1B78DBB243F01003DBB213700120FFF790F8374B1B78FB70324A314B1B78DBB223F01F
:406B40001003DBB213700020FFF782F8FB7803F00803FB702A4A2A4B1B78DBB243F01003DBB213700120FFF773F8254A244B1B78DBB223F01003DBB21370FB78002B02D100
:406B80000A20FFF765F87B68013B7B60FB78002B02D07B68002BBDD1194A194B1B78DBB223F04003DBB21370154A154B1B78DBB223F07F03DBB21370124A124B1B78DBB2A8
:406BC00023F00F03DBB213700F4B1B78DBB223F00F03FB700C4AFB7843F00F03DBB213700A4B1B78DBB223F00F03FB70074AFB7843F00F03DBB213700837BD4680BD00BFDC
:406C0000205100402251004023510040245100402151004080B582B000AF0346FB711A4A194B1B78DBB243F02003DBB21370164A154B1B78DBB223F04003DBB21370002056
:406C4000FFF706F8104A104B1B78DBB223F00F03DBB213700C490C4B1B78DAB2FB791343DBB243F01003DBB20B700120FEF7F0FF054A054B1B78DBB223F01003DBB21370AC
:406C80000837BD4680BD00BF2051004080B582B000AF0346FB71144A134B1B78DBB223F06003DBB21370104A0F4B1B78DBB223F00F03DBB213700C490B4B1B78DAB2FB7971
:406CC0001343DBB243F01003DBB20B700120FEF7BFFF054A044B1B78DBB223F01003DBB213700837BD4680BD2051004080B586B000AF78600A23FB75FB7D07F118021344FB
:406D0000002203F8102CFB7D013BFB751CE079681E4BA3FB0123DA0813469B0013445B00CA1AD3B23033BB75FB7D07F118021344BA7D03F8102C7B68144AA2FB0323DB0814
:406D40007B60FB7D013BFB757B68092BDFD879680E4BA3FB0123DA0813469B0013445B00CA1AD3B23033BB75FB7D07F118021344BA7D03F8102CFB7D07F108021344184648
:406D8000FFF73CFE1837BD4680BD00BFCDCCCCCC80B500AF054B1B78002B04D100F008F8024B01221A7000F025F880BD3AE3FF1F80B500AF102000F04BFA02200721FEF766
:406DC00081FF02200849FEF755FF084A074B1B78DBB243F00603DBB213700C2000F084F8034B00221A8080BD5D700000095900406828002080B582B000AF00F0F5FC034609
:406E0000FB712E4A2D4B1B78DBB243F00203DBB213702B4A2A4B1B78DBB243F00203DBB21370284A274B1B78DBB243F00103DBB21370254A244B1B78DBB243F00103DBB22F
:406E40001370224B1B78BB71BB7943F00203BB71BB7943F00103BB711C4ABB7913701C4B18221A701B4A1B4B1B78DBB243F04003DBB21370174A174B1B78DBB223F003037F
:406E8000DBB21370144BC8221A70144B02221A70134A134B1B78DBB243F00803DBB213700A20FEF7D5FE0F4B04221A60FB79184600F09EFC0837BD4680BD00BFAB43004005
:406EC000BB430040A2430040B24300400B5900400E5900400D59004008590040164600402F5B004080E200E080B584B000AF0346FB71FB790A2B07D00C2B02D0082B06D061
:406F000008E0C223FB730BE08223FB7308E04223FB7305E0C223FB730020FEF76BFE00BF044AFB7B1370FB79184600F04FF81037BD4680BD0A59004080B400AF054A054BEC
:406F40001B78DBB243F00103DBB21370BD465DF8047B70470859004080B584B000AF0346FB710C4B1B78DBB203F00103FB73FB7B012B02D0FB79002BF3D0FB7B012B04D185
:406F80000120FEF765FE034B1B78FB7B18461037BD4680BD0959004080B483B000AF094B1B88FB80084B1B889BB29BB2FA88D31A9BB29BB21BB218460C37BD465DF8047B14
:406FC000704700BFA25B00406228002080B584B000AF0346FB71FB790A2B0BD00C2B02D0082B0ED013E04FF48053FB604FF400637B8114E04FF48063FB604FF400737B819C
:407000000DE04FF48073FB6080237B8107E00023FB6000237B810020FEF7ECFD00BF0C4B00221A80FB6842F2107202FB03F303F58063002B01DA03F2FF73DB121A46054BEE
:407040001A607A89044B1A801037BD4680BD00BF60280020642800206228002080B400AFBD465DF8047B704780B582B000AF43F6972000F05BF843F6972000F073F800F071
:40708000B3FB0346FB710A4A094B1B78DBB243F01003DBB21370FB79184600F0A9FB00F06FF8012000F026F80837BD4680BD00BF9A64004080B400AF054A054B1B78DBB245
:4070C00063F07F03DBB21370BD465DF8047B70477964004080B500AF054B1B78002B04D1FFF7C2FF024B01221A70FFF7E3FF80BD3BE3FF1F80B483B000AF0346FB71044A1E
:40710000FB7913700C37BD465DF8047B704700BF8A64004080B400AF034B1B78DBB21846BD465DF8047B70476A64004080B582B000AF78600348796800F038FF0837BD46CC
:4071400080BD00BF2864004080B400AF044B1B6823F07F431846BD465DF8047B704700BF4864004080B582B000AF78600348796800F01CFF0837BD4680BD00BF0864004017
:4071800080B500AF01E0FFF7DFFFFFF7C3FF034603F00803002BF6D180BD00BF80B582B000AF786000F03CF8786800F009F8072000F018F800F028F80837BD4680BD00BFF1
:4071C00080B485B000AF7860054B1B68FB60FB6868337A681A601437BD465DF8047B704708ED00E080B483B000AF0346FB71054AFB795B01DBB213700C37BD465DF8047B55
:40720000704700BF0AE400E080B400AF034B4FF480621A60BD465DF8047B704700E100E080B400AF034B4FF480621A60BD465DF8047B704780E100E080B400AF034B4FF4D8
