:400000000080002011000000DD160000DD160000034A08B51268034B1A6001F061FB00BFFA460040BC76004010B5054C237833B9044B13B10448AFF300800123237010BD3D
:400040008882FF1F00000000E8770000084B10B51BB108480849AFF300800848036803B910BD074B002BFBD0BDE81040184700BF00000000E87700008C82FF1F0881FF1F81
:400080000000000070B52A4B1B7803F001FC002003F008FC03F004FC002003F00FFC86B2012003F00BFC85B2022003F007FC84B2032003F003FC1F4B80B21A88A2F10A0132
:4000C0008E422EDB0A3296422BDC9A88A2F10A018D4217DB0A32954214DCDA88511E8C4219DB0132944216DC13490A88541EA04202DB0132904204DD9A78088042F008021F
:400100009A7070BD9A789D8042F002029A70DA88511E8C42E5DA9A78DC8042F004029A70E2E79A781E8042F001029A70CDE700BF69640040A482FF1F0C81FF1F10B51B4BB9
:4001400000201B7803F0AAFA38B1194C237AE218127B1AB183F00103237210BD03F0B2FA144A23691080A28A9842C8BF2061FF2A0F4B08D8197A104C02EB012101329A8248
:4001800024F8110010BD19691A7A6D2903EB020482F001024FF00001D4BF002001201A72207699821961997610BD00BF67650040A482FF1F1C8BFF1F348FFF1F2DE9F04F7F
:4001C00083B062B6C44802F053FEC44802F068FE02F0D8FE03F02EF903F0B0FA03F0ACFB03F046FA03F052FA03F03EFB03F050FB03F0BEFC01F014F9B94800F0FFFC022152
:40020000002001F079FD012003F08AF80020014603F0A8F8B34803F075F80021012003F0A1F8B14803F06EF84FF47A7002F0D4FDDFF8E8B20320002103F094F8AB4803F022
:4002400061F85F46AA4CDFF8D8A2DFF8CC92A94D9BF8023053B16268A54E5ABBD90730D49A073CD45E0747D418076DD49BF8083083F001030BEB0302127E18468BF81C3004
:40028000002A40F082808023E168184600222B706970AA7003F088FC687803F085FCA87803F082FC9BF80230002BDFD06268904E002AD3D001F0B2F9BB780022D9077260D5
:4002C000CED503F00E03BBF800008BF8023001F081F99BF802308BF81B009A07C2D503F00D03BBF804008BF8023001F01FF99BF8023020725E07B7D503F00B030B210220DA
:400300008BF8023003F02EF87B4802F0FBFF0B21022003F027F8794802F0F4FF65230021FF220093BBF80600322301F0F1F880B2642828BF642003F08DF8714802F0E2FFC8
:400340009BF80230180791D503F00703002102208BF8023003F006F8674802F0D3FF0021022002F0FFFF674802F0CCFF00216523009320880B46FF2201F0CAF880B2642874
:4003800028BF642003F066F870E7BE7E002E7FF45FAF6368DFF85881002B38D10BEB000201230AEB402013738BF81A3001F042F89BF81C3000225B4453491A738046C9F851
:4003C0000000E66807F082F820B140464F4907F09BF810BB0020014602F0C4FF4C4802F091FF0020014602F0BDFFD9F8000007F0BBF880B203F02EF8464802F083FF9BF858
:400400001C305B441B7E002B7FF422AF3BE701F005F9387FC8F80460C0E7404606F044FAFB88324600932E4B00F036FC002849D1E3689E42CED0711CCCD05A1C0DD080222A
:40044000104600216B702A70A97003F0ADFB687803F0AAFBA87803F0A7FB9023228818462B70AA706E7003F09FFB687803F09CFBA87803F099FB00200146E66002F072FFB3
:40048000234802F03FFF0020014602F06BFFD9F8000007F069F880B202F0DCFF1D4802F031FF0021012002F05DFF194802F02AFF0021012002F056FF687800F04FFC02F08D
:4004C00021FF9CE7144B06481968094BFA7E1B7A00F00CFD0646ABE73D01000085000000308BFF1FF077000004780000147800000C81FF1F188BFF1F287800003478000030
:400500003C78000040780000000016440000A042487800004C780000308FFF1FA482FF1F348FFF1F70B5064608460C4607F072F8054618B13146224607F07CF8284670BD22
:40054000002A31DB2DE9F84F5FEA520A29D0834610460D4606F086F906460F46ABF1040B043D0024204606F08DF911A3D3E9002306F0EEF932463B4606F014FB80468946CD
:4005800003F082FB06F0A6FC49464BF8040F404603F012FC06F09EFC0134544545F8040FE0D10120BDE8F88F00207047AFF30080182D4454FB2119402DE9F04F91B01A9D83
:4005C0009946012D0ED92C4600236408012C03F10103FAD19C40AC420A9406D0002011B0BDE8F08FFAD10A95002380468C46DDF828A04FF0000EEBB10024264675460134A8
:4006000005F001079C4247EA46064FEA5505F6D1B6450FD2D8F8004050F82650C8F8005040F82640DCF8004051F82650CCF8005041F826400EF1010EF24508F104080CF1E3
:40064000040CD8D80A9B012B00F08B800223CDF8189005920F910E900993099B00215A080B9292000D920A9A089107911146B1FBF3F29B0004920C93079B0B9A9A1810461A
:40068000834203921A4658D2089B0D990E980F9C5F1800EB0708C618E518274400230292059AD8F8004052F823C0069A6146204652F823B00093CDF804C006F069FDD7F861
:4006C00000A081465946504606F062FD0146484606F056FC04F100418146584606F058FDDDF804C004465146604606F051FD0146204606F045FC49460446306806F03EFC1D
:4007000048F8040B2868214606F038FC47F8040B3068494606F034FC46F8040B2146286806F02EFC049B029A1946009B01320B44039945F8040B9142B1D1079B099A0C996C
:400740001344089A07930A4408920A9A9A4293D80A99099A914204D0530099420993BFF47CAF012011B0BDE8F08F00BF2DE9F04F97B0209D002D15DB6C0004F1010C002CA9
:4007800000F04E814FF01F0E012402E0BEF1010E0CD06400A445F9D8B5F1804F02D2B4F1804F07D3002017B0BDE8F08F704617B0BDE8F08F4FEA84080F460646042120461B
:4007C0000B9391460F9206F0EFFE04210E90204606F0EAFE04211090204606F0E5FE04210C90204606F0E0FE0D90404606F012FF1190404606F00EFF4B461290002B00F058
:40080000F2800B9B002B00F0EE800E99002900F0EA801098002800F0E6800C9A002A00F0E2800D9A002A00F0DE80119A002A00F0DA80129A002A00F0D680002D00F0BC80F2
:40084000321FA3F1040C2095924665463E1F159607960F9E1492043E0896A1F1040B031F002713940A93089B5AF8044F53F8048F20460893079B414653F8046F55F8049F47
:40088000079306F085FC49460990304606F080FC099A0146104606F073FB04F100414BF8040F484606F074FC31460446404606F06FFC0146204606F063FB209A01370A9BB3
:4008C000974243F8040FCDD115460F9B0C991A680B9B0A601B680D9A012D139C13601AD00D9A0C9B1746A000DDF83C80DDF82CE01E189C461044012358F8041F5EF8042F4A
:400900000133AB4246F8041D40F8042D4CF8041F47F8042FF0D1119B04940093129B0E9801930F9B109902930B9B0C9A03930D9B00F0A2F8002856D0119B20951A1F129BE5
:40094000DDF85090A3F1040C6546DDF854B00F9F0B9E4FF0000A52F8044F396820460892079206F015FC55F8048F31680790404606F00EFC079B0146184606F001FB04F158
:40098000004449F8040F56F8041B204606F000FC57F8041B0446404606F0FAFB0146204606F0EEFA209B0AF1010A9A454BF8040F089AD0D1012417E00F9A0B99119B15685B
:4009C0000E680D9F00930494129B0C9C0193029203910E98109922463B4625603E6000F04BF80028E6D10024129806F01BFE119806F018FE0D9806F015FE0C9806F012FE42
:400A0000109806F00FFE0E9806F00CFE0B9806F009FE0F9806F006FE204617B0BDE8F08FB5F1804FBFF4BEAE64464FF00408C3E630B4029C651E254203D0029430BCFFF7EA
:400A400095BE30BCFFF7B8BD10B4019C1CB15DF8044BFFF7EDBF01205DF8044B704700BF30B4029C14B930BC0120704705460846294630BCFFF7DCBF2DE9F04F8BB00E46A1
:400A8000189917468C0021469846FFF74BFD214605463046FFF746FD214606463846FFF741FD214607464046FFF73CFD80465DB156B14FB140B1189B284600933146169A43
:400AC000179BFFF7C1FF80B90024404606F0AAFD384606F0A7FD304606F0A4FD284606F0A1FD20460BB0BDE8F08F189B384600934146169A179BFFF7A7FF0028E4D0189BCA
:400B0000002B70D00594B2462C463B1F0493A8F1040303934FF00009069507960897CDF82480049BDAF800B053F8047F59460493039B384653F8045F2668039306F028FB6C
:400B400029468046304606F023FB0146404606F017FA39464AF8040B304606F019FB29460646584606F014FB0146304606F006FA189B09F10109994544F8040BD1D105AC4E
:400B8000F0CC169ACDF8009028463146179BDDF82480FFF765FF002896D0484606F0A0FA2B4614992A19A1F104091599A6F1040A0C1F039504962546834614461E4656F86E
:400BC000040B594606F098FB49F8040F5AF8040F594606F091FBA64245F8040FEFD1039D049E012471E7189B284600933146169A179BFFF735FF0028F3D165E770B56FF0BA
:400C00000705441900F57E76284605F03BFE00220A4B05F0C7FF02460B4600204FF0804103F094F90022064B05F092FEE4E90201B44205F10105E7D170BD00BF0000284095
:400C400000002A400000000008B500220E4B05F0A9FF03F0FBF800220C4B05F079FE08A3D3E9002305F09EFF0022094B05F0BEFC03F052F806F006F908BD00BFAFF3008051
:400C8000EF39FAFE422EE63F00807B400000284000405140AFF30080002A2DE9F84F06460F461D4654DD7E2AA8BF7E22541CE400A4F1080BA4F1100A0A9805F0E3FDAB446D
:400CC0002A1905EB0A0E8046DBE90045DEE900AB8946D2E900012B46224605F085FC02460B464046494605F033FE02460B462046294605F07BFC06F0EDF805F0D5FD3246C6
:400D00003B4606F097F800BB52465B462046294605F06AFC02460B464046494605F018FE02460B462046294605F05EFC06F0D2F805F0BAFD02460B463046394606F07AF8B1
:400D4000003018BF0120BDE8F88F0120BDE8F88F4FF0000A4FF0080B1024ADE7554A10B482FB0041C317C3EB610303EB4303B0EB830F00F08680411E82FB0134CB17C3EB6A
:400D8000640303EB4303B1EB830F76D0811E82FB0134CB17C3EB640303EB4303B1EB830F75D0C11E82FB0134CB17C3EB640303EB4303B1EB830F68D0011F82FB0134CB175F
:400DC000C3EB640303EB4303B1EB830F63D0411F82FB0134CB17C3EB640303EB4303B1EB830F5CD0811F82FB0134CB17C3EB640303EB4303B1EB830F4FD0C11F82FB013456
:400E0000CB17C3EB640303EB4303B1EB830F48D0A0F1080182FB0134CB17C3EB640303EB4303B1EB830F3ED0A0F1090182FB0132CB17C3EB620202EB4202B1EB820F34D0ED
:400E40001C49A0F10A0281FB0234D317C3EB640303EB4303B2EB830F29D00B3881FB0031C317C3EB610303EB43021349134BB0EB820F0CBF1846084600E011485DF8044B1A
:400E8000704710485DF8044B70470F48F6E70F485DF8044B70470E48F0E70E48EEE70E48ECE70E48EAE70E48E8E70E48E6E70E48E4E700BFABAAAA2A807800007C780000FD
:400EC00054780000507800005C780000587800006078000068780000647800006C7800007078000074780000787800007E2A00F20B822DE9F04F064685B00846D500984680
:400F0000144605F0D1FC7719D7E9002382468B4605F090FF002834D1B8F1060F00F04C81B8F1000F32D1312C2BD8AC4B04F1180253F824500293154406EBC503D3E9008991
:400F400000925046594642464B4605F073FF002840F08A80029B03EB84070FE0009B57F8045F50461D4406EBC503D3E90089594642464B4605F05EFF002875D10134322C76
:400F8000ECD14FF0FF3005B0BDE8F08FB8F1010F00F0E280B8F1020F00F01781B8F1030F00F08680B8F1040F00F08781B8F1050FE7D1D7E9008904F10C0506EBC505029664
:400FC00044E07E2CDDDC55E912895046594642464B4605F02FFF002840F0CE8155E90E895046594642464B4605F024FF002840F0BD8155E90C895046594642464B4605F092
:4010000019FF002840F0C78155E90A895046594642464B4605F00EFF002840F0B48155E904895046594642464B4605F003FF0C34002840F0C181F5E8188950465946424625
:401040004B4605F0F7FE002840F0B4814B4642465046594605F00CFFE31C0093671D04F10A060028ADD18CE7029B013C53F82430009A40461A4417465B465246494605F0D5
:40108000B3FA06EBC706D6E90023804689465046594605F0A9FA02460B464046494605F0E7FE002814BF3846284605B0BDE8F08F04F10C0506EBC505D7E9008903963BE07B
:4010C0007E2C04F10C043FF75CAF55E912895046594642464B4605F0ADFE002840F0898155E90E895046594642464B4605F0A2FE002840F00C8155E90A89504659464246AC
:401100004B4605F097FE002840F0818155E904895046594642464B4605F08CFE002840F06F81F5E818895046594642464B4605F081FE002840F072814B4642465046594681
:4011400005F096FEE31C029304F10A03671DE61D00930028B4D114E7312C3FF612AF1F4BA70002933B445D6F04F118031D44009306EBC503D3E900895046594642464B46FA
:4011800005F058FE002876D1029B74331F440FE0009B57F8045F50461D4406EBC503D3E90089594642464B4605F044FE002862D10134322CECD1E4E659465046FFF744FDCD
:4011C00005F092FF06F0AAF9DDE604F10C0506EBC505D7E9008903963DE000BF1C81FF1F7E2C04F10C043FF7CCAE55E914895046594642464B4605F01DFE002840F0D38090
:4012000055E910895046594642464B4605F012FE00287CD155E90A895046594642464B4605F008FE002840F0CE8055E906895046594642464B4605F0FDFD002840F0CA80A3
:40124000F5E818895046594642464B4605F0F2FD002840F0C6804B4642465046594605F007FEA31C029304F10903271DE61D00930028B5D185E6029B009A03EB8404236F51
:4012800040461A4490465B465246494605F0ACF906EBC806CDE90001D6E900235046594605F0A2F902460B46DDE9000105F0E0FD002814BF4046284665E6D7E90023B846A8
:4012C000C4EB4477FF00B94600961F4616460DE07E2C04F102043FF754AED3E900675046594632463B4605F0A5FDA8BB3B4632465046594605F0BCFD08F1100809EB08032E
:401300002B440028E4D13CE64FF0FF307047039E06EBC70656E9044522462B465046594605F062F905F0D6FD524606465B464046494605F059F905F0CDFD0146304606F0BA
:40134000C5F820B12046294605F09CFD1BE64046494605F097FD16E6B946B046009E06EBC404A4F11005D5E90045D5E7029E06EBC70656E90445CFE7029E009B06EBC3069B
:4013800056E90645C8E7029E06EBC40404F13005D5E90045C0E7029E06EBC40404F12805D5E90045B8E7039E029B06EBC30656E90445B1E7029ED2E73346029E06EBC30666
:4013C00056E90645A8E73346039E06EBC30656E90645A1E7039E009B06EBC30656E904459AE7039E06EBC404A4F11805D5E9004592E7039E029B06EBC30656E906458BE773
:40140000039E009B06EBC30656E9064584E73346039E06EBC30656E904457DE7039E9EE703484FF4807200F58061FFF789B800BFE482FF1F2DE9F043ADF60C0D0746002198
:401440000DF581604FF4806201AC06F0FEF82646BD1E07F5FF7735F9020F05F045FE294905F04AFFBD4246F8040FF4D1264A4FF48071009102F5806302A80DF581610DF23A
:401480000445FFF7E1FAA9464FF0000854F8040F55F8047F014605F07BFE39460646384605F076FE0146304605F06AFD4C45C5F800802060EAD1144A4FF48074009402A851
:4014C0000DF5816102F58063FFF7CAFA002707AE06244FF0000856F8045F3946284606F013F808B12F46A0460134322CF3D1404605F0FAFD0146054805F0FEFE0DF60C0D0A
:40150000BDE8F0830000C842E482FF1F00007A4510B4019C401AE41A04FB00F0521A90FBF2F05DF8044B1844704700BF10B504460E21002001F016FF1D4801F0E3FE002094
:401540000E2101F00FFF1B4B04EB840083FB0023C4171844C4EBE010C4B2062C08D8DFE804F0090E13181D220400134801F0CAFE204610BD114801F0C5FE204610BD104846
:4015800001F0C0FE204610BD0E4801F0BBFE204610BD0D4801F0B6FE204610BD0B4801F0B1FE204610BD0A4801F0ACFE204610BD2C78000081808080B478000084780000D6
:4015C0008C780000947800009C780000A4780000AC78000000EB80020E4B00EB420083FB002310B503440B21C4170020C4EBE31401F0B8FE084801F085FEE4B20B210020CD
:4016000001F0B0FE2046FFF7A9FB01F07BFE204610BD00BF818080803078000070B5012001F07EFE002002F049F980B2FFF7D2FF012002F043F9244E80B2FFF777FF0B217B
:40164000022001F08FFE304601F05CFE0B21022001F088FE1D4801F055FE022002F02EF9652404FB00F01A4DC31785FB00121044C3EBE01080B2642828BF642001F0EAFE21
:40168000144801F03FFE0021022001F06BFE304601F038FE0021022001F064FE0E4801F031FE022002F00AF904FB00F085FB0035C3172844C3EBE01080B2642828BF642092
:4016C000BDE8704001F0C6BE2878000034780000818080803C78000040780000FEE700BF154B80B503F1FF3E03B3144F002657F8085C57F8104C57F80C3C3DB1224652F829
:40170000040B111B8D4243F8040BF8D157F8040C1A4620B142F8046BD11A8842FAD10EF1FF3EBEF1FF3F07F11007E0D105F04CFFFEF744FDFEE700BF01000000587D0000FA
:4017400008B5124A124B13491A600B68124A43F4007312480B600023032B94BF50F823100F490133302B42F8041FF5D10D4B0E4A18780E490E4B08701A6000F01DF801F0DE
:401780003DFA0C4B00221A6008BD00BF0004FA050CED00E014ED00E0FC7FFF1F00000000DD160000BC7600400080FF1F0481FF1F08ED00E00081FF1F2DE9F84F72B640F650
:4017C000191641F25121A54CA54F4FF0610B84F800B0A44AA4484FF03A0BA7F800B0DFF800C3DFF800E31827DFF8FCA2DFF8FC92DFF8FC824FF0170B17701923A0F800B07E
:40180000A4F5A0645F22062798488AF80030A9F8002088F80030ACF800208EF8003027701D460378924A9348DBB24FF0520C84F8A133914F8EF872C100240680118001E085
:40184000032C0CD03B78782003F0010343EA440402F0B6F9013D04F00304F1D1FEE7874E874A35468748DFF88C92DFF88CC2DFF88CE20023022784494FF4807B4FF0070A2F
:401880004FF04808A2F800B082F800A089F800308CF8008013708EF8003007701C460B78012743F00F030B7080F8FF7792F8E43643F0040382F8E43604EB4403AA8856F8ED
:4018C00013000134002105F0C0FE082C05F10605F2D16E4A6E496F4B03C982E803006E4C0FCB84E80F006D4E6D4F002556F8043F13F0FF0E23F0FF0413D005F110530EF1D5
:40190000FF3E03F155005FFA8EFE7044543340005B001A785978023383421155F9D101357544BE42E2D15F495F4A0B785F4C43F002030B7013785E4843F00203137023787E
:401940005C4A43F0400323700178D2F800E05A4F5A4D41F010010026594B0170343AC7F800E02E6007CA03C3A5F5105555491A80103D07C903C5544B2A8003CB1A4646F6C7
:401980000613524E45F8E60C45F8E21C03CAC83D3060716007CA03C54D492A800A784D4842F008020A70A7F53C570278103FDFF850813D78484898F8006001F5AA51D2B2E1
:4019C0000D3102F0070EEDB2120980F800E0F6B20A70DFF830B145F003023A70DFF828A1DFF8289146F0030288F80020DFF820C1ABF8003040238AF80030DFF818E189F8D6
:401A000000304FF080098CF80090344A4FF0420C4FF009098EF800C080F8B2924FF0040E4FF0210C4FF0440981F8B4C20A2082F800E08BF8003A8AF8579201F0F1F994E801
:401A40000F00DFF8D4E0103488F800603D708EF8009007C42380BDE8F88F00BF004800408040004082400040844000400F010049204200402242004025420040D078000070
:401A80000440004001400040A2430040005101409C0E0048A40E004800500140FCFFFF47A40000480350014013500140A0430040C2430040E80E004808760040007600406E
:401AC000C0510040C00E0048CC0E00482251004022430040CF0100496E580040285B00408C4000408E40004086400040884000408A4000400640004008400040094000405A
:401B0000F94600402C510040015900400359004009590040005B004076580040F8B502F057F83A4A3A491378054643F0010313700B78384C38480127022602F5E35243F02D
:401B400001030B700B32277006701378A4F5E85403F07F03093C1370002001F061F923782E4A03F0F90323701378384603F0DF03137023783B43237001F052F9282001F07D
:401B80004FF9274B30461A7802F07F021A701A7802F0BF021A7023783343237001F040F923782049204E43F0040300222370284632700A7002F010F81C49172001F038F926
:401BC0001720072101F044F91949152001F030F91520072101F03CF91649182001F028F91820072101F034F91349072001F020F90720014601F02CF91049082001F018F969
:401C0000BDE8F8400820072101F022B9A5430040B54300409D6000400960004012600040F85100408560004084600040412200003D22000049210000D52100000922000094
:401C4000204B214A2DE9F0474FF4000E4FF0807780264FF480750024C3F800E01F601E601D60147049B3194B03221A70184ADFF874C0DFF874E0DFF874A0DFF87490DFF8DB
:401C80007480144F144E154C0023802103258AF8000089F80030012088F800308CF800308EF800303B7033702570117001F088FF0B4B04221A70BDE8F087044B02221A70B5
:401CC000D4E700BF00E100E03493FF1F09600040086000405D93FF1F3693FF1F28600040126000404293FF1F4093FF1F3F93FF1F4893FF1F3593FF1F10B5084C82B023786B
:401D00003BB98DE80300FFF709FF9DE803000123237002B0BDE81040FFF792BFE48AFF1F2DE9F043DFF850C0DFF85090DFF85080DFF850E00B4F0C4E0C4D0D480D4A00230F
:401D40000324802189F8003088F800308CF800308EF800303B7033702B7004701170BDE8F08300BF4093FF1F5D93FF1F3693FF1F28600040086000403593FF1F3493FF1FFA
:401D80004893FF1F4293FF1F08B5194B1A78D2B21A701B78DBB21A0627D4164B9A6842B199680220144A087099681088002248809A60124B1B7803F06003202B10D0402B93
:401DC00004D043B10E4B03221A7008BD00F0FCFE0028F7D008BD00F045FD0028FAD1F1E701F0FEFE0028F5D1ECE7054A137008BD286000405093FF1F4693FF1F006000400E
:401E00003E93FF1FF0B42049204C214A20780B8803449BB20B801588ADB23DB31D4B1E4851680978C9B203F8011B5168DDB2013151601188013989B21180118889B299B117
:401E40008342EDD123780825144A154E1378154983F080031370144B0F2702203770087025701D70F0BC70472378EDE72378082BEAD00B490B4A02230B7013700A4B2570EC
:401E80001D70F0BC704700BF4693FF1F3693FF1F5093FF1F00600040086000404193FF1F3E93FF1F3493FF1F5C93FF1F194AF8B513889BB2EBB11849184C19480023022575
:401EC000257003700B80916819B191680B7091684B801449144B09781B78128843EA012392B20C49934238BF0B80FFF78BFF0120F8BD0A4F0A4D0D480D490E4A4FF0020E51
:401F000080260F2487F800E02E7004700B7013700120F8BD5093FF1F4693FF1F3493FF1F4193FF1F07600040066000403E93FF1F3693FF1F5C93FF1F10B40D4B0D491A7880
:401F40000B880D4C13449BB200200C4A0B802070936833B1936801241C709368098859809060074B03221A705DF8044B704700BF3693FF1F4693FF1F3493FF1F5093FF1F81
:401F80003E93FF1F10B41C4B1C481978028801F00F010239C9B20A4492B2194B02801A8892B2CAB1002009B923E011B300F1804202F5C0425C6812780139D2B222705A6843
:401FC000C9B201325A601A880130013A92B21A801A8892B2002AE8D10A4B0B4A197013780A4983F080030B20137008705DF8044B70470021F0E700BF296000404693FF1FC5
:402000005093FF1F5C93FF1F4193FF1F3E93FF1F0E4B1B78DBB2042B16D0062B04D0022B00D07047FFF788BF094B9A6842B199680320084A087099681088002248809A6079
:40204000054B03221A707047FFF79CBF3493FF1F5093FF1F4693FF1F3E93FF1F70B40748074E084C084A0623802500210370337025701170012070BC704700BF3493FF1F5C
:402080003E93FF1F4193FF1F5C93FF1F114B1A7832B11A78104842F080020021027019700E4900220E4B0A70996871B1996810B40C4801240C709968008848809A600A4BDE
:4020C00003221A705DF8044B7047074B03221A70704700BF4093FF1F086000403493FF1F5093FF1F4693FF1F3E93FF1F124A1378DBB2042B07D0062B03D0022B16D1FFF772
:4021000081BEFFF7C3BF00210C4B11709A6872B19A6810B40A48012414709A68008850809960084B03221A705DF8044B7047054B03221A70704700BF3493FF1F5093FF1FFE
:402140004693FF1F3E93FF1F10B51D4B1B78DBB2DC0605D5180604D45A062ED49C060BD410BD03F00F03012BFAD1FFF70DFE15490B78190602D510BDFFF74AFF104A137805
:402180001B06EDD41049114B1B780878104903430B7009789942E3D10A490C460B781078DBB2000605D42378DBB21370137803F00F0308788342F1D110BDFFF797FFDDE7D0
:4021C000286000403E93FF1F5C93FF1F4193FF1F29600040094A0A4B12781A7B02F00302012A03D0DA7B82F08002DA73054A01215973137803F0FE03137070470E6000406A
:402200006093FF1F0B600040094A0A4B12781A7E02F00302012A03D0DA7E82F08002DA76054A01215976137803F0FD03137070471E6000406093FF1F0B600040704700BF9F
:40224000FFF76EBD604B61491B78614A0978013B02EBC1025268DBB2117A994240F29B8002EBC303DB681A7ADB68002A00F0AA802DE9F04F013A5749D2B2023203EBC20298
:4022800083B00C465448DFF86CE108334FF0010A4FF0000902E00833934279D013F8085C4F5D465DB742F6D0665D13F8077CB742F1D19EF80060B542EDD113F806CC13F8B5
:4022C000056C0CF07F077D1E2D011CF0800FEDB206F0030662D1012E4FEA470606EB070C01963E4E08BF4FF0050BB04606EB8C0C18BF4FF0090B8CF801908CF805B0DFF8F6
:40230000F8C0019EAC448CF800A033F804CC374408EB8706A6F808C013F806BCDFF8DCC086F804B013F805BCAC4408F827B086F80390B6F808802A4FC8F307288CF8008023
:40234000B6F808C02F445FFA8CFC87F800C0B6F806C0244F5FFA8CFC2F4487F800C0B6F806C0214FCCF3072C2F4487F800C0B6F806C01E4F5FFA8CFC2F4487F800C0F7885F
:402380001B4E0833C7F307272E449342377085D103B0BDE8F08F00231B7AFFDE012E4FEA470606EB070C01960C4E0CBF4FF007084FF00D0806EB8C0C8CF801A08CF8058013
:4023C000B0469CE7704700BF4893FF1F3F93FF1F507900003C93FF1F4C93FF1F6093FF1F0D60004086600040876000408460004085600040046000400E6000400C60004000
:4024000030B4054684B0114B04AC0FCB04E90F00CDB12A46222103230D4805F1200429706B7010F8013B04ADDBB203F00F01294405EB131311F8101C13F8103C937002F88C
:40244000041FA242EDD104B030BC70470079000000010049F0B5214A214C224E01210C2580274FF0080E27E0007900064CBF157082F800E00B4404EB830318891032C0F377
:40248000072002F8120C18890131C0B202F8110CD888C0B282F86800D888C0F3072082F86900D888C0B282F86600DB88C3F3072382F86730B2420CD04B00581882F87250E3
:4024C00004EB800090F805C0BCF1000FCCD11770D0E7054BFF221A70F0BD00BF0E6000406093FF1F8E6000400A6000400D4B0E491B780E4A0978013B02EBC1025268DBB23D
:40250000117A994209D902EBC303DB683BB15A68127903EBC20358697047002070471846704700BF4893FF1F3F93FF1F5079000000212DE9F84F0B466C4F01EB41040131AF
:4025400007EB8402092907F8243093704FF000045370D370537113819372EED128B1644A644B14701C7054705C70634B1A78002A00F0B68061491B78614A0978013B02EBFE
:40258000C1025268DBB2117A994240F28F8002EBC303D3F80C905B4AD9F8043099F80880DB7908F1FF3E13F0400F13785FFA8EFE14BF43F0010303F0FE030EF1020ED9F863
:4025C0000C10DFF82CC113704FEACE0E01204FF0000BC6B2B8F1000F3CD000EB400507EB850501F1080301EB0E0402E00833A3422ED013F8062C02F07F018142F6D129892A
:4026000033F804AC89B2514538BFA5F808A013F8081C13F807AC1CF801108A45E6D113F8051C120601F0030143D4012985F801B04ED009226A7113F8022C012A4BD013F8C4
:40264000062C08332A7113F80D2CA3422A70D0D1D9F80C1001300928BBD1B8F1000F10D08E4401F1080212F8063C12F8081C03F07F0303EB4303083207EB83037245997216
:40268000F1D1FFF733FF204B01211860002301EB410207EB8202D38012890131134409299BB2F4D1BDE8F84FFFF7D4BE00235B68FFDE012291426A7014D00D226A7113F8A8
:4026C000022C012ABBD10229B9D1104A1670B6E705226A71B3E7022904BF0D4A1670AEE7BDE8F88F07226A71A9E700BF6093FF1F3C93FF1F4C93FF1F4893FF1F3F93FF1F64
:40270000507900005D93FF1F3893FF1FED93FF1FF093FF1F124B1A7802F07F02531EDBB2072B1AD80F4902EB420201EB82029178002041F001019170D07051781B0141F06A
:40274000020151701279DBB212F0800F064A14BF8D2189219954FFF781BC0020704700BF046000406093FF1F0E6000401C4B1B7803F07F03591EC9B2072924D810B4194AA4
:4027800003EB430302EB83039A78174802F0FE02090100249A70C9B2DC700A5C02F07F020A545A7802F0FD025A701A795B7812060BD4012B0D4B0CBF08220922CA545DF8D8
:4027C000044BFFF74BBC00207047012B074B0CBF0C220D22CA545DF8044BFFF73FBC00BF046000406093FF1F0C6000400E600040154A164B1648127816491B780078013B41
:4028000001EBC0014968DBB2087AD2B298420AD901EBC303DB685B681B79934201D9012A04D90020704700235B68FFDE10B40A490A4C8B5C0A48DBB2A35403780120DBB2FA
:402840008B545DF8044B7047046000404893FF1F3F93FF1F507900003C93FF1F4C93FF1F0260004038B5A24C0022A24B22801B7813F0800FA04B1B7811D1013B0A2B0CD8D6
:40288000DFE803F0420B600B570B0B0B750B28009A4B1A78012A40F20481002038BD0A2BFBD801A252F823F0392A00009B2800009B2800009B2800009B2800009B280000DE
:4028C000CD2900009B280000732A00009B280000B7290000FFF78CFF0028DED0874B88481C78884AE4B20121874B047011701B78002B40F0C680854B854A1B5DDBB21355C1
:40290000BDE83840FFF7AABB7A4B1B7803F00303012BBDD0C0F01681022BBED103F1804303F5C0431B78002BB7D1BDE83840FFF71DBF784B784A1B78DBB21370BDE83840E6
:40294000FFF78CBB6B4B1B7803F00303012B9FD0C0F0BF80022BA0D103F1804303F5C0431B78002B99D1BDE83840FFF7D3BE694B1B7803F0FF027BB1684B69491878531E65
:4029800001EBC0014968DBB2087A984285D901EBC303DB68002B80D05B4B19788A4206D00121584C08461A702170FFF7C1FDBDE83840FFF753BB0122504B22801B78534A95
:4029C00013446360BDE83840FFF770BA554B1A78012A70D01A78022A00F0C6801B78032B40F0BE804B4D504A2B7863B1137853B1002301E0117831B1107801332978DBB2EF
:402A000099420244F6D8434B48481D781978EE2D08BF024629B146491B78097C994200F0C3801378002B3FF438AF137823806260BDE83840FFF73ABA2E4B1B7813F00303CE
:402A400022D0022B7FF429AF2C4A23801378394A03F07F0303EB430302EB83039A78364BD2B200211A7059706360BDE83840FFF71DBA254B012222806360BDE83840FFF766
:402A800015BAFFF7DFFB36E702212C4A21801178294AC9B2117053706260BDE83840FFF705BA1C4A264910781B78DBB2CA5C22EA0002CA547BE7194A194B1178122203EB2E
:402AC000C1035B685B6863602280BDE83840FFF7EDB9104B1B78012B7FF4DFAE174A137843F002031370BDE83840FFF7B7BA00BF5093FF1F00600040016000400460004084
:402B00003593FF1F4293FF1F4893FF1F3C93FF1F4C93FF1F026000404093FF1F3F93FF1F5079000003600040A87900003C790000EC7A00006093FF1FE88AFF1F5D93FF1FFF
:402B40004493FF1F1B4B1B78012B7FF4A6AE1A4A137803F0FD031370BDE83840FFF77EBABDE8384001F03CB8124B14491B78144A0978DBB202EBC1025268117A99427FF6C4
:402B80008CAE02EBC303DB68002B3FF486AE5B6863606368DA7863689B7843EA02232380BDE83840FFF782B90648FFF729FC054A37E700BF026000405D93FF1F3F93FF1F5A
:402BC000507900004C94FF1F084B1B781B0601D400207047064B1B78012BF9D1054A064B11785A601980FFF761B900BF0060004001600040147900005093FF1F7F2003467F
:402C0000084910B4084A802408704C70013BDBB202F80839002BF9D1044A13705DF8044B704700BF0482FF1FF87B004000780040172817D869B90C4900010B46425C034486
:402C400002F0DF0242541A78002042F001021A707047054900010B46425C034442F020024254F0E70120704710700040172810D810B4094A03011A441179074C41F0040132
:402C800011711A5D002042F001021A555DF8044B70470120704700BF1070004017280BD8064A0001835C01F0070103F0F10343EA41018154002070470120704710700040C0
:402CC00041F6FF73994208BF4FF400519A4208BF4FF40052172808D8C00000F1804303F5EC4399800020DA8070470120704700BF172805D8034B00010344597200207047CE
:402D0000012070471070004070B417289DF80C609DF8105018D8C00001F07F0103F00F0300F1804441EAC21143EA061304F5EC4405F00F050022C9B2DBB221706370A570AE
:402D4000E270104670BC7047012070BC704700BF10B500F03DFF0B4B5A78182A04D8FF2400F03AFF204610BD1C78013AE10001F1804101F5F04109785A70197000F02CFFD6
:402D8000204610BD0482FF1F10F0800F11D130B411F470450AD1C40004F1804404F5F0442180A270E370284630BC7047012030BC70470120704700BF030608D4C00000F1A0
:402DC000804303F5F04399800020DA8070470120704700BF01BE7047B0F5004F70B506461AD904460D4DA4F50044686800F0E8FEB4F5004FF7D8A6F50043013B23F4FF43D5
:402E000023F07F03A6F50046F61AA86800FB06F0BDE8704000F0D4BE004DF6E70C82FF1F024B1B7803FB00F000F0CABE0C82FF1F064B1F281A6800D901BE00F01F0000F1BA
:402E4000100352F8230042F82310704708ED00E0072900D901BE1F2800D901BE00F01F0000F16040490100F56440C9B20170704770B4074B074E1D6807494FF40073E024B2
:402E8000064A336068660C7070BC1360704700BF08ED00E080E100E009E400E000E100E070B4064B064E1D6806490123E024064A336028640C7070BC1360704708ED00E051
:402EC00080E100E000E400E000E100E02DE9F8431648174BDFF87CE01649174D174E00244FF400424FF0080C4FF002094FF08108262780F8009081F800800F208EF800C0CF
:402F0000072137702C701A60FFF7A2FF0C490F20FFF78EFF0B480C490C4A0D4B102505700C7014701C70BDE8F88300BFD649004080E100E0C8490040DC490040DB490040E9
:402F4000AD2F00001494FF1F2294FF1F2994FF1F2194FF1FCA49004008B500F039FE0749074A0B7843F004030B70137843F004031370BDE8084000F02FBE00BFA543004024
:402F8000B543004010B5074C23781BB9FFF79EFF01232370FFF7E0FF034B4FF400421A6010BD00BFEC8AFF1F00E100E0F8B5854B854D1C782B78E4B2590640D5E2072AD58D
:402FC0002B78453B052B7ED8DFE803F003657D7D033F04F00A03082B04F0DF0400F08B800A2B70D1794A7A49137843F0A00313700B789F0740F189802B78117813F0080F3B
:403000000CBF0A23092373480B4360264FF4004113702E700160A20616D52B786B4913F0080F0B7814BF012002206B4A03430B701378102103F0EF0313702970F8BD2B78AF
:40304000DB065CBF10232B70F8BD644A64496548137809780068DBB2C9B2C154137862490133DBB2137012780B789A423FD3584B1B7803F0020303F0FF02002B74D0534A95
:4030800054491378602643F009034FF4004013702E700860BFE7A60719D4544B544A19781278914250D253491A780968D2B28A5C4B4E4449D2B20420327008701A780132D4
:4030C000D2B21A70A7E70020FFF784FEA3E7404B1B78990725D53D4A3E491378602643F09A034FF4004013702E70086093E7354B10221A708FE72B78334A452B3CD031491D
:4031000000204A230870137085E7334A3A4E13782C4943F010031027042013703770087079E72D49344F0B78264843F01003274A4FF0100E04260B7087F800E006701378F0
:4031400043F09003137066E7214B1B789807DCD51E4A20491378602643F00A034FF4004013702E70086056E71B4916480B7843F010030B7002704EE71D4B1B7893B11D4BAB
:40318000DFF85CC01B680F4F1B781848DBB24FF0040E012646218CF8003087F800E00670117038E70A4B1B789B07AED5074909480B78602743F00A034FF400460B70177030
:4031C000066028E7D74900401494FF1F2294FF1F2094FF1F80E100E0D64900402994FF1FD84900401C94FF1F1894FF1F2194FF1F2894FF1F2494FF1FD949004059B12DE915
:40320000F041244C2578102D07D02578602D0AD00220BDE8F081022070471F4D2D782D0731D41E4D08E01E4E1C4D4FF4004737602E7806F0F7062E701A4EDFF880E01A4F55
:403240004FF045084FF0000C84F800808EF800C03A7033702A784000144E154CC0B202F0FD02DB072A70316020700FD50A49114B1220042208701A700F4B4FF400421A60FD
:403280000020BDE8F0810120BDE8F081024B01221A70F1E71494FF1FD94900402294FF1F80E200E02094FF1F2894FF1F2494FF1FD8490040D749004000E100E02194FF1FBA
:4032C000F0B5030183B0DBB200F0F00043F00D0743F0090540F00D0640F0090401A90422002327208DF806708DF807508DF804608DF80540FFF782FF4FF4FA70FFF790FD12
:4033000003B0F0BD38B50546007838B10124FFF7D7FF285D0134E4B20028F8D138BD00BFF0B5030183B0DBB200F0F00043F00C0743F0080540F00C0640F0080401A9042291
:40334000002327208DF806708DF807508DF804608DF80540FFF752FF4FF4FA60FFF760FD03B0F0BD032816D8DFE800F0110C0702A1F12C00C0B2FFF7D3BFA1F16C00C0B2A4
:40338000FFF7CEBFA1F14000C0B2FFF7C9BF81F08000FFF7C5BF704730B500F0F00083B040F00C0540F0080401A90222002327208DF804508DF80540FFF720FF4FF4FA60A4
:4033C000FFF72EFD03B030BD08B51420FFF704FD3820FFF7E1FF0520FFF7FEFC3820FFF7DBFF0520FFF7F8FC3820FFF7D5FF0520FFF7F2FC2820FFF7CFFF0520FFF7ECFC70
:403400002820FFF78DFF0520FFF7E6FC0120FFF787FF0520FFF7E0FC0620FFF781FF0520FFF7DAFC0C20FFF77BFFBDE808400520FFF7D2BC10B5064C63781BB9FFF7C4FFF3
:40344000012363700C20FFF76BFF0123237010BDED8AFF1F10B5092884B043D92A4C0023A4FB0021C90801EB8102A0EB420288B204A930321944092803F1010301F8082C06
:40348000DBB2214AECD8A2FB0012D20802EB8202A0EB4202303204A9D2B219441C4601F8082C184613B92AE012F8082CE11A0DF1100E714401F8102C7246013B13F0FF039C
:4034C0001A44F1D19DF80830421C04A90A440C446846002104F8103C02F8101CFFF712FF04B010BD084B0122A3FB0013DB0803EB8303A0EB43033033DBB20024E5E79DF8AD
:4035000008300122E1E700BFCDCCCCCCF8B500F05FFB204A044613781F4943F0020313700B781E4843F002030B70037801F5AA5143F001030370D379103143F00103D37165
:403540000A7800F5AB50164B0C30182542F003020A7005701A78134E42F040021A701A78A0F597500225183802F0FC02C8271A703770057091F824320A2043F0080381F81E
:403580002432FFF74DFC084B20461D60BDE8F84000F022BBAB430040BB430040A24300400D5900400859004080E200E00A2838B5044630D00C2826D0082818D00020FFF7BB
:4035C00009FCC223174A0A2C137017D00C2C24D0082C0FD00020FFF7FDFB00231A46124C124813490025258002600B8038BD0D4B42221A70802340F2E242F0E74FF4007384
:4036000041F28832EBE7074BC2221A704FF4006344F62062E3E78223D4E744F620624FF40063DCE70A5900402C94FF1F3094FF1F2E94FF1F08B5102000F090F90120072168
:40364000FFF706FC07490120FFF7F2FB064A0C20137843F006031370FFF7A8FF034B00221A8008BDDD360000095900403494FF1F10B5054C23781BB9FFF7DCFF0123237024
:40368000BDE81040FFF742BFEF8AFF1F024A137843F00103137070470859004038B5084A00E050B91378064D13F00104F9D02046FFF7B6FB2B78204638BD0024204638BD3D
:4036C00009590040034A044B1B881088181A00B2704700BF2E94FF1FA25B0040704700BF08B5104843F6972100F0AAFA43F697210D4800F0A5FA00F06BFA0C4A137843F08C
:403700001003137000F068FA094A1378190704D508490B6813781B07FBD4074B01221A7008BD00BF25640040056400409765004067650040456400408765004010B5064C21
:4037400023781BB9FFF7CCFF01232370034A137843F08003137010BDF08AFF1F7264004010B501214FF4804241F6FF73022000F0A3F941F6FF72084C134620700121082064
:4037800000F0BCF96070054800F0D6F9BDE81040022000F0D7B900BFF48AFF1FD9380000F8B52A4D2A4C2878FFF760FA6878FFF75DFA2078FF2845D0264E062302460821EC
:4037C000B6B2FFF7E1FA324645F6A0312078FFF7F3FA28782178FFF78BFA60781C4FFF282CD0072302460821FFF7CEFA1A4A314692B26078FFF7E0FA61786878FFF778FA36
:4038000001212878FFF714FA01216878FFF710FA00F0DEF9114A137843F02003137000F0DBF90F4B0F491A78042042F001021A701A7842F002021A700860F8BDFFF788FA68
:403840007870CEE7FFF784FA2070B5E7F48AFF1F1C82FF1FF88AFF1F3894FF1F986500407B65004080E200E010B5074CE3681BB9FFF776FF0123E360FFF792FF00F0F6F81C
:40388000024B1B7810BD00BFF48AFF1F6A650040024A137843F00403137070477B65004000F0FEB8044900E020B90B7803F0FF02002BF9D0104670476A650040044A054BB5
:4038C000C0F1030033F810301088181A00B270474094FF1F3894FF1F704700BF08B50F480F4900F0ADF90E490E4800F0A9F900F06FF90D4A137843F01003137000F06CF98B
:403900000A4A1378190704D509490B6813781B07FBD4084B01221A7008BD00BF286500403F4B4C00086500409964004069640040486500408964004010B5064C23781BB9B0
:40394000FFF7CCFF01232370034A137843F08003137010BD048BFF1F79650040034A00F0F800137818431070704700BF82400040F8B500F02DF9044619481A4A03781A4963
:4039800043F001030370137800F5AA5043F0010313700A78154B1B30182542F003020A7005701A78124E42F040021A701A78A0F59750123802F0FC02CE2702251A70377014
:4039C000057091F824320A2043F0080381F82432FFF726FA2046BDE8F84000F0FDB800BFAB430040BB4300400359004005590040005900400A2810B504462AD00C2822D0DF
:403A0000082817D00020FFF7E5F9C223134A0A2C137015D00C2C1ED0082C0ED00020FFF7D9F900220E4C0F480F490023238002600B8010BD094B42221A704FF40072F1E701
:403A40004FF40062EEE7054BC2221A704FF40052E8E78223DAE74FF40052E3E7025900404294FF1F4494FF1F4094FF1F38B5094C25785DB9084A0820137843F006031370B5
:403A8000FFF7B8FF054A012315802370BDE83840FFF76EBF058BFF1F015900404894FF1F044B1A7802F0FE021A701A7842F004021A707047005900402DE9F0418E4690464A
:403AC0001F4682B00C4C0125002672462B4601460096284601962570FFF716F941463A462078FFF7EDF820780221FFF7D7F8207802B0BDE8F08100BF1E82FF1FF0B58E4696
:403B000017461E4683B000250A4C72462B4601460095019528462570FFF7F6F8394632462078FFF7CDF820780221FFF7B7F8207803B0F0BD1F82FF1F014B1B6898647047B1
:403B400008ED00E04001024BC0B21870704700BF02E400E008B500F03BF8044A137843F010031370BDE8084000F036B894650040094B1A786AB9F0B40848094E094C062750
:403B8000472501213770257002701970F0BCFFF7E1BFFFF7DFBF00BF068BFF1F846500402264004032640040034A13785B07FCD4024B1870704700BF6465004047650040ED
:403BC0000230800803D000BF01380046FCD17047EFF3108072B6704780F31088704700BF134B1B7803F00303012B1CD0022B07D00023104A1268D35C012B12D00020704793
:403C00000D4B0E4A1B7803F07F0303EB430302EB83030833074A9B781268DBB2D35C012BECD100F017B8044B1B78DBB2E1E700BF006000403893FF1F046000406093FF1F74
:403C4000CAB2C1F30723C1F30741027043708170704700BF0A4B1B78DBB203F00303022B0AD0012B01D00020704703F1804303F5C0431B7800207047024B00201B78704746
:403C8000006000400160004030B5214A21F00043934287B01BDD1F4A934205DD02460B4602F0A2FC07B030BD02AA01F001FA00F0030001281AD002280FD008B3DDE9020103
:403CC00001230093DDE9042302F0F6F9EAE70022002301F0C9FC07B030BDDDE90201DDE9042301F0C1FC01F10041DBE70090DDE90423DDE9020102F0DFF901F10041D1E77B
:403D0000DDE90201DDE9042301F0AEFCCAE700BFFB21E93FFFFFEF7FF8B5C1F30A56A6F2FF35132D0A460B460446864611DC002D2DDB0F461F492941114224D04FF4002398
:403D40002B413B4423EA01030022194614462046F8BD332D05DDB5F5806F1ED011462046F8BDA6F213414FF0FF30C8402042F5D0C6F5866602360121B140091928BF01335E
:403D800021EA0002E1E70028D8D11146E7E7013501F0004307D00022D7E702460B4602F025FC0446D3E743F07F5343F440130022CBE700BFFFFF0F0030B5224A21F0004393
:403DC000934287B01BDD204A934205DD02460B4602F00AFC07B030BD02AA01F069F900F0030001281ED0022811D010B3DDE90201DDE9042301F038FC01F10041EAE7002390
:403E000000930022002302F057F907B030BD01230093DDE90201DDE9042302F04DF901F10041D7E7DDE90201DDE9042301F01CFCD0E70124DDE90201DDE90423009402F057
:403E40003BF9C7E7FB21E93FFFFFEF7F2DE9F0438BB006460F4600F0F3F9DFF8E880044698F900300D4601330BD03046394602F073FA30B1304639460022002302F0F8FFAB
:403E800020B1204629460BB0BDE8F0832A4B98F800400890CDE90267CDE9046701939CB9264D4FF060443046394600220023CDE9064502F0B5FF002835D1012300936846B9
:403EC00002F076FAA8B910E0DFF87C904FF000083046394600220023CDE9068902F0A0FF98B90123022C0093E9D103F067FB21230360134802F05EFACDE90601089BABB980
:403F0000DDE906010BB0BDE8F08302239C42009304D0684602F04CFA0028EFD103F04EFB22230360EAE702230093F2E703F046FB089B0360E4E700BF007B0000FFFFEFC770
:403F4000807800002082FF1F0000F0FF2DE9F04F8BB01F4680468946164600F059FBDFF8D8A204469AF900300D46013304D03046394602F0F1F920B9204629460BB0BDE8D8
:403F8000F08F4046494602F0E7F9834660BB304639460022002302F043FF0028ECD09AF900309E4C01229E4900208DE814005A1CCDF820B0CDE90289CDE90467CDE90601DB
:403FC0000DD0022B0BD0684602F0F2F9002800F09380089B1BB103F0F1FA089B0360DDE906010BB0BDE8F08F404649460022002302F016FFF8B1304639460022002302F0F1
:404000000FFF834600284ED084489AF900300121002200240025CDE90289CDE90467CDE90645019000910892002BCCD07C4B0022CDE90623D3E72046294602F0F9F883465E
:4040400000285ED0204629460022002302F0E8FE002891D04046494602F0EAF800288BD03046394602F0E4F8002885D09AF900306A480421002200240025022BCDE9028950
:40408000CDE90467CDE9064501900091089200F08880684602F08CF9002800F08280089B002B9CD097E73046394602F0C1F800283FF462AF304639460022002302F0BAFE43
:4040C00000283FF459AF55499AF800300122CDF820B0CDE90289CDE9046701910092002B3CD050490020022BCDE9060130D103F065FA21230360D2E703F060FA212303603E
:4041000067E74046494602F093F800289AD03046394602F08DF8002894D02046294602F01BF900BB3D4A9AF8004001230890CDE90289CDE90467019200937CB10020002174
:4041400002460B4602F02EFD022CCDE90601CED0684602F02DF90028A1D1C8E700220023CDE90623F4E72D499AF900300322CDF820B0CDE90289CDE9046701910092ABB915
:40418000294D4FF060444046494600220023CDE9064502F04FFE50BB9AF90030022B7FF478AF03F00BFA2223036078E71F4D00244046494600220023CDE9064502F03AFE63
:4041C0000028E9D000221A4B3046394602F0C0FB04460D4602F0F4F822462B4602F020FE0028D9D10F4B0022CDE90623D4E700220F4B3046394602F0ABFB04460D4602F0D1
:40420000DFF822462B4602F00BFE0028C4D1094B4FF06042CDE90623BEE700BF047B00000000F03F0000F0FFFFFFEF470000F07F0000E03FFFFFEFC72082FF1F00000000CB
:404240002DE9F04FB1F5801F85B006460F460B465ADA024621F00044224300F0F5800029C0F271810022DE4B02F072FB0B460F46DC4906468B426FF0350249DCC3F31305FE
:4042800005F5152404F6647404F4801E8EF07F5181F440111B15A3F2FF3341EA05079C1830460022D04B394604EB1E5402F09CF9AB1CC3F31303022B82468B464FF00002B9
:4042C0002FDC002302F0ACFD002800F0C680002C00F04281204602F0D5FAADA3D3E9002306460F4602F034FBABA3D3E9002304460D463046394602F02BFB02460B462046CA
:40430000294602F073F909E0B64900228B42B5DD3046394632463B4602F068F905B0BDE8F08F4FF0804302F061F902460B465046594602F037FC06460F462046CDE90067C8
:4043400002F0A0FA3246CDE902013B463046394602F0FEFA02460B468046894602F0F8FA8FA3D3E9002306460F4602F0F1FA8EA3D3E9002302F03AF932463B4602F0E8FA7D
:404380008BA3D3E9002302F031F932463B4602F0DFFA89A3D3E9002302F028F942464B4602F0D6FA86A3D3E90023804689463046394602F0CDFA84A3D3E9002302F016F9C5
:4043C00032463B4602F0C4FA81A3D3E9002302F00DF932463B4602F0BBFA0B4602464946404602F003F9A5F5C223C5F5D725A3F27A4351351D43002D06460F4653DD002250
:404400007A4B5046594602F0A3FA52465B4602F09FFA80468946002C60D132463B4602F0E5F8DDE9002302F093FA02460B464046494602F0D9F802460B465046594602F0DC
:40444000D3F805B0BDE8F08F002200230020684902F0A8FB05B0BDE8F08F52465B465046594602F075FA5CA3D3E9002306460F465046594602F06CFA02460B4600205B49DC
:4044800002F0B2F802460B463046394602F060FA06460F46002C62D15046594632463B4602F0A2F83AE7002C00F0A48038A3D3E90023DDE902894046494602F049FA32469E
:4044C0003B4604460D465046594602F08DF8DDE9002302F03DFA06460F464CE02CA3D3E90023DDE9020102F033FA32463B4604460D464046494602F079F8DDE9002302F094
:4045000027FA25A3D3E9002306460F46DDE9020102F01EFA02460B463046394602F066F802460B464046494602F05EF852465B4602F05AF802460B462046294602F054F842
:4045400005B0BDE8F08F02460B4602F04DF80022002302F027FBE1E600200021DEE6204602F090F90AA3D3E900238046894602F0EFF904460D4608A3D3E900234046494655
:4045800002F0E6F902460B4630463946CCE700BF0000E0FE422EE63F763C7935EF39EA3D44523EDF12F1C23FDE03CB966446C73F599322942449D23F935555555555E53FDF
:4045C0009FC678D0099AC33FAF788E1DC571CC3F04FA97999999D93F555555555555D53F00005043FFFFEF7F0000F03F0000E03F000050C302460B465046594601F0F4FFBA
:40460000DDE9002302F0A4F915E700BFAFF300802DE9F04F144623F00047024657EA04000E468FB01D469C46214634D06E4B26F0004A9A459346B14626DC24D09F4223DCAE
:40464000694B9F4200F08F80B9F1000FC0F28F804FF0000879BB644B9F4200F0A580634B9F4267D0BCF1804F00F0E283604B9C4521D1B9F1000F1EDB104631460FB0BDE814
:40468000F04F00F029BF62B10AF1404000F5801050EA0B0007D10346544918460FB0BDE8F08F5745CCDD53480FB0BDE8F04F01F081BE4FF0000810463146CDF808C00092A6
:4046C00001F0B2FD009ADDF808C0BBF1000F20D04FEAD97909F1FF3958EA09037AD0464B9F4240F38F8003F104739F4240F31084424B9A4540F39283BCF1000F40F3928364
:4047000037A1D1E900010B46024602F021F90346C3E7BAF1000F04D0344B29F0404E9E45D6D1BCF1000FC0F2B683B9F1000F08DB0346B2E7BCF1000FC0F2528413463146D7
:40474000ABE70AF1404A0AF5801A58EA0A0340F05E8402460B4601F047FF0B46024602F021FA034699E700293FF46EAF8CE7244B9F422CDCA3F154739F427FF769AF40F2A9
:4047800013403B15834240F34B84C3F58663033321FA03F000FA03F38B427FF459AF00F00100C0F1020855E70AF1404303F5801353EA0B0300F03983104B9A4540F3648336
:4047C000BCF1000FC0F22E832346294665E74FF002083FE7104631463346BCE7AFF300809C7500883CE4377E0000F07F0000F03F0000E03F807800000000E041FFFFEF3F8C
:40480000FFFF3F43BAF5801F4FF0000205DACA4B02F09EF88A466FF034024FEA2A53C74ECAF3130AA3F2FF334AF07F571344B2450C9347F4401740F3D083C14B9A4540F3E9
:4048400007840026B4460C9BA7F5801701330C933946BC4B4FEACC0C6344D3E900AB52465B46CDF834C0CDE9060101F0BDFE52465B46CDE90801DDE9060101F0B7FE02462D
:404880000B460020B04902F08DF902460B46DDE90801CDE90A2302F05BF802460B46CDE90223CDE904237B1043F0005303F5002399190020002306460F460293DDE90223F3
:4048C0001046194632463B46CDE9000102F040F802460B46DDE9080101F086FE5246CDE908015B463046394601F07EFE02460B46DDE9060101F078FE02460B46DDE90001C5
:4049000002F026F802460B46DDE9080101F06CFEDDE90A2302F01CF8DDE90423CDE906011046194602F014F802460B4606460F4602F00EF86EA3D3E9002382468B4630461D
:40494000394602F005F86CA3D3E9002301F04EFE32463B4601F0FCFF69A3D3E9002301F045FE32463B4601F0F3FF67A3D3E9002301F03CFE32463B4601F0EAFF64A3D3E914
:40498000002301F033FE32463B4601F0E1FF62A3D3E9002301F02AFE02460B465046594601F0D6FFDDE9042306460F46DDE9000101F01CFEDDE9062301F0CAFF32463B4655
:4049C00001F014FEDDE9006782468B4632463B463046394601F0BCFF00225C4BCDE9080101F004FE52465B4601F000FE02980F460646DDE9000132463B4601F0A9FF3246A5
:404A00003B46CDE90001DDE9060101F0A1FF0022CDE906014D4B3046394601F0E5FDDDE9082301F0E1FD02460B465046594601F0DBFDDDE9042301F08BFF02460B46DDE983
:404A4000060101F0D3FD82468B46DDE9000152465B4601F0CBFD32A3D3E9002302980F46064601F075FF30A3D3E90023CDE904013046394601F06CFFDDE90023CDE9060164
:404A80003046394601F0B0FD02460B465046594601F0AAFD26A3D3E9002301F059FF02460B46DDE9060101F0A1FDDDF834C0284BCDF818C06344D3E9002301F097FDCDE97D
:404AC00000010C9801F0DEFE06460F46DDE90401204BDDF818C09C44DDE90023DCE900AB01F084FD52465B4636E000BFAFF30080EF4E454A287ECA3F65DBC9934A86CD3FF2
:404B000001411DA96074D13F4D268F515555D53FFFAB6FDBB66DDB3F033333333333E33F000000E009C7EE3FF5015B14E02F3EBEFD033ADC09C7EE3F000040438E98030017
:404B400079B60B00287B00000000F03F00000840187B0000087B0000CDE906AB01F046FD32463B4601F042FD029832463B4682468B4601F039FDDDE9062301F035FDDDE9DC
:404B8000042301F031FD02460B46DDE9000101F02BFDCDE9020108F1FF3858EA09030CBFD54BD64B0022CDE904230023CDE900450093DDE90067204632463B46294601F057
:404BC00013FD52465B4601F0C3FEDDE90223804689462046294601F0BBFE02460B464046494601F003FD04460D465246304639465B46CDE9024501F0ABFE06460F462046B3
:404C00003B462946324601F0F1FCBD4B824699428946884640F3138101F13F4303F5E003034340F0E581A0A3D3E90023DDE9020101F0DCFC324604460D463B465046494685
:404C400001F0D2FC02460B462046294602F010F9002840F0CD814C462015A0F2FE304FF4801101414144C1F30A50A64CA0F2FF35C1F3130BC0F5826003302C414BF4801B9B
:404C800021EA040300224BFA00FB3946304601F0ABFC06460F46DDE902018BEAE87B0BEBD87B32463B464FEA0B5A01F09FFC80A3D3E90023002420460D4601F049FE3246B6
:404CC000804689463B462046294601F08DFC02460B46DDE9020101F087FC77A3D3E9002301F036FE76A3D3E9002306460F462046294601F02DFE02460B463046394601F052
:404D000075FC06460F4632463B464046494601F06DFC42464B4604460D4601F065FC02460B463046394601F05FFC2246804689462B462046294601F00BFE63A3D3E90023F5
:404D400006460F4601F004FE61A3D3E9002301F04BFC32463B4601F0FBFD5FA3D3E9002301F044FC32463B4601F0F2FD5CA3D3E9002301F039FC32463B4601F0E9FD5AA3E6
:404D8000D3E9002301F032FC32463B4601F0E0FD02460B462046294601F026FC06460F4632463B462046294601F0D2FD0022CDE900014FF080433046394601F015FC024664
:404DC0000B46DDE9000101F0EDFE424606460F464B462046294601F0BBFD42464B4601F005FC02460B463046394601F0FDFB22462B4601F0F9FB02460B4600203F4901F015
:404E0000F3FB8A44BAF5801F0246C0F227815346DDE9040101F09CFD03463EE4BCF1000FFFF66EAC0023194637E40B46334934E433461046314601F08BFD03462DE4324B8A
:404E400021F000449C4240F3FA80304B0B4403430CD132463B4601F0C7FB02460B46DDE9020101F0F1FF00283FF4F6AE20A3D3E90023DDE9040101F06BFD1DA3D3E9002312
:404E800001F066FD034608E4BCF1000FCADA234605F1004101E402460B460020174901F081FE42E4AFF30080FE822B654715973C00000000432EE63FEF39FAFE422EE63F29
:404EC000396CA80C615C20BED0A4BE726937663EF16BD2C541BDBB3E2CDE25AF6A56113F93BDBE166CC1663F3E5555555555C53F59F3F8C21F6EA5010000F0BF0000F03F06
:404F0000FFFF8F40FFFF0F00FFCB904000346F3F634B9A4582DD634B9A453FF7EDAB0022604B01F061FB54A3D3E9002306460F4601F00EFD52A3D3E90023CDE90001304646
:404F4000394601F005FD3246CDE902013B463046394601F0FDFC002282468B4630463946514B01F0F5FC02460B4647A1D1E9000101F03AFB32463B4601F0EAFC02460B4635
:404F800000204A4901F030FB02460B465046594601F0DEFC3EA3D3E9002301F0D9FC02460B46DDE9020101F01FFB06460F46DDE9000132463B4601F019FBDDE90023002027
:404FC00082468B4601F010FB02460B463046394601F00AFBCDE90201DDE50026B44637E4334600202F4901F0DDFD0346FFF755BB29A3D3E90023DDE9040101F0A9FC26A3E2
:40500000D3E9002301F0A4FC0346FFF746BBB8F1010F03467FF441AB01F10041FFF73DBB00297FF446ABC3F58263033347FA03F000FA03F3BB4217D08846FFF710BB1B4BE1
:405040009C423FF709AEDDE90023924693462EE64FF480264FF0010CFFF7FABB5A4601F03FFA02460B46D3E600F00100C0F10208FFF7F5BAAFF30080000000604715F73F56
:4050800044DF5DF80BAE543E555555555555D53FFE822B654715F73F9C7500883CE4377EFEFFEF3F0000F03F0000D03F0000E03F2DE9F04F924C21F00047A7428FB00E467C
:4050C0007FDD14468F4A974226DC83A3D3E90023002940F39D8101F087FA8B4B80469F42894600F083807EA3D3E9002301F07CFA02460B464046C4E90023494601F074FAD2
:4051000077A3D3E9002301F06FFA0125C4E9020128460FB0BDE8F08F7C4A974240F383807B4A974258DC3D15A5F21645A7EB05518B46824601F0A6FE01F0A4FB80468946CF
:4051400042464B4650465946CDE9088901F04CFA0022704B01F0FCFB8B46824601F092FE01F090FB8046894642464B4650465946CDE90A8901F038FA0022664B01F0E8FB12
:4051800000220023CDE90C0101F04AFE002800F06781002340464946002201F041FE002814BF012302235C480221019000912A4608A8214600F07CFB002EC0F24781054616
:4051C00006E0C2E9000100250024C2E90245002528460FB0BDE8F08F02460B4601F004FA0025C4E90201C4E90001F1E73EA3D3E9002301F0F9F93EA3D3E9002306460F4685
:4052000001F0F2F902460B463046C4E90023394601F0EAF936A3D3E9002301F0E5F90125C4E90201D4E700F0FFFF33A3D3E900238046894601F08CFB0022384B01F0D6F933
:4052400001F020FE054601F01DFB23A3D3E90023CDE9040101F07CFB02460B464046494601F0C2F91EA3D3E9002382468B46DDE9040101F06DFB1F2DCDE902015046594612
:4052800050DC274B6A1E53F82230BB424AD0DDE9022301F0A9F902460B4681468846C4E900234A4643465046594601F09DF9DDE9022301F099F902460B46002EC4E90223BC
:4052C00086DA4A4608F1004301F1004184E80C00E160A0606D427BE700004054FB21F93F3163621A61B4D03D0000601A61B4D03D7370032E8A19A33B83C8C96D305FE43F07
:40530000FB21E93F7BD90240FB21F93FFB213941FFFFEF7F00007041B87B00000000E03F387B0000DDE9022301F05EF988463F15C8F30A53FB1A102B8146C4E90001B0DDC8
:4053400059A3D3E90023DDE9040101F001FB8046894642464B465046594601F045F9CDE90601DDE906235046594601F03DF942464B4601F039F94EA3D3E9002380468946DF
:40538000DDE9040101F0E4FA42464B4601F02CF9CDE90201DDE90223DDE9060101F024F90B4602468846C1F30A517F1A312F8146C4E9002374DD40A3D3E90023DDE90401C1
:4053C00001F0C6FA80468946DDE9060142464B4601F00AF982468B46DDE9060152465B4601F002F942464B4601F0FEF834A3D3E9002380468946DDE9040101F0A9FA4246D0
:405400004B4601F0F1F8CDE90201504659463EE701F0ECF82E4B80469F42894622D02AA3D3E9002301F0E2F802460B464046C4E90023494601F0D8F823A3D3E9002301F0EC
:40544000D5F84FF0FF35C4E90201C1E66268E36802F1004203F1004345426260E360B7E60323A0E610A3D3E9002301F0BFF810A3D3E9002306460F4601F0B8F802460B4698
:405480003046C4E90023394601F0AEF808A3D3E9002301F0ABF84FF0FF35C4E9020197E6DDE906ABFDE600BF0000601A61B4D03D7370032E8A19A33B0000002E8A19A33BD9
:4054C000C14920259A837B393163621A61B4D03DFB21F93FAFF300802DE9F041604E0C46B6460E40764505460B4600F098800029024676DD5FEA215E00F08180AEF2FF3E9A
:40550000C3F313031EF0010F43F480135ED100273C46D10F01EB43034FEA6E0E520016204FF4001165189D424FEAD2764FEA420202DC5B1B6C180F44013806EB43034FEA0E
:405540005101EFD1844620264FF000410AE0A34220D0D50F013E4FEA510105EB43034FEA420220D09C420CEB0105F0DA002D05EB010C09DBA0461B1B954288BF03F1FF3366
:405580004446521B0844E4E7BCF1000FF2DB04F10108F0E7954217D8002D05EB010C48DB98460023ECE7134315D140087B1003F17F5303F50013FA0703EB0E57394648BFDE
:4055C00040F00040BDE8F0811C46C2E7D10F01EB430352009BE7411C31D000F001031844E3E721F000460643ECD079BB8E46D30AAEF1150E5205002BF9D0DC0222D4002179
:405600005B00D80201F10101FAD5C1F10100C1F1200422FA04F4234386448A406EE702460B4601F095F92A46234600F0DFFFBDE8F081BCF1000FAADAA0460023A0E70137A9
:405640003046B3E7202401200021E2E702460B4600F0CAFF02460B4601F0A4FAB2E700BF0000F07F000000002DE9F04F21F00047B7F1795F85B00C4692469B4605466BDA8D
:4056800001F000FC002800F0E7802A4623462846214601F05DF974A3D3E900238046894601F056F972A3D3E9002300F09FFF42464B4601F04DF970A3D3E9002300F094FF77
:4056C00042464B4601F044F96DA3D3E9002300F08DFF42464B4601F03BF96BA3D3E9002300F082FF42464B4601F032F968A3D3E9002300F07BFF42464B4601F029F9CDE9F1
:405700000001404649460022634B01F021F9DDE9002306460F464046494601F019F95246804689465B462846214601F011F902460B464046494600F057FF02460B46304635
:40574000394600F051FF02460B460020534900F04BFF05B0BDE8F08F02460B4601F0F8F841A3D3E900238046894601F0F1F840A3D3E9002300F03AFF42464B4601F0E8F881
:405780003DA3D3E9002300F02FFF42464B4601F0DFF83BA3D3E9002300F028FF42464B4601F0D6F838A3D3E9002300F01DFF42464B4601F0CDF836A3D3E9002300F016FF2D
:4057C0004B46424601F0C4F8354BCDE900019F4297DD344B00229F4238DCA7F5001300202E4916461F4600F0FFFECDE90201404649460022284B01F0ABF832463B4600F0ED
:40580000F3FEDDE9002306460F464046494601F09FF85246804689465B462846214601F097F802460B464046494600F0DDFE02460B463046394600F0D7FE02460B46DDE902
:40584000020100F0D1FE05B0BDE8F08F164B0026CDE90223154FCAE71049002005B0BDE8F08F00BFAFF30080D43888BEE9FAA8BDC4B1B4BD9EEE213EAD529C804F7E923EC0
:405880009015CB19A001FA3E7751C1166CC1563F4C5555555555A53F0000E03F0000F03F3233D33F0000E93F0000E73F0000D23F2DE9F04F9E467E4DD41E85FB0465E4174E
:4058C000C4EBA504ADF51D7D24EAE4742546A69E0D940C93E343774C03EB430354F8264002EBC303274609940EF1FF3426460394F41904900A910893A5EB060516D42C4432
:40590000013422AEA79F08E057F8250000F0BAFF0135A542E6E9020108D0002DF4DA013500200021A542E6E90201F6D1099B002B31DB099A0C9B74A901EBC20BC3EB4373FF
:40594000039A24A9DB0001EBC20800930DF5E479039B002BC0F297814446049B0026A3F1080A009B002708EB0305FAE9022374E8020100F0EDFF02460B463046394600F034
:4059800035FEAC4206460F46EFD1E9E90267D94508F10808DCD1099B10A99B4603F18043013B9B001A1D0A440B440F920E934FEACB039CA91A460693BBF1000F0B4453E9E9
:4059C000284528DD0DF5E87A0AEB02060FAF0022394B2046294600F0BBFF01F053FA00F051FF0022354B8046894600F0B1FF02460B462046294600F0F7FD01F043FA76E9BD
:405A0000022347F8040F4946404600F0EFFD564504460D46DBD1DDF82090204629464A4600F05EFD00224FF07F5304460D4600F08FFF00F005FC0022214B00F089FF024658
:405A40000B462046294600F0CFFD04460D4601F019FA804600F016FF02460B46204629464C4600F0C1FD002C06460F4640F3F1800BF1FF3110AB53F82130C9F1180043FA27
:405A800000F202FA00F55D1B10A8C9F1170340F8215090441D41002D3FDDBBF1000F08F1010840F38482002214460FA912E000BFABAAAA2AC07C00000000703E000070413C
:405AC00000002040C3F180700BB108600124013293450DDD51F8043F002CF3D0C3F1FF13013203F57F4393450B604FF00104F1DC089B002B0EDD012B00F0B380022B09D1D3
:405B00000BF1FF3210AB53F8223010A9C3F3150341F82230022D00F08380304639460022002301F07DF9002800F0C980099B0BF1FF3A53450DDC10AB0F9803EB8B03002250
:405B400053F8041D834242EA0102F9D1002A40F01482099B10AA013B52F82330002B40F024820E9A012352F8041D01330029FAD05B441A460B930BF1010393424DDC0D9A33
:405B80004FF0000803EB02090B9A0C9B09F180495B44CBEB020BA79A09F1FF3902EB890200924FEACB02DB00059224AA02EB030B0793069B74AA02EB030A009B002653F817
:405BC000040F0027009300F05DFE039BEBE80201002B1BDB079B03EB0804069B08EB030524AB1C441D44049BA3F10809F9E9022374E8020100F0ACFE02460B46304639465E
:405C000000F0F4FCAC4206460F46EFD1059B08F108089845EAE90267CFD1DDF82CB0C6E632463B460020BF4900F0DEFC06460F46002C3FF472AF089A0020BA4900F050FC69
:405C400002460B463046394600F0CEFC06460F4663E711D10BF1FF3310AA52F82350ED1519E70BF1FF3210AB53F8223010A9C3F3160341F822304DE70022AB4B01F0EEF8AD
:405C800058B9054649E700260027E9E90267D94508F108087FF45CAE7DE6BBF1000F08F10108C8BF02253FF7FEAE32463B4600209C4900F099FC022506460F462DE7089B7A
:405CC00030465A4239460395CDF8148000F008FC0022964B04460D4601F0C0F8002800F0E1810022924B2046294600F031FE01F0C9F8064600F0C6FD00228C4B00F028FEB8
:405D00000B4602462946204600F06EFC01F0BAF8089B0BF1010A1833089310AB43F82B0043F82A60089A00207E4900F0D9FBBAF1000F04460D46C0F2CA800AF101034FEAAA
:405D4000C30874AF10AA009302EB830907EB080659F8040D00F096FD22462B4600F0F8FD002266E90201724B2046294600F0F0FDBE4204460D46EBD1A8F1080806EB0803EB
:405D80009B460DF59879CDF818A0DDF824A04FF00008CDF81090BAF1000FC0F29580B8F1000FC0F29180DFF88C915D4600260027002401E0444510DCF9E90223F5E80201EC
:405DC00000F0C6FD02460B463046394600F00EFC0134A24506460F46ECDA049BABF1080B03EBC803C3E90067009B08F101089845D1D1A69BDDF818A0DDF81090032B3BD82B
:405E0000DFE813F0410004000400D70000273E46009B09EBC304384674E90223314600F0E5FB4C4507460E46F5D1039B002B00F08B80D9E900010A9D334606F100463A46D4
:405E40006E602F6000F0D0FBBAF1000F03460CDD01261C46F9E90223204600F0C7FB0136B2450346F5DA039A0AB101F100411C460D460A9BC3E90245059B03F007000DF5BC
:405E80001D7DBDE8F08F00231946009A09EBC2091C4679E90223204600F0A8FB0AF1FF3ABAF1FF3F0346F3D1039A0AB101F100411C460D460A9BC3E90045059B03F00700CD
:405EC0000DF51D7DBDE8F08F0026002785E7A69B032BD1D8DFE803F04E3030020DF59879039A00231E46002A00F0C8800A9FD9F80800D9F80440D9F80C203B61059BD9F86D
:405F0000001006F1004604F1004402F10042B86003F007007E617C60FA6039600DF51D7DBDE8F08F0000F03F0000E03F000070410000703EC87C0000039B00273E460DF5EA
:405F40009879002B7FF475AFD9E9000135463C4633460A9E3A46C6E9004500F045FBBAF1000F03463FF774AF1C460D460A9BC3E9024581E70023194696E7089A10AB53F811
:405F80002A30183A0395CDF814800892002B7FF4C9AE10AB03EB8A0353F8041D0AF1FF3A183A0029F8D00892BCE60123E0E500249EE5BAF1000F93DD4FEACA0809EB08037C
:405FC0009B46D3E900677BE9022330463946CDE9002300F00BFB04460D46DDE9000122462B4600F001FB02460B463046394600F0FDFACB4526462F46CBE90201CBE9004511
:40600000E1D1BAF1010F7FF76BAF09EB08039A46D3E900670DF59C7B7AE902231046194632463B46CDE9000100F0E0FA04460D46DDE9000122462B4600F0D6FA32463B469B
:4060400000F0D4FADA4526462F46CAE90201CAE90045E1D100231E4608F108044C4450AD184674E90223314600F0C0FAAC4203460E46F5D1039A002A7FF438AFD9E900456F
:40608000D9E90289184631460A9A059BC2E9040103F00700C2E90045C2E902890DF51D7DBDE8F08F2046294600F0ECFE10ABDA4643F82B0036E600BF2DE9F04F21F0004673
:4060C000B6F1795F85B00C4690469946054604DA00F0D8FE002800F083802A4623462846214600F035FC2A46234606460F4600F02FFC3FA3D3E9002382468B463046394628
:4061000000F026FC3CA3D3E9002300F06DFA32463B4600F01DFC3AA3D3E9002300F066FA32463B4600F014FC37A3D3E9002300F05BFA32463B4600F00BFC35A3D3E900238C
:4061400000F054FA0E9BCDE900019BB3404649460022334B00F0FCFBDDE90023CDE902015046594600F0F4FB02460B46DDE9020100F03AFA32463B4600F0EAFB42464B4674
:4061800000F032FA24A3D3E9002306460F465046594600F0DDFB02460B463046394600F025FA02460B462846214600F01DFA05B0BDE8F08FDDE900233046394600F0C8FB03
:4061C00015A3D3E9002300F00FFA52465B4600F0BFFB2A46234600F009FA05B0BDE8F08F2846214605B0BDE8F08F00BFAFF300807CD5CF5A3AD9E53DEB9C2B8AE6E55A3EAA
:406200007DFEB157E31DC73ED561C119A0012A3FA6F810111111813F495555555555C53F0000E03FAFF3008021F00041704700BF41F0004101F58010C00F7047000000009E
:406240002DE9F047C1F30A58A8F2FF36132E0B4604460D460246894607461DDC002E40DBDFF8F08048FA06F808EA010E5EEA020217D035A3D3E9002300F0B8F900220023BF
:4062800000F0F6FD20B1002D40DB29EA0805002738462946BDE8F087332E06DDB6F5806F2FD020461946BDE8F087A8F213424FF0FF3A2AFA02FA1AEA000FF2D022A3D3E9F7
:4062C000002300F093F90022002300F0D1FD0028DED0002D1FDB4D4627EA0A0738462946D8E719A3D3E9002300F080F90022002300F0BEFD0028CBD0002D1ADB00273D461B
:40630000C6E702460B4600F071F9CCE74FF4801333419944B9E7142E08D0C8F5866808F10308012303FA08F31F19D4D309F10109D1E725F00042064B224318BF1D46002755
:40634000A6E700BFAFF300809C7500883CE4377E0000F0BFFFFF0F0010B431F0004408D0114BA1F580129A4208D804205DF8044B704718B902205DF8044B704701F1FF4145
:40638000094B01F5E0019942EFD9B4F5801F01D20320EBE7054B9C4201D00020E6E7B0FA80F04009E2E700BFFFFFDF7F0000F07F0020704700200149704700BF0000F87F2F
:4063C000F0B5C1F30A5EAEF2FF35132D83B002460B460C464FEAD17607462EDC002D48DB3C49294101EA030010432BD049080B4053EA02070CD04FF48023132D24EA010164
:4064000043FA05F444EA01040CBF4FF0004700273149234601EBC606D6E900453A462046294600F0E3F8CDE90001DDE9000122462B4600F0D9F803B0F0BD332D06DDB5F557
:40644000806F43D01046194603B0F0BDAEF2134E4FF0FF3121FA0EF10142F3D049080142D6D04FF0804320EA010143FA0EF70F43CEE721F000410143E4D0C3F3130141EAA5
:40648000000CCCF1000141EA0C0C13495C0C4FEA1C3C0CF4002C640401EBC6014CEA0403D1E900452046294600F0A0F8CDE90001DDE9000122462B4600F096F8024621F06C
:4064C000004141EAC67310461946BDE700F08EF8BAE700BFFFFF0F00107D000000000000F8B5C1F30A5604460D460B46174616BB21F00043034332D00022314B00F028FA05
:40650000304A044697420D460B4637DB40F2FE72C1F30A56363E3E44964215DD24A1D1E9000122462B4600F053F821A3D3E9002300F00EFAF8BD40F2FF72964224D040F20D
:40654000FE723E449642E9DC002E09DD23F0FF4323F4E00343EA065520462946F8BDF8BD16F1350F15DA4CF250339F42D6DC12A1D1E9000122462B4600F02AF80EA3D3E90E
:40658000002300F0E5F9F8BD02460B4600F02EF8F8BD23F0FF4323F4E003363643EA0655204629460022084B00F0D2F9F8BD00BF9C7500883CE4377E59F3F8C21F6EA5016E
:4065C00000005043B03CFFFF0000903CAFF3008003F0004321F0004243EA0201704700BF81F0004102E000BF83F0004330B54FEA41044FEA430594EA050F08BF90EA020F30
:406600001FBF54EA000C55EA020C7FEA645C7FEA655C00F0E2804FEA5454D4EB5555B8BF6D420CDD2C4480EA020281EA030382EA000083EA010180EA020281EA0303362D7B
:4066400088BF30BD11F0004F4FEA01314FF4801C4CEA113102D0404261EB410113F0004F4FEA03334CEA133302D0524263EB430394EA050F00F0A780A4F10104D5F1200E84
:406680000DDB02FA0EFC22FA05F2801841F1000103FA0EF2801843FA05F359410EE0A5F120050EF1200E012A03FA0EFC28BF4CF0020C43FA05F3C01851EBE37101F000459E
:4066C00007D54FF0000EDCF1000C7EEB00006EEB0101B1F5801F1BD3B1F5001F0CD349085FEA30004FEA3C0C04F101044FEA445212F5800F80F09A80BCF1004F08BF5FEABD
:40670000500C50F1000041EB045141EA050130BD5FEA4C0C404141EB010111F4801FA4F10104E9D191F0000F04BF01460020B1FA81F308BF2033A3F10B03B3F120020CDA94
:406740000C3208DD02F1140CC2F10C0201FA0CF021FA02F10CE002F11402D8BFC2F1200C01FA02F120FA0CFCDCBF41EA0C019040E41AA2BF01EB0451294330BD6FEA0404A5
:406780001F3C1CDA0C340EDC04F11404C4F1200220FA04F001FA02F340EA030021FA04F345EA030130BDC4F10C04C4F1200220FA02F001FA04F340EA0300294630BD21FADF
:4067C00004F0294630BD94F0000F83F4801306BF81F480110134013D4EE77FEA645C18BF7FEA655C29D094EA050F08BF90EA020F05D054EA000C04BF1946104630BD91EA33
:40680000030F1EBF0021002030BD5FEA545C05D14000494128BF41F0004130BD14F580043CBF01F5801130BD01F0004545F0FE4141F470014FF0000030BD7FEA645C1ABFE2
:40684000194610467FEA655C1CBF0B46024650EA013406BF52EA033591EA030F41F4002130BD00BF90F0000F04BF0021704730B54FF4806404F132044FF000054FF00001A9
:4068800050E700BF90F0000F04BF0021704730B54FF4806404F1320410F0004548BF40424FF000013EE700BF42004FEAE2014FEA31014FEA02701FBF12F07F4393F07F4F28
:4068C00081F06051704792F0000F14BF93F07F4F704730B54FF4607401F0004521F0004120E700BF50EA010208BF704730B54FF000050AE050EA010208BF704730B511F09A
:40690000004502D5404261EB41014FF4806404F132045FEA915C3FF4DCAE4FF003025FEADC0C18BF03325FEADC0C18BF033202EBDC02C2F1200300FA03FC20FA02F001FA87
:4069400003FE40EA0E0021FA02F11444C1E600BF70B54FF0FF0C4CF4E06C1CEA11541DBF1CEA135594EA0C0F95EA0C0F00F0DEF82C4481EA030621EA4C5123EA4C5350EAF7
:40698000013518BF52EA033541F4801143F4801338D0A0FB02CE4FF00005E1FB02E506F00042E0FB03E54FF00006E1FB03569CF0000F18BF4EF0010EA4F1FF04B6F5007F56
:4069C00064F5407404D25FEA4E0E6D4146EB060642EAC62141EA55514FEAC52040EA5E504FEACE2EB4F1FD0C88BFBCF5E06F1ED8BEF1004F08BF5FEA500E50F1000041EB51
:406A0000045170BD06F0004646EA010140EA020081EA0301B4EB5C04C2BFD4EB0C0541EA045170BD41F480114FF0000E013C00F3AB8014F1360FDEBF002001F0004170BDFA
:406A4000C4F10004203C35DA0C341BDC04F11404C4F1200500FA05F320FA04F001FA05F240EA020001F0004221F0004110EBD37021FA04F642EB06015EEA430E08BF20EA40
:406A8000D37070BDC4F10C04C4F1200500FA04F320FA05F001FA04F240EA020001F0004110EBD37041F100015EEA430E08BF20EAD37070BDC4F1200500FA05F24EEA020E1A
:406AC00020FA04F301FA05F243EA020321FA04F001F0004121FA04F220EA020000EBD3705EEA430E08BF20EAD37070BD94F0000F0FD101F00046400041EB010111F4801F3F
:406B000008BF013CF7D041EA060195F0000F18BF704703F00046520043EB030313F4801F08BF013DF7D043EA0603704794EA0C0F0CEA135518BF95EA0C0F0CD050EA410653
:406B400018BF52EA4306D1D181EA030101F000414FF0000070BD50EA410606BF1046194652EA430619D094EA0C0F02D150EA013613D195EA0C0F05D152EA03361CBF1046CA
:406B800019460AD181EA030101F0004141F0FE4141F470014FF0000070BD41F0FE4141F4780170BD70B54FF0FF0C4CF4E06C1CEA11541DBF1CEA135594EA0C0F95EA0C0F4A
:406BC00000F0A7F8A4EB050481EA030E52EA03354FEA013100F088804FEA03334FF0805545EA131343EA12634FEA022245EA111545EA10654FEA00260EF000419D4208BF07
:406C0000964244F1FD0404F5407402D25B084FEA3202B61A65EB03055B084FEA32024FF480104FF4002CB6EB020E75EB030E22BFB61A754640EA0C005B084FEA3202B6EB86
:406C4000020E75EB030E22BFB61A754640EA5C005B084FEA3202B6EB020E75EB030E22BFB61A754640EA9C005B084FEA3202B6EB020E75EB030E22BFB61A754640EADC0019
:406C800055EA060E18D04FEA051545EA16754FEA06164FEAC30343EA52734FEAC2025FEA1C1CC0D111F4801F0BD141EA00014FF000004FF0004CB6E711F4801F04BF014379
:406CC0000020B4F1FD0C88BFBCF5E06F3FF6AFAEB5EB030C04BFB6EB020C5FEA500C50F1000041EB045170BD0EF0004E4EEA113114EB5C04C2BFD4EB0C0541EA045170BD15
:406D000041F480114FF0000E013C90E645EA060E8DE60CEA135594EA0C0F08BF95EA0C0F3FF43BAF94EA0C0F0AD150EA01347FF434AF95EA0C0F7FF425AF104619462CE780
:406D400095EA0C0F06D152EA03353FF4FDAE1046194622E750EA410618BF52EA43067FF4C5AE50EA41047FF40DAF52EA43057FF4EBAE12E74FF0FF3C06E000BF4FF0010C2D
:406D800002E000BF4FF0010C4DF804CD4FEA410C7FEA6C5C4FEA430C18BF7FEA6C5C1BD001B050EA410C0CBF52EA430C91EA030F02BF90EA020F0020704710F1000F91EAD5
:406DC000030F58BF994208BF90422CBFD8176FEAE37040F0010070474FEA410C7FEA6C5C02D150EA013C07D14FEA430C7FEA6C5CD6D152EA033CD3D05DF8040B704700BF57
:406E00008446104662468C461946634600E000BF01B5FFF7B7FF002848BF10F1000F01BD4DF808EDFFF7F4FF0CBF012000205DF808FB00BF4DF808EDFFF7EAFF34BF01203F
:406E400000205DF808FB00BF4DF808EDFFF7E0FF94BF012000205DF808FB00BF4DF808EDFFF7CEFF94BF012000205DF808FB00BF4DF808EDFFF7C4FF34BF012000205DF8FD
:406E800008FB00BF4FEA410212F5001215D211D56FF47873B3EB625212D94FEAC12343F0004343EA505311F0004F23FA02F018BF404270474FF00000704750EA013005D11A
:406EC00011F0004008BF6FF0004070474FF00000704700BF4FEA4102B2F1E04324BFB3F5001CDCF1FE5C0DD901F0004C4FEAC0024CEA5070B2F1004F40EB830008BF20F0E4
:406F00000100704711F0804F21D113F13872BCBF01F00040704741F480114FEA5252C2F11802C2F1200C10FA0CF320FA02F018BF40F001004FEAC1234FEAD32303FA0CFC09
:406F400040EA0C0023FA02F34FEA4303CCE77FEA625307D150EA01331EBF4FF0FE4040F44000704701F0004040F0FE4040F40000704700BF80F0004002E000BF81F0004162
:406F800042001FBF5FEA410392EA030F7FEA226C7FEA236C6AD04FEA1262D2EB1363C1BFD218414048404140B8BF5B42192B88BF704710F0004F40F4000020F07F4018BF1A
:406FC000404211F0004F41F4000121F07F4118BF494292EA030F3FD0A2F1010241FA03FC10EB0C00C3F1200301FA03F100F0004302D5494260EB4000B0F5000F13D3B0F1C1
:40700000807F06D340084FEA310102F10102FE2A51D2B1F1004F40EBC25008BF20F0010040EA03007047490040EB000010F4000FA2F10102EDD1B0FA80FCACF1080CB2EB4B
:407040000C0200FA0CF0AABF00EBC25052421843BCBFD0401843704792F0000F81F4000106BF80F400000132013BB5E74FEA41037FEA226C18BF7FEA236C21D092EA030F0D
:4070800004D092F0000F08BF0846704790EA010F1CBF0020704712F07F4F04D1400028BF40F00040704712F100723CBF00F50000704700F0004343F0FE4040F400007047C5
:4070C0007FEA226216BF08467FEA23630146420206BF5FEA412390EA010F40F4800070474FF0000304E000BF10F0004348BF40425FEA000C08BF704743F0964301464FF089
:4071000000001CE050EA010208BF70474FF000030AE000BF50EA010208BF704711F0004302D5404261EB41015FEA010C02BF84460146002043F0B64308BFA3F18053A3F58D
:407140000003BCFA8CF2083AA3EBC25310DB01FA02FC634400FA02FCC2F12002BCF1004F20FA02F243EB020008BF20F00100704702F1200201FA02FCC2F1200250EA4C0069
:4071800021FA02F243EB020008BF20EADC7070474FF0FF0C1CEAD0521EBF1CEAD15392EA0C0F93EA0C0F6FD01A4480EA010C400218BF5FEA41211ED04FF0006343EA50101F
:4071C00043EA5111A0FB01310CF00040B1F5000F3EBF490041EAD3715B0040EA010062F17F02FD2A1DD8B3F1004F40EBC25008BF20F00100704790F0000F0CF0004C08BFBA
:4072000049024CEA502040EA51207F3AC2BFD2F1FF0340EAC250704740F400004FF00003013A5DDC12F1190FDCBF00F000407047C2F10002410021FA02F1C2F1200200FA66
