:4000000000800020110000005513000055130000034A08B51268034B1A6001F09DF900BFFA460040BC76004010B5054C237833B9044B13B10448AFF300800123237010BD19
:400040008082FF1F0000000074840000084B10B51BB108480849AFF300800848036803B910BD074B002BFBD0BDE81040184700BF00000000748400008482FF1F0881FF1F5F
:400080000000000070B51C4B00201B7803F0AAFE38B11A4C2378E21812791AB183F00103237070BD03F0B2FE154AA3681080A2899842C8BFA060FF2A104B08D81978114C7A
:4000C00002EB012101329A8124F8110070BD98681A786D2803EB02040B4E82F001024FF00001D4BF002501251A703060257499819960997470BD00BF696500409C82FF1F39
:400100006C8BFF1F888FFF1F848FFF1F2DE9F84F62B604F021F904F077FB714803F0C4FEDFF8CCA103F0AEFE03F046FE03F052FE03F060FF03F072FF04F08AF801F02AF851
:40014000684800F04BFC0020022101F059FC5546654C664EDFF8A8B1DFF8A09113E0802331681846002223706170A27004F08CF8607804F089F8A07804F086F89AF813308E
:400180005B4F012B56D89AF8000080F001000AEB00031A7C8AF81400002AE0D0AF7C002FECD101220BEB40201A71AA7400F0FCFF2B7D50492B441F718046C9F800003768B0
:4001C00007F0F0FF28B140464B4908F009F800284FD1012004F08EFA0020014604F0ACFAD9F8000008F006F880B204F01DFB0021012004F0A1FA607800F072FC04F06CFAE1
:400200000221012004F098FA607804F00DFB01F039F88AF8160001F07DF89AF814308AF8150053441B7C002B99D09AF81330304F012BA8D901F0FCF801F01EF9012001F0D1
:40024000E5FA01F09FFE03F023FA4021002003F043FC03F021FB01F007FF02F077FC002001F0D4FA01F0F8F801F01AF90023FB7489E7404607F084F93A461A4B00F0D4FB7F
:4002800020BB33689F42A4D0791CA2D05A1C0DD080221046002163702270A17003F0F4FF607803F0F1FFA07803F0EEFF9023184664222370A270677003F0E6FF607803F03B
:4002C000E3FFA07803F0E0FF376082E70B4B054819686A7DAB7D00F0CBFC0746D1E700BF85000000808BFF1F688BFF1F0C81FF1F9C82FF1F000016440000A042808FFF1F75
:40030000888FFF1F70B5064608460C4607F0C8FF054618B13146224607F0D2FF284670BD002A31DB2DE9F84F5FEA520A29D0834610460D4607F002F906460F46ABF1040B82
:40034000043D0024204607F009F911A3D3E9002307F06AF932463B4607F090FA8046894604F0B8FD07F022FC49464BF8040F404604F0F8FD07F01AFC0134544545F8040F80
:40038000E0D10120BDE8F88F00207047AFF30080182D4454FB2119402DE9F04F91B01A9D9946012D0ED92C4600236408012C03F10103FAD19C40AC420A9406D0002011B0A3
:4003C000BDE8F08FFAD10A95002380468C46DDF828A04FF0000EEBB1002426467546013405F001079C4247EA46064FEA5505F6D1B6450FD2D8F8004050F82650C8F8005042
:4004000040F82640DCF8004051F82650CCF8005041F826400EF1010EF24508F104080CF1040CD8D80A9B012B00F08B800223CDF8189005920F910E900993099B00215A089B
:400440000B9292000D920A9A089107911146B1FBF3F29B0004920C93079B0B9A9A181046834203921A4658D2089B0D990E980F9C5F1800EB0708C618E518274400230292E6
:40048000059AD8F8004052F823C0069A6146204652F823B00093CDF804C007F0E5FCD7F800A081465946504607F0DEFC0146484607F0D2FB04F100418146584607F0D4FC6B
:4004C000DDF804C004465146604607F0CDFC0146204607F0C1FB49460446306807F0BAFB48F8040B2868214607F0B4FB47F8040B3068494607F0B0FB46F8040B2146286858
:4005000007F0AAFB049B029A1946009B01320B44039945F8040B9142B1D1079B099A0C991344089A07930A4408920A9A9A4293D80A99099A914204D0530099420993BFF471
:400540007CAF012011B0BDE8F08F00BF2DE9F04F97B0209D002D15DB6C0004F1010C002C00F04E814FF01F0E012402E0BEF1010E0CD06400A445F9D8B5F1804F02D2B4F1A3
:40058000804F07D3002017B0BDE8F08F704617B0BDE8F08F4FEA84080F460646042120460B9391460F9207F045FE04210E90204607F040FE04211090204607F03BFE0421C7
:4005C0000C90204607F036FE0D90404607F068FE1190404607F064FE4B461290002B00F0F2800B9B002B00F0EE800E99002900F0EA801098002800F0E6800C9A002A00F0CF
:40060000E2800D9A002A00F0DE80119A002A00F0DA80129A002A00F0D680002D00F0BC80321FA3F1040C2095924665463E1F159607960F9E1492043E0896A1F1040B031FDD
:40064000002713940A93089B5AF8044F53F8048F20460893079B414653F8046F55F8049F079307F001FC49460990304607F0FCFB099A0146104607F0EFFA04F100414BF85E
:40068000040F484607F0F0FB31460446404607F0EBFB0146204607F0DFFA209A01370A9B974243F8040FCDD115460F9B0C991A680B9B0A601B680D9A012D139C13601AD01A
:4006C0000D9A0C9B1746A000DDF83C80DDF82CE01E189C461044012358F8041F5EF8042F0133AB4246F8041D40F8042D4CF8041F47F8042FF0D1119B04940093129B0E9804
:4007000001930F9B109902930B9B0C9A03930D9B00F0A2F8002856D0119B20951A1F129BDDF85090A3F1040C6546DDF854B00F9F0B9E4FF0000A52F8044F396820460892D9
:40074000079207F091FB55F8048F31680790404607F08AFB079B0146184607F07DFA04F1004449F8040F56F8041B204607F07CFB57F8041B0446404607F076FB0146204675
:4007800007F06AFA209B0AF1010A9A454BF8040F089AD0D1012417E00F9A0B99119B15680E680D9F00930494129B0C9C0193029203910E98109922463B4625603E6000F06A
:4007C0004BF80028E6D10024129807F071FD119807F06EFD0D9807F06BFD0C9807F068FD109807F065FD0E9807F062FD0B9807F05FFD0F9807F05CFD204617B0BDE8F08F5A
:40080000B5F1804FBFF4BEAE64464FF00408C3E630B4029C651E254203D0029430BCFFF795BE30BCFFF7B8BD10B4019C1CB15DF8044BFFF7EDBF01205DF8044B704700BF76
:4008400030B4029C14B930BC0120704705460846294630BCFFF7DCBF2DE9F04F8BB00E46189917468C0021469846FFF74BFD214605463046FFF746FD214606463846FFF757
:4008800041FD214607464046FFF73CFD80465DB156B14FB140B1189B284600933146169A179BFFF7C1FF80B90024404607F000FD384607F0FDFC304607F0FAFC284607F075
:4008C000F7FC20460BB0BDE8F08F189B384600934146169A179BFFF7A7FF0028E4D0189B002B70D00594B2462C463B1F0493A8F1040303934FF00009069507960897CDF86F
:400900002480049BDAF800B053F8047F59460493039B384653F8045F2668039307F0A4FA29468046304607F09FFA0146404607F093F939464AF8040B304607F095FA2946A5
:400940000646584607F090FA0146304607F082F9189B09F10109994544F8040BD1D105ACF0CC169ACDF8009028463146179BDDF82480FFF765FF002896D0484607F01CFA56
:400980002B4614992A19A1F104091599A6F1040A0C1F039504962546834614461E4656F8040B594607F014FB49F8040F5AF8040F594607F00DFBA64245F8040FEFD1039DA4
:4009C000049E012471E7189B284600933146169A179BFFF735FF0028F3D165E770B56FF00705441900F57E76284606F0B7FD00220A4B06F043FF02460B4600204FF0804193
:400A000004F0FAFA0022064B06F00EFEE4E90201B44205F10105E7D170BD00BF0000284000002A4000000000002A2DE9F84304460D464DDD7E2AA8BF7E220132D200A2F198
:400A40000800A2F1100118441A4403EB010ED0E90067D2E900013B46DEE90089324606F02FFC1DA3D3E9002306F0DEFD02460B463046394606F026FC07F098F806F080FDBD
:400A800022462B4607F042F8F8B942464B463046394606F015FC10A3D3E9002306F0C4FD02460B463046394606F00AFC07F07EF806F066FD02460B462046294607F026F84A
:400AC000003018BF0120BDE8F8830120BDE8F883002108201022B6E7CDCCCCCCCCCCEC3F554A10B482FB0041C317C3EB610303EB4303B0EB830F00F08680411E82FB0134EC
:400B0000CB17C3EB640303EB4303B1EB830F76D0811E82FB0134CB17C3EB640303EB4303B1EB830F75D0C11E82FB0134CB17C3EB640303EB4303B1EB830F68D0011F82FB68
:400B40000134CB17C3EB640303EB4303B1EB830F63D0411F82FB0134CB17C3EB640303EB4303B1EB830F5CD0811F82FB0134CB17C3EB640303EB4303B1EB830F4FD0C11F73
:400B800082FB0134CB17C3EB640303EB4303B1EB830F48D0A0F1080182FB0134CB17C3EB640303EB4303B1EB830F3ED0A0F1090182FB0132CB17C3EB620202EB4202B1EB53
:400BC000820F34D01C49A0F10A0281FB0234D317C3EB640303EB4303B2EB830F29D00B3881FB0031C317C3EB610303EB43021349134BB0EB820F0CBF1846084600E01148AC
:400C00005DF8044B704710485DF8044B70470F48F6E70F485DF8044B70470E48F0E70E48EEE70E48ECE70E48EAE70E48E8E70E48E6E70E48E4E700BFABAAAA2AA88400009B
:400C4000A48400007C84000078840000848400008084000088840000908400008C84000094840000988400009C840000A08400007E2A00F2FE812DE9F04F064685B008465F
:400C8000D5009846144606F07BFC7719D7E9002382468B4606F03AFF80BBB8F1000F32D1312C2BD8A74B04F1180253F824500293154406EBC503D3E90089009250465946B6
:400CC00042464B4606F022FF002840F08A80029B03EB84070FE0009B57F8045F50461D4406EBC503D3E90089594642464B4606F00DFF002875D10134322CECD14FF0FF3035
:400D000005B0BDE8F08FB8F1010F00F0E280B8F1020F00F00E81B8F1030F00F08680B8F1040F00F07E81B8F1050FE7D1D7E9008904F10C0506EBC505029644E07E2CDDDC9C
:400D400055E912895046594642464B4606F0DEFE002840F0CA8155E90E895046594642464B4606F0D3FE002840F0B98155E90C895046594642464B4606F0C8FE002840F026
:400D8000C38155E90A895046594642464B4606F0BDFE002840F0B08155E904895046594642464B4606F0B2FE0C34002840F0BD81F5E818895046594642464B4606F0A6FE9B
:400DC000002840F0B0814B4642465046594606F0BBFEE31C0093671D04F10A060028ADD18CE7029B013C53F82430009A40461A4417465B465246494606F062FA06EBC7060D
:400E0000D6E90023804689465046594606F058FA02460B464046494606F096FE002814BF3846284605B0BDE8F08F04F10C0506EBC505D7E9008903963BE07E2C04F10C0459
:400E40003FF75CAF55E912895046594642464B4606F05CFE002840F0858155E90E895046594642464B4606F051FE002840F0048155E90A895046594642464B4606F046FEBE
:400E8000002840F07D8155E904895046594642464B4606F03BFE002840F06B81F5E818895046594642464B4606F030FE002840F06E814B4642465046594606F045FEE31C93
:400EC000029304F10A03671DE61D00930028B4D114E7312C3FF612AF1A4BA70002933B445D6F04F118031D44009306EBC503D3E900895046594642464B4606F007FE0028E7
:400F00006DD1029B74331F440FE0009B57F8045F50461D4406EBC503D3E90089594642464B4606F0F3FD002859D10134322CECD1E4E604F10C0506EBC505D7E900890396EE
:400F40003DE000BF1081FF1F7E2C04F10C043FF7D5AE55E914895046594642464B4606F0D5FD002840F0D88055E910895046594642464B4606F0CAFD00287DD155E90A89B4
:400F80005046594642464B4606F0C0FD002840F0D38055E906895046594642464B4606F0B5FD002840F0CF80F5E818895046594642464B4606F0AAFD002840F0CB804B467E
:400FC00042465046594606F0BFFDA31C029304F10903271DE61D00930028B5D18EE6029B009A03EB8404236F40461A4490465B465246494606F064F906EBC806CDE90001A7
:40100000D6E900235046594606F05AF902460B46DDE9000106F098FD002814BF404628466EE6D7E90023B846C4EB4477FF00B94600961F4616460EE07E2C04F102043FF7B9
:401040005DAED3E900675046594632463B4606F05DFD002839D13B4632465046594606F073FD08F1100809EB08032B440028E3D144E64FF0FF307047039E06EBC70656E9B6
:40108000044522462B465046594606F019F906F08DFD524606465B464046494606F010F906F084FD0146304607F07CF830B12046294606F053FD05B0BDE8F08F404649462F
:4010C00006F04CFD05B0BDE8F08FB946B046009E06EBC404A4F11005D5E90045D1E7029E06EBC70656E90445CBE7029E009B06EBC30656E90645C4E7029E06EBC40404F117
:401100003005D5E90045BCE7029E06EBC40404F12805D5E90045B4E7039E029B06EBC30656E90445ADE7029ED2E73346029E06EBC30656E90645A4E73346039E06EBC30692
:4011400056E906459DE7039E009B06EBC30656E9044596E7039E06EBC404A4F11805D5E900458EE7039E029B06EBC30656E9064587E7039E009B06EBC30656E9064580E70B
:401180003346039E06EBC30656E9044579E7039E9EE700BF03484FF4807200F58061FFF7BFB800BFC082FF1F2DE9F043ADF60C0D074600210DF581604FF4806201AC07F08D
:4011C0008AF82646BD1E07F5FF7735F9020F06F0F7FD294906F0FCFEBD4246F8040FF4D1264A4FF48071009102F5806302A80DF581610DF20445FFF717FBA9464FF00008F1
:4012000054F8040F55F8047F014606F02DFE39460646384606F028FE0146304606F01CFD4C45C5F800802060EAD1144A4FF48074009402A80DF5816102F58063FFF700FB5B
:40124000002707AE06244FF0000856F8045F3946284606F0C5FF08B12F46A0460134322CF3D1404606F0ACFD0146054806F0B0FE0DF60C0DBDE8F0830000C842C082FF1F63
:4012800000007A4510B50621002003F055FA002002F0C6FE002002F0CFFE174C00EB800084FB0034C3170444C3EBE414E4B2052C07D8DFE804F0080D12171C030F4803F01B
:4012C0000BFA204610BD0E4803F006FA204610BD0C4803F001FA204610BD0B4803F0FCF9204610BD094803F0F7F9204610BD084803F0F2F9204610BD81808080D08400003A
:40130000AC840000B0840000B8840000C0840000C884000010B50621012003F00DFA002002F07EFE012002F087FE094A00EB800300EB430082FB0032C4171044C4EBE010E4
:40134000C4B22046FFF7CCFB03F0C6F9204610BD81808080FEE700BF154B80B503F1FF3E03B3144F002657F8085C57F8104C57F80C3C3DB1224652F8040B111B8D4243F86B
:40138000040BF8D157F8040C1A4620B142F8046BD11A8842FAD10EF1FF3EBEF1FF3F07F11007E0D106F056FFFEF7B0FEFEE700BF010000007089000008B5124A124B134955
:4013C0001A600B68124A43F4007312480B600023032B94BF50F823100F490133302B42F8041FF5D10D4B0E4A18780E490E4B08701A6000F065F801F0B9FB0C4B00221A6045
:4014000008BD00BF0004FA050CED00E014ED00E0FC7FFF1F0000000055130000BC7600400080FF1F0481FF1F08ED00E00081FF1F074B1B7803F0100303F0FF021BB9054B40
:401440001A7003F0BBBA034B01221A7003F0B6BA94650040C08AFF1F08B503F0CFFA03F0EFFA044B1B7803B908BDBDE8084003F077BA00BFC08AFF1F074B1B7803F01003A0
:4014800003F0FF021BB9054B1A7003F059BB034B01221A7003F054BB96640040C48AFF1F08B503F06FFB03F08FFB044B1B7803B908BDBDE8084003F013BB00BFC48AFF1F0D
:4014C0002DE9F84F72B640F6191641F25121DFF804A3A34CA34A4FF0610B8AF800B0DFF8F8E2A14FA1484FF03A0CDFF8F092DFF8F0824FF0180BA4F800C0192382F800B051
:401500004FF05F0C06249A4A4FF0170AA9F800A088F80030AEF800C03B7004701D461378944C954ADBB24FF0520C237007F29B178EF878C1002420F8DE6C118001E0032C22
:401540000CD03B78782003F0010343EA440403F0C7F9013D04F00304F1D1FEE7874E884A35468848DFF87C92DFF87CC2DFF87CE200234FF0070A022783494FF4807B4FF03F
:401580004808A2F800B082F800A089F800308CF8008013708EF8003007701C460B78012743EA0A030B7080F8FF7792F8E43643F0040382F8E43604EB4403AA8856F8130027
:4015C0000134002106F087FE082C05F10605F2D16E4A6F4B92E8030083E803006D4E6E4F002556F8043F13F0FF0E23F0FF0413D005F110530EF1FF3E03F159005FFA8EFEC7
:401600007044583340005B001A785978023383421155F9D101357544BE42E2D15F49604A0B78604C43F002030B701378A1F5863143F0020313702378413943F040032370BC
:4016400059480A78D0F800E0584F5948594D42F010020026584B0A70C7F800E00660574E03CB2860696093E8070003C60C333280EE3593E8070003C50C332A8003CB1A46A1
:4016800044F2200345F8E60C45F8E21C03CAC83D46F8A60C46F8A21C07CA03C548492A800A78484842F008020A70A7F53C570278103FDFF83C813D78434898F8006001F55B
:4016C000AA51D2B20D3102F0070EEDB2120980F800E0F6B20A70DFF81CB145F003023A70DFF814A1DFF8149146F0030288F80020DFF80CC1ABF800304FF0040B8AF800B090
:40170000DFF800E189F800B04FF080098CF800902E4A4FF0400C2E4B8EF800C04FF010094FF0200E80F89DC081F8B1B20A2082F8009083F800C08AF8EEE901F0FDFD94E87D
:401740000F00DFF8C4E04C444FF0440C88F800603D708EF800C007C42380BDE8F88F00BF80400040824000408A400040004300400F010049A146004020420040D884000087
:401780000440004001400040A24300403C0E004800510140FCFFFF47AC0000480350014013500140A0430040800E0048087600400076004002510040440E0048C051004083
:4017C00022430040CF0100496E580040235B0040285B004000480040884000408440004086400040064000400840004009400040F94600402C5100403D510040FD510040DB
:40180000015900400959004076580040044A0001137800F0100003F0EF0318431070704700510040F8B503F063F83A4A3A491378054643F0010313700B78384C384801273B
:40184000022602F5E35243F001030B700B32277006701378A4F5E85403F07F03093C1370002001F069FD23782E4A03F0F90323701378384603F0DF03137023783B43237062
:4018800001F05AFD282001F057FD274B30461A7802F07F021A701A7802F0BF021A7023783343237001F048FD23782049204E43F0040300222370284632700A7003F01CF841
:4018C0001C49172001F040FD1720072101F04CFD1949152001F038FD1520072101F044FD1649182001F030FD1820072101F03CFD1349082001F028FD0820072101F034FDEE
:401900001049092001F020FDBDE8F8400920072101F02ABDA5430040B54300409D6000400960004012600040F85100408560004084600040751F0000711F00007D1E000088
:40194000091F00003D1F0000204B214A2DE9F0474FF4000E4FF080774FF480764FF400750024C3F800E01F601E601D60147049B3184B03221A70184ADFF870C0DFF870E0ED
:40198000DFF870A0DFF87090DFF87080134F144E144C0023802103258AF8000089F80030012088F800308CF800308EF800303B7033702570117002F093FF0B4B04221A7036
:4019C000BDE8F087034B02221A70D4E700E100E08893FF1F0960004008600040B193FF1F8A93FF1F28600040126000409693FF1F9493FF1F9393FF1F9C93FF1F8993FF1F5B
:401A000010B5084C82B023783BB98DE80300FFF709FF9DE803000123237002B0BDE81040FFF792BFC88AFF1F2DE9F043DFF850C0DFF85090DFF85080DFF850E00B4F0C4E70
:401A40000C4D0D480D4A00230324802189F8003088F800308CF800308EF800303B7033702B7004701170BDE8F08300BF9493FF1FB193FF1F8A93FF1F2860004008600040A4
:401A80008993FF1F8893FF1F9C93FF1F9693FF1F431EDBB2072B0CD8064A00EB400002EB80000022427042791B010349DBB2D2B25A547047B493FF1F0E60004008B5194B92
:401AC0001A78D2B21A701B78DBB21A0627D4164B9A6842B199680220144A087099681088002248809A60124B1B7803F06003202B10D0402B04D043B10E4B03221A7008BDCE
:401B000000F0DCFF0028F7D008BD00F025FE0028FAD1F1E703F078F80028F5D1ECE7054A137008BD28600040A493FF1F9A93FF1F006000409293FF1FF0B42049204C214A5E
:401B400020780B8803449BB20B801588ADB23DB31D4B1E4851680978C9B203F8011B5168DDB2013151601188013989B21180118889B299B18342EDD123780825144A154EA1
:401B80001378154983F080031370144B0F2702203770087025701D70F0BC70472378EDE72378082BEAD00B490B4A02230B7013700A4B25701D70F0BC704700BF9A93FF1FC1
:401BC0008A93FF1FA493FF1F00600040086000409593FF1F9293FF1F8893FF1FB093FF1F194AF8B513889BB2EBB11849184C194800230225257003700B80916819B1916897
:401C00000B7091684B801449144B09781B78128843EA012392B20C49934238BF0B80FFF78BFF0120F8BD0A4F0A4D0D480D490E4A4FF0020E80260F2487F800E02E70047018
:401C40000B7013700120F8BDA493FF1F9A93FF1F8893FF1F9593FF1F07600040066000409293FF1F8A93FF1FB093FF1F10B40D4B0D491A780B880D4C13449BB200200C4A3B
:401C80000B802070936833B1936801241C709368098859809060074B03221A705DF8044B704700BF8A93FF1F9A93FF1F8893FF1FA493FF1F9293FF1F10B41C4B1C48197897
:401CC000028801F00F010239C9B20A4492B2194B02801A8892B2CAB1002009B923E011B300F1804202F5C0425C6812780139D2B222705A68C9B201325A601A880130013A9F
:401D000092B21A801A8892B2002AE8D10A4B0B4A197013780A4983F080030B20137008705DF8044B70470021F0E700BF296000409A93FF1FA493FF1FB093FF1F9593FF1FAD
:401D40009293FF1F0E4B1B78DBB2042B16D0062B04D0022B00D07047FFF788BF094B9A6842B199680320084A087099681088002248809A60054B03221A707047FFF79CBFE1
:401D80008893FF1FA493FF1F9A93FF1F9293FF1F70B40748074E084C084A0623802500210370337025701170012070BC704700BF8893FF1F9293FF1F9593FF1FB093FF1F98
:401DC000114B1A7832B11A78104842F080020021027019700E4900220E4B0A70996871B1996810B40C4801240C709968008848809A600A4B03221A705DF8044B7047074B33
:401E000003221A70704700BF9493FF1F086000408893FF1FA493FF1F9A93FF1F9293FF1F124A1378DBB2042B07D0062B03D0022B16D1FFF781BEFFF7C3BF00210C4B11703C
:401E40009A6872B19A6810B40A48012414709A68008850809960084B03221A705DF8044B7047054B03221A70704700BF8893FF1FA493FF1F9A93FF1F9293FF1F10B51D4B0E
:401E80001B78DBB2DC0605D5180604D45A062ED49C060BD410BD03F00F03012BFAD1FFF70DFE15490B78190602D510BDFFF74AFF104A13781B06EDD41049114B1B78087831
:401EC000104903430B7009789942E3D10A490C460B781078DBB2000605D42378DBB21370137803F00F0308788342F1D110BDFFF797FFDDE7286000409293FF1FB093FF1FD1
:401F00009593FF1F29600040094A0A4B12781A7B02F00302012A03D0DA7B82F08002DA73054A01215973137803F0FE03137070470E600040B493FF1F0B600040094A0A4BE4
:401F400012781A7E02F00302012A03D0DA7E82F08002DA76054A01215976137803F0FD03137070471E600040B493FF1F0B600040704700BFFFF758BD014B1B78704700BF12
:401F80008F4500402DE9F04102F0B2FC2C4C054623781B0615D42B4B00221A70284602F0ABFC29490C2001F0CFF907210C2001F0DBF92649264A4FF480530B601360BDE8AD
:401FC000F081DFF880800127224A88F800701378214E03F07F031370002001F0ADF93378002003F0F9033370237803F07F03237001F0A2F9194A3846137811783B4001F07F
:40200000FE01117088F8013001F096F93378144A03F0FE0333701378124943F0200313700B78A2F5E25203F0FE031D3A0B701378384603F0FE03137001F07EF9AEE700BF40
:4020400008600040CC8AFF1F791F000080E200E000E100E010600040944300400960004012600040A543004070B502F041FC284D06462B7823B93046BDE8704002F03CBC16
:40208000244B254A4FF4805119601378234943F0010313700B7802F5E75243F001030B70183213781E4C43F0010313702378282043F00103237001F03FF91A4A6B78117800
:4020C00000200B43137001F037F9237802200343237001F031F923781349144A43F004030320237008701378012043F08003137002F0F6FB0E4A04210E4B11701B78002B83
:40210000B9D000F021F93046BDE8704002F0F4BBCC8AFF1F80E100E0A5430040B543004094430040096000402860004008600040126000409C93FF1F604B61491B78614AC9
:402140000978013B02EBC1025268DBB2117A994240F29B8002EBC303DB681A7ADB68002A00F0AA802DE9F04F013A5749D2B2023203EBC20283B00C465448DFF86CE10833CD
:402180004FF0010A4FF0000902E00833934279D013F8085C4F5D465DB742F6D0665D13F8077CB742F1D19EF80060B542EDD113F806CC13F8056C0CF07F077D1E2D011CF06E
:4021C000800FEDB206F0030662D1012E4FEA470606EB070C01963E4E08BF4FF0050BB04606EB8C0C18BF4FF0090B8CF801908CF805B0DFF8F8C0019EAC448CF800A033F829
:4022000004CC374408EB8706A6F808C013F806BCDFF8DCC086F804B013F805BCAC4408F827B086F80390B6F808802A4FC8F307288CF80080B6F808C02F445FFA8CFC87F871
:4022400000C0B6F806C0244F5FFA8CFC2F4487F800C0B6F806C0214FCCF3072C2F4487F800C0B6F806C01E4F5FFA8CFC2F4487F800C0F7881B4E0833C7F307272E449342D6
:40228000377085D103B0BDE8F08F00231B7AFFDE012E4FEA470606EB070C01960C4E0CBF4FF007084FF00D0806EB8C0C8CF801A08CF80580B0469CE7704700BF9C93FF1FAB
:4022C0009393FF1F688500009093FF1FA093FF1FB493FF1F0D60004086600040876000408460004085600040046000400E6000400C60004030B4054684B0114B04AC0FCB2C
:4023000004E90F00CDB12A46222103230D4805F1200429706B7010F8013B04ADDBB203F00F01294405EB131311F8101C13F8103C937002F8041FA242EDD104B030BC7047BA
:402340000885000000010049F0B5214A214C224E01210C2580274FF0080E27E0007900064CBF157082F800E00B4404EB830318891032C0F3072002F8120C18890131C0B2FC
:4023800002F8110CD888C0B282F86800D888C0F3072082F86900D888C0B282F86600DB88C3F3072382F86730B2420CD04B00581882F8725004EB800090F805C0BCF1000FF0
:4023C000CCD11770D0E7054BFF221A70F0BD00BF0E600040B493FF1F8E6000400A6000400D4B0E491B780E4A0978013B02EBC1025268DBB2117A994209D902EBC303DB6824
:402400003BB15A68127903EBC20358697047002070471846704700BF9C93FF1F9393FF1F6885000000212DE9F84F0B466C4F01EB4104013107EB8402092907F82430937022
:402440004FF000045370D370537113819372EED128B1644A644B14701C7054705C70634B1A78002A00F0B68061491B78614A0978013B02EBC1025268DBB2117A994240F25D
:402480008F8002EBC303D3F80C905B4AD9F8043099F80880DB7908F1FF3E13F0400F13785FFA8EFE14BF43F0010303F0FE030EF1020ED9F80C10DFF82CC113704FEACE0E8E
:4024C00001204FF0000BC6B2B8F1000F3CD000EB400507EB850501F1080301EB0E0402E00833A3422ED013F8062C02F07F018142F6D1298933F804AC89B2514538BFA5F863
:4025000008A013F8081C13F807AC1CF801108A45E6D113F8051C120601F0030143D4012985F801B04ED009226A7113F8022C012A4BD013F8062C08332A7113F80D2CA342D4
:402540002A70D0D1D9F80C1001300928BBD1B8F1000F10D08E4401F1080212F8063C12F8081C03F07F0303EB4303083207EB830372459972F1D1FFF733FF204B0121186059
:40258000002301EB410207EB8202D38012890131134409299BB2F4D1BDE8F84FFFF7D4BE00235B68FFDE012291426A7014D00D226A7113F8022C012ABBD10229B9D1104AA4
:4025C0001670B6E705226A71B3E7022904BF0D4A1670AEE7BDE8F88F07226A71A9E700BFB493FF1F9093FF1FA093FF1F9C93FF1F9393FF1F68850000B193FF1F8C93FF1F29
:402600004194FF1F4494FF1F124B1A7802F07F02531EDBB2072B1AD80F4902EB420201EB82029178002041F001019170D07051781B0141F0020151701279DBB212F0800F14
:40264000064A14BF8D2189219954FFF7A1BB0020704700BF04600040B493FF1F0E6000401C4B1B7803F07F03591EC9B2072924D810B4194A03EB430302EB83039A78174887
:4026800002F0FE02090100249A70C9B2DC700A5C02F07F020A545A7802F0FD025A701A795B7812060BD4012B0D4B0CBF08220922CA545DF8044BFFF76BBB00207047012B83
:4026C000074B0CBF0C220D22CA545DF8044BFFF75FBB00BF04600040B493FF1F0C6000400E600040154A164B1648127816491B780078013B01EBC0014968DBB2087AD2B22D
:4027000098420AD901EBC303DB685B681B79934201D9012A04D90020704700235B68FFDE10B40A490A4C8B5C0A48DBB2A35403780120DBB28B545DF8044B7047046000400E
:402740009C93FF1F9393FF1F688500009093FF1FA093FF1F0260004038B5A24C0022A24B22801B7813F0800FA04B1B7811D1013B0A2B0CD8DFE803F0420B600B570B0B0B57
:40278000750B28009A4B1A78012A40F20481002038BD0A2BFBD801A252F823F02D2900008F2700008F2700008F2700008F2700008F270000C12800008F27000067290000E8
:4027C0008F270000AB280000FFF78CFF0028DED0874B88481C78884AE4B20121874B047011701B78002B40F0C680854B854A1B5DDBB21355BDE83840FFF7CABA7A4B1B7843
:4028000003F00303012BBDD0C0F01681022BBED103F1804303F5C0431B78002BB7D1BDE83840FFF71DBF784B784A1B78DBB21370BDE83840FFF7ACBA6B4B1B7803F0030319
:40284000012B9FD0C0F0BF80022BA0D103F1804303F5C0431B78002B99D1BDE83840FFF7D3BE694B1B7803F0FF027BB1684B69491878531E01EBC0014968DBB2087A98429E
:4028800085D901EBC303DB68002B80D05B4B19788A4206D00121584C08461A702170FFF7C1FDBDE83840FFF773BA0122504B22801B78534A13446360BDE83840FFF790B948
:4028C000554B1A78012A70D01A78022A00F0C6801B78032B40F0BE804B4D504A2B7863B1137853B1002301E0117831B1107801332978DBB299420244F6D8434B48481D78A5
:402900001978EE2D08BF024629B146491B78097C994200F0C3801378002B3FF438AF137823806260BDE83840FFF75AB92E4B1B7813F0030322D0022B7FF429AF2C4A2380CF
:402940001378394A03F07F0303EB430302EB83039A78364BD2B200211A7059706360BDE83840FFF73DB9254B012222806360BDE83840FFF735B9FFF7DFFB36E702212C4A57
:4029800021801178294AC9B2117053706260BDE83840FFF725B91C4A264910781B78DBB2CA5C22EA0002CA547BE7194A194B1178122203EBC1035B685B6863602280BDE811
:4029C0003840FFF70DB9104B1B78012B7FF4DFAE174A137843F002031370BDE83840FFF7D7B900BFA493FF1F0060004001600040046000408993FF1F9693FF1F9C93FF1F78
:402A00009093FF1FA093FF1F026000409493FF1F9393FF1F6885000003600040C08500005485000004870000B493FF1FD08AFF1FB193FF1F9893FF1F1B4B1B78012B7FF480
:402A4000A6AE1A4A137803F0FD031370BDE83840FFF79EB9BDE8384002F0D6B8124B14491B78144A0978DBB202EBC1025268117A99427FF68CAE02EBC303DB68002B3FF40A
:402A800086AE5B6863606368DA7863689B7843EA02232380BDE83840FFF7A2B80648FFF729FC054A37E700BF02600040B193FF1F9393FF1F688500009898FF1F084B1B7801
:402AC0001B0601D400207047064B1B78012BF9D1054A064B11785A601980FFF781B800BF00600040016000402C850000A493FF1F38B5134D134B00242C722C701C706C700D
:402B0000AC70EC7001F04CFF0420014600F02CFC0320022100F028FC0B4B2C752C731C706C73AC73EC7301F0FDFF0620042100F01BFCBDE838400520022100F015BC00BF61
:402B4000D48AFF1F4094FF1F4394FF1F08B5054A054B002111701878FEF79AFFBDE80840FFF7C6BF4294FF1F4494FF1F7F200346084910B4084A802408704C70013BDBB294
:402B800002F80839002BF9D1044A13705DF8044B704700BFF881FF1FF87B004000780040172817D869B90C4900010B46425C034402F0DF0242541A78002042F001021A7042
:402BC0007047054900010B46425C034442F020024254F0E70120704710700040172810D810B4094A03011A441179074C41F0040111711A5D002042F001021A555DF8044B2C
:402C000070470120704700BF1070004017280BD8064A0001835C01F0070103F0F10343EA4101815400207047012070471070004041F6FF73994208BF4FF400519A4208BF1F
:402C40004FF40052172808D8C00000F1804303F5EC4399800020DA8070470120704700BF172805D8034B00010344597200207047012070471070004070B417289DF80C60D4
:402C80009DF8105018D8C00001F07F0103F00F0300F1804441EAC21143EA061304F5EC4405F00F050022C9B2DBB221706370A570E270104670BC7047012070BC704700BFDD
:402CC00010B501F015FE0B4B5A78182A04D8FF2401F012FE204610BD1C78013AE10001F1804101F5F04109785A70197001F004FE204610BDF881FF1F10F0800F11D130B4FE
:402D000011F470450AD1C40004F1804404F5F0442180A270E370284630BC7047012030BC70470120704700BF030608D4C00000F1804303F5F04399800020DA8070470120F3
:402D4000704700BF2F4B1B785A070AD12E4B1B78DB0706D52D4901230A7802F0FD020A7006E0284B1B7803F00703012B09D0002308283ED8DFE800F037312B251F19133DF6
:402D80000B00234B1B7813F00103E3D1F0E7214A21491278D2B20A70002B2CD170471F4B1D4A1B78DBB2137070471D4B1A4A1B78DBB2137070471B4B174A1B78DBB213707E
:402DC0007047194B144A1B78DBB213707047174B114A1B78DBB213707047154B0E4A1B78DBB213707047134B0B4A1B78DBB21370704701BE7047054A137843F002031370BF
:402E0000704700BF93430040A543004009600040B54300400F010049A14600400D0100490C010049890100490B0100490A0100490901004908010049F8B5184A137843F0E2
:402E40000103137000B9F8BD1549164B0D7892F860711E7805F004051820EDB2FFB2F6B2114C00F0CBFE012000F0B2FE10F0010010D12378DA07F6D52378DB07F3D525B9D7
:402E8000074A137803F0FB031370084A054B17701E70F8BD1020002DF7D1F1E72042004000430040824300402542004080430040024A137803F0FE031370704720420040DE
:402EC0001549164A0B7843F010030B70137843F01003137000B9704770B5114B11F8A04C12F8306C1D7804F004040020E4B2F6B2EDB200F083FE012000F06AFEC307FAD5DF
:402F000024B9084A137803F0FB031370064A044B16701D7070BD00BFA0430040B04300408243004000430040804300400549064A0B7803F0EF030B70137803F0EF03137070
:402F4000704700BFA0430040B043004070B54A4B08281C78064604F007041AD00546062C00F28880DFE804F02C052E1030042A000524AC4209D9082E78D8DFE806F027363A
:402F80007161695159773E0000243046FFF7DAFEF1E70325062C6DD801A353F824F000BFC12F00008B2F0000C52F0000892F0000C92F0000712F0000BD2F00000624D8E713
:402FC0000224D6E70324D4E70424D2E72A4A137803F0B80343F003031370274AA542137803F0EF03137016D370BD234A137803F0B80343F001031370EFE71F4A137803F044
:40300000B80343F0420313701B4AA542137843F010031370E8D23046BDE87040FFF792BE154A137803F0B80343F005031370D4E7114A137803F0B80343F006031370CCE758
:403040000D4A137803F0B80343F002031370C4E7094A137803F0B80343F004031370BCE7054A137803F0B8031370B6E701BE082ECAD0B2E701BE7CE700420040012816D0EB
:403080000FD302280BD14FF040210B780E4A03F0BF030B70137843F020031370704701BE7047094A137803F0DF03137070474FF040210B78044A43F040030B70137843F0DF
:4030C00020031370704700BF00420040024A137843F010031370704700420040024A137803F0EF031370704700420040044A00F00300137803F0FC0318431070704700BFD2
:4031000005400040014B1870704700BF04400040F8B5044601F0ECFB3A4A3B4B12781B78D2B2DBB24CB353EA02234FD1374A1378DBB2062B01D807211170354D354E2978C2
:40314000354A002701F0F001297037701178334F41F080015FFA84FE240A117087F800E006F80D4C15F8131C41F0010105F8131C117801F0BF0111701FE0244A1378DBB2AF
:40318000062B20D9244A224D1178224E41F0400111702C78002104F0F0042C70317014781E4F44F080041470397006F80D1C15F8132C42F0010205F8132C144A1370BDE8EA
:4031C000F84001F099BB07211170DBE7104A114D1378002603F0F0030F4913702E700B780E4EE7B243F08003240A0B70133A377005F80D4C137843F001031370BDE8F840DC
:4032000001F07ABB07400040064000400440004014400040104000400840004002400040024A137843F004031370704700430040F0B5264C83B08DF80600237843F0010334
:40324000237008B903B0F0BD214B2249224A18200F7816781D7800F0D1FC9DF80630FFB2F6B2EDB213B3042322788DF807309DF8073073B1012000F0ABFCC207FAD59DF8DD
:403280000730013BDBB28DF807309DF80730002BF0D12378190617D59DF80630013BDBB28DF806309DF80630002BDCD110207B0704D4084A137803F0FB031370064A044B88
:4032C00016701D7003B0F0BD0020F0E710420040824300400043004080430040024A137803F0FE03137070471042004001BE7047B0F5004F70B506461AD904460D4DA4F5A5
:403300000044686801F0ECFAB4F5004FF7D8A6F50043013B23F4FF4323F07F03A6F50046F61AA86800FB06F0BDE8704001F0D8BA004DF6E70082FF1F024B1B7803FB00F071
:4033400001F0CEBA0082FF1F064B1F281A6800D901BE00F01F0000F1100352F8230042F82310704708ED00E0072900D901BE1F2800D901BE00F01F0000F16040490100F583
:403380006440C9B2017070472DE9F04FDFF8A8A15648DFF8A891DFF8A881DFF8A8C19AF80010534B99F800B0043098F800209CF8006010F8045C10F8024C007859724D4973
:4033C0004D4F097883F80AB097F800B0DA724B4ADFF874E112781E73494E083F36785D73484D2D789C73484C2478D8734748007819744749097883F811B097F818B09A74AE
:40340000444A1278DE741D755C759875D97583F818B05A76404A414E92F800B00232127883F81AB097F81EB0DA763D4A3D4D127883F81CB09EF800B05A773B4A3B4C1278BF
:4034400083F81EB096F800B0DA772A7883F820B094F800B0364883F821203649027883F822B091F800B083F82320002283F824B08AF80020DFF8D4B089F8002088F8002025
:403480008CF8002007F8042C07F8022C3A70BA713A727A72BA723A73BA733A74BA753A767A76BA763A77BA7787F820208EF8002087F8282032702A70227002700A709BF891
:4034C000002002F0080202F0FF011AB983F82E10BDE8F08F9BF80020012102F0F7028BF8002083F82E10BDE8F08F00BF065A0040EC8AFF1F105A0040125A0040135A0040D8
:40350000145A0040165A0040185A00401A5A0040205A0040235A0040245A0040335A00402A5A0040345A0040325A0040365A0040385A00403A5A0040005A0040025A0040BB
:40354000035A0040045A0040305A0040224300402DE9F04F3F4B404D93F809C093F80AE03E48DE7A93F80CB093F80DA093F80E9093F80F803A4A85F800C093F810C0394C2B
:4035800080F800E093F811E0374916709E7C374F84F800B093F813B081F800A093F814A087F8009093F8159085F80A8093F8168080F80EC093F817C082F80FE093F818E0C4
:4035C000E6735C7E2A4E81F80EB087F80EA085F8189080F8188082F81DC086F800E04C7793F81AE0DE7E1C7F597F93F81EB093F81F9093F820C087F81CE093F8217085F8A9
:40360000266093F8225080F8264093F8230082F8271093F8242093F82E30DFF868A0DFF86880DFF868E0134E134C1449012B8AF800B088F800908EF800C0377025700870D0
:403640008AF80A2004D10E4A137843F008031370BDE8F08FEC8AFF1F005A0040025A0040035A0040045A0040065A0040085A0040225A0040345A0040365A0040385A00408E
:4036800022430040305A0040325A0040335A004038B57449744B0A781D780878002400F0F000087018781C7091F85F346F4C02F00F0203F0C003372084F8302084F83530D6
:4036C00084F8315001F0D0FA694B19781A781B7802F0400201F0070103F0100384F8342084F8331003F0FF02002B75D0012384F83930604B1B7803F00303012B84F8323038
:4037000000F095805C4B1B7813F0010340F0898084F83E300220FFF719FC584B1B7803F0100303F0FF02002B72D0012384F836304F4B1B7803F0200303F0FF02002B48D0D6
:403740004FF040231B78002013F0400F0CBF0223012384F83730FFF791FC4FF04022137803F0300384F838301BB1137803F0CF0313703F4B1B78DB0647D4414B1B78DBB28E
:4037800084F83A30002B3CD194F83230002B34D13C4A3D4B12781B7812021343A38743BB334B3A4A1B7803F00703D05C01F05CFA374B1B7813F0010315D184F83F30354B9E
:4037C0001B7803F0040303F0FF0243B984F8402038BD84F83720C0E784F8392089E7012384F8403038BD012384F83F30FFF776FDE5E70020FFF78CFCD2E70020FFF776FC94
:40380000C6E70020FFF77EFCBEE7FFF767FCB4E7104684F83620FFF753FB0620FFF78CFD86E7012384F83E30FFF742FB72E74FF040231B7803F00303012B0AD005D3022B61
:403840000BD10320FFF752FC5CE70020FFF74EFC58E70220FFF74AFC54E70020FFF746FD50E700BFA1430040A2430040EC8AFF1F004200400540004020420040A043004092
:403880000440004007400040064000401C850000104200400B4000402DE9F043814E824D334653F8080F95F8402099889B7983B0012A0090ADF804108DF8063000F0A18062
:4038C00095F83F30012B00F0B180372001F0CCF995F83200744C831E012B7ED9724B95F8342093F8333012F0400F02AA134413F8080C02D0032800F0D180FFF727FB95F8ED
:4039000034306A4A13F0400F137814BF43F0400303F0BF03137095F83630012B44D095F83700FFF7ABFB95F83930012B66D04FF040210A7895F8383002F030029A4204D03B
:403940000A7802F0CF0213430B7095F83E30012B00F08A8095F83200534C01282FD995F836301BB9524B1B78DB0644D4514A524B12781B78A88F43EA0223984201D0FFF712
:40398000C7FB4E4995F835200B7895F8306095F831404B484B4D03F03F0313430B702E70047003B0BDE8F083414B1B7803F0100303F0FF00002BB2D1FFF782FAAFE7424AC7
:4039C00094F83A3012789A4204D01846FFF79AFB94F83200FFF78AFBC1E73B4A94F83A3012789A4204D01846FFF78CFB94F83200FFF77CFB72E7FFF799FAB7E7FFF766FB3B
:403A000095E72A4B1B7803F00703F05C00EB8000C0EB001000F064FF2C4A137843F00403137095F83F30012B7FF44FAF0020FFF7FFFB274BDFF8749098461B780524C82703
:403A400099F80030013C03F00703F05CA4B207FB00F000F045FF98F8003013F0800F3FF434AF002CECD130E70020FFF7E5F95020FFF762FC174BAB241E461B780120FFF724
:403A80005BFC3378013C13F0010FA4B203D03378DA073FF55FAF002CF0D15BE70820FFF755FA38E71C850000EC8AFF1F00420040A043004007400040064000400048004093
:403AC000A2430040A1430040044000400B4000401042004025420040F8B50C46064600F007FF344B1B7803F0080303F0FF01002B53D1314A0546137803F01F031370002E8B
:403B000053D1FFF741FC2D4AC4F307102C4B167804F00F0110701878C4F3003419706FF4CC710B44917894701A78264C607150072671A17135D019781A7801F0070102F078
:403B4000F802002084F82C101A7084F82D00194A137803F0F80343F003031370137800BF00BF30BF94F82D30164A012B07D0164992F82C200B7803F0F80313430B70FFF7F7
:403B8000E7FC284694F804E06679A2790B4F0C490E4B87F800E00E701A70BDE8F84000F0ABBE012384F82D30D1E70846FFF79EFBA7E700BF9343004083460040984300408C
:403BC00099430040EC8AFF1F004200409A43004038B5054600F08CFE064A074B1C7892F842301C4324EA050582F8425000F084FE204638BDEC8AFF1F9043004038B5124C50
:403C00000546237803F0FD032370FFF709FB2378DB070DD50D4A1378AB4213D0237803F0FE0323701570237843F00103237038BD064B1A78AA42044A18BF1D70137843F0CD
:403C40000103137038BD00BF8243004080430040F8B500F04DFE214A04461378204943F0010313700B781F4843F001030B70037801F5AA5143F001030370D379083143F04C
:403C80000103D3710A7800F5AB50174B0430182542F003020A7005701A78144E42F040021A701A78A0F5975002F0FC021238C82702251A703770057091F824320A2043F01F
:403CC000080381F82432FFF737FB094B042220461A60BDE8F84000F00FBE00BFAB430040BB430040A2430040055900400059004080E200E00A2838B5044630D00C2826D072
:403D0000082818D00020FFF7F1FAC223174A0A2C137017D00C2C24D0082C0FD00020FFF7E5FA00231A46124C124813490025258002600B8038BD0D4B42221A70802340F2F2
:403D4000E242F0E74FF4007341F28832EBE7074BC2221A704FF4006344F62062E3E78223D4E744F620624FF40063DCE7025900406894FF1F6C94FF1F6A94FF1F08B5102086
:403D800000F0AAF802200721FFF7EEFA07490220FFF7DAFA064A0C20137843F006031370FFF7A8FF034B00221A8008BD253E0000015900407094FF1F10B5054C23781BB937
:403DC000FFF7DCFF01232370BDE81040FFF740BF308BFF1F024A137843F00103137070470059004038B5084A00E050B91378064D13F00104F9D02046FFF79EFA2B782046C3
:403E000038BD0024204638BD01590040034A044B1B881088181A00B2704700BF6A94FF1FA05B0040704700BF08B5104843F6972100F044FF43F697210D4800F03FFF00F0D9
:403E400057FD0C4A137843F01003137000F054FD094A1378190704D508490B6813781B07FBD4074B01221A7008BD00BF2865004008650040996500406965004048650040B6
:403E80008965004010B5064C23781BB9FFF7CCFF01232370034A137843F08003137010BD318BFF1F7965004070B4074B074E1D6807494FF48063E024064A3360A8660C70C9
:403EC00070BC1360704700BF08ED00E080E100E00AE400E000E100E0034A00F0F800137818431070704700BF8240004010B501214FF4804241F6FF73022000F04DF941F6D1
:403F0000FF72084C134620700121042000F066F96070054800F080F9BDE81040072000F081B900BF348BFF1F55400000F8B52A4D2A4C2878FEF752FE6878FEF74FFE207808
:403F4000FF2845D0264E062302460421B6B2FEF7D3FE324645F6A2312078FEF7E5FE28782178FEF77DFE60781C4FFF282CD0072302460421FEF7C0FE1A4A314692B2607887
:403F8000FEF7D2FE61786878FEF76AFE01212878FEF706FE01216878FEF702FE00F0A8FC114A137843F02003137000F0A5FC0F4B0F491A78802042F001021A701A7842F029
:403FC00002021A700860F8BDFEF77AFE7870CEE7FEF776FE2070B5E7348BFF1F1082FF1F388BFF1F7494FF1F986400407964004080E200E010B5074CA3681BB9FFF776FFE6
:404000000123A360FFF792FF00F0A4F8024B1B7810BD00BF348BFF1F6865004000F0B4B8044900E020B90B7803F0FF02002BF9D01046704768650040044A054BC0F10100B9
:4040400033F810301088181A00B270477E94FF1F7494FF1F704700BFF8B500F049FC044619481A4A03781A4943F002030370137800F5AB5043F0020313700A78154B033011
:40408000182542F003020A7005701A78124E42F040021A701A78A0F59750183802F0FC02C82702251A703770057091F824320A2043F0080381F82432FFF73EF92046BDE855
:4040C000F84000F019BC00BFAB430040BB4300400B5900400D590040085900400A2810B504462AD00C2822D0082817D00020FFF7FDF8C223134A0A2C137015D00C2C1ED024
:40410000082C0ED00020FFF7F1F800220E4C0F480F490023238002600B8010BD094B42221A704FF40072F1E74FF40062EEE7054BC2221A704FF40052E8E78223DAE74FF4AF
:404140000052E3E70A5900408094FF1F7894FF1F7E94FF1F38B5094C25785DB9084A0820137843F006031370FFF7B8FF054A012315802370BDE83840FFF76EBF408BFF1FCA
:40418000095900407C94FF1F024A137843F0010313707047085900402DE9F0418E4690461F4682B00C4C0125002672462B4601460096284601962570FEF75EFD41463A4623
:4041C0002078FEF735FD20780221FEF71FFD207802B0BDE8F08100BF1282FF1FF0B58E4617461E4683B000250A4C72462B4601460095019528462570FEF73EFD39463246B6
:404200002078FEF715FD20780221FEF7FFFC207803B0F0BD1382FF1F014B1B68D865704708ED00E04001024BC0B21870704700BF07E400E008B500F05BFB044A137843F019
:4042400010031370BDE8084000F056BB9A640040094B1A786AB9F0B40848094E094C0627472501213770257002701970F0BCFFF7E1BFFFF7DFBF00BF418BFF1F8A64004034
:404280002D6400403D640040034A13785B07FCD4024B1870704700BF6A6400404A6400402DE9F8431648174BDFF87CE01649174D174E00244FF400424FF0080C4FF0020949
:4042C0004FF08108262780F8009081F800800F208EF800C0072137702C701A60FFF744F80C490F20FFF730F80B480C490C4A0D4B102505700C7014701C70BDE8F88300BF0F
:40430000D649004080E100E0C8490040DC490040DB490040814300008294FF1F8E94FF1F9594FF1F8D94FF1FCA49004008B500F0DFFA0749074A0B7843F004030B701378C8
:4043400043F004031370BDE8084000F0D5BA00BFA5430040B543004010B5074C23781BB9FFF79EFF01232370FFF7E0FF034B4FF400421A6010BD00BF438BFF1F00E100E0C9
:40438000F8B5854B854D1C782B78E4B2590640D5E2072AD52B78453B052B7ED8DFE803F003657D7D033F04F00A03082B04F0DF0400F08B800A2B70D1794A7A49137843F0BE
:4043C000A00313700B789F0740F189802B78117813F0080F0CBF0A23092373480B4360264FF4004113702E700160A20616D52B786B4913F0080F0B7814BF012002206B4AE3
:4044000003430B701378102103F0EF0313702970F8BD2B78DB065CBF10232B70F8BD644A64496548137809780068DBB2C9B2C154137862490133DBB2137012780B789A422B
:404440003FD3584B1B7803F0020303F0FF02002B74D0534A54491378602643F009034FF4004013702E700860BFE7A60719D4544B544A19781278914250D253491A780968D7
:40448000D2B28A5C4B4E4449D2B20420327008701A780132D2B21A70A7E70020FEF726FFA3E7404B1B78990725D53D4A3E491378602643F09A034FF4004013702E700860D2
:4044C00093E7354B10221A708FE72B78334A452B3CD0314900204A230870137085E7334A3A4E13782C4943F010031027042013703770087079E72D49344F0B78264843F0C1
:404500001003274A4FF0100E04260B7087F800E00670137843F09003137066E7214B1B789807DCD51E4A20491378602643F00A034FF4004013702E70086056E71B49164883
:404540000B7843F010030B7002704EE71D4B1B7893B11D4BDFF85CC01B680F4F1B781848DBB24FF0040E012646218CF8003087F800E00670117038E70A4B1B789B07AED540
:40458000074909480B78602743F00A034FF400460B701770066028E7D74900408294FF1F8E94FF1F8C94FF1F80E100E0D64900409594FF1FD84900408894FF1F8494FF1F46
:4045C0008D94FF1F9494FF1F9094FF1FD949004059B12DE9F041244C2578102D07D02578602D0AD00220BDE8F081022070471F4D2D782D0731D41E4D08E01E4E1C4D4FF456
:40460000004737602E7806F0F7062E701A4EDFF880E01A4F4FF045084FF0000C84F800808EF800C03A7033702A784000144E154CC0B202F0FD02DB072A70316020700FD56E
:404640000A49114B1220042208701A700F4B4FF400421A600020BDE8F0810120BDE8F081024B01221A70F1E78294FF1FD94900408E94FF1F80E200E08C94FF1F9494FF1FFD
:404680009094FF1FD8490040D749004000E100E08D94FF1FF0B5030183B0DBB200F0F00043F00D0743F0090540F00D0640F0090401A90422002327208DF806708DF8075095
:4046C0008DF804608DF80540FFF782FF4FF4FA70FEF732FE03B0F0BD38B50546007838B10124FFF7D7FF285D0134E4B20028F8D138BD00BFF0B5030183B0DBB200F0F00096
:4047000043F00C0743F0080540F00C0640F0080401A90422002327208DF806708DF807508DF804608DF80540FFF752FF4FF4FA60FEF702FE03B0F0BD032816D8DFE800F0A8
:40474000110C0702A1F12C00C0B2FFF7D3BFA1F16C00C0B2FFF7CEBFA1F14000C0B2FFF7C9BF81F08000FFF7C5BF704730B500F0F00083B040F00C0540F0080401A9022241
:40478000002327208DF804508DF80540FFF720FF4FF4FA60FEF7D0FD03B030BD08B51420FEF7A6FD3820FFF7E1FF0520FEF7A0FD3820FFF7DBFF0520FEF79AFD3820FFF743
:4047C000D5FF0520FEF794FD2820FFF7CFFF0520FEF78EFD2820FFF78DFF0520FEF788FD0120FFF787FF0520FEF782FD0620FFF781FF0520FEF77CFD0C20FFF77BFFBDE87A
:4048000008400520FEF774BD10B5064C63781BB9FFF7C4FF012363700C20FFF76BFF0123237010BD448BFF1F10B5092884B043D92A4C0023A4FB0021C90801EB8102A0EB08
:40484000420288B204A930321944092803F1010301F8082CDBB2214AECD8A2FB0012D20802EB8202A0EB4202303204A9D2B219441C4601F8082C184613B92AE012F8082C82
:40488000E11A0DF1100E714401F8102C7246013B13F0FF031A44F1D19DF80830421C04A90A440C446846002104F8103C02F8101CFFF712FF04B010BD084B0122A3FB00137C
:4048C000DB0803EB8303A0EB43033033DBB20024E5E79DF808300122E1E700BFCDCCCCCC0230800803D000BF01380046FCD17047EFF3108072B6704780F31088704700BFE7
:4049000038B510490320FEF71FFD03200721FEF72BFD0D4B0D492022712008701A700C490420FEF711FD04200721FEF71DFD094C09490A4B072548200222257008701A70F0
:4049400038BD00BFD14C00008465004084640040514D000028640040386400408F64004038B5FFF7C5FF0B490B4C0B780B4A43F020030B702378082543F01003237015608B
:40498000CB7A10242343CB721460BDE83840FFF7B3BF00BF946400409465004000E100E010B5054C23781BB9FFF7AAFF01232370BDE81040FFF7D4BF468BFF1F38B5FFF7C6
:4049C00097FF0B490B4C0B780B4A03F0DF030B702378082503F0EF0323701560CB7A102403F0EF03CB721460BDE83840FFF784BF946400409465004080E100E010B5FFF7C7
:404A000077FF0B4B0B4C1A7842F001021A701A7802F0FE021A70FFF76FFF074B00220821064821605A709A70DA701A71016010BD9765004080E100E0468BFF1F00E100E020
:404A400010B5FFF755FF0A4B0A4C1A7842F001021A701A7802F0FE021A70FFF74DFF064A102300210548236091715171036010BD9C64004080E100E0468BFF1F00E100E042
:404A800038B510490520FEF75FFC05200721FEF76BFC0D4B0D492022712008701A700C490620FEF751FC06200721FEF75DFC094C09490A4B072548200222257008701A706B
:404AC00038BD00BFB94D00008664004085650040394E000020640040306400408364004038B5FFF705FF0C490C4C0B780C4A43F020030B702378202543F010032370A1F5D5
:404B0000817115600B78402443F010030B701460BDE83840FFF7F0BE956500409664004000E100E010B5054C23781BB9FFF7A8FF01232370BDE81040FFF7D2BF4E8BFF1FB0
:404B400038B5FFF7D5FE0C490C4C0B780C4A03F0DF030B702378202503F0EF032370A1F5817115600B78402403F0EF030B701460BDE83840FFF7C0BE956500409664004094
:404B800080E100E010B5FFF7B3FE0B4B0B4C1A7842F001021A701A7802F0FE021A70FFF7ABFE074B00222021064821605A709A70DA701A71016010BD9565004080E100E0C7
:404BC0004E8BFF1F00E100E010B5FFF791FE0A4B0A4C1A7842F001021A701A7802F0FE021A70FFF789FE064A402300210548236091715171036010BD9364004080E100E01C
:404C00004E8BFF1F00E100E0134B1B7803F00303012B1CD0022B07D00023104A1268D35C012B12D0002070470D4B0E4A1B7803F07F0303EB430302EB83030833074A9B78AD
:404C40001268DBB2D35C012BECD100F029B9044B1B78DBB2E1E700BF006000408C93FF1F04600040B493FF1F10B50446FFF740FE114A102C137815D9212C0AD9322C94BF33
:404C800043F0C00303F03F031370BDE81040FFF733BE03F03F0343F080031370BDE81040FFF72ABE03F03F0343F040031370BDE81040FFF721BE00BF00480040CAB2C1F3BA
:404CC0000723C1F30741027043708170704700BF18490B789A062CD5174A2DE9F0439046164E1748174D184CDFF860E001274FF0000C137894F80090DBB25FFA89F906F8DB
:404D0000039003780BB18EF8007013780133DBB213701378FF2B08BF88F800C092F800902B78994508BF07700B789B06E1D4BDE8F083704764650040488BFF1F9895FF1F62
:404D4000498BFF1F478BFF1F476500404A8BFF1F144A154813780178994221D0F0B513490B7803F0040303F0FF06C3B91746104D104C02E00B785B0711D41378FF2B08BFB7
:404D80003E701378DBB2EB5CDBB22370137890F800E00133DBB2137013789E45EAD1F0BD704700BF4B8BFF1F4C8BFF1F6F6400409894FF1F4C64004018490B789A062CD588
:404DC000174A2DE9F0439046164E1748174D184CDFF860E001274FF0000C137894F80090DBB25FFA89F906F8039003780BB18EF8007013780133DBB213701378FF2B08BF06
:404E000088F800C092F800902B78994508BF07700B789B06E1D4BDE8F083704766640040508BFF1F9896FF1F518BFF1F4F8BFF1F45650040528BFF1F144A154813780178CC
:404E4000994221D0F0B513490B7803F0040303F0FF06C3B91746104D104C02E00B785B0711D41378FF2B08BF3E701378DBB2EB5CDBB22370137890F800E00133DBB21370D2
:404E800013789E45EAD1F0BD704700BF538BFF1F548BFF1F636400409897FF1F436400400A4B1B78DBB203F00303022B0AD0012B01D00020704703F1804303F5C0431B78E4
:404EC00000207047024B00201B787047006000400160004030B5214A21F00043934287B01BDD1F4A934205DD02460B4602F0E8F907B030BD02AA00F047FF00F0030001280D
:404F00001AD002280FD008B3DDE9020101230093DDE9042301F03CFFEAE70022002301F00FFA07B030BDDDE90201DDE9042301F007FA01F10041DBE70090DDE90423DDE996
:404F4000020101F025FF01F10041D1E7DDE90201DDE9042301F0F4F9CAE700BFFB21E93FFFFFEF7F30B5224A21F00043934287B01BDD204A934205DD02460B4602F0A0F98C
:404F800007B030BD02AA00F0FFFE00F0030001281ED0022811D010B3DDE90201DDE9042301F0CEF901F10041EAE7002300930022002301F0EDFE07B030BD01230093DDE972
:404FC0000201DDE9042301F0E3FE01F10041D7E7DDE90201DDE9042301F0B2F9D0E70124DDE90201DDE90423009401F0D1FEC7E7FB21E93FFFFFEF7F2DE9F04F8BB01F4673
:4050000080468946164600F06FF9DFF8D8A204469AF900300D46013304D03046394602F007F820B9204629460BB0BDE8F08F4046494601F0FDFF834660BB304639460022FE
:40504000002302F059FD0028ECD09AF900309E4C01229E4900208DE814005A1CCDF820B0CDE90289CDE90467CDE906010DD0022B0BD0684602F008F8002800F09380089B04
:405080001BB103F0E1F8089B0360DDE906010BB0BDE8F08F404649460022002302F02CFDF8B1304639460022002302F025FD834600284ED084489AF9003001210022002434
:4050C0000025CDE90289CDE90467CDE90645019000910892002BCCD07C4B0022CDE90623D3E72046294601F00FFF834600285ED0204629460022002302F0FEFC002891D0A1
:405100004046494601F000FF00288BD03046394601F0FAFE002885D09AF900306A480421002200240025022BCDE90289CDE90467CDE9064501900091089200F08880684695
:4051400001F0A2FF002800F08280089B002B9CD097E73046394601F0D7FE00283FF462AF304639460022002302F0D0FC00283FF459AF55499AF800300122CDF820B0CDE97B
:405180000289CDE9046701910092002B3CD050490020022BCDE9060130D103F055F821230360D2E703F050F82123036067E74046494601F0A9FE00289AD03046394601F04F
:4051C000A3FE002894D02046294601F031FF00BB3D4A9AF8004001230890CDE90289CDE90467019200937CB10020002102460B4602F044FB022CCDE90601CED0684601F0D4
:4052000043FF0028A1D1C8E700220023CDE90623F4E72D499AF900300322CDF820B0CDE90289CDE9046701910092ABB9294D4FF060444046494600220023CDE9064502F061
:4052400065FC50BB9AF90030022B7FF478AF02F0FBFF2223036078E71F4D00244046494600220023CDE9064502F050FC0028E9D000221A4B3046394602F0D6F904460D4661
:4052800001F00AFF22462B4602F036FC0028D9D10F4B0022CDE90623D4E700220F4B3046394602F0C1F904460D4601F0F5FE22462B4602F021FC0028C4D1094B4FF0604297
:4052C000CDE90623BEE700BF188700000000F03F0000F0FFFFFFEF470000F07F0000E03FFFFFEFC71482FF1F2DE9F04F144623F00047024657EA04000E468FB01D469C4616
:40530000214634D06E4B26F0004A9A459346B14626DC24D09F4223DC694B9F4200F08F80B9F1000FC0F28F804FF0000879BB644B9F4200F0A580634B9F4267D0BCF1804FF4
:4053400000F0E283604B9C4521D1B9F1000F1EDB104631460FB0BDE8F04F00F029BF62B10AF1404000F5801050EA0B0007D10346544918460FB0BDE8F08F5745CCDD534829
:405380000FB0BDE8F04F01F081BE4FF0000810463146CDF808C0009201F0B2FD009ADDF808C0BBF1000F20D04FEAD97909F1FF3958EA09037AD0464B9F4240F38F8003F168
:4053C00004739F4240F31084424B9A4540F39283BCF1000F40F3928337A1D1E900010B46024602F021F90346C3E7BAF1000F04D0344B29F0404E9E45D6D1BCF1000FC0F2FF
:40540000B683B9F1000F08DB0346B2E7BCF1000FC0F2528413463146ABE70AF1404A0AF5801A58EA0A0340F05E8402460B4601F047FF0B46024602F021FA034699E7002928
:405440003FF46EAF8CE7244B9F422CDCA3F154739F427FF769AF40F213403B15834240F34B84C3F58663033321FA03F000FA03F38B427FF459AF00F00100C0F1020855E7A6
:405480000AF1404303F5801353EA0B0300F03983104B9A4540F36483BCF1000FC0F22E832346294665E74FF002083FE7104631463346BCE7AFF300809C7500883CE4377E6D
:4054C0000000F07F0000F03F0000E03FA88400000000E041FFFFEF3FFFFF3F43BAF5801F4FF0000205DACA4B02F09EF88A466FF034024FEA2A53C74ECAF3130AA3F2FF331A
:405500004AF07F571344B2450C9347F4401740F3D083C14B9A4540F307840026B4460C9BA7F5801701330C933946BC4B4FEACC0C6344D3E900AB52465B46CDF834C0CDE993
:40554000060101F0BDFE52465B46CDE90801DDE9060101F0B7FE02460B460020B04902F08DF902460B46DDE90801CDE90A2302F05BF802460B46CDE90223CDE904237B1077
:4055800043F0005303F5002399190020002306460F460293DDE902231046194632463B46CDE9000102F040F802460B46DDE9080101F086FE5246CDE908015B4630463946DB
:4055C00001F07EFE02460B46DDE9060101F078FE02460B46DDE9000102F026F802460B46DDE9080101F06CFEDDE90A2302F01CF8DDE90423CDE906011046194602F014F8E8
:4056000002460B4606460F4602F00EF86EA3D3E9002382468B463046394602F005F86CA3D3E9002301F04EFE32463B4601F0FCFF69A3D3E9002301F045FE32463B4601F0B2
:40564000F3FF67A3D3E9002301F03CFE32463B4601F0EAFF64A3D3E9002301F033FE32463B4601F0E1FF62A3D3E9002301F02AFE02460B465046594601F0D6FFDDE9042301
:4056800006460F46DDE9000101F01CFEDDE9062301F0CAFF32463B4601F014FEDDE9006782468B4632463B463046394601F0BCFF00225C4BCDE9080101F004FE52465B46BE
:4056C00001F000FE02980F460646DDE9000132463B4601F0A9FF32463B46CDE90001DDE9060101F0A1FF0022CDE906014D4B3046394601F0E5FDDDE9082301F0E1FD0246D2
:405700000B465046594601F0DBFDDDE9042301F08BFF02460B46DDE9060101F0D3FD82468B46DDE9000152465B4601F0CBFD32A3D3E9002302980F46064601F075FF30A312
:40574000D3E90023CDE904013046394601F06CFFDDE90023CDE906013046394601F0B0FD02460B465046594601F0AAFD26A3D3E9002301F059FF02460B46DDE9060101F057
:40578000A1FDDDF834C0284BCDF818C06344D3E9002301F097FDCDE900010C9801F0DEFE06460F46DDE90401204BDDF818C09C44DDE90023DCE900AB01F084FD52465B46D7
:4057C00036E000BFAFF30080EF4E454A287ECA3F65DBC9934A86CD3F01411DA96074D13F4D268F515555D53FFFAB6FDBB66DDB3F033333333333E33F000000E009C7EE3F90
:40580000F5015B14E02F3EBEFD033ADC09C7EE3F000040438E98030079B60B00408700000000F03F000008403087000020870000CDE906AB01F046FD32463B4601F042FD9F
:40584000029832463B4682468B4601F039FDDDE9062301F035FDDDE9042301F031FD02460B46DDE9000101F02BFDCDE9020108F1FF3858EA09030CBFD54BD64B0022CDE923
:4058800004230023CDE900450093DDE90067204632463B46294601F013FD52465B4601F0C3FEDDE90223804689462046294601F0BBFE02460B464046494601F003FD044641
:4058C0000D465246304639465B46CDE9024501F0ABFE06460F4620463B462946324601F0F1FCBD4B824699428946884640F3138101F13F4303F5E003034340F0E581A0A3C6
:40590000D3E90023DDE9020101F0DCFC324604460D463B465046494601F0D2FC02460B462046294602F010F9002840F0CD814C462015A0F2FE304FF4801101414144C1F397
:405940000A50A64CA0F2FF35C1F3130BC0F5826003302C414BF4801B21EA040300224BFA00FB3946304601F0ABFC06460F46DDE902018BEAE87B0BEBD87B32463B464FEA74
:405980000B5A01F09FFC80A3D3E90023002420460D4601F049FE3246804689463B462046294601F08DFC02460B46DDE9020101F087FC77A3D3E9002301F036FE76A3D3E939
:4059C000002306460F462046294601F02DFE02460B463046394601F075FC06460F4632463B464046494601F06DFC42464B4604460D4601F065FC02460B463046394601F072
:405A00005FFC2246804689462B462046294601F00BFE63A3D3E9002306460F4601F004FE61A3D3E9002301F04BFC32463B4601F0FBFD5FA3D3E9002301F044FC32463B464D
:405A400001F0F2FD5CA3D3E9002301F039FC32463B4601F0E9FD5AA3D3E9002301F032FC32463B4601F0E0FD02460B462046294601F026FC06460F4632463B4620462946C0
:405A800001F0D2FD0022CDE900014FF080433046394601F015FC02460B46DDE9000101F0EDFE424606460F464B462046294601F0BBFD42464B4601F005FC02460B463046C6
:405AC000394601F0FDFB22462B4601F0F9FB02460B4600203F4901F0F3FB8A44BAF5801F0246C0F227815346DDE9040101F09CFD03463EE4BCF1000FFFF66EAC00231946FC
:405B000037E40B46334934E433461046314601F08BFD03462DE4324B21F000449C4240F3FA80304B0B4403430CD132463B4601F0C7FB02460B46DDE9020101F0F1FF0028EB
:405B40003FF4F6AE20A3D3E90023DDE9040101F06BFD1DA3D3E9002301F066FD034608E4BCF1000FCADA234605F1004101E402460B460020174901F081FE42E4AFF30080AA
:405B8000FE822B654715973C00000000432EE63FEF39FAFE422EE63F396CA80C615C20BED0A4BE726937663EF16BD2C541BDBB3E2CDE25AF6A56113F93BDBE166CC1663FB1
:405BC0003E5555555555C53F59F3F8C21F6EA5010000F0BF0000F03FFFFF8F40FFFF0F00FFCB904000346F3F634B9A4582DD634B9A453FF7EDAB0022604B01F061FB54A3F5
:405C0000D3E9002306460F4601F00EFD52A3D3E90023CDE900013046394601F005FD3246CDE902013B463046394601F0FDFC002282468B4630463946514B01F0F5FC02466E
:405C40000B4647A1D1E9000101F03AFB32463B4601F0EAFC02460B4600204A4901F030FB02460B465046594601F0DEFC3EA3D3E9002301F0D9FC02460B46DDE9020101F060
:405C80001FFB06460F46DDE9000132463B4601F019FBDDE90023002082468B4601F010FB02460B463046394601F00AFBCDE90201DDE50026B44637E4334600202F4901F08A
:405CC000DDFD0346FFF755BB29A3D3E90023DDE9040101F0A9FC26A3D3E9002301F0A4FC0346FFF746BBB8F1010F03467FF441AB01F10041FFF73DBB00297FF446ABC3F52F
:405D00008263033347FA03F000FA03F3BB4217D08846FFF710BB1B4B9C423FF709AEDDE90023924693462EE64FF480264FF0010CFFF7FABB5A4601F03FFA02460B46D3E6D6
:405D400000F00100C0F10208FFF7F5BAAFF30080000000604715F73F44DF5DF80BAE543E555555555555D53FFE822B654715F73F9C7500883CE4377EFEFFEF3F0000F03F7F
:405D80000000D03F0000E03F2DE9F04F924C21F00047A7428FB00E467FDD14468F4A974226DC83A3D3E90023002940F39D8101F087FA8B4B80469F42894600F083807EA3F3
:405DC000D3E9002301F07CFA02460B464046C4E90023494601F074FA77A3D3E9002301F06FFA0125C4E9020128460FB0BDE8F08F7C4A974240F383807B4A974258DC3D150D
:405E0000A5F21645A7EB05518B46824601F0A6FE01F0A4FB8046894642464B4650465946CDE9088901F04CFA0022704B01F0FCFB8B46824601F092FE01F090FB8046894679
:405E400042464B4650465946CDE90A8901F038FA0022664B01F0E8FB00220023CDE90C0101F04AFE002800F06781002340464946002201F041FE002814BF012302235C480E
:405E80000221019000912A4608A8214600F07CFB002EC0F24781054606E0C2E9000100250024C2E90245002528460FB0BDE8F08F02460B4601F004FA0025C4E90201C4E96F
:405EC0000001F1E73EA3D3E9002301F0F9F93EA3D3E9002306460F4601F0F2F902460B463046C4E90023394601F0EAF936A3D3E9002301F0E5F90125C4E90201D4E700F0AF
:405F0000FFFF33A3D3E900238046894601F08CFB0022384B01F0D6F901F020FE054601F01DFB23A3D3E90023CDE9040101F07CFB02460B464046494601F0C2F91EA3D3E93A
:405F4000002382468B46DDE9040101F06DFB1F2DCDE902015046594650DC274B6A1E53F82230BB424AD0DDE9022301F0A9F902460B4681468846C4E900234A464346504602
:405F8000594601F09DF9DDE9022301F099F902460B46002EC4E9022386DA4A4608F1004301F1004184E80C00E160A0606D427BE700004054FB21F93F3163621A61B4D03D71
:405FC0000000601A61B4D03D7370032E8A19A33B83C8C96D305FE43FFB21E93F7BD90240FB21F93FFB213941FFFFEF7F00007041D08700000000E03F50870000DDE9022324
:4060000001F05EF988463F15C8F30A53FB1A102B8146C4E90001B0DD59A3D3E90023DDE9040101F001FB8046894642464B465046594601F045F9CDE90601DDE906235046A5
:40604000594601F03DF942464B4601F039F94EA3D3E9002380468946DDE9040101F0E4FA42464B4601F02CF9CDE90201DDE90223DDE9060101F024F90B4602468846C1F356
:406080000A517F1A312F8146C4E9002374DD40A3D3E90023DDE9040101F0C6FA80468946DDE9060142464B4601F00AF982468B46DDE9060152465B4601F002F942464B4653
:4060C00001F0FEF834A3D3E9002380468946DDE9040101F0A9FA42464B4601F0F1F8CDE90201504659463EE701F0ECF82E4B80469F42894622D02AA3D3E9002301F0E2F8DC
:4061000002460B464046C4E90023494601F0D8F823A3D3E9002301F0D5F84FF0FF35C4E90201C1E66268E36802F1004203F1004345426260E360B7E60323A0E610A3D3E92E
:40614000002301F0BFF810A3D3E9002306460F4601F0B8F802460B463046C4E90023394601F0AEF808A3D3E9002301F0ABF84FF0FF35C4E9020197E6DDE906ABFDE600BFB4
:406180000000601A61B4D03D7370032E8A19A33B0000002E8A19A33BC14920259A837B393163621A61B4D03DFB21F93FAFF300802DE9F041604E0C46B6460E4076450546A0
:4061C0000B4600F098800029024676DD5FEA215E00F08180AEF2FF3EC3F313031EF0010F43F480135ED100273C46D10F01EB43034FEA6E0E520016204FF4001165189D4261
:406200004FEAD2764FEA420202DC5B1B6C180F44013806EB43034FEA5101EFD1844620264FF000410AE0A34220D0D50F013E4FEA510105EB43034FEA420220D09C420CEB05
:406240000105F0DA002D05EB010C09DBA0461B1B954288BF03F1FF334446521B0844E4E7BCF1000FF2DB04F10108F0E7954217D8002D05EB010C48DB98460023ECE7134337
:4062800015D140087B1003F17F5303F50013FA0703EB0E57394648BF40F00040BDE8F0811C46C2E7D10F01EB430352009BE7411C31D000F001031844E3E721F000460643EB
:4062C000ECD079BB8E46D30AAEF1150E5205002BF9D0DC0222D400215B00D80201F10101FAD5C1F10100C1F1200422FA04F4234386448A406EE702460B4601F095F92A468F
:40630000234600F0DFFFBDE8F081BCF1000FAADAA0460023A0E701373046B3E7202401200021E2E702460B4600F0CAFF02460B4601F0A4FAB2E700BF0000F07F0000000068
:406340002DE9F04F21F00047B7F1795F85B00C4692469B4605466BDA01F000FC002800F0E7802A4623462846214601F05DF974A3D3E900238046894601F056F972A3D3E923
:40638000002300F09FFF42464B4601F04DF970A3D3E9002300F094FF42464B4601F044F96DA3D3E9002300F08DFF42464B4601F03BF96BA3D3E9002300F082FF42464B4600
:4063C00001F032F968A3D3E9002300F07BFF42464B4601F029F9CDE90001404649460022634B01F021F9DDE9002306460F464046494601F019F95246804689465B4628467C
:40640000214601F011F902460B464046494600F057FF02460B463046394600F051FF02460B460020534900F04BFF05B0BDE8F08F02460B4601F0F8F841A3D3E900238046CD
:40644000894601F0F1F840A3D3E9002300F03AFF42464B4601F0E8F83DA3D3E9002300F02FFF42464B4601F0DFF83BA3D3E9002300F028FF42464B4601F0D6F838A3D3E99D
:40648000002300F01DFF42464B4601F0CDF836A3D3E9002300F016FF4B46424601F0C4F8354BCDE900019F4297DD344B00229F4238DCA7F5001300202E4916461F4600F042
:4064C000FFFECDE90201404649460022284B01F0ABF832463B4600F0F3FEDDE9002306460F464046494601F09FF85246804689465B462846214601F097F802460B46404665
:40650000494600F0DDFE02460B463046394600F0D7FE02460B46DDE9020100F0D1FE05B0BDE8F08F164B0026CDE90223154FCAE71049002005B0BDE8F08F00BFAFF300800A
:40654000D43888BEE9FAA8BDC4B1B4BD9EEE213EAD529C804F7E923E9015CB19A001FA3E7751C1166CC1563F4C5555555555A53F0000E03F0000F03F3233D33F0000E93F6F
:406580000000E73F0000D23F2DE9F04F9E467E4DD41E85FB0465E417C4EBA504ADF51D7D24EAE4742546A69E0D940C93E343774C03EB430354F8264002EBC3032746099455
:4065C0000EF1FF3426460394F41904900A910893A5EB060516D42C44013422AEA79F08E057F8250000F0BAFF0135A542E6E9020108D0002DF4DA013500200021A542E6E95B
:406600000201F6D1099B002B31DB099A0C9B74A901EBC20BC3EB4373039A24A9DB0001EBC20800930DF5E479039B002BC0F297814446049B0026A3F1080A009B002708EB07
:406640000305FAE9022374E8020100F0EDFF02460B463046394600F035FEAC4206460F46EFD1E9E90267D94508F10808DCD1099B10A99B4603F18043013B9B001A1D0A446F
:406680000B440F920E934FEACB039CA91A460693BBF1000F0B4453E9284528DD0DF5E87A0AEB02060FAF0022394B2046294600F0BBFF01F053FA00F051FF0022354B804622
:4066C000894600F0B1FF02460B462046294600F0F7FD01F043FA76E9022347F8040F4946404600F0EFFD564504460D46DBD1DDF82090204629464A4600F05EFD00224FF06A
:406700007F5304460D4600F08FFF00F005FC0022214B00F089FF02460B462046294600F0CFFD04460D4601F019FA804600F016FF02460B46204629464C4600F0C1FD002C05
:4067400006460F4640F3F1800BF1FF3110AB53F82130C9F1180043FA00F202FA00F55D1B10A8C9F1170340F8215090441D41002D3FDDBBF1000F08F1010840F3848200221F
:4067800014460FA912E000BFABAAAA2AD88800000000703E0000704100002040C3F180700BB108600124013293450DDD51F8043F002CF3D0C3F1FF13013203F57F439345E6
:4067C0000B604FF00104F1DC089B002B0EDD012B00F0B380022B09D10BF1FF3210AB53F8223010A9C3F3150341F82230022D00F08380304639460022002301F07DF900288C
:4068000000F0C980099B0BF1FF3A53450DDC10AB0F9803EB8B03002253F8041D834242EA0102F9D1002A40F01482099B10AA013B52F82330002B40F024820E9A012352F85D
:40684000041D01330029FAD05B441A460B930BF1010393424DDC0D9A4FF0000803EB02090B9A0C9B09F180495B44CBEB020BA79A09F1FF3902EB890200924FEACB02DB007F
:40688000059224AA02EB030B0793069B74AA02EB030A009B002653F8040F0027009300F05DFE039BEBE80201002B1BDB079B03EB0804069B08EB030524AB1C441D44049B05
:4068C000A3F10809F9E9022374E8020100F0ACFE02460B463046394600F0F4FCAC4206460F46EFD1059B08F108089845EAE90267CFD1DDF82CB0C6E632463B460020BF4956
:4069000000F0DEFC06460F46002C3FF472AF089A0020BA4900F050FC02460B463046394600F0CEFC06460F4663E711D10BF1FF3310AA52F82350ED1519E70BF1FF3210ABC7
:4069400053F8223010A9C3F3160341F822304DE70022AB4B01F0EEF858B9054649E700260027E9E90267D94508F108087FF45CAE7DE6BBF1000F08F10108C8BF02253FF788
:40698000FEAE32463B4600209C4900F099FC022506460F462DE7089B30465A4239460395CDF8148000F008FC0022964B04460D4601F0C0F8002800F0E1810022924B20468B
:4069C000294600F031FE01F0C9F8064600F0C6FD00228C4B00F028FE0B4602462946204600F06EFC01F0BAF8089B0BF1010A1833089310AB43F82B0043F82A60089A0020A6
:406A00007E4900F0D9FBBAF1000F04460D46C0F2CA800AF101034FEAC30874AF10AA009302EB830907EB080659F8040D00F096FD22462B4600F0F8FD002266E90201724BB8
:406A40002046294600F0F0FDBE4204460D46EBD1A8F1080806EB08039B460DF59879CDF818A0DDF824A04FF00008CDF81090BAF1000FC0F29580B8F1000FC0F29180DFF8DD
:406A80008C915D4600260027002401E0444510DCF9E90223F5E8020100F0C6FD02460B463046394600F00EFC0134A24506460F46ECDA049BABF1080B03EBC803C3E9006790
:406AC000009B08F101089845D1D1A69BDDF818A0DDF81090032B3BD8DFE813F0410004000400D70000273E46009B09EBC304384674E90223314600F0E5FB4C4507460E4692
:406B0000F5D1039B002B00F08B80D9E900010A9D334606F100463A466E602F6000F0D0FBBAF1000F03460CDD01261C46F9E90223204600F0C7FB0136B2450346F5DA039A9C
:406B40000AB101F100411C460D460A9BC3E90245059B03F007000DF51D7DBDE8F08F00231946009A09EBC2091C4679E90223204600F0A8FB0AF1FF3ABAF1FF3F0346F3D199
:406B8000039A0AB101F100411C460D460A9BC3E90045059B03F007000DF51D7DBDE8F08F0026002785E7A69B032BD1D8DFE803F04E3030020DF59879039A00231E46002A09
:406BC00000F0C8800A9FD9F80800D9F80440D9F80C203B61059BD9F8001006F1004604F1004402F10042B86003F007007E617C60FA6039600DF51D7DBDE8F08F0000F03F52
:406C00000000E03F000070410000703EE0880000039B00273E460DF59879002B7FF475AFD9E9000135463C4633460A9E3A46C6E9004500F045FBBAF1000F03463FF774AF6F
:406C40001C460D460A9BC3E9024581E70023194696E7089A10AB53F82A30183A0395CDF814800892002B7FF4C9AE10AB03EB8A0353F8041D0AF1FF3A183A0029F8D00892B9
:406C8000BCE60123E0E500249EE5BAF1000F93DD4FEACA0809EB08039B46D3E900677BE9022330463946CDE9002300F00BFB04460D46DDE9000122462B4600F001FB0246AC
:406CC0000B463046394600F0FDFACB4526462F46CBE90201CBE90045E1D1BAF1010F7FF76BAF09EB08039A46D3E900670DF59C7B7AE902231046194632463B46CDE90001C1
:406D000000F0E0FA04460D46DDE9000122462B4600F0D6FA32463B4600F0D4FADA4526462F46CAE90201CAE90045E1D100231E4608F108044C4450AD184674E90223314605
:406D400000F0C0FAAC4203460E46F5D1039A002A7FF438AFD9E90045D9E90289184631460A9A059BC2E9040103F00700C2E90045C2E902890DF51D7DBDE8F08F2046294625
:406D800000F0ECFE10ABDA4643F82B0036E600BF2DE9F04F21F00046B6F1795F85B00C4690469946054604DA00F0D8FE002800F083802A4623462846214600F035FC2A462D
:406DC000234606460F4600F02FFC3FA3D3E9002382468B463046394600F026FC3CA3D3E9002300F06DFA32463B4600F01DFC3AA3D3E9002300F066FA32463B4600F014FCF1
:406E000037A3D3E9002300F05BFA32463B4600F00BFC35A3D3E9002300F054FA0E9BCDE900019BB3404649460022334B00F0FCFBDDE90023CDE902015046594600F0F4FB6F
:406E400002460B46DDE9020100F03AFA32463B4600F0EAFB42464B4600F032FA24A3D3E9002306460F465046594600F0DDFB02460B463046394600F025FA02460B462846A1
:406E8000214600F01DFA05B0BDE8F08FDDE900233046394600F0C8FB15A3D3E9002300F00FFA52465B4600F0BFFB2A46234600F009FA05B0BDE8F08F2846214605B0BDE8B3
:406EC000F08F00BFAFF300807CD5CF5A3AD9E53DEB9C2B8AE6E55A3E7DFEB157E31DC73ED561C119A0012A3FA6F810111111813F495555555555C53F0000E03FAFF300806A
:406F000021F00041704700BF41F0004101F58010C00F7047000000002DE9F047C1F30A58A8F2FF36132E0B4604460D460246894607461DDC002E40DBDFF8F08048FA06F87D
:406F400008EA010E5EEA020217D035A3D3E9002300F0B8F90022002300F0F6FD20B1002D40DB29EA0805002738462946BDE8F087332E06DDB6F5806F2FD020461946BDE8AD
:406F8000F087A8F213424FF0FF3A2AFA02FA1AEA000FF2D022A3D3E9002300F093F90022002300F0D1FD0028DED0002D1FDB4D4627EA0A0738462946D8E719A3D3E90023E2
:406FC00000F080F90022002300F0BEFD0028CBD0002D1ADB00273D46C6E702460B4600F071F9CCE74FF4801333419944B9E7142E08D0C8F5866808F10308012303FA08F3AA
:407000001F19D4D309F10109D1E725F00042064B224318BF1D460027A6E700BFAFF300809C7500883CE4377E0000F0BFFFFF0F0010B431F0004408D0114BA1F580129A424E
:4070400008D804205DF8044B704718B902205DF8044B704701F1FF41094B01F5E0019942EFD9B4F5801F01D20320EBE7054B9C4201D00020E6E7B0FA80F04009E2E700BF7C
:40708000FFFFDF7F0000F07F0020704700200149704700BF0000F87FF0B5C1F30A5EAEF2FF35132D83B002460B460C464FEAD17607462EDC002D48DB3C49294101EA0300E0
:4070C00010432BD049080B4053EA02070CD04FF48023132D24EA010143FA05F444EA01040CBF4FF0004700273149234601EBC606D6E900453A462046294600F0E3F8CDE9F8
:407100000001DDE9000122462B4600F0D9F803B0F0BD332D06DDB5F5806F43D01046194603B0F0BDAEF2134E4FF0FF3121FA0EF10142F3D049080142D6D04FF0804320EAB3
:40714000010143FA0EF70F43CEE721F000410143E4D0C3F3130141EA000CCCF1000141EA0C0C13495C0C4FEA1C3C0CF4002C640401EBC6014CEA0403D1E9004520462946CB
:4071800000F0A0F8CDE90001DDE9000122462B4600F096F8024621F0004141EAC67310461946BDE700F08EF8BAE700BFFFFF0F002889000000000000F8B5C1F30A5604467C
:4071C0000D460B46174616BB21F00043034332D00022314B00F028FA304A044697420D460B4637DB40F2FE72C1F30A56363E3E44964215DD24A1D1E9000122462B4600F05F
:4072000053F821A3D3E9002300F00EFAF8BD40F2FF72964224D040F2FE723E449642E9DC002E09DD23F0FF4323F4E00343EA065520462946F8BDF8BD16F1350F15DA4CF2E1
