:400000000249EF008F828E83E0540100000070F82278FFE4F6D8FD024A4D90FFFD121C8F121C5490FFFF121C8FEFF090FFFF121C8F851583851682E4F0851583851682A3BB
:40004000E0FFEF5480FF7E00EF4E70030203E1851583851682A3E0FFEF54F0FF7E00EF64F04E6003020305851583851682A3E0FFEF5408FF7E00EF4E6014851583851682F2
:40008000A3E0FF851583851682EFF0020730851583851682A3E0FFEF121C6900B1F00228F10174F201CEF30282F6010CF700000730851583851682A3A3121C4BE92404F98D
:4000C000EA3400FA74F0121A77851583851682A3A3121C4BE92403F9EA3400FA74F0121A77851583851682A3A3121C4BE92401F9EA3400FA7401121A77851583851682A3B3
:40010000A3121C4B7403121A77020730851583851682A3A3121C4BE92403F9EA3400FAE4121A77851583851682A3A3121C4BE92401F9EA3400FA121A3CFF851583851682F6
:40014000A3A3121C4BE92402F9EA3400FAEF121A77851583851682A3A3121C4BE92401F9EA3400FAE4121A7785158385168274F7F0020730851583851682A3A3121C4BE9BF
:400180002404F9EA3400FA74F2121A77851583851682A3A3121C4BE92403F9EA3400FAE4121A77851583851682A3A3121C4BE92401F9EA3400FA7401121A77851583851674
:4001C00082A3A3121C4B7403121A77020730851583851682A3A3121C4BE92404F9EA3400FA74F3121A77851583851682A3A3121C4BE92403F9EA3400FAE4121A7785158388
:40020000851682A3A3121C4BE92401F9EA3400FA7401121A77851583851682A3A3121C4B7402121A77020730851583851682A3A3121C4BE92404F9EA3400FA74F1121A773D
:40024000851583851682A3A3121C4BE92403F9EA3400FAE4121A77851583851682A3A3121C4BE92401F9EA3400FA7401121A77851583851682A3A3121C4B7402121A770299
:400280000730851583851682A3A3121C4BE92404F9EA3400FA74F6121A77851583851682A3A3121C4BE92403F9EA3400FAE4121A77851583851682A3A3121C4BE92402F93D
:4002C000EA3400FA7401121A77851583851682A3A3121C4BE92401F9EA3400FAE4121A77851583851682A3A3121C4BE92402F9EA3400FA121A3CFF851583851682EFF00294
:400300000730020730851583851682A3E0FF851583851682A3A3121C4BE92404F9EA3400FAEF121A77851583851682A3E0FF851583851682A3A3121C4BE92403F9EA340008
:40034000FAEF121A77851583851682A3A3121C4BE92401F9EA3400FA7401121A77851583851682A3E0FFEF54F0FFEF121C690387800387900387A00387B0039AC0039AD0FB
:400380000387E0000003AD851583851682A3A3121C4B7403121A77020730851583851682A3A3121C4B7402121A77020730851583851682A3A3121C4BE92403F9EA3400FA72
:4003C000E4121A77851583851682A3A3121C4BE92401F9EA3400FAE4121A77020730020730851583851682A3A3121C4BE92403F9EA3400FA121A3CFFEF64F060030204D860
:40040000851583851682A3E0FF851583851682A3A3121C4BE92401F9EA3400FA121A3CFEEEFD7C00851583851682A3A3121C4BE92404F9EA3400FAE92DF9EA3CFAEF121AB6
:4004400077851583851682A3A3121C4BE92401F9EA3400FA7401121A55851583851682A3A3121C4BE92401F9EA3400FA121A3CFF851583851682A3A3121C4B121A3CFEEF2A
:40048000C39E5003020730851583851682A3A3121C4BE92401F9EA3400FA121A3CFF851583851682A3A3121C4BE92402F9EA3400FAEF121A77851583851682A3A3121C4B2C
:4004C000E92401F9EA3400FAE4121A7785158385168274F0F0020730851583851682A3A3121C4BE92401F9EA3400FA121A3CFFEFD3940050030205E6851583851682A3E0BD
:40050000FF851583851682A3A3121C4BE92401F9EA3400FA121A3CFEEEFD7C00851583851682A3A3121C4BE92404F9EA3400FAE92DF9EA3CFAEF121A77851583851682A31E
:40054000A3121C4BE92401F9EA3400FA7401121A55851583851682A3A3121C4BE92401F9EA3400FA121A3CFF851583851682A3A3121C4B121A3CFEEFC39E5003020730850B
:400580001583851682A3A3121C4BE92401F9EA3400FA121A3CFF851583851682A3A3121C4BE92402F9EA3400FAEF121A77851583851682A3A3121C4BE92401F9EA3400FA7E
:4005C000E4121A77851583851682A3A3121C4BE92402F9EA3400FA121A3CFF851583851682EFF0020730851583851682A3A3121C4BE92403F9EA3400FA121A3CFFEF7003BF
:40060000020730851583851682A3A3121C4BE92403F9EA3400FA121A3CFF851583851682A3A3121C4BE92404F9EA3400FAEF121A77851583851682A3E0FF8515838516825D
:40064000A3A3121C4BE92405F9EA3400FAEF121A77851583851682A3A3121C4BE92401F9EA3400FA7402121A77851583851682A3A3121C4BE92403F9EA3400FA121A3CFF54
:40068000EF54F0FFEF121C6906A18006A19006A1A006A1B006B3C006B3D006A1E000000719851583851682A3A3121C4B7403121A77807D851583851682A3A3121C4BE924C7
:4006C00001F9EA3400FA121A3CFF851583851682A3A3121C4BE92402F9EA3400FAEF121A77851583851682A3A3121C4BE92401F9EA3400FAE4121A77851583851682A3A3B7
:40070000121C4BE92402F9EA3400FA121A3CFF851583851682EFF08017851583851682A3A3121C4BE92401F9EA3400FAE4121A77851583851682E0FF900005121C8F22904D
:40074000FFFF121C8FEFF090FFF3121C8F900007121CB3E4F0A3E4F0851583851682E4F0851583851682E0FFEFC394094003020828851583851682E0FFEF75F00BA424189A
:40078000F582E43404F583E4F0851583851682E0FFEF75F00BA4241AF582E43404F583E4F0851583851682E0FFEF75F00BA42419F582E43404F583E4F0851583851682E0CF
:4007C000FFEF75F00BA4241BF582E43404F583E4F0851583851682E0FFEF75F00BA4241DF582E43404F583E4F0851583851682E0FFEF75F00BA42420F582E43404F583E44E
:40080000F0A3E4F0851583851682E0FFEF75F00BA42422F582E43404F583E4F0851583851682E004F002076090000D121CB3E0FFEF6053851583851682A3A3E4F085158329
:40084000851682A3A3E0FFEFC394025039851583851682A3A3E0FF747B2FF582E43404F583E4F0851583851682A3A3E0FF748A2FF582E43404F583E4F0851583851682A3C1
:40088000A3E004F080B7900413E0FFEFD394005003020D65900413E0FFEF14FF124E2C900009121CB3EEF0A3EFF0900009121CB3E0FEA3E0FF8F828E83A3121C5D9000043B
:4008C000121CB3121C54900004121CB3121C4BE92407F9EA3400FA121A3CFFEF5440FF7E00EF4E6010900412E0FFEF4401FF900412EFF0800E900412E0FFEF54FEFF90044A
:4009000012EFF0900009121CB3E0FEA3E0FFEF2404FFEE3400FE900009121CB3EEF0A3EFF0900009121CB3E0FEA3E0FF8F828E83E493FF851583851682EFF0851583851699
:4009400082A3A37401F0851583851682A3A3E0FFEFC394094003020C41900009121CB3E0FEA3E0FF8F828E83A3121C5DAE02AF0190000B121CB3EEF0A3EFF08515838516EC
:4009800082A3E4F0851583851682E0FF851583851682A3E0FEEEC39F4003020C3390000B121CB3E0FEA3E0FF8F828E83740293FFEF547FFF7E00851583851682A3A3E0FDF4
:4009C0007C00ED6F7002EC6E6003020C0890000B121CB3E0FEA3E0FF8F828E83740493FE740593FF851583851682A3A3E0FDED75F00BA42420F582E43404F583E0FCA3E0BC
:400A0000FDC3ED9FEC9E503490000B121CB3E0FEA3E0FF8F828E83740493FE740593FF851583851682A3A3E0FDED75F00BA42420F582E43404F583EEF0A3EFF090000B1290
:400A40001CB3E0FEA3E0FF8F828E83E493FF747B2FF582E43404F583E0FF90000B121CB3E0FCA3E0FD8D828C83740193FEEF6E6003020C0890000B121CB3E0FEA3E0FF8F6A
:400A8000828E83740393FFEF5403FF900003121CB3EFF090000B121CB3E0FEA3E0FF8F828E83740293FFEF5480FF7E00EF4E7003020B36851583851682A3A3E0FFEF75F016
:400AC0000BA42419F582E43404F5837401F0900003121CB3E0FFEFB401047F0780027F0D851583851682A3A3E0FEEE75F00BA4241DF582E43404F583EFF090000B121CB304
:400B0000E0FEA3E0FF8F828E83740693FFEF64016003020BAE900003121CB3E0FFEF64026003020BAE851583851682A3A3E0FF9004E1EFF08078851583851682A3A3E0FFE5
:400B4000EF75F00BA42419F582E43404F583E4F0900003121CB3E0FFEFB401047F0580027F09851583851682A3A3E0FEEE75F00BA4241DF582E43404F583EFF090000B1295
:400B80001CB3E0FEA3E0FF8F828E83740693FFEFB4011B900003121CB3E0FFEFB4020F851583851682A3A3E0FF9004E2EFF090000B121CB3E0FEA3E0FF8F828E8374029357
:400BC000FF851583851682A3A3E0FEEE75F00BA4241CF582E43404F583EFF090000B121CB3E0FEA3E0FF8F828E83740393FF851583851682A3A3E0FEEE75F00BA42418F5D4
:400C000082E43404F583EFF090000B121CB3E0FEA3E0FFEF2407FFEE3400FE90000B121CB3EEF0A3EFF0851583851682A3E004F0020984851583851682A3A3E004F002092F
:400C400046900009121CB3E0FEA3E0FF8F828E83A3121C5DAE02AF0190000B121CB3EEF0A3EFF0851583851682A3A3E4F0851583851682E0FF851583851682A3A3E0FEEE0F
:400C8000C39F506490000B121CB3E0FEA3E0FF8F828E83E493FF90000B121CB3E0FCA3E0FD8D828C83740293FEEE547FFEEE75F00BA42422F582E43404F583EFF090000B21
:400CC000121CB3E0FEA3E0FFEF2407FFEE3400FE90000B121CB3EEF0A3EFF0851583851682A3A3E004F08085124BB5900487EEF0A3EFF08515838516827401F08515838577
:400D00001682E0FFEFC394095058900007121CB3E0FEA3E0FF851583851682E0FDED75F00BA4241EF582E43404F583EEF0A3EFF0851583851682E0FFEF75F00BA42420F553
:400D400082E43404F583E0FEA3E0FF900007121CB3EE8FF0121A89851583851682E004F0809A12234C90000E121C8F2290053BE4F07B007A00790090053E121C5490047DC5
:400D8000E4F0A3E4F0906000E0FFEF5480FF7E00EF64804E600302103D906001E0FFEF121C690F65000DB2060FF10810110A00001258906003E0FFEFB401351269CE900551
:400DC00043EEF0A3EFF0900543E0FEA3E0FF8F828E83A3121C5D90047F121C5490047DE4F0A37412F0125CAE90053BEFF0021258906003E0FFEF6402707A906002E0FF120A
:400E00004E2C900543EEF0A3EFF0900543E0FEA3E0FFEF4E7003021258900543E0FEA3E0FF8F828E83A3121C5D90047F121C5490047F121C4BE92403F9EA3400FA121A3C7A
:400E4000FF7E00EF7F00FE90047F121C4BE92402F9EA3400FA121A3CFD7C00EE4CFEEF4DFF90047DEEF0A3EFF0125CAE90053BEFF0021258906003E0FFEF64036003020F45
:400E80005A900541E4F07BFF7A6C79F190053E121C54900541E0FF906002E0FEEED39F403D90053E121C4B121A3CFFEF603090053E121C4B121A3CFF900542EFF090053E3F
:400EC000121C4B900542E0FF7E00E92FF9EA3EFA90053E121C54900541E004F080B4906002E0FFEFB4EE0C7BFF7A6D79DC90053E121C54906002E0FFEF6024906C6AE49345
:400F0000FF906002E0FEEEB507157B017A05795A12480F7B017A05795A90053E121C5490053E121C4B121A3CFFEF700302125890053E121C4B121A3CFF7E0090047DEEF028
:400F4000A3EFF090053E121C4B90047F121C54125CAE90053BEFF00212581258E090053BEFF0021258906000E0FFEF5403FFEF121C690FBF000F7C020000125890047DE41E
:400F8000F0A37402F0906004E0FFEF547FFFEF75F00BA4241AF582E43404F583E0FF90059CEFF090059DE4F07B017A05799C90047F121C54125CAE90053BEFF002125890F7
:400FC000047DE4F0A37402F0900412E0FF90059CEFF090059DE4F07B017A05799C90047F121C54125CAE90053BEFF002125802125890047DE4F0A37401F07B017A0479133D
:4010000090047F121C54125CAE90053BEFF002125890047DE4F0A37401F0906004E0FF747B2FF9E43404FA7B0190047F121C54125CAE90053BEFF002125802125890600152
:40104000E0FFEF121C6911390111D103105905106E0910E60B00001258906002E0FF90040CEFF01269E990053BEFF0021258906002E0FF90053DEFF090053DE0FFEFD39423
:4010800000401390053DE0FFEF14FF124E2C900543EEF0A3EFF090053DE0FFEFD39400400C900543E0FEA3E0FFEF4E700B90053DE0FFEF6003021258900413E0FF90053D5C
:4010C000E0FEEE6F601590053DE0FF900413EFF09004897401F07F0112073F1269E990053BEFF00212581254C9EF7003021258906004E0FF90053CEFF090053CE0FF90046C
:4011000085EFF09004897401F012165A90053CE0FF747B2FF582E43404F583E0FF90053CE0FE748A2EF582E43404F583EFF01269E990053BEFF0021258906000E0FFEF5439
:4011400003FFEF121C69116900118F0111530200001258906002E0FFEF600302125812393990053BEFF0021258906002E0FFEF64016003021258900412E0FFEF54FDFF9086
:401180000412EFF01269E990053BEFF0021258906004E0FFEFC394024003021258906004E0FF740D2FF582E43404F583C083C082E0FF906002E0FEEEF4FEEF5EFFD082D0E1
:4011C00083EFF01269E990053BEFF0021258021258906000E0FFEF5403FFEF121C6911FD00121F0111EB0200001258906002E0FFEF706512453090053BEFF0805B906002C8
:40120000E0FFEF64017051900412E0FFEF4402FF900412EFF01269E990053BEFF08039906004E0FFEFC39402502E906004E0FF740D2FF582E43404F583C083C082E0FF9095
:401240006002E0FEEEF4FEEF5EFFD082D083EFF01269E990053BEFF090053BE0FF2290FFFD121C8F121C5490FFFF121C8FEFF090FFFE121C8F900003121CB3121C4B121A42
:401280003CFF851583851682EFF0900003121CB3121C4BE92401F9EA3400FA121A3CFF851583851682A3EFF0851583851682A3A3E0FFEFC394F84075900007121CB3E0FF02
:4012C000EF440FFF9004DCE0FE749C2EF582E43404F583EFF09004DCE004F0851583851682A3A3E0FF9004DCE0FE749C2EF582E43404F583EFF09004DCE004F09004DCE08A
:40130000FF749C2FF582E43404F583E4F09004DCE004F09004DCE0FF749C2FF582E43404F583E4F09004DCE004F0021653851583851682A3A3E0FFEFC39404401285158318
:40134000851682A3A3E0FFEF64F060030214CF851583851682A3A3E0FFEFB4F026900007121CB3E0FFEF4404FF9004DCE0FE749C2EF582E43404F583EFF09004DCE004F041
:40138000021461851583851682E0FFEFC394F05032851583851682E0FFEFC4540FFF900007121CB3E0FEEF4EFF9004DCE0FE749C2EF582E43404F583EFF09004DCE004F06B
:4013C000021461851583851682E0FFEFB4F625900007121CB3E0FFEF4405FF9004DCE0FE749C2EF582E43404F583EFF09004DCE004F0806D851583851682E0FFEF64F160AD
:401400000C851583851682E0FFEFB4F325900007121CB3E0FFEF4402FF9004DCE0FE749C2EF582E43404F583EFF09004DCE004F0802F851583851682E0FFEFB4F223900077
:4014400007121CB3E0FFEF4403FF9004DCE0FE749C2EF582E43404F583EFF09004DCE004F0851583851682E0FF9004DCE0FE749C2EF582E43404F583EFF09004DCE004F0E3
:40148000851583851682A3E0FF9004DCE0FE749C2EF582E43404F583EFF09004DCE004F0900003121CB3121C4BE92402F9EA3400FA121A3CFF9004DCE0FE749C2EF582E45B
:4014C0003404F583EFF09004DCE004F0021653851583851682A3A3E0FFEF64F76003021653900006121CB3E0FFEF121C6914FA0015660115D90200001653900007121CB300
:40150000E0FFEF4405FF9004DCE0FE749C2EF582E43404F583EFF09004DCE004F09004DCE0FF749C2FF582E43404F58374F7F09004DCE004F09004DCE0FF749C2FF582E4BA
:401540003404F583E4F09004DCE004F09004DCE0FF749C2FF582E43404F583E4F09004DCE004F0021653900007121CB3E0FFEF4406FF9004DCE0FE749C2EF582E43404F5E4
:4015800083EFF09004DCE004F0851583851682E0FF9004DCE0FE749C2EF582E43404F583EFF09004DCE004F09004DCE0FF749C2FF582E43404F58374F7F09004DCE004F07A
:4015C0009004DCE0FF749C2FF582E43404F583E4F09004DCE004F0807A900007121CB3E0FFEF4407FF9004DCE0FE749C2EF582E43404F583EFF09004DCE004F08515838554
:401600001682E0FF9004DCE0FE749C2EF582E43404F583EFF09004DCE004F0851583851682A3E0FF9004DCE0FE749C2EF582E43404F583EFF09004DCE004F09004DCE0FFB4
:40164000749C2FF582E43404F58374F7F09004DCE004F0900008121C8F22900413E0FFEFD394005003021A3B900413E0FFEF14FF124E2C90054AEEF0A3EFF090054AE0FE74
:40168000A3E0FFEF2404FFEE3400FE90054AEEF0A3EFF090054AE0FEA3E0FF8F828E83E493FF900545EFF090054AE0FEA3E0FF8F828E83A3121C5DAE02AF0190054CEEF0F5
:4016C000A3EFF0900547E4F0900545E0FF900547E0FEEEC39F4003021A3B90054CE0FEA3E0FF8F828E83E493FF748A2FF582E43404F583E0FF90054CE0FCA3E0FD8D828C93
:4017000083E493FE747B2EF582E43404F583E0FEEE6F7003021A1A90054CE0FEA3E0FF8F828E83E493FF747B2FF582E43404F583E0FF90054CE0FCA3E0FD8D828C837401F4
:4017400093FEEF6E6003021A1A90054CE0FEA3E0FF8F828E83E493FF906004E0FEEF6E6003021A1A90054CE0FEA3E0FF8F828E83740293FFEF547FFF900546EFF090054680
:40178000E0FF7E00EF24FFFFEE34FFFEEFC4F8540FC868FFEEC454F048FE900549EFF090054CE0FEA3E0FF8F828E83740393FFEF5403FF900548EFF090054CE0FEA3E0FFB8
:4017C0008F828E83740293FFEF5480FF7E00EF4E603C900546E0FFEF75F00BA42419F582E43404F5837401F0900548E0FFEFB401047F0780027F0D900546E0FEEE75F00B2D
:40180000A4241DF582E43404F583EFF08039900546E0FFEF75F00BA42419F582E43404F583E4F0900548E0FFEFB401047F0580027F09900546E0FEEE75F00BA4241DF582E2
:40184000E43404F583EFF0900549E0FF7E00EF240EFFEE3460FE8F828E837401F090054CE0FEA3E0FF8F828E83740493FE740593FF900546E0FDED75F00BA42420F582E4C4
:401880003404F583EEF0A3EFF090054CE0FEA3E0FF8F828E83740293FF900546E0FEEE75F00BA4241CF582E43404F583EFF090054CE0FEA3E0FF8F828E83740393FF9005C7
:4018C00046E0FEEE75F00BA42418F582E43404F583EFF0900546E0FFEF75F00BA4241BF582E43404F583E4F0900546E0FFEF75F00BA42420F582E43404F583E0FEA3E0FF55
:40190000EEFF7E00900549E0FEEEFD7C00ED240CFDEC3460FC8D828C83EFF0900546E0FFEF75F00BA42420F582E43404F583E0FEA3E0FFEF54FFFF900549E0FEEEFD7C00B6
:40194000ED240DFDEC3460FC8D828C83EFF0900546E0FFEF75F00BA4241EF582E43404F583E0FEA3E0FFEF54FFFF900549E0FEEEFD7C00ED2486FDEC3460FC8D828C83EFE8
:40198000F0900546E0FFEF75F00BA4241EF582E43404F583E0FEA3E0FFEEFF7E00900549E0FEEEFD7C00ED2487FDEC3460FC8D828C83EFF0900546E0FFEF75F00BA4241E32
:4019C000F582E43404F583E0FEA3E0FFEF54FFFF900549E0FEEEFD7C00ED2484FDEC3460FC8D828C83EFF0900546E0FFEF75F00BA4241EF582E43404F583E0FEA3E0FFEEB5
:401A0000FF7E00900549E0FEEEFD7C00ED2485FDEC3460FC8D828C83EFF090054CE0FEA3E0FFEF2407FFEE3400FE90054CEEF0A3EFF0900547E004F00216C822BB01068942
:401A4000828A83E0225002E722BBFE02E32289828A83E49322BB010989828A83F8E028F022500327F722BBFE05F8E328F3228A838982F8E4932822BB010689828A83F022F4
:401A80005002F722BBFE01F322C5F0F8A3E028F0C5F0F8E582158270021583E038F022BB010A89828A83F0E5F0A3F0225006F709A7F01922BBFE06F3E5F009F31922EF2B6D
:401AC000FFEE3AFEED39FDEC38FC22E88FF0A4CC8BF0A42CFCE98EF0A42CFC8AF0EDA42CFCEA8EF0A4CDA8F08BF0A42DCC3825F0FDE98FF0A42CCD35F0FCEB8EF0A4FEA92B
:401B0000F0EB8FF0A4CFC5F02ECD39FEE43CFCEAA42DCE35F0FDE43CFC2275F008758200EF2FFFEE33FECD33CDCC33CCC58233C5829BED9AEC99E58298400CF582EE9BFE03
:401B4000ED9AFDEC99FC0FD5F0D6E4CEFBE4CDFAE4CCF9A88222B800C1B90059BA002DEC8BF084CFCECDFCE5F0CBF97818EF2FFFEE33FEED33FDEC33FCEB33FB10D703996D
:401B80004004EB99FB0FD8E5E4F9FA227818EF2FFFEE33FEED33FDEC33FCC933C910D7059BE99A4007EC9BFCE99AF90FD8E0E4C9FAE4CCFB2275F010EF2FFFEE33FEED3378
:401BC000FDCC33CCC833C810D7079BEC9AE899400AED9BFDEC9AFCE899F80FD5F0DAE4CDFBE4CCFAE4C8F922EF4BFFEE4AFEED49FDEC48FC22E8600FECC313FCED13FDEE41
:401C000013FEEF13FFD8F122E8600FEFC333FFEE33FEED33FDEC33FCD8F122E0FCA3E0FDA3E0FEA3E0FF22E0F8A3E0F9A3E0FAA3E0FB22ECF0A3EDF0A3EEF0A3EFF022A413
:401C40002582F582E5F03583F58322E0FBA3E0FAA3E0F922EBF0A3EAF0A3E9F022E493FB740193FA740293F922D083D082F8E4937012740193700DA3A393F8740193F58230
:401C80008883E4737402936860EFA3A3A380DFE5162582F582E5153583F583B515048582162210AF06858216F51522858216F515D2AF22E5162582F582E5153583F583222D
:401CC000EC8EF0A4CCC5F0CCCDF8EFA4CEC5F02DFDE43CFCE8A42EC8C5F03DFDE43CFCEFA4FFE5F028FEE43DFDE43CFC22E709F608DFFA8046E709F208DFFA803E88828C4E
:401D000083E709F0A3DFFA8032E309F608DFFA806EE309F208DFFA806688828C83E309F0A3DFFA805A89828A83E0A3F608DFFA804E89828A83E0A3F208DFFA804280D2802F
:401D4000FA80C680D4805580F28029801080A680EA809A80A880DA80E280CA802988848C8589828A83E493A30586F0A30586DFF5DEF3800B89828A83E493A3F608DFF9ECB2
:401D8000FAA9F0EDFB2288848C8589828A83E0A30586F0A30586DFF6DEF480E389828A83E493A3F208DFF980D688F0EF60010E4E60CD88F0ED2402B4040050C3F582EB2494
:401DC00002B4040050B92323458223901D3D7390052B7410F09004F3E0FFEF64017051904005E0FFEF54F0FF7E00EEC4F854F0C868FEEFC4540F48FFEF04FFAB07E4FAF98C
:401E0000F8904200E0FFEF5407FFEF906E7993FFE4FCFDFE121B567B4B7A0079007800121ACB12650090400BE0FFEF4404FFEFF09004F2E0FFEF64016003021ECA7F001255
:401E40004C8A904210E0FF90052CE4F0A37405F090052CE0FEA3E0FFD3EF9400EE94004069904005E0FFEF54F0FF7E00EEC4F854F0C868FEEFC4540F48FFEF04FFAB07E423
:401E8000FAF9F8904200E0FFEF5407FFEF906E7993FFE4FCFDFE121B567BC87A0079007800121ACB126500904210E0FFEF5480FF7E00EF4E700790052BE4F0800D90052C34
:401EC00074FF75F0FF121A8980867F2D125DE89004E6E0FFEF640260099004E6E0FFEFB4031E9004EEE0FF904004E0FEEE6F60089004EEE0FF126B3B9004E6E0FF12691A3A
:401F00009004E8E0FFEF5440FF7E00EF4E60169004E7E0FFEF906E8093FFEFB403077F081237BB80359004E7E0FFEF906E8093FF1237BB9004E8E0FFEF5440FF7E00EF4E58
:401F4000600D904200E0FFEF4440FFEFF0800B904200E0FFEF54BFFFEFF09004EAE0FFEFB401149043A0E0FFEF5410FF7E00EF4E70057F00125B589004EBE0FF125FD29078
:401F800004EDE0FFEFB40103126B8D904000E0FFEF5430FF7E009004ECE0FD7C00ED6F7002EC6E6016904000E0FFEF54CFFF9004ECE0FEEF4EFF904000EFF09004F1E0FF1D
:401FC000EF6401706A90052B7410F07F0012556C7F507E0012676C904225E0FF90052CE4F0A374ABF090052CE0FEA3E0FFD3EF9400EE940040397F017E0012676C90422592
:40200000E0FFEF5401FF7E00EF4E6016904225E0FFEF5401FF7E00EF4E600790052BE4F0800D90052C74FF75F0FF121A8980B69004E6E0FFEF60099004E6E0FFEFB4011EA2
:402040009004EEE0FF904004E0FEEE6F60089004EEE0FF126B3B9004E6E0FF12691A9004EAE0FFEF70129043A0E0FFEF5410FF7E00EF4E6003126A34904007E0FF7E00EF1E
:402080007F00FE90052EEEF0A3EFF090052EE0FEA3E0FF904006E0FD7C00EE4CFEEF4DFF90052EEEF0A3EFF090052EE0FEA3E0FF9004EFE0FCA3E0FDED6F7002EC6E600B03
:4020C0009004EFE0FEA3E0FF124FC3904800E0FFEF543FFF9004E9E0FEEF4EFF904800EFF09004E4E0FF9043A1EFF09004E5E0FF9043A2EFF0229043A1E0FFEF540FFF90A7
:4021000004E4EFF09043A2E0FF9004E5EFF09043A1E0FFEF54F0FFEFF09043A2E0FFEF5400FFEFF0904800E0FFEF54C0FF9004E9EFF07F2D125DE8904200E0FFEF5407FF41
:402140009004E7EFF0904200E0FFEF5440FF9004E8EFF0904200E0FFEF5410FF7E00EF4E60089004ED7401F080059004EDE4F0904005E0FFEF5403FF9004E6EFF09004E6C5
:40218000E0FFEF64017034904000E0FFEF5403FFEF121C6921A10021A80121AF02000021B67F0012691A80137F0212691A800C7F0312691A80057F00126ACA904220E0FF1E
:4021C000EF5401FF7E00EF4E600B9004F17401F0126B8180059004F1E4F07F021237BB9043A0E0FFEF5410FF7E00EF4E60089004EA7401F080119004EAE4F07F00125B585A
:402200007F067E0012676C904200E0FFEF5420FF7E00EF4E6021904000E0FFEF5440FF7E00EF4E70047F0280027F019004EBEFF07F00125FD280059004EBE4F0904000E0DC
:40224000FFEF5430FF9004ECEFF09004ECE0FFEF600B904000E0FFEF54CFFFEFF0904200E0FFEF5410FF7E00EF4E6003126B99904004E0FF9004EEEFF09004EEE0FFEF603B
:40228000057F00126B3B9004E6E0FFEF60057F0012691A904007E0FF7E00EF7F00FE9004EFEEF0A3EFF09004EFE0FEA3E0FF904006E0FD7C00EE4CFEEF4DFF9004EFEEF0B8
:4022C000A3EFF09004EFE0FEA3E0FFEF4E60077F007E00124FC3904005E0FFEF54F0FF7E00EEC4F854F0C868FEEFC4540F48FFEF04FFAB07E4FAF9F8904200E0FFEF540769
:40230000FFEF906E7993FFE4FCFDFE121B56125DE8904210E0FFEF5401FF7E00EF4E600B9004F27401F0126BC980059004F2E4F090400BE0FFEF5404FF7E00EF4E60079005
:4023400004F37401F0229004F3E4F02290FFFE121C8F8515838516827401F0851583851682A3E4F0851583851682A3E0FFEFC394804003022592851583851682A3E0FF7E10
:4023800000EF2480FFEE3460FE8F828E83740CF0851583851682E0FFEF75F00BA4241DF582E43404F583E0FFEF605A851583851682E0FFEF75F00BA4241CF582E43404F5A5
:4023C00083E0FFEF5480FF7E00EF4E601C851583851682A3E0FF7E00EF240EFFEE3460FE8F828E83740CF08036851583851682A3E0FF7E00EF240EFFEE3460FE8F828E8364
:402400007408F0801A851583851682A3E0FF7E00EF240EFFEE3460FE8F828E837480F0851583851682E0FFEF75F00BA42420F582E43404F583E0FEA3E0FFEEFF7E008515E6
:4024400083851682A3E0FEEEFD7C00ED240CFDEC3460FC8D828C83EFF0851583851682E0FFEF75F00BA42420F582E43404F583E0FEA3E0FFEF54FFFF851583851682A3E078
:40248000FEEEFD7C00ED240DFDEC3460FC8D828C83EFF0851583851682E0FFEF75F00BA4241EF582E43404F583E0FEA3E0FFEF54FFFF851583851682A3E0FEEEFD7C00ED0A
:4024C0002486FDEC3460FC8D828C83EFF0851583851682E0FFEF75F00BA4241EF582E43404F583E0FEA3E0FFEEFF7E00851583851682A3E0FEEEFD7C00ED2487FDEC346051
:40250000FC8D828C83EFF0851583851682E0FFEF75F00BA4241EF582E43404F583E0FEA3E0FFEF54FFFF851583851682A3E0FEEEFD7C00ED2484FDEC3460FC8D828C83EF5B
:40254000F0851583851682E0FFEF75F00BA4241EF582E43404F583E0FEA3E0FFEEFF7E00851583851682A3E0FEEEFD7C00ED2485FDEC3460FC8D828C83EFF0851583851651
:4025800082E004F0851583851682A3E02410F002236490600A74FFF0900002121C8F2290480074F1F012432C7B007A4679E8126BD5EF4405FD7B007A4679E8126BE1751439
:4025C00000E514C39409503AAF14EF75F005A42416F582E4346EF583AF82AE838E088F09AE08AF098F828E83121C5DAE08AF098F828E83740393FC740493FD126A030514A8
:4026000080BF751400E514C394015078AF14EF75F008A42443F582E4346EF583AF82AE838E0A8F0BAE0AAF0B8F828E83121C5D8B0C8A0D890EAE0AAF0B8F828E83A3A3A325
:40264000121C5D8B0F8A108911AE0AAF0B8F828E83740693F512740793F513AB0FAA10A911C003C002C001AB0CAA0DA90E90052C121C54D001D002D003AF13AE12126617E0
:40268000051480817B087A0079001267997B017A507903126BD5EF4402FD7B017A507903126BE17B017A507913126BD5EF4402FD7B017A507913126BE19043A0E0FFEF4407
:4026C00040FF9043A0EFF09043C2E0FFEF4410FF9043C2EFF07B087A0579C4C003C002C0017B007A51790090052C121C54D001D002D0037F0A7E001266177B087A0579D041
:40270000C003C002C0017B007A5179F090052C121C54D001D002D0037F0A7E001266177B087A0579DCC003C002C0017B007A51791290052C121C54D001D002D0037F087E29
:40274000001266177B087A0579E4C003C002C0017B007A51795090052C121C54D001D002D0037F0A7E001266179044F47401F0904322E0FFEF4408FF904322EFF09046ECF6
:40278000E0FFEFC394055006904689743AF07B017A5079077D40126BE17B017A5079177D40126BE11265E17B007A4379A0C003C002C0017B007A4379B090052C121C54D067
:4027C00001D002D0037F0E7E001266179043B0E0FFEF54FDFFEFF02290FFFD121C8F121C5490FFFF121C8FEFF090FFFB121C8F900005121CB3E0FFEFD394005003022A0091
:40280000900005121CB3E0FFEFC394094003022A00900005121CB3E0FF7E00EF24FFFFEE34FFFEEFC4F8540FC868FFEEC454F048FE851583851682EFF0851583851682E0D6
:40284000FF7E00EF2488FFEE3460FE851583851682A3EEF0A3EFF0900005121CB3E0FFEF75F00BA4241EF582E43404F583E0FEA3E0FFC3E49FFF74029EFE900009121CB3AE
:40288000E0FCA3E0FDD3ED9FEC9E402E900005121CB3E0FFEF75F00BA4241EF582E43404F583E0FEA3E0FFC3E49FFF74029EFE900009121CB3EEF0A3EFF0900009121CB3B5
:4028C000E0FEA3E0FFEEFF7E00900005121CB3E0FEEE75F00BA4241BF582E43404F583E0FEEF4EFF851583851682E0FEEEFD7C00ED240CFDEC3460FC8D828C83EFF09000B1
:4029000009121CB3E0FEA3E0FFEF54FFFF851583851682E0FEEEFD7C00ED240DFDEC3460FC8D828C83EFF07B007A007900C003C002C001900006121CB3121C4BD082D083B0
:40294000D0E06B7008E965827003EA65836067900003121CB3E4F0A3E4F0900009121CB3E0FEA3E0FF900003121CB3E0FCA3E0FDC3ED9FEC9E503F900006121CB3121C4B27
:40298000900003121CB3E0FEA3E0FFE92FF9EA3EFA121A3CFF851583851682A3E0FCA3E0FD8D828C83EFF0900003121CB3E475F001121A8980A4900005121CB3E0FFEF7523
:4029C000F00BA42419F582E43404F583E4F0900005121CB3E0FFEF75F00BA4241DF582E43404F583E0FF851583851682E0FEEEFD7C00ED240EFDEC3460FC8D828C83EFF085
:402A000090000B121C8F2290FFFD121C8F121C5490FFFD121C8F7F011262A2900003121CB3121C4B121A3CFFEF540FFF851583851682EFF0851583851682E0FFEF70030237
:402A40002C23851583851682E0FFEF64017003022C23851583851682E0FFEF906E4B93FF851583851682A3EFF0851583851682A3A37401F0851583851682E0FFEF64047072
:402A800054900003121CB3121C4BE92401F9EA3400FA121A3CFFEFB4F02A900003121CB3121C4BE92402F9EA3400FA121A3CFFEFB47E119004DDE0FFEF4401FF9004DDEF09
:402AC000F0022B789004DDE0FFEF54FEFF9004DDEFF0022B78851583851682E0FFEFB405119004DDE0FFEF54FEFF9004DDEFF0022B78851583851682E0FFEFB406109004FF
:402B0000DDE0FFEF54FEFF9004DDEFF0806A851583851682E0FFEF6407705D9004DDE0FFEF5401FF7E00EF4E604E9004DDE0FFEF54FEFF9004DDEFF0900003121CB3121CA1
:402B40004BE92401F9EA3400FA121A3CFFEFB40627900003121CB3121C4BE92402F9EA3400FA121A3CFFEFB4010E9004DDE0FFEF4402FF9004DDEFF0851583851682E0FFA1
:402B8000EFC394084055851583851682E0FFEFD3940E5047900003121CB3121C4BE92401F9EA3400FA121A3CFF9004DFE0FEEEB5070D851583851682A3A3E004F08021901E
:402BC0000003121CB3121C4BE92401F9EA3400FA121A3CFF9004DFEFF080059004DFE4F0900003121CB3121C4B851583851682A3A3E0FFE92FF9E43AFA121A3CFF12411095
:402C0000851583851682A3A3E004F0851583851682A3E0FF851583851682A3A3E0FEEED39F40BD7F001262A2900006121C8F2290FFFD121C8F121C5490FFFD121C8F7F012B
:402C400012620D900003121CB3121C4B121A3CFFEF540FFF851583851682EFF0851583851682E0FFEF7003022E4B851583851682E0FFEF64017003022E4B8515838516828A
:402C8000E0FFEF906E4B93FF851583851682A3EFF0851583851682A3A37401F0851583851682E0FFEF64047054900003121CB3121C4BE92401F9EA3400FA121A3CFFEFB480
:402CC000F02A900003121CB3121C4BE92402F9EA3400FA121A3CFFEFB47E119004DEE0FFEF4401FF9004DEEFF0022DA09004DEE0FFEF54FEFF9004DEEFF0022DA0851583A2
:402D0000851682E0FFEFB405119004DEE0FFEF54FEFF9004DEEFF0022DA0851583851682E0FFEFB406109004DEE0FFEF54FEFF9004DEEFF0806A851583851682E0FFEF6423
:402D400007705D9004DEE0FFEF5401FF7E00EF4E604E9004DEE0FFEF54FEFF9004DEEFF0900003121CB3121C4BE92401F9EA3400FA121A3CFFEFB40627900003121CB312D7
:402D80001C4BE92402F9EA3400FA121A3CFFEFB4010E9004DEE0FFEF4402FF9004DEEFF0851583851682E0FFEFC394084055851583851682E0FFEFD3940E504790000312E8
:402DC0001CB3121C4BE92401F9EA3400FA121A3CFF9004E0E0FEEEB5070D851583851682A3A3E004F08021900003121CB3121C4BE92401F9EA3400FA121A3CFF9004E0EF31
:402E0000F080059004E0E4F0900003121CB3121C4B851583851682A3A3E0FFE92FF9E43AFA121A3CFF12421E851583851682A3A3E004F0851583851682A3E0FF85158385D5
:402E40001682A3A3E0FEEED39F40BD7F0012620D900006121C8F2290052BEFF090052CECF0A3EDF0126ADF90052EEFF0904393E0FFEF5408FF7E00EF4E700D904683E0FF0C
:402E8000EF541FFFEFF0800990052EE0FF126A1C229046ECE0FFEFC39405501A904689E0FFEF5401FF7E00EF4E7003D38001C340057F00126ACA9046F5E0FFEF5407FF7E56
:402EC00000EF4E60399046ECE0FFEFC3940550077F00126ACA8027904689E0FFEF5401FF7E00EF4E70129004FAE4F0904689E0FFEF4401FFEFF080069004FA7401F0123022
:402F00007E90052BE0FFEFC39402402A90052BE0FFEFD3940D501F90052BE0FFEF14FF125A6E90052CE0FEA3E0FFEE4408FE90052CEEF0A3EFF090052BE0FFEFB4011712F0
:402F4000681B90052CE0FEA3E0FFEE4408FE90052CEEF0A3EFF0904398E0FF9004FBEFF090052CE0FEA3E0FFEEC4F854F0C868FEEFC4540F48FF904398EFF0904399E0FF6D
:402F80009004FCEFF090052CE0FEA3E0FFEF540FFF904399EFF090439AE0FF9004FDEFF090052CE0FEA3E0FFEEC4540FFF7E00EF5401FF90439AEFF0904200E0FFEF5407EC
:402FC000FF7E00EF4E70089005247401F0801E900524E4F0904200E0FFEF5407FF900523EFF0904200E0FFEF54F8FFEFF0904393E0FFEF54F8FFEF4403FF904393EFF09072
:403000004393E0FF000000900524E0FFEF64016016904200E0FFEF54F8FF900523E0FEEF4EFF904200EFF0123D799046F5E0FFEF5407FF7E00EF4E601E9046ECE0FFEFC3C4
:40304000940540139004FAE0FFEF700B904689E0FFEF54FEFFEFF09004FBE0FF904398EFF09004FCE0FF904399EFF09004FDE0FF90439AEFF090052EE0FF126A1C22905ABC
:4030800000E0FF900500EFF0905A02E0FF900501EFF0905A03E0FF900502EFF0905A04E0FF900503EFF0905A06E0FF900504EFF0905A08E0FF900505EFF0905A0AE0FF9003
:4030C0000506EFF0905A10E0FF900507EFF0905A12E0FF900508EFF0905A13E0FF900509EFF0905A14E0FF90050AEFF0905A16E0FF90050BEFF0905A18E0FF90050CEFF0C8
:40310000905A1AE0FF90050DEFF0905A20E0FF90050EEFF0905A22E0FF90050FEFF0905A23E0FF900510EFF0905A24E0FF900511EFF0905A26E0FF900512EFF0905A28E009
:40314000FF900513EFF0905A2AE0FF900514EFF0905A30E0FF900515EFF0905A32E0FF900516EFF0905A33E0FF900517EFF0905A34E0FF900518EFF0905A36E0FF9005198A
:40318000EFF0905A38E0FF90051AEFF0905A3AE0FF90051BEFF0905A00E4F0905A02E4F0905A03E4F0905A04E4F0905A06E4F0905A08E4F0905A0AE4F0905A10E4F0905A04
:4031C00012E4F0905A13E4F0905A14E4F0905A16E4F0905A18E4F0905A1AE4F0905A20E4F0905A22E4F0905A23E4F0905A24E4F0905A26E4F0905A28E4F0905A2AE4F09001
:403200005A30E4F0905A32E4F0905A33E4F0905A34E4F0905A36E4F0905A38E4F0905A3AE4F09046E8E0FFEF5404FF7E00EF4E60339004F87401F090500BE0FFEF540EFF3F
:403240009004F9EFF090500BE0FFEF54F1FFEF440CFF90500BEFF09046E8E0FFEF54FBFFEFF080059004F8E4F0904322E0FFEF5408FF7E00EF4E60129005257401F0904302
:4032800022E0FFEF54F7FFEFF022900525E4F022D2AF9044F474FDF07D027F001267F21268D7EF601D126C4CEF60147F001262587E5E7F4E12693A126A8B126B198003124B
:4032C0006996126C4CEF60D7124AD9123C1E9004DDE0FFEF5402FF7E00EF4E601E7BFF7A6E796B90052FE4F07F0E1234879004DDE0FFEF54FDFF9004DDEFF09004DEE0FF09
:40330000EF5402FF7E00EF4E601F7BFF7A6E796B90052F7410F07F0E1234879004DEE0FFEF54FDFF9004DEEFF0126B69EF701090058EE0FFEF4401FF90058EEFF0800E90AC
:40334000058EE0FFEF54FEFF90058EEFF0126AF4EF701090058EE0FFEF4402FF90058EEFF0800E90058EE0FFEF54FDFF90058EEFF090058BE0FF90058EE0FEEE6FFF9005C0
:403380008CEFF0FFEF700302344290058EE0FF90058BEFF09005277490F090058CE0FFEF5401FF7E00EF4E602C9005287448F090058EE0FFEF30E0089005297464F0800511
:4033C000900529E4F07B017A05792790052FE4F07F0312348790058CE0FFEF5402FF7E00EF4E605E900528744CF090058EE0FFEF30E1089005297464F08005900529E4F0E8
:403400007B017A05792790052FE4F07F031234879005277490F09005287448F090058EE0FFEF30E1089005297464F08005900529E4F07B017A05792790052FE4F07F031283
:40344000348790058AE0FFEFC39402500302329F1268911268B47F01126258124D5E1220F67D407C007F00122E57121DCF125218126B197F00126258126A61126A769005AD
:403480008AE4F002329F2290052BEFF090052C121C54900530E4F0126C15126C319004E1E0FFEF75F00BA42420F582E43404F583E0FEA3E0FFEF24FCFFEE34FFFE9004DC59
:4034C000E0FD7C00D3ED9FEC9E40031264679004E1E0FFEF75F00BA42420F582E43404F583E0FEA3E0FFEF24FCFFEE34FFFE9004DCE0FD7C00D3ED9FEC9E40030236259055
:40350000052BE0FFEFC39404400B90052BE0FFEFC394F0402B90052FE0FF90FFFF121C8FEFF090052BE0FF90FFFF121C8FEFF090052C121C4B90052BE0FF12125E02362B53
:40354000900531E4F090052FE0FF90FFFF121C8FEFF090FFFF121C8F7403F090052C121C4B900531E0FF7E00E92FF9EA3EFA7FF012125E90052BE024FDF0900531E0240333
:40358000F09004E1E0FFEF75F00BA42420F582E43404F583E0FEA3E0FFEF24FCFFEE34FFFE9004DCE0FD7C00D3ED9FEC9E40391264679004E1E0FFEF75F00BA42420F582CE
:4035C000E43404F583E0FEA3E0FFEF24FCFFEE34FFFE9004DCE0FD7C00D3ED9FEC9E40089005307401F0800E90052BE0FFEFD394034003023545900530E0FFEF702D90057C
:403600002FE0FF90FFFF121C8FEFF090052BE0FF90FFFF121C8FEFF090052C121C4B7FF712125E80069005307401F0126C0E126C2A900530E0FF2290FFFD121C8F121C54E2
:4036400090FFFF121C8FEFF090FFF9121C8F900007121CB3E0FFEFD39400500302379E900007121CB3E0FFEFC39409400302379E7B007A007900C003C002C00190000812E6
:403680001CB3121C4BD082D083D0E06B7008E965827003EA6583700302379E900007121CB3E0FF7E00EF24FFFFEE34FFFEEFC4F8540FC868FFEEC454F048FE8515838516F5
:4036C00082EFF0851583851682E0FF7E00EF2488FFEE3460FE851583851682A3EEF0A3EFF0900007121CB3E0FF124901900005121CB3EEF0A3EFF0900005121CB3E0FEA3FB
:40370000E0FF90000B121CB3E0FCA3E0FDD3ED9FEC9E4016900005121CB3E0FEA3E0FF90000B121CB3EEF0A3EFF0900003121CB3E4F0A3E4F090000B121CB3E0FEA3E0FF46
:40374000900003121CB3E0FCA3E0FDC3ED9FEC9E503F851583851682A3E0FEA3E0FF8F828E83E0FF900008121CB3121C4B900003121CB3E0FCA3E0FDE92DF9EA3CFAEF12E1
:403780001A77900003121CB3E475F001121A8980A4900007121CB3E0FF12537B800B90000B121CB3E4F0A3E4F090000B121CB3E0FEA3E0FF90000D121C8F22900530EFF05C
:4037C000904200E0FFEF5407FF900531EFF0900530E0FFEFB408047F038005900530E0FF900532EFF0900531E0FFEF121C69380400380C01381402381C03382304382B056E
:40380000000038339005317402F0802C9005317401F080249005317403F0801C900531E4F080159005317404F0800D9005317405F080057F00126ACA900531E0FF900532DE
:40384000E0FEEEC39F4008900530E0FF12508D900530E0FFEF121C69387100388A0138A20238AF0338C70438DF0538F7080000390B904200E0FFEF54F8FFEF4403FFEF54E6
:40388000BFFF904200EFF0023910904200E0FFEF54F8FFEF4401FFEF54BFFF904200EFF0806E904200E0FFEF54B8FFEFF08061904200E0FFEF54F8FFEF4402FFEF54BFFF05
:4038C000904200EFF08049904200E0FFEF54F8FFEF4404FFEF54BFFF904200EFF08031904200E0FFEF54F8FFEF4405FFEF54BFFF904200EFF08019904200E0FFEF54F8FF72
:40390000EF4442FF904200EFF080057F00126ACA900530E0FFEFB40805126B8D8003126B99900531E0FF900532E0FEEEC39F5008900530E0FF12508D22900547E4F09060DA
:4039400004E0FFEF547FFF900545EFF0900545E0FF7E00EF24FFFFEE34FFFEEFC4F8540FC868FFEEC454F048FE900546EFF0900545E0FFEFD394005003023AA7900545E051
:40398000FFEFC394094003023AA7900545E0FFEF75F00BA4241AF582E43404F583E0FFEF54FEFFEFF0900545E0FFEF75F00BA4241BF582E43404F583E4F0900546E0FF7E7E
:4039C00000EF240CFFEE3460FE8F828E83E0FFEF547FFFEFF0900545E0FFEF75F00BA42419F582E43404F583E0FFEF54FDFFEFF0900545E0FFEF75F00BA4241CF582E434FC
:403A000004F583E0FFEF5480FF7E00EF4E6049900545E0FFEF75F00BA42419F582E43404F583E0FFEFB40118900546E0FF7E00EF240EFFEE3460FE8F828E83740CF0805F1D
:403A4000900546E0FF7E00EF240EFFEE3460FE8F828E83740DF08047900545E0FFEF75F00BA42419F582E43404F583E0FFEFB40118900546E0FF7E00EF240EFFEE3460FE9D
:403A80008F828E837408F08016900546E0FF7E00EF240EFFEE3460FE8F828E837409F01269E9900547EFF0900547E0FF22C0E0C0F0C083C082C085C084C086758600C0938D
:403AC000759300C0D075D000C000C001C002C003C004C005C006C007906028E0FF900538EFF0900538E0FFEF5410FF7E00EF4E7003023BFB9005397401F0900538E0FFEFF8
:403B00005480FF7E00EF4E6031900538E0FFEF540FFF7E00EF64014E6007900539E4F08046125857900414E0FFEF5480FF7E00EF4E6034900539E4F0802D900538E0FFEF37
:403B40005440FF7E00EF4E600512686C8019900538E0FFEF5420FF7E00EF4E600512673D8005900539E4F0900539E0FFEF7003023BFB906028E0FF900538EFF0900538E071
:403B8000FFEF5480FF7E00EF4E7070900417E0FF90040FE0FEEE4FFF900538EFF0900538E0FF906029EFF0906029E0FF900538E0FEEE6F7046900414E0FF900539EFF09098
:403BC0006028E0FFEF5480FF900538EFF0900538E0FFEF7018900414E0FF906028EFF0906028E0FFEF540FFF900539EFF0900414E0FF900539E0FEEEB507BAD007D006D046
:403C000005D004D003D002D001D000D0D0D093D086D084D085D082D083D0F0D0E03290FFFD121C8F851583851682A3A3E4F09004E2E0FF1264D9EF64016003023D729004DF
:403C4000E2E0FF124901851583851682EFF0851583851682E0FF7E0090FFFE121C8FEEF0A3EFF07B017A0479BC9004E2E0FF123637851583851682EFF0851583851682E097
:403C8000FFEFC394045003023D72851583851682A3E4F0851583851682E0FF851583851682A3E0FEEEC39F4003023D72851583851682A3E0FF74BC2FF582E43404F583E0E8
:403CC000FFEF7003023D72851583851682A3E0FF74BC2FF582E43404F583E0FFEF54F0FF7E00EF4E7018851583851682A3E0FF74BC2FF9E43404FA7B01122A0780378515FE
:403D000083851682A3E0FF74BC2FF582E43404F583E0FFEF54F0FF7E00EF64104E7016851583851682A3E0FF74BC2FF9E43404FA7B01122C2F851583851682A3E0FF74BD31
:403D40002FF9E43404FA7B01851583851682A3E0FF74BC2FF582E43404F583E0FFEF54F0FF125426851583851682A3E02404F0023C93900003121C8F22900500E0FF905A50
:403D800000EFF0900501E0FF905A02EFF0900502E0FF905A03EFF0900503E0FF905A04EFF0900504E0FF905A06EFF0900505E0FF905A08EFF0900506E0FF905A0AEFF090F0
:403DC0000507E0FF905A10EFF0900508E0FF905A12EFF0900509E0FF905A13EFF090050AE0FF905A14EFF090050BE0FF905A16EFF090050CE0FF905A18EFF090050DE0FFB4
:403E0000905A1AEFF090050EE0FF905A20EFF090050FE0FF905A22EFF0900510E0FF905A23EFF0900511E0FF905A24EFF0900512E0FF905A26EFF0900513E0FF905A28EFE7
:403E4000F0900514E0FF905A2AEFF0900515E0FF905A30EFF0900516E0FF905A32EFF0900517E0FF905A33EFF0900518E0FF905A34EFF0900519E0FF905A36EFF090051A85
:403E8000E0FF905A38EFF090051BE0FF905A3AEFF09004F8E0FFEFB4012190500BE0FFEF54F1FF9004F9E0FEEF4EFF90500BEFF09046E8E0FFEF4404FFEFF0900525E0FFA7
:403EC000EFB4010B904322E0FFEF4408FFEFF02290FFFC121C8F851583851682E4F0900001E0FF900003121CB3EFF0900202E0FF900002E0FEEEB5070E900003121CB3E0FC
:403F0000FFEF7003023FE1900002E0FF851583851682A3A3EFF0900202E0FF851583851682A3A3E0FEEEB5070E900003121CB3E0FFEF7003023FD2851583851682E0FFEFD5
:403F40006003023FD2851583851682A3A3E0FF74032FF582E43400F583E0FF851583851682A3EFF0851583851682A3A3E004F0851583851682A3A3E0FFEFC394FF400A855D
:403F80001583851682A3A3E4F0900003121CB3E0FFEF6014900001E4F0851583851682A3A3E0FF900002EFF07B017A04798C851583851682A3E0FF12001A85158385168226
:403FC000EFF0900001E0FF900003121CB3EFF0023F16851583851682A3A3E0FF900002EFF0851583851682E0FF900004121C8F2290FFFC121C8F851583851682E4F0900284
:4040000007E0FF900003121CB3EFF0900408E0FF900208E0FEEEB5070E900003121CB3E0FFEF7003024101900208E0FF851583851682A3A3EFF0900408E0FF851583851698
:4040400082A3A3E0FEEEB5070E900003121CB3E0FFEF70030240F2851583851682E0FFEF60030240F2851583851682A3A3E0FF74092FF582E43402F583E0FF8515838516AF
:4040800082A3EFF0851583851682A3A3E004F0851583851682A3A3E0FFEFC394FF400A851583851682A3A3E4F0900003121CB3E0FFEF6014900207E4F0851583851682A366
:4040C000A3E0FF900208EFF07B017A047994851583851682A3E0FF12001A851583851682EFF0900207E0FF900003121CB3EFF0024036851583851682A3A3E0FF900208EF92
:40410000F0851583851682E0FF900004121C8F2290FFFF121C8FEFF090FFFE121C8F900203E0FF851583851682EFF0900102E0FF851583851682A3EFF0851583851682A3F7
:40414000E0FF851583851682E0FEEEC39F502D851583851682A3E0FF7E00EF24FFFFEE34FFFE851583851682E0FD7C00EFB50508EEB504047F0180027F00801F8515838560
:404180001682A3E0FF851583851682E0FEC3EE9FFFEFB4FE047F0180027F00EF7080851583851682E0FF851583851682A3E0FEEEB5071A90646AE0FFEF20E2118515838500
:4041C0001682A3A3E0FF90644AEFF0804A851583851682E0FFEFC394FF4008851583851682E4F0851583851682A3A3E0FF851583851682E0FE74032EF582E43401F583EF54
:40420000F0851583851682E004F0851583851682E0FF900203EFF0900003121C8F2290FFFF121C8FEFF090FFFE121C8F900409E0FF851583851682EFF0900308E0FF851564
:4042400083851682A3EFF0851583851682A3E0FF851583851682E0FEEEC39F502D851583851682A3E0FF7E00EF24FFFFEE34FFFE851583851682E0FD7C00EFB50508EEB52A
:4042800004047F0180027F00801F851583851682A3E0FF851583851682E0FEC3EE9FFFEFB4FE047F0180027F00EF7080851583851682E0FF851583851682A3E0FEEEB50730
:4042C0001A906469E0FFEF20E211851583851682A3A3E0FF906549EFF0804A851583851682E0FFEFC394FF4008851583851682E4F0851583851682A3A3E0FF851583851655
:4043000082E0FE74092EF582E43403F583EFF0851583851682E004F0851583851682E0FF900409EFF0900003121C8F227B007A4079807D5F7C00126B5A9040827419F090B8
:4043400043007406F07B0C7A01790F126BD59046A1EFF09042007452F07B007A4279227D197C09126B5A7B007A4279207D517C12126B5A90052BE4F07F197E007D007C006C
:40438000900527121C33900527121C1BD3EF9400EE9400404E90052BE0FFEF64036044904225E0FFEF5401FF7E0090052BE0FEEE25E0FEEE4FFFEF5403FF90052BEFF07F17
:4043C000787E007D007C00126500900527121C1B7BFF7AFF79FF78FF121ABE900527121C3380A3900527121C1BEF4E70057F03126B077B007A4079047D007C01126B5A9076
:4044000040047407F0904006E4F09040087448F0904004E4F0904009E4F09040017402F09043A2E0FFEF4401FF9043A2EFF022126ADF90052DEFF09043A5E0FFEF4401FF90
:40444000EFF09043B5E0FFEF4401FFEFF090609D7401F09060097402F0906010E0FFEF547FFFEFF07F007E0012676C904394E0FFEF54F9FFEFF0906012E0FFEF54DFFFEFE1
:40448000F0904394E0FFEF4401FFEFF07F017E0012676C7F287E0012676C9051F8E0FFEF547FFFEFF09051F8E0FFEF54BFFFEFF0904394E0FFEF4402FFEFF07F027E00126D
:4044C000676C904394E0FFEF4404FFEFF0906084E4F0906085E4F090052DE0FF126A1C7C607D7F7F171259EC7D077F17125F737C6C7D597F151259EC7D077F15125F737CE0
:404500003A7DAD7F181259EC7D077F18125F737C5D7D1A7F051259EC7D077F05125F737C5D7D817F061259EC7D077F06125F7322900547E4F0906004E0FFEF547FFF900558
:4045400045EFF0900545E0FF7E00EF24FFFFEE34FFFEEFC4F8540FC868FFEEC454F048FE900546EFF0900545E0FFEFD394005003024621900545E0FFEFC39409400302461F
:4045800021900545E0FFEF75F00BA4241AF582E43404F583E0FFEF4401FFEFF0900545E0FFEF75F00BA4241BF582E43404F583E4F0900545E0FFEF75F00BA42419F582E4B6
:4045C0003404F583E0FFEF4402FFEFF0900545E0FFEF75F00BA4241CF582E43404F583E0FFEF5480FF7E00EF4E6018900546E0FF7E00EF240EFFEE3460FE8F828E83748D43
:40460000F08016900546E0FF7E00EF240EFFEE3460FE8F828E837489F01269E9900547EFF0900547E0FF22C0E0C0F0C083C082C085C084C086758600C093759300C0D07512
:40464000D000C000C001C002C003C004C005C006C00790054FE4F07F0112670EA2AFE433FF900550EFF0D2AF9044F474FDF0906468E0FF90054EEFF090054EE0FFEF30E5F7
:4046800068906548E0FF900202E0FE74032EF582E43400F583EFF090054F7401F090054FE0FFEF6038900001E0FFEF60069002057401F0900202E004F0900202E0FFEFC398
:4046C00094FF4005900202E4F0900002E0FF900202E0FEEEB507069000017401F0906468E0FF90054EEFF0808F7F0012670E900550E0FFEF24FF92AFD007D006D005D00472
:40470000D003D002D001D000D0D0D093D086D084D085D082D083D0F0D0E032C0E0C0F0C083C082C085C084C086758600C093759300C0D075D000C000C001C002C003C00451
:40474000C005C006C007900555E4F07F0112667EA2AFE433FF900556EFF0D2AF9044F474FDF0906569E0FF900554EFF0900554E0FFEF30E56890654AE0FF900408E0FE7493
:40478000092EF582E43402F583EFF09005557401F0900555E0FFEF6038900207E0FFEF600690040B7401F0900408E004F0900408E0FFEFC394FF4005900408E4F0900208EB
:4047C000E0FF900408E0FEEEB507069002077401F0906569E0FF900554EFF0808F7F0012667E900556E0FFEF24FF92AFD007D006D005D004D003D002D001D000D0D0D0936D
:40480000D086D084D085D082D083D0F0D0E032900545121C54900549E4F07B007A007900C003C002C001900545121C4BD082D083D0E06B7008E965827003EA65837003025B
:404840004900900545121C4B7422121A77900545121C4BE92401F9EA3400FA7403121A779005487402F0900548E0FFEFC394224003024900900549E0FFE4FCFDFEEF240037
:40488000FFEE3401FEED340CFDEC3400FCA907AA06AB05126BD590054AEFF0900549E004F090054AE0FFEFC4540FFFEF906E5B93FF900545121C4B900548E0FEE92EF9E411
:4048C0003AFAEF121A7790054AE0FFEF540FFFEF906E5B93FF900548E0FEEEFD7C00ED2402FDEC3400FC900545121C4BE92DF9EA3CFAEF121A77900548E02404F002486622
:404900002290FFFF121C8FEFF090FFFD121C8F851583851682A3E4F0A3E4F0900003121CB3E0FFEFD3940050030249DC900003121CB3E0FFEFC3940940030249DC900003F8
:40494000121CB3E0FF7E00EF24FFFFEE34FFFEEFC4F8540FC868FFEEC454F048FE851583851682EFF0851583851682E0FF7E00EF240CFFEE3460FE8F828E83E0FFEF540FAF
:40498000FF7E00851583851682A3EEF0A3EFF0851583851682E0FF7E00EF240DFFEE3460FE8F828E83E0FFEFFD7C00851583851682A3E0FEA3E0FFEF7F00FEEE4CFEEF4D81
:4049C000FF851583851682A3EEF0A3EFF0851583851682A374FF75F0FE121A89851583851682A3E0FEA3E0FF900004121C8F2275930078007583467582E8E04401F0009021
:404A000046ECE0F99046FAE0FAB903225420B40012B8001AEA901FFFF07401901FFEF09046F6F0901FFEE06005901FFFE0FA9048007440F075811690000078007920E4F00A
:404A4000A3D8FCD9FAEA900585F002001175151F7516FD12259F024A94023290E493A3F8E493A34003F68001F208DFF48029E493A3F85407240CC8C333C4540F4420C883AD
:404A80004004F456800146F6DFE4800B0102040810204080905968E47E019360BCA3FF543F30E509541FFEE493A360010ECF54C025E060A840B8E493A3FAE493A3F8E49329
:404AC000A3C8C582C8CAC583CAF0A3C8C582C8CAC583CADFE9DEE780BE90FFFE121C8F851583851682E4F0851583851682A3E4F09004DCE0FFEFD3941C503E123ED085153D
:404B000083851682EFF0851583851682E0FFEF602890FFFF121C8FE4F090048EE0FF90FFFF121C8FEFF07B017A047990851583851682A3A3E0FF12125E9004DCE0FFEFD327
:404B4000941C503F123FF0851583851682A3EFF0851583851682A3E0FFEF602790FFFF121C8F7410F0900496E0FF90FFFF121C8FEFF07B017A047998900003121CB3E0FF77
:404B800012125E9004DCE0FFEFD3941C501D851583851682E0FFEF6003024AF0851583851682A3E0FFEF6003024AF0126467900002121C8F2290FFFB121C8F900413E0FF39
:404BC000EF14FF124E2C851583851682EEF0A3EFF0851583851682E0FEA3E0FFEF4E7003024C69851583851682E0FEA3E0FF8F828E83A3121C5DE92404F9EA3400FA121A54
:404C00003CFF900004121CB3EFF0900004121CB3E0FF7E00EF2402FFEE3400FEEF7802C333CE33CED8F9FF851583851682E0FCA3E0FDEF2DFFEE3CFE851583851682EEF0F0
:404C4000A3EFF0851583851682E0FEA3E0FF8F828E83A3121C5DAE02AF01851583851682A3A3EEF0A3EFF0800D851583851682A3A3E4F0A3E4F0851583851682A3A3E0FED2
:404C8000A3E0FF900005121C8F22900530EFF0900531E4F0900530E0FF900532EFF0904210E0FFEF4401FFEFF0900530E0FFEFD394005003024D58904300E0FF900534EF45
:404CC000F0904380E0FF900535EFF0904382E0FF900536EFF07F18125AE39005317410F0900532E0FFEFD394004047904210E0FF9005337404F0900533E0FFEFD39400403A
:404D0000137F01125C407E00EF30E0F5900533E014F080E2904210E0FFEF5480FF7E00EF4E7007900531E4F08008900532E014F080AE900534E0FFEF5404FF7E00EF4E70E9
:404D400003126BBD900535E0FF904380EFF0900536E0FF904382EFF0900531E0FF22126ADF90052BEFF0906008E0FFEF5480FF7E00EF4E7003024E0290059A7401F09060DF
:404D800010E0FFEF547FFFEFF07F007E0012676C904394E0FFEF54F9FFEFF0906008E0FFEF547FFFEFF07F007E0012676C906009E0FFEF5401FF90059BEFF0906009E0FFC7
:404DC000EF54FEFFEFF07F017E0012676C904394E0FFEF54FEFFEFF0906012E0FFEF4420FFEFF09043A5E0FFEF54FEFFEFF09043B5E0FFEF54FEFFEFF07F017E0012676C5B
:404E0000800590059AE4F090052BE0FF126A1C7C667D4B7F0C1259EC7D077F0C125F739044D97410F09044C17410F02290FFFF121C8FEFF090FFFE121C8F900411E0FFEF01
:404E400025E025E024D9F582E4346DF583121C5DAE02AF01851583851682EEF0A3EFF0851583851682E0FEA3E0FFEF2404FFEE3400FE851583851682EEF0A3EFF0851583AB
:404E8000851682E0FEA3E0FF8F828E83E493FF851583851682A3A3E0FEEEC39F400D851583851682E4F0A3E4F0803B851583851682E0FEA3E0FF8F828E83C083C0828515C7
:404EC00083851682A3A3E0FFD082D08375F004EF121C3FA3121C5DAE02AF01851583851682EEF0A3EFF0851583851682E0FEA3E0FF900003121C8F22900547E4F090048685
:404F0000E0FF7E00900415EE8FF0121A8990047DE0FEA3E0FFD3EF9400EE94004053900547E0FFEFC39408504890047F121C4B121A3CFF900547E0FEEEFD7C00ED2400FDAA
:404F4000EC3460FC8D828C83EFF090047F121C4BE92401F9EA3400FA90047F121C54900547E004F090047D74FF75F0FF121A89809C900486E0FFEF6408600B900547E0FF95
:404F8000EFD39400401C90040FE0FFEF6480FF90040FEFF0900414740FF09004107402F0800C9004147402F09004107402F0900547E0FF900486EFF0900547E0FF90041786
:404FC000EFF022900530EEF0A3EFF0126ADF900535EFF0904007E0FF7E00EF7F00FE900533EEF0A3EFF0900533E0FEA3E0FF904006E0FD7C00EE4CFEEF4DFF900533EEF04F
:40500000A3EFF0900530E0FEA3E0FFEF4E600C900533E0FEA3E0FFEF4E705E904004E0FF900532EFF0900532E0FFEFC3940750057F07126B3B900530E0FEA3E0FFEF4E703C
:4050400018904008E0FFEF4440FFEFF0900530E0FEA3E0FF1260D08016900530E0FEA3E0FF1260D0904008E0FFEF54BFFFEFF0900532E0FF126B3B800B900530E0FEA3E006
:40508000FF1260D0900535E0FF126A1C22900533EFF0126171900534EFF0900534E0FFEFB4010B906009E0FFEF54FDFFEFF0900533E0FFEF121C6950D00050DF0150EE020F
:4050C00050FD03510C04511B05512A080000514D7B0C7A017908126BD59046A1EFF0227B0C7A017909126BD59046A1EFF0227B0C7A01790A126BD59046A1EFF0227B0C7A82
:4051000001790B126BD59046A1EFF0227B0C7A017989126BD59046A1EFF0227B0C7A01790C126BD59046A1EFF0227B0C7A01790F126BD59046A1EFF0900534E0FFEFB40183
:4051400011906009E0FFEF4402FFEFF0227F00126ACA22900547E4F0906000E0FF900548EFF0900548E0FFEF5480FF7E00EF64804E704A900548E0FFEF5403FF7E00EF6446
:40518000024E7014906001E0FFEF121C6952128100005212807C807A900548E0FFEF5403FF7E00EF64014E7069906001E0FFEF121C69521281000052128057805590054864
:4051C000E0FFEF5480FF7E00EF4E7046900548E0FFEF5403FF7E00EF64024E7014906001E0FFEF121C695212010000521280238021900548E0FFEF5403FF7E00EF64014E73
:405200007010906001E0FFEF121C6952120100005212900547E0FF22126ADF90052BEFF090059AE0FFEF70030252C49044C97410F09043A5E0FFEF4401FFEFF09043B5E08E
:40524000FFEF4401FFEFF090609DE0FFEF4401FFEFF0904394E0FFEF4401FFEFF07F287E0012676C906009C083C082E0FF90059BE0FEEF4EFFD082D083EFF07F007E001203
:40528000676C904394E0FFEF4402FFEFF07F027E0012676C904394E0FFEF4404FFEFF09060287403F0906008E0FFEF4480FFEFF07F017E007D007C001265009060127404B4
:4052C000F0126B7590052BE0FF126A1C2290053BE4F0906029E0FFEF540FFFEF24FEFF90053AEFF090053AE0FF7E00900415EE8FF0121A8990047DE0FEA3E0FFD3EF94000A
:40530000EE9400405790053AE0FFEFD39400404C90053BE0FF7E00EF2400FFEE3460FE8F828E83E0FF90047F121C4BEF121A7790047F121C4BE92401F9EA3400FA90047F28
:40534000121C5490053BE004F090053AE014F090047D74FF75F0FF121A89809890053AE0FF900417EFF090040FE0FFEF6480FF90040FEFF0900414740BF02290FFFF121C9C
:405380008FEFF090FFFF121C8F851583851682A3E0FFEFD39400500302541F851583851682A3E0FFEFC394095075851583851682A3E0FF7E00EF24FFFFEE34FFFEEFC4F875
:4053C000540FC868FFEEC454F048FE851583851682EFF0851583851682A3E0FFEF75F00BA42419F582E43404F583E4F0851583851682A3E0FFEF75F00BA4241DF582E4345C
:4054000004F583E0FF851583851682E0FEEEFD7C00ED240EFDEC3460FC8D828C83EFF0900002121C8F2290FFFD121C8F121C5490FFFF121C8FEFF09004DDE0FFEF5401FF04
:405440007E00EF4E706290058DE0FFEF5401FF7E00EF4E6053851583851682A3121C4B121A3CFFEF64097040851583851682A3121C4BE92401F9EA3400FA121A3CFFEFB4A5
:4054800001077F00126258801F851583851682A3121C4BE92401F9EA3400FA121A3CFFEFB402057F011262589004DDE0FF90058DEFF0851583851682E0FF85158385168284
:4054C000EFF0900004121C8F229005457401F0906004E0FF900546EFF0900413E0FFEF14FF124E2C900547EEF0A3EFF0900547E0FEA3E0FF8F828E83A3121C5DE92404F9A8
:40550000EA3400FA121A3CFF900549EFF0900549E0FF900546E0FEEEC39F500B900546E0FFEFC394024007900545E4F08038900546E0FF747B2FF582E43404F583E0FF900D
:405540000546E0FE748A2EF582E43404F583EFF0906002E0FF900546E0FE747B2EF582E43404F583EFF0900545E0FF22900530EFF0900531E4F0904220E0FFEF4401FFEF4F
:40558000F0900530E0FFEF607A904300E0FFEF5404FF900532EFF0904380E0FF900533EFF0904382E0FF900534EFF07F18125AE39005317410F07F01125C407E00EF20E080
:4055C00023904225E0FFEF5401FF7E00EF4E60E6904225E0FFEF5401FF7E00EF4E60D7900531E4F0900532E0FFEF7003126BBD900533E0FF904380EFF0900534E0FF904333
:4056000082EFF0900531E0FF2290052DEFF090052EEDF09044C27480F09044C37401F09044C07420F09044C07440F0900410E4F090052EE0FFEF121C69564300564B010060
:405640000056539060097402F0800E9060097403F080069060097403F090052DE0FF900411EFF0900413E4F0900485E4F0900489E4F090040CE4F0900412E4F0900486E4E4
:40568000F09060287403F09060087480F07F017E007D007C001265009060127404F022C0E0C083C082C085C084C086758600C093759300C0D075D000C006C007A2AFE43391
:4056C000FF900553EFF0D2AF9044F474FDF0900203E0FF900102E0FEEE6F603790646AE0FFEF20E22E900102E0FFEFC394FF4005900102E4F0900102E0FF74032FF582E42F
:405700003401F583E0FF90644AEFF0900102E004F080BB900553E0FFEF24FF92AFD007D006D0D0D093D086D084D085D082D083D0E032C0E0C083C082C085C084C0867586DF
:4057400000C093759300C0D075D000C006C007A2AFE433FF900559EFF0D2AF9044F474FDF0900409E0FF900308E0FEEE6F6037906469E0FFEF20E22E900308E0FFEFC3948A
:40578000FF4005900308E4F0900308E0FF74092FF582E43403F583E0FF906549EFF0900308E004F080BB900559E0FFEF24FF92AFD007D006D0D0D093D086D084D085D0823F
:4057C000D083D0E032900531EFF0904308E0FFEF5402FF7E00EF4E60047F0180027F00900532EFF090430A74F3F0900531E0FFEF640170339046987401F07F0A7E00126768
:405800006C904309E0FFEF54F3FFEF4408FF904309EFF07F147E0012676C904308E0FFEF4402FFEFF0802A9046987406F07F0A7E0012676C904309E0FFEF54F3FFEF4404BF
:40584000FF904309EFF0904308E0FFEF54FDFFEFF0900532E0FF22906028E0FF90053AEFF090053AE0FF906028EFF0906028E0FF90053AEFF090053AE0FFEF5480FF7E00F1
:40588000EF4E600B90053AE0FF900414EFF0227F02125EB2906000E0FFEF5460FFEF121C6958AE0058B82058C240000058CC120D6C90053AEFF080191258E090053AEFF0D1
:4058C000800F12612190053AEFF0800590053AE4F090053AE0FFEF70069004147403F022900545E4F0900546E4F0906000E0FFEF5403FFEF121C69590101590D0200005958
:405900002B906004E0FF900546EFF0801E906004E0FFEF547FFFEF75F00BA42422F582E43404F583E0FF900546EFF0900546E0FF900487E0FCA3E0FD8D828C83E5822FF5B6
:4059400082E43583F583E493FFEF121C69595A0159620259620300005962125153900545EFF0900545E0FF2241058A0041058E0041058B0041058C0041058D00430594006B
:40598000000043059700000041059E0041059F004102040041010200410203004100020041020200410001004102050041040A0041030800410409004102080041040800DB
:4059C0004102070041040B0043058F0000004405810393870044057C0000EA604105803C440586753000004105A0000090052EEFF090052FECF0A3EDF090052EE0FFEFD3BE
:405A0000941F5003D38001C340057F00126ACA90052EE0FFEF541FFF7E00EF25E0FFEE33FEEF2400FFEE3444FEAA06A9077B01126B4D900531EEF0A3EFF090052EE0FF7E4A
:405A400002EF8EF0A4FFAEF0EF2400FFEE3444FEAA06A9077B0190052FE0FEA3E0FFAD07AC06126B5C900531E0FEA3E0FF2290052FEFF0904382E0FFEF54F7FFEFF0126B0D
:405A8000A5904382E0FFEF5404FF7E00EF4E602F90052FE0FF904381E0FEEE6F6044904382E0FFEF54FBFFEFF090052FE0FF904381EFF0904382E0FFEF4404FFEFF0229086
:405AC000052FE0FF904381E0FEEE6F600A90052FE0FF904381EFF0904382E0FFEF4404FFEFF022900537EFF0904382E0FFEF54FDFFEFF0126BB1904382E0FFEF5401FF7E39
:405B000000EF4E602F900537E0FF904380E0FEEE6F6044904382E0FFEF54FEFFEFF0900537E0FF904380EFF0904382E0FFEF4401FFEFF022900537E0FF904380E0FEEE6FEB
:405B4000600A900537E0FF904380EFF0904382E0FFEF4401FFEFF022900530EFF09043A0E0FFEF4410FFEFF09043B0E0FFEF4410FFEFF0900530E0FFEF6051904300E0FFE6
:405B8000EF5404FF900533EFF0904380E0FF900532EFF0904382E0FF900531EFF07F00125AE37F01125C407E00EF30E0F5900533E0FFEF7003126BBD900532E0FF9043809D
:405BC000EFF0900531E0FF904382EFF02290430A74F3F09046987403F0904309E0FFEF54F3FFEF4404FF904309EFF0904308E0FFEF4404FFEFF0904308E0FFEF4401FFEF36
:405C0000F090052F7403F0A374E8F090052FE0FEA3E0FFD3EF9400EE94004023126BED7E00EF30E5067F001257C5227F017E0012676C90052F74FF75F0FF121A8980CC2299
:405C400090FFFF121C8FEFF090FFFE121C8F126ADF851583851682EFF09004E3E0FF904390E0FEEF4EFF9004E3EFF09004E3E0FF851583851682A3EFF09004E3E0FF851511
:405C800083851682A3A3E0FEEEF4FEEF5EFF9004E3EFF0851583851682E0FF126A1C851583851682A3E0FF900003121C8F2290047DE0FEA3E0FFEF4E700512695980589060
:405CC00004107402F090040FE4F01261C0906007E0FF7E00EF7F00FE906006E0FD7C00EE4CFEEF4DFF900545EEF0A3EFF0900545E0FEA3E0FF90047DE0FCA3E0FDD3ED9FBE
:405D0000EC9E4010900545E0FEA3E0FF90047DEEF0A3EFF0124EF87F0122C0E0C083C082C085C084C086758600C093759300C0D075D000C006C00790600EE0FF900423E0C4
:405D4000FFEF5403FF7E00EF64014E600E900426E0FFEF6480FF900426EFF09004247401F090600BE0FFEF54FEFFEFF0D007D006D0D0D093D086D084D085D082D083D0E033
:405D800032C0E0C083C082C085C084C086758600C093759300C0D075D000C006C00790601EE0FF90042EE0FFEF5403FF7E00EF64014E600E900431E0FFEF6480FF90043169
:405DC000EFF090042F7401F090600BE0FFEF54FDFFEFF0D007D006D0D0D093D086D084D085D082D083D0E032900530EFF0126ADF900531EFF0900530E0FFEFD39416501456
:405E0000904800E0FFEF543FFFEF4440FF904800EFF08031900530E0FFEFD3942C5014904800E0FFEF543FFFEF4480FF904800EFF08012904800E0FFEF543FFFEF44C0FF69
:405E4000904800EFF0900531E0FF126A1C22C0E0C0F0C083C082C085C084C086758600C093759300C0D075D000C000C001C002C003C004C005C006C007126844EF6007907D
:405E8000058AE4F0800690058AE004F0126C46D007D006D005D004D003D002D001D000D0D0D093D086D084D085D082D083D0F0D0E03290053BEFF07B007A007900C003C0BD
:405EC00002C001900482121C4BD082D083D0E06B7008E965827003EA6583603790053BE0FF900482121C4BEF121A77900415E0FEA3E0FF900482121C4BE92401F9EA3400DF
:405F0000FAEE8FF0121A9F7B007A007900900482121C542290048CE4F090048DE4F090048EE4F090048FE4F09004DFE4F09004DDE4F0126AA07D047F02125F737D027F01A4
:405F4000125F73900494E4F0900495E4F0900496E4F0900497E4F09004E0E4F09004DEE4F0126AB57D047F04125F737D027F03125F732290052EEFF090052FEDF090052F92
:405F8000E0FFEFD394075003D38001C340057F00126ACA90052EE0FFEFD3941F5003D38001C340057F00126ACA90052FE0FFEF5407FF7E00EF75F020A4FFAEF090052EE0E4
:405FC000FEEE541FFE74802EF582E43444F583EFF022900530EFF0900530E0FFEF121C69601B006004015FED0200006027904000E0FFEF54BFFFEFF0904200E0FFEF4420C0
:40600000FFEFF022904000E0FFEF4440FFEFF0904200E0FFEF4420FFEFF022904200E0FFEF54DFFFEFF0227F00126ACA22904300E0FFEF5402FF7E00EF4E7027126ADF906F
:40604000052BEFF0904300E0FFEF4402FFEFF0904382E0FFEF4404FFEFF090052BE0FF126A1C22126ADF90052BEFF0904382E0FFEF4404FFEFF090052BE0FF126A1C22C04E
:40608000E0C0F0C083C082C085C084C086758600C093759300C0D075D000C000C001C002C003C004C005C006C0071266AFD007D006D005D004D003D002D001D000D0D0D082
:4060C00093D086D084D085D082D083D0F0D0E032900536EEF0A3EFF0904014E0FFEF54F0FFEFF0904010E4F0904008E0FFEF4480FFEFF0900536E0FEA3E0FFEF54FFFF90D0
:406100004002EFF0900536E0FEA3E0FFEEFF7E00904003EFF0904001E0FFEF4401FFEFF02290053BE4F0906000E0FFEF5480FF7E00EF64804E7034906001E0FFEF121C6944
:406140006147010000616B7BFF7A6D79EE90047F121C54906DEEE493FF7E0090047DEEF0A3EFF0125CAE90053BEFF090053BE0FF22900535E4F0904393E0FFEF5407FF7EB7
:4061800000EF4E700F9043A5E0FFEF5401FF7E00EF4E7020904393E0FFEF5407FF7E00EF64014E70159043B5E0FFEF5401FF7E00EF4E60069005357401F0900535E0FF2246
:4061C000900415E4F0A3E4F07B007A007900C003C002C001900482121C4BD082D083D0E06B7008E965827003EA6583601F900482121C4BE4121A77900482121C4BE92401E9
:40620000F9EA3400FAE475F000121A9F2290FFFF121C8FEFF090FFFF121C8F905110E0FFEF547FFF851583851682EFF0851583851682A3E0FFEFC43333335480FFEF54805A
:40624000FF851583851682E0FEEF4EFF905110EFF0900002121C8F2290FFFF121C8FEFF090FFFF121C8F905150E0FFEF54BFFF851583851682EFF0851583851682A3E0FF2F
:40628000EFC4333354C0FFEF5440FF851583851682E0FEEF4EFF905150EFF0900002121C8F2290FFFF121C8FEFF090FFFF121C8F905110E0FFEF54DFFF851583851682EFCC
:4062C000F0851583851682A3E0FFEFC43354E0FFEF5420FF851583851682E0FEEF4EFF905110EFF0900002121C8F22126ADF90052BEFF0906598E0FFEF4401FFEFF0906575
:4063000098E0FFEF54FEFFEFF090052BE0FF126A1C126C15900002E4F0900202E4F0900001E4F0900205E4F0126C0E22126ADF90052BEFF090659AE0FFEF4401FFEFF090A7
:40634000659AE0FFEF54FEFFEFF090052BE0FF126A1C126C31900208E4F0900408E4F0900207E4F090040BE4F0126C2A227C467D277F011259EC7D077F01125F7390658810
:406380007471F09064887420F07C567D9F7F021259EC7D077F02125F739064297407F09064397448F090648A7402F0227C477D1B7F031259EC7D077F03125F7390658A74E1
:4063C00071F09065897420F07C577D327F041259EC7D077F04125F739064287407F09064387448F09064897402F022126ADF90052BEFF0906598E0FFEF4420FFEFF0906404
:4064000098E0FFEF4410FFEFF09044C07402F090649AE0FFEF4410FFEFF09044C07404F090052BE0FF126A1C22126ADF90052BEFF090659AE0FFEF4420FFEFF0906599E0E0
:40644000FFEF4410FFEFF09044C07408F0906499E0FFEF4410FFEFF09044C07410F090052BE0FF126A1C229004DCE0FFEF60319004E1E0FF1264D9EFB401259004DCE0FF84
:406480007E0090FFFE121C8FEEF0A3EFF07B017A04799C9004E1E0FF1227D89004DCE4F022126ADF90052BEFF0906598E0FFEF54DFFFEFF0906498E0FFEF54EFFFEFF012E7
:4064C0006C1590649AE0FFEF54EFFFEFF0126C2390052BE0FF126A1C2290FFFF121C8FEFF0851583851682E0FFEF75F00BA42419F582E43404F583E0FF900001121C8F22C7
:40650000EC4D4E700D78FCEF24E950032840FD2200007BF178DA0000EF28FF78FFEE38FEED38FDEC38FC50E7EF2BFFEE38FEED38FDEC38FC40F22205020304126ADF900554
:406540002BEFF090659AE0FFEF54DFFFEFF0906599E0FFEF54EFFFEFF0126C31906499E0FFEF54EFFFEFF0126C3F90052BE0FF126A1C22126ADF90052BEFF090649AE0FF7E
:40658000EF4401FFEFF090649AE0FFEF54FEFFEFF090052BE0FF126A1C126C23900102E4F0900203E4F0126C1C22126ADF90052BEFF0906599E0FFEF4401FFEFF0906599D2
:4065C000E0FFEF54FEFFEFF090052BE0FF126A1C126C3F900308E4F0900409E4F0126C38227B0C7A0179CF126BD5900527EFF0900527E0FFEF5407FF90586EEFF0900527E5
:40660000E0FFEFC4540FFFEF540FFF90586FEFF09058767444F022758600EF4E6027EF60010E75930090052CE0F595A3E0F585A3E0F5848B938A838982E0A30586F0A31582
:4066400086DFF6DEF4E4F593F59522C0E0C083C082C085C084C086758600C093759300C0D075D000C00790458FE0FFD007D0D0D093D086D084D085D082D083D0E0329005B7
:4066800057EFF0905110E0FFEF54BFFF900558EFF0900557E0FFEFC4333354C0FFEF5440FF900558E0FEEF4EFF905110EFF022900410E4F0900413E4F0900485E4F0900421
:4066C00089E4F090040CE4F0900412E4F0900486E4F09060287403F09060087480F02290052BEFF0904382E0FFEF5404FF7E00EF4E701A90052BE0FFEF540FFF904381E062
:40670000FEEE54F0FEEE4FFF904381EFF022900551EFF0905110E0FFEF54EFFF900552EFF0900551E0FFEFC454F0FFEF5410FF900552E0FEEF4EFF905110EFF0229004106A
:40674000E0FFEF121C69676900675602675A04675E06000067691268F9221252CD227F03125EB29004147403F0222222EEFA900580E0F88FF0A4FFAEF0E88AF0A42EFEE518
:40678000F03400FDEF24C9FF78FFEE38FEED38FDE438FC500302650022ACEAADA08B938A838982E0F96017A3E0F5EAA3E0F5A0A3E060F4FAA3E0F8A3E0F2DAF8D9E98DA0C7
:4067C0008CEAE4F5932290040CE0FFEF601390040CE0FFEF4480FF906008EFF090040CE4F0900410E4F07F01125EB29004147403F02290052BEFF090052CEDF090059FE09C
:40680000FFEF700912442F90059F7401F090052BE0FF90052CE0FD12560922904308E0FFEF5401FF7E00EF4E7003125BCD904382E0FFEF54DFFFEFF0904382E0FFEF4410F3
:40684000FFEFF022906009E0FF900526EFF0900526E0FFEF54FBFF906009EFF0900526E0FFEF5404FFEF1313543FFF22900410E0FFEF121C69689000688502688904688D74
:406880000600006890126C5222126B2A221267C622906498E0FFEF5410FF7E00EF4E60089005947401F08005900594E4F01264A112676A22906599E0FFEF5410FF7E00EF86
:4068C0004E60089005977401F08005900597E4F012653B126C562290052BE4F0900489E0FFEF600F900489E0FF90052BEFF0900489E4F090052BE0FF22900486E0FF7E0072
:40690000900415EE8FF0121A89900410E4F07F01125EB29004147403F022900530EFF0900530E0FFEF5403FF904005E0FEEE54FCFEEE4FFF904005EFF02290052BEEF0A372
:40694000EFF0126C0790052BE0FEA3E0FF1269787F07126A4B126C00229004107402F090040F7480F0900414740FF0900486E4F0900417E4F07F012290052DEEF0A3EFF0D6
:406980007B027A44790090052DE0FEA3E0FFAD07AC06126B5C22126ADF90052BEFF0904382E0FFEF54FBFFEFF090052BE0FF126A1C22126ADF90052BEFF0904382E0FFEFE0
:4069C0004408FFEFF090052BE0FF126A1C22900411E0FFEF25E025E024D9F582E4346DF583121C5DAE02AF01229004107406F09004147406F090040F7480F0900417E4F0F3
:406A00007F0122EC4D6011ED60010C8B938A838982E4F0A3DDFCDCFA75930022EF54016004D2AF8002C2AFEF5402FF9044F4E054FD4FF0229043A0E0FFEF54EFFFEFF0907E
:406A400043B0E0FFEF54EFFFEFF02290052DEFF090052DE0FFEFC43354E0FF904480EFF02212676B1262EB126573900594E0FFEF60031263EB22126C5712632C1265AA9032
:406A80000597E0FFEF60031264292290059EE0FFEF7009126BF790059E7401F012602D22900204E0FFEF700912636D9002047401F01263EB2290040AE0FFEF70091263ACBF
:406AC00090040A7401F01264292290FFFF121C8FEFF09046EA7401F0900001121C8F229044F4E0F84402F0E85402FF10AF012274014FFF22905101E0FFEF5402FF7E00EEC8
:406B0000C313FEEF13FF2290052CEFF090052CE0FF90052CEFF080FE229004DCE4F09004E2E0FF12537B125F1422900410E4F07F01125EB29004147403F022900536EFF0C9
:406B4000900536E0FF904004EFF0228B938A838982E0FFA3E0FE759300228B938A838982EDF0A3ECF075930022905101E0FFEF5401FF7E0022900413E0FFEF600312234C1D
:406B800022904220E0FFEF54FEFFEFF022904200E0FFEF4410FFEFF022904200E0FFEF54EFFFEFF022904300E0FFEF4402FFEFF022904300E0FFEF4404FFEFF02290430027
:406BC000E0FFEF54FBFFEFF022904210E0FFEF54FEFFEFF0228B938A838982E0759300FF228B938A838982EDF075930022904308E0FFEF5420FF227F021266DF1269B22295
:406C00009044C07401F0229044C87401F0229044C07402F0229044C87402F0229044C07404F0229044C87404F0229044C07408F0229044C87408F0229044C07410F022908C
:406C400044C87410F0227F02125C4022900413E0FF22124EF822222232321201000200000008B40432D2000001028001090285000201028032090400000001010006092471
:406C800001000109000101090401000201030005072401000143000624020101030624020202030924030103010201040924030204010101040624020105070624020206F4
:406CC0000709240301070106010409240302080105010809058102200000000006250102030709050202200000000006250102010504030904100343007900700072006587
:406D00000073007300120355005300420020004D0049004400490010034D00490044004900200049004E0012034D0049004400490020004F005500540028034D00490044E9
:406D40000049002000530074007200650061006D0069006E006700200049006E00740066001E034D00490044004900200049006E0074006500720066006100630065001446
:406D8000034D00490044004900200049004E002000320016034D0049004400490020004F0055005400200032000002030100810200200101000202002001010101FF6C6C54
:406DC00002FF6DAC000000000000000000FF6DBA01FF6C5A01FF6DBC01FF6DD012034D00530046005400310030003000010028000000000104000100000000000000000117
:406E000043595553420000003030303031000000000000000000005120003000516000100051C0001001000010000114000600011A8001800140000A00014C000200015025
:406E4000000020011A0008054400800303020303010203030303030202030130313233343536373839414243444546F07E7F06027DB40432D2010000000C061803303E4A28
:406E800002010300040506000000000000000000000000000000000000000000000000000000000000000000000000000000000000000000000000000000000000000000BD
:406EC0000000000000000000000000000000000000000000000000000000000000000000000000000000000000000000000000000000000000000000000000000000000092
:406F00000000000000000000000000000000000000000000000000000000000000000000000000000000000000000000000000000000000000000000000000000000000051
:406F40000000000000000000000000000000000000000000000000000000000000000000000000000000000000000000000000000000000000000000000000000000000011
:406F800000000000000000000000000000000000000000000000000000000000000000000000000000000000000000000000000000000000000000000000000000000000D1
:0200000480007A
:400000001C0045017E020052040403280229087C400064038838890F8A0F006503887189388A71010101E608010501E20401086300A70101021804180AA30C240E40160487
:40004000189C1A22201024BF28082C3C2E8130383240341F350136983A223F10400146054701481449FF4A074BFF4C404D204EF04F05500854185604580459045A045B0428
:400080005F01604061A86240632080678208846785018618870A89048C328D018E018F06910C930199109E5DA30FA480A806AA09B001B107B260B310B41EB680B70EB8082D
:4000C000BA20BB82BE05BF04C003C501C650C809C9FFCA07CBFFCC40CD20CEF0CF05D008D401D604D804D904DA04DB04DF01E040E1A8E240E32001094D0006020205950857
:40010000400A010E281020120814201604174118041A411B081C801D011E281F602002214822022704284030203202380439A03F0143084580482051105480554057045825
:40014000015A845B105F02602063A0668267088A808B2090409208930994049520964297209B029C509D909E229F44A004A180A208A310A441A548A602A724AA08AB10B284
:4001800001C0FDC261C4F6CA01CC05CE8ED012D68FD8B1010A4A01140510070C0B100C9C0E220F0310301160124C141417401809191C1AF01B021D0C1E031F112109231063
:4001C000242C256026D129802C802D202E1030E0311F33803580361F376039803A223F504023410545E047BC483249FF4AFF4BFF4EF04F44500C54015604580459045A04E2
:400200005B045F0166C06A406B0289038D039B019F03A601A703AA01AD01B201B302B701B908BE04D804D904DF01010B39004008010A090B20101011801620172018401A26
:40024000011B111F042008218022042340272228502B052D802F2030213140320535103740380439203B423C803F2040044108480149414B015208530159015A405B1463ED
